:020000040000FA
:10000000580A0020D5000000EF000000F1000000B9
:1000100000000000000000000000000000000000E0
:10002000000000000000000000000000F3000000DD
:100030000000000000000000F5000000F7000000D4
:10004000F9000000F9000000F5010000F9000000CF
:10005000F900000000000000F9000000F9000000B5
:10006000F9000000F9000000F9000000F9000000AC
:10007000F9000000F9000000F9000000F90000009C
:10008000F9000000F9000000F9000000F90000008C
:10009000F9000000F9000000F9000000F90000007C
:1000A000F9000000F900000000000000000000005E
:1000B0000000000000000000000000000000000040
:1000C0000348854600F034F80048004781040000EA
:1000D000580A00200321094802680A4302600848C0
:1000E00002680A4302600748804707480047FEE766
:1000F000FEE7FEE7FEE7FEE7FEE70000240500401E
:100100005405004055010000C100000003460B43A8
:100110009B0703D009E008C9121F08C0042AFAD2BD
:1001200003E00B780370401C491C521EF9D2704743
:10013000064C0125064E05E0E36807CC2B430C3C3A
:1001400098471034B442F7D3FFF7BEFF980B000076
:10015000B80B000010B500F06FF9002805D01F495A
:100160001D484860C8131E4988611E48018CC9B2E9
:1001700001290BD1828C120708D1028D1206120FB1
:10018000042A03D1828D1206120F0AD0012921D12F
:10019000818C09071ED1018D0906090F0A2904D097
:1001A00007E0114A01219160F5E7828D1206120FD6
:1001B00005D00D290ED1808D0006000F0AD10B4805
:1001C0000168012904D00A49016001680129FCD1B4
:1001D000C021416110BD0000DFFF07C000050040E5
:1001E000006C0040C00F00F00006004000EC06402C
:1001F0007593000010B50249024800F01DFC10BDC7
:10020000180200200020004010B5024A024900F008
:1002100014F810BD2B0400001400002002E008C8F0
:10022000121F08C1002AFAD170477047002001E070
:1002300001C1121F002AFBD17047F8B516460F46C0
:100240000446002503E03946B047641C6D1C207845
:100250000028F8D12846F8BDBFF34F8F0349024864
:10026000C860BFF34F8FFEE70400FA0500ED00E021
:100270000EB50021029000916A4601910148FFF7F6
:10028000EBFF0EBD0140000010B58268C3689342C9
:1002900003D000F0B7F8002010BD052010BD0029E4
:1002A00006D0002A02D0531E134203D00920704703
:1002B0000E2070470160838000218160C160084684
:1002C000704710B58268C3689A1A83889A4203D827
:1002D00000F0A2F8002010BD042010BD70B50B4D39
:1002E0000146AE780A48FFF7CFFF0446002E0AD039
:1002F0000020A870691C0122C81D00F0BFF9002869
:1003000001D0FFF7B5FF204670BD000004000020BB
:1003100034020020F0B5274E89B01F460D00044678
:1003200072601CD0A888296882B22348FFF7B7FF03
:10033000002815D1A889A96882B21F481030FFF79C
:10034000AEFF00280CD120221C496846FFF7DEFED4
:1003500060690690207C002804D0012103E007207A
:1003600009B0F0BD0021684601750777607C002860
:1003700000D00E2069464875E0680290A06803909E
:1003800020680190606800900A480D4A083000F02B
:1003900003F90028E4D1B0702068401CE0D0054883
:1003A000083000F099F903490122491CC81D00F0EA
:1003B00065F9D5E70400002034020020780B000026
:1003C0008909000010B501460C48FFF77AFF0400C8
:1003D00012D10B4800F04AFA00280DD1084907480D
:1003E0000839FFF751FF002806D1054901220839D5
:1003F000034800F0DBF90446204610BD440200200B
:100400000C000020826883881A4003689A5C0A7096
:100410008168491C81607047C26883881A400368FC
:100420009954C168491CC160704710B50446C0B2F8
:10043000FFF7C8FF204610BD1048018CC9B2012942
:1004400017D1818C090714D1018D09060A0F03D138
:10045000828D1206120F0ED0090F012903D1828D51
:100460001206120F07D0032903D1808D0006000F5A
:1004700001D000207047012070470000C00F00F03D
:1004800000200121214C8AB0034603220D468540FD
:10049000ED012D0F02D085002D192A60401C202867
:1004A000F4D30F211A4849058160C3601822194905
:1004B0006846FFF72BFEFF210131174806904018D0
:1004C0000791099108900323144A06A96846FFF78B
:1004D00021FF002801D0FFF7CBFE11A0FFF794FE0B
:1004E00006A8FFF7FBFE0028FAD16846007EFFF75A
:1004F00069FF0028F9D16846007E712801D0512893
:10050000EED10AA0FFF780FEFEE7000000070050D2
:1005100000050050600B0000180000207309000067
:100520000D0A53746172743A200D0A00200D0A45B9
:10053000786974210D0A00008207D30EFF229A40C9
:100540008907090E10B5994000280BDA03071B0F25
:10055000083B9C080C4BA400E318DC6994430C4353
:10056000DC6107E08408094BA400E4182368934386
:100570000B432360C106C90E01208840044908606E
:100580000449086010BD000000ED00E000E400E058
:1005900080E200E000E100E0F7B505460C46007996
:1005A0001C21484332494618F07E002801D008201B
:1005B000FEBD20780127394681402E4881602068A1
:1005C00000F07BF90021606800F06EF92A680520D0
:1005D00000021218A1695162617D227D2B681143CE
:1005E0001A18D1662A680ACC1018C1604361207BB2
:1005F000083C012813D10021A06800F055F9207BA8
:10060000394681401B488160E06800F056F929684E
:10061000052212028918E368A0688B6008610298BD
:10062000706021693160002814D0FF231D332A68CF
:10063000217F0020D050FF232A684533D050032368
:1006400028681B020C4AC01842602868000B40B2A0
:10065000FFF772FF05212868042209024018026092
:100660000020F0753076B075F776B076FEBD0000EC
:10067000180200200005005080000200F8B5037940
:100680001C246343134C81251C190327666800232F
:10069000AD003F02002E02D00668F619B560E67D77
:1006A000002E0ED0237E002B07D06168002902D0D7
:1006B0000068C01945601120F8BD21610123227630
:1006C00004E0E2750025E1606576257600F01AF811
:1006D000F8BD00001802002070B5044600791C2106
:1006E000074D48434019807E002808D1204600F07D
:1006F00018F920791C22012150434019817670BDE0
:1007000018020020F8B5044600791C214843264908
:100710004518A87E184302D1204600F002F9686807
:100720000028206807D08121032289001202801846
:1007300041600020F8BDFF21453100224250FF21D9
:100740002531206800F0C3F80646FF2109312068F2
:1007500000F0BDF80090FF214531206800F0B7F8A7
:100760000746009838433043E9D03046384307D134
:100770002946206800F0B8F8E87D697E8842DED816
:100780000020E875002E01D00320F8BD002F01D015
:100790000F20F8BDA97E01200029216801D0086042
:1007A000C7E74860C5E700001802002070B505469D
:1007B0000C4600791C21484308494318284600F09C
:1007C00055F8002801D0112070BD9A7500209C605A
:1007D0009882284600F004F870BD0000180200203E
:1007E000F8B5044600791C2148431F4900264518E6
:1007F000FF2720681D37C6512068012181602946E6
:10080000206800F09BF86968002913D027E0FF27D3
:100810000137FF211D31206800F059F8002802D16E
:10082000A88AB842F5D1A88AB84203D029462068E0
:1008300000F084F8A88AA97D8842E8D3A98AC81F55
:10084000F9380ED0FF271D373946206800F03FF8F1
:100850000028F9D020680121C1600020A875304629
:10086000F8BD0F26F9E700001802002000791C21CE
:10087000484303494018807D002800D0012070477C
:100880001802002030B552000A439900039C0A4325
:100890002102049D0A4329040A43024980004018AA
:1008A000026030BD000700501CB500220B460092CC
:1008B00011460192FFF7E6FF1CBD1CB50021009117
:1008C0000B46012201911146FFF7DCFF1CBD405889
:1008D000002800D0012070470322120280184068CF
:1008E000084000D00120704730B5FF220523CD7DA0
:1008F000002409321B02C318002D8450986905D0CA
:100900004B7ECA68D054487E401C487630BD1FB527
:1009100001246B461C701972019206C86846904704
:100920001FBDFF23253302680021D150FF23026839
:100930000933D1500068012101607047FF221D3248
:10094000002383508B8A8A68D25C8B8A5B1C8B82E3
:10095000052109024018C26170471FB500226B468D
:100960001A70197281680191827506C868469047AD
:100970001FBD10B50178022901D0012902D14068BC
:10098000FFF776FC10BD00007CB50178284D0029EA
:1009900034D001290CD002292DD16A461170C068CB
:1009A000691C01900122C81DFFF768FE68463CE003
:1009B000406801781F48FFF784FC01261D4C002881
:1009C00003D069460E70019006E0A068E16881429C
:1009D00005D0002069460870084669688847A06805
:1009E000E168081AA188884206D811490122491CE9
:1009F000C81DFFF743FE7CBDAE707CBD0D480C49A1
:100A00001030FFF741FC002805D1094901220846B2
:100A10000830FFF7CBFE074910318868C96881426A
:100A2000EBD10320694608706846696888477CBD39
:100A30000400002034020020F0B50C46012185B0EE
:100A400005464902FFF748FF032109026F180026F7
:100A5000002826D0FF2125312846FFF738FF00283F
:100A60001FD0FF2025302E5081208000B860A07E4E
:100A7000002801D101206860022168460170092028
:100A8000C0012918086808600390E17D684601727A
:100A9000E0680190E675267606CC6846083C9047EB
:100AA0002DE004212846FFF717FF002827D0FF215B
:100AB00009312846FFF70BFF002820D021462846A1
:100AC000FFF712FFE07D617E884218D1207E00286A
:100AD00007D0617EE268E0752069E0602676667680
:100AE0000AE0A07E002801D10120686081208000FA
:100AF000B860E675617EE2682046FFF708FFFF27D1
:100B00001D3739462846FFF7E2FE00280FD0A08A9D
:100B1000A17D884204D221462846FFF70FFF06E058
:100B2000EE51A17D002902D02046FFF716FFFF27D6
:100B3000453739462846FFF7CAFE00280ED0EE5149
:100B4000A07E002801D001202860E07D002805D08B
:100B5000E675617EE2682046FFF7D9FE05B0F0BD7C
:100B60000B00000009000000080000000A0000005F
:100B70000100000000E0D701FFFFFFFFFFFFFFFFC4
:100B8000FFFFFFFFFFFFFFFF00000000000000006D
:100B900000E0D70103000000B80B000000000020B7
:100BA000180000001C020000D00B000018000020FC
:100BB000400A00002C0200000024F40000000000A5
:100BC00000000000002000400000000000000000C5
:04000005000000C136
:00000001FF
