:020000040001F9
:10B00000A8350020D5B00100EFB00100F1B001007B
:10B010000000000000000000000000000000000030
:10B02000000000000000000000000000F3B001007C
:10B030000000000000000000F5B00100F7B00100C2
:10B0400059B90100F9B0010095BA0100F9B0010049
:10B05000F9B0010000000000C5B70100F9B001001F
:10B06000F9B00100F9B00100F9B00100F9B0010038
:10B07000F9B00100F9B00100F9B00100F9B0010028
:10B08000F9B00100ADB90100F9B00100F9B001005B
:10B09000CDB90100F9B00100D5B90100F9B0010046
:10B0A000F9B00100F9B0010000000000000000004C
:10B0B0000000000000000000000000000000000090
:10B0C0000348854600F04EFB0048004721F201008E
:10B0D000A83500200321094802680A430260084895
:10B0E00002680A4302600748804707480047FEE7B6
:10B0F000FEE7FEE7FEE7FEE7FEE70000240500406E
:10B1000054050040F5B90100C1B0010030B50B464F
:10B11000014600202022012409E00D46D5409D4231
:10B1200005D31D469540491B2546954040191546B7
:10B13000521E002DF1DC30BD70B5002425460028DC
:10B1400001DA01244042002901DA01254942FFF7D2
:10B15000DDFFAC4200D04042002C00D0494270BD1F
:10B1600003460B439B0703D009E008C9121F08C020
:10B17000042AFAD203E00B780370401C491C521ECB
:10B18000F9D27047D2B201E00270401C491EFBD2D6
:10B1900070470022F6E710B513460A4604461946E2
:10B1A000FFF7F0FF204610BD421C0178401C00292B
:10B1B000FBD1801A704730B504460020034600E0FA
:10B1C0005B1C934203D2E05CCD5C401BF8D030BDE9
:10B1D0000321001D401E037812021A43491EF9D5AF
:10B1E00010467047F0B507460846584087B0C00F74
:10B1F000049048000E46590040084908BC1A88418E
:10B2000005D2384631461E4617460B4602465800C0
:10B21000400810434CD0300D039040055900400DBC
:10B22000490D0590401A0290402872DA1803012156
:10B23000000B09050843019004980092002805D0EE
:10B2400001995242002088410092019002984021C9
:10B250000A1A0199009800F0F1F905460C466B4670
:10B2600007CB00F00CFAC0197141039A0E0D0023B0
:10B27000D71756401A467A40164344D0049A002AFB
:10B280002DD0029A012A039A15DC1205C01A9141A9
:10B2900001263605001C7141D20F059ED20700938E
:10B2A000019202962A46234600F009FA07B0F0BD43
:10B2B00038463146FAE71605224A0F46B218C01A38
:10B2C000B74101210905001C4F4100187F4111467B
:10B2D00018187941E20F10436D19644113E0E20739
:10B2E0006D0815436408C2071443039A012612052A
:10B2F000C01A91413605001C7141CE074008304309
:10B300004908C01851412A46234600F0CBF9CDE741
:10B31000FFE7049801224000C117121A00238B4155
:10B3200004983146C417381AA141EEE730B401241D
:10B33000E407634030BC55E730B40124E4076140C2
:10B3400030BC4FE70000E0FFF0B51FB488B00B99A8
:10B350000998002448400999C00F490049080991FB
:10B36000C0070B990090490049080B91099908986A
:10B37000A64608431CD00B990A98084318D0099890
:10B3800001244000420D4800410D099824050003A6
:10B39000000B204309900B980003000B20430B90F7
:10B3A00050181C494018002201901446104605E030
:10B3B000002001460DB0F0BD032801DA034600E08D
:10B3C00003239C46C11A0AAE0AE05F0008ADED5B9C
:10B3D0004F00F75B7D430027AA187C41491C5B1E88
:10B3E0006145F2DD410004AB5A522104120C0A43BC
:10B3F000240C401C0828DFDB01980290009970465D
:10B4000001910090059B049A0799069800F057F95E
:10B41000D0E700000DFCFFFFF0B50C465C4085B0A6
:10B42000E40FE40703944C00002664085900944696
:10B43000490802460296224321D062460A431ED0A2
:10B440006200570D4A000E032303550D01240246E6
:10B450002C492405781B1B0B360B4018234326432D
:10B46000614600901C46501AB44103D30098401C1A
:10B47000009002E0921800985B41002803DA002057
:10B48000014605B0F0BD00200121090507468646AA
:10B4900011E064461D46141BB54106D36546521B98
:10B4A000B341744607430C43A646CD0740084908FC
:10B4B000284392185B4105460D43EAD110461843D4
:10B4C00013D06046194650407140084306D060468C
:10B4D000101AB34106D20122002306E00022012304
:10B4E000DB0702E00122D2435310009874460105A5
:10B4F000381C6141029C039D0019694100F0D2F89B
:10B50000BFE70000FD03000070B54B005B0803437C
:10B510000BD04B005C0D002633466542B341D41777
:10B52000AD1AA34102DB0020014670BD12053018A0
:10B53000514170BD0EB5C217C10F5040CA07401827
:10B540000021054B0293019200910A460B4600F040
:10B55000B6F803B000BD0000330400000EB5054985
:10B560000291002100910A460B46019100F0A7F8D4
:10B5700003B000BD330400004A0009030123090B96
:10B580001B051943094B10B5520D9A4201DA0020F0
:10B5900010BD064B34339A4203DC9A1A00F05EF871
:10B5A00010BD03495118884010BD0000FF03000082
:10B5B000CDFBFFFF10B5002904DB0124E407404266
:10B5C0008C412146002B04DB1C460123DB07524241
:10B5D000A341994200D1904210BD0000F0B51FB4C4
:10B5E0000646002082B005464024019100901BE0F1
:10B5F000019922460F46304600F030F8049A059B28
:10B60000801A994110D310461946224600F016F8C8
:10B61000361A8F410197224601200021009F00F039
:10B620000DF838184D4100902046641E0028DFDCDC
:10B63000019B00982946324607B0F0BD10B5202A7C
:10B6400004DB0146203A9140002010BD91402023A8
:10B650009C1A0346E3401943904010BD10B5202AC0
:10B6600004DB0846203AD040002110BD0B46D340F1
:10B67000D0402024A21A91400843194610BD10B5AD
:10B68000202A06DBCB170846203A1041C1170B438E
:10B6900006E00B461341D0402024A21A91400843F3
:10B6A000194610BD10B5002B08DA0024401C61417A
:10B6B00092185B411A4301D14008400010BDF0B51B
:10B6C0001FB482B005460C0003D0084600F000FA13
:10B6D00002E000F0FDF920300246009021462846A5
:10B6E000FFF7ACFF049B059A04460F46184311432D
:10B6F000084314D0184610431BD0009840210A1A62
:10B7000018460599FFF7AAFF05460E46009A0599C7
:10B710000498FFF793FF084305D0012004E020467A
:10B72000394607B0F0BD0020C11705430E432C4336
:10B73000374300990E986305401A7905E40A002200
:10B740000C43FD0A0A3002D500200146E9E7010555
:10B75000101969410C9C0D9D00196941FFF7A2FF6A
:10B76000DFE70000064C0125064E05E0E36807CC44
:10B770002B430C3C98471034B442F7D3FFF7A4FC9A
:10B7800084370200A437020030B58C180278401CC0
:10B7900013071B0F01D10378401C120906D1027850
:10B7A000401C03E005780D70401C491C5B1EF9D15C
:10B7B00001E00B70491C521EFBD1A142E6D30020D0
:10B7C00030BD0000F0B50025FF268BB00136012406
:10B7D0002F460195304604F0CDF8002807D04848A0
:10B7E0004068204203D0304604F0BCF82543361DA3
:10B7F00064007F1CB6B2042FECD3FF247D342046B6
:10B8000004F0B8F8002807D0204604F0ABF8600731
:10B8100005433C48006901903B4C280714D00127A0
:10B8200000262F420CD03948B20011180869096966
:10B83000C004C00E8903A258890F002A00D0904787
:10B840007F00761C042EECD3002D57DA00200590E3
:10B85000401E4DE0A119403108788506AD0E42B278
:10B86000521C39D00121A940089A0091114233D0CD
:10B8700080090390284601F0B7FB8000205804900F
:10B88000002802D10398032826D1039800990328A1
:10B8900002D10598084305901D4AA8008018006849
:10B8A000019A8003800F114202D0022802D013E0D7
:10B8B000032811D10399032907D102281CD00221A2
:10B8C000284604F03FF87F1CFFB20498002803D0FC
:10B8D000049A284603999047761C042EBAD3002F69
:10B8E0000CD0084800690199884207D0019005985A
:10B8F00000273E460890ADE70321E1E70BB0F0BD1D
:10B900000063004000050050802A002000650040D0
:10B91000000700508307FF22DB0E9A408907090EBB
:10B92000994000280BDA0007000F08388308084800
:10B930009B001818C36993430B43C3617047830886
:10B9400004489B001B181868904308431860704710
:10B9500000ED00E000E400E0F8B5FF20013003F066
:10B960001FFD002401250E4E0E4F002807D00E4863
:10B9700004600120B0607D70002001F097FBFF2083
:10B98000053003F00DFD002808D00748001D0460B5
:10B990000220B060BD70012001F088FBF8BD0000FE
:10B9A000000300406C2A00200001004010B5064949
:10B9B0000020086048608860C8600349403908601A
:10B9C000486007F0C5F810BD4011014010B507F000
:10B9D00031F810BD10B506484068002805D08047F2
:10B9E000002801D000F0DCFB10BD03F0A9F810BD69
:10B9F000C81F002010B503F005F9002805D01F4925
:10BA00001D484860C8131E4988611E48018CC9B290
:10BA100001290BD1828C120708D1028D1206120F58
:10BA2000042A03D1828D1206120F0AD0012921D1D6
:10BA3000818C09071ED1018D0906090F0A2904D03E
:10BA400007E0114A01219160F5E7828D1206120F7D
:10BA500005D00D290ED1808D0006000F0AD10B48AC
:10BA60000168012904D00A49016001680129FCD15B
:10BA7000C021416110BD0000DFFF07C0000500408C
:10BA8000006C0040C00F00F00006004000EC0640D3
:10BA90007593000010B50249024807F021F910BD66
:10BAA000C82A0020002000400FB410B504A9074B9D
:10BAB00002AA039800F04EF8044602A9002000F004
:10BAC00083FA204610BC08BC04B01847C9BF010067
:10BAD0002021020C01D010211046020A01D010468C
:10BAE0000839020901D01046091F820801D010460A
:10BAF000891E420801D0881E7047081A704730B46A
:10BB00007446641E2578641CAB4200D21D46635DFA
:10BB10005B00E31830BC184702E008C8121F08C1D8
:10BB2000002AFAD170477047002001E001C1121FBE
:10BB3000002AFBD170470000202804DA012181404F
:10BB40000348014201D001207047002070470000E7
:10BB5000FC06FFBCFFB591B00F460546002606E087
:10BB600025280AD0149A139990476D1C761C2878C2
:10BB70000028F5D1304615B0F0BD00240094012115
:10BB8000F34A029400E004436D1C2B780846203BE6
:10BB900098401042F7D128782A280ED00221287820
:10BBA0000246303A092A15D8009A0A235A43303AF5
:10BBB00080180C436D1C0090F1E701CF0090002825
:10BBC00005DA01204003044300984042009002201F
:10BBD00004436D1C28782E2815D10420044368786E
:10BBE0006D1C2A280AD101CF6D1C02900BE002992E
:10BBF0000A225143303940186D1C029028780146C2
:10BC000030390929F3D928786C2810D006DC4C2863
:10BC10001AD068280ED06A2817D104E0742813D0EF
:10BC20007A2812D110E00120400504430CE00121E4
:10BC3000090501E0032109050C436978814203D11C
:10BC40000120000524186D1C6D1C287803906E28B7
:10BC50001ED00CDC632831D004DC00288AD05828A0
:10BC600011D1B2E064287BD069280CD178E0732828
:10BC70002DD004DC6F2870D0702804D1A7E075287F
:10BC80006CD078286BD0149A13999047761C62E098
:10BC90006002400F022807D003280AD00428386821
:10BCA0000AD006603F1D56E03868F1170660416013
:10BCB000F8E738680680F5E70670F3E738786946F4
:10BCC00008740020487404A80390012003E0386839
:10BCD00003900020C0433F1D61070FD5002101E004
:10BCE0000199491C029A0191914213DA8142F7DBD2
:10BCF000019A0399895C0029F2D10BE0002101E04F
:10BD00000199491C01918142FADB019A0399895CEE
:10BD10000029F5D101990098139A401A0090214604
:10BD2000149B00F03BF901998019461807E003982D
:10BD300003990078491C0391149A1399904701982C
:10BD4000401E0190401CF2D12146149B139A00988A
:10BD500000F014F986196D1C09E741E033E034E086
:10BD60000A200021049005916002410F022905D0AC
:10BD700001CFC2179446032905D007E0FF1DFF0835
:10BD8000FF0003CF06E000B2C2179446042902D197
:10BD900040B2C1178C4600226146944506DA0A4635
:10BDA0000021404291418C462D2102E0210504D51D
:10BDB0002B216A461176012103E0E10701D0202101
:10BDC000F7E7019154E00A200BE0102009E0102071
:10BDD000049000210420044308200591029003E010
:10BDE00008200021059104906002410F022905D02E
:10BDF00001CF00229446032906D006E0FF1DFF086C
:10BE0000FF0003CF8C4603E080B2042900D1C0B20A
:10BE10000021019121072BD50399702906D0049A9E
:10BE20001021059B4A401A4305D00EE040216A4686
:10BE30001176012108E06146014306D030216A46AF
:10BE400011760399517602210191049A0821059BEC
:10BE50004A401A430CD16146014301D1610707D51D
:10BE600030216A461176012101910299491E029101
:10BE70000399582904D037A103910FA90F910DE020
:10BE800039A1F9E76146059B049AFFF7A7FB039BDD
:10BE90008C469B5C0F9A521E0F92137061460143B1
:10BEA000F0D10F9807A9081A20300390600704D535
:10BEB000012000048443029801E0012002900399CC
:10BEC000884201DD401A00E00020411802900198EC
:10BED00009180098401A0090E00306D42146149BEC
:10BEE000139A009800F05AF886190020049008E090
:10BEF00006A9085C149A139990470498401C761C74
:10BF0000049001998842F3DBE0030CD52146149B91
:10BF1000139A009800F042F8861904E0149A302031
:10BF200013999047761C0299481E02900029F5DC6F
:10BF300008E00F980F990078491C0F91149A1399F3
:10BF40009047761C0399481E03900029F1DCFBE61C
:10BF500009280100303132333435363738396162DF
:10BF600063646566000000003031323334353637A3
:10BF7000383941424344454600000000F8B50446C4
:10BF800000251E461746880404D405E039462020C3
:10BF9000B0476D1C641EF9D52846F8BDFFB50446B0
:10BFA000002581B01E46C80301D5302700E02027B8
:10BFB000880404D505E038460399B0476D1C641E1B
:10BFC000F9D5284605B0F0BD0A68531C0B60107007
:10BFD000704710B500280CD000290AD002780B78E1
:10BFE0009A4206D10622401C491CFFF7E4F80028BB
:10BFF00001D0002010BD012010BD70B500238D8838
:10C000000C680DE0E6187678E15C864206D1E0180F
:10C01000801C491E10609180002070BD5B185B1C65
:10C020009D42EFD8052070BD10B5012202210020ED
:10C0300000F0D0FD002801D0072812D107220221EC
:10C04000012000F0C7FD002801D0072809D10021F8
:10C050000A22084600F0BEFD002801D0072800D1C2
:10C06000002010BDF0B50F468DB0002116466D467C
:10C070000F24621A825C6A54491C1029F9D328469D
:10C080000D211030FFF785F80020221A395C521973
:10C09000401C11740328F8D368464DDF0020211A94
:10C0A0004919203109783154401C0328F7D30DB0C9
:10C0B000F0BD0000044842680121C9050B469343C6
:10C0C00083600A40C26070470005005070B50024CC
:10C0D000064D06E06968E000085C012103F0EEF916
:10C0E000641C28788442F5D3002070BD601F0020B6
:10C0F000F8B515460C460646052A01D20720F8BDBC
:10C1000003F0B2FA002803D103F080FA0028F6D138
:10C11000104900204E600C70C8608D6008610E4DA3
:10C120000DE0E00069688019009181786A465170DD
:10C1300000780A4A694603F00DFA0028DFD120464C
:10C14000641EE4B20028ECD1054A0021024800F048
:10C1500033F8F8BD601F0020A0320200C1E40100E6
:10C16000C9D6010006A1012003F064FDBFF34F8F83
:10C170000A490948C860BFF34F8F00BFFDE70000C0
:10C180004150505F4552524F523A4552524F523AE7
:10C19000466174616C0D0A000400FA0500ED00E0D0
:10C1A0000EB50021029000916A4601910148FFF707
:10C1B000D9FF0EBD01400000094B5B68002B07D082
:10C1C000002A07D0002805D00068037C002B03D08C
:10C1D0000820704707207047417442610020704773
:10C1E000841F0020FFB507469007002581B01E463A
:10C1F0001446002825D1002C23D005F0D5FD30466B
:10C20000114EF06030461030057045700299817013
:10C2100044607560357001240C4875702405046015
:10C2200003211420FFF776FB09480460094CA7603E
:10C2300003211120FFF76EFB6068B060002005B09D
:10C24000F0BD0720FBE70000741F002080E200E043
:10C2500000E100E000150140FEB51F4B5B68002BBC
:10C2600030D000282ED0052901D20720FEBD436919
:10C27000002B27D0437C012B26D0002702910446B7
:10C280000025694616460D70684600F03DF801A885
:10C2900006F0C6FD002819D0012101700F49446045
:10C2A00049688160029907614661C16068460A4930
:10C2B000007948706846007800F044F806F0FCFB0E
:10C2C0002846FEBD0820FEBD0F46D7E76846042578
:10C2D000007800F037F8F3E7841F002000150140D4
:10C2E00010B50849496800290AD0002808D04169DA
:10C2F000002905D000210174022106F005FC10BDC3
:10C30000082010BD841F002030B5EFF3108172B6F5
:10C31000094A54680123002C04D00370002900D17D
:10C3200062B630BD5360054B1D68054C2540156055
:10C330001C6000220270F1E7981F002080E100E0FD
:10C34000FC06FFBC08494A68002A0CD000280AD124
:10C35000EFF3108072B60A68044B1A6000224A603C
:10C36000002800D162B67047981F002000E100E06D
:10C37000F0B504468BB0008800F0FAF805902088EC
:10C3800002F014FB0646A0680090657A68460574C2
:10C390001E4F20880022397800F03AF905980028CD
:10C3A00031D06079400710D50721304604F014FAE7
:10C3B000002813D0082269460A7422884A828E8295
:10C3C000069004A801F0CCFA08E02088B97800F0C3
:10C3D0000DF9002802D0304602F0D2FA0321684657
:10C3E00001712188C18060794007C10F68460172E0
:10C3F000A0794007C10F6846417201788172C57209
:10C4000001A801F0ADFA0BB0F0BD0000381F00200C
:10C4100010B534210148FEF7BCFE10BD7423002086
:10C4200010B503490A7D091D05F0FDFD10BD000092
:10C4300074230020034B10B50246D97D181D05F06A
:10C44000DFFD10BD7423002010B5FFF7E1FF10BD24
:10C45000034B10B50246197E181D05F0D1FD10BD25
:10C460007423002010B50349887D497D084005F0FC
:10C47000FDFD10BD74230020F0B5044602883A4843
:10C480008DB0014615310191102A09D0112A50D0E2
:10C490001A2A4AD1217A090901294ED901234DE0EE
:10C4A000027D417D05468A43011D07A805F0BBFDBD
:10C4B000142207A902A8FEF753FE00262A48374691
:10C4C000143008900AE0710002A8081883881D2221
:10C4D0000097281D089905F053FD761C0298B0427C
:10C4E000F1D8287DA688C043C0B205F06DFD1F4974
:10C4F000884217D040004019868001233246281D0B
:10C50000019905F0C3FD01233246281D089905F065
:10C51000BDFDA07D02280AD000231349A288163150
:10C52000281D1DE00420FFF73BFE0DB0F0BD0123E8
:10C53000F3E70023A288001D12E000230A49054604
:10C54000A2881731001D05F0A1FD207A00090228FC
:10C5500001D9012300E000230349A2881831281DD6
:10C5600005F094FDE1E7000074230020FFFF0000C8
:10C5700070B50B4E05460024317D2A46301D05F06E
:10C580003FFD002809D0B17D2A46301D05F038FD59
:10C59000002801D0022400E00124204670BD0000E4
:10C5A0007423002010B50024204606F02DFC00283E
:10C5B00005D0641CE4B2182CF6D3182010BD044832
:10C5C00001220168A24011430160204610BD000015
:10C5D0007423002010B5044606F016FC002802D093
:10C5E00001480019407E10BD7423002070B5054637
:10C5F0000C46084606F008FC002806D003482A46E8
:10C600000119497E001D05F0FBFC70BD742300205C
:10C6100070B5064615460C46084606F0F5FB0028A0
:10C6200007D004482B4601193246001D193105F088
:10C630002DFD70BD7423002010B5002805D003899E
:10C6400006498B4203D1082010BD0E2010BD818801
:10C650000122184600F06AFC10BD0000FFFF000038
:10C66000002808D00181002A03D0118881805188D8
:10C67000C180002070470E207047000038B50028A8
:10C6800013D0002911D001226B469A70084C1C80EF
:10C69000084B1A7009680160911E01810021818098
:10C6A000C180684600F09CF838BD0E2038BD0000FF
:10C6B00016180000541F002010B500280CD00029C7
:10C6C0000AD00A88112A08D0362A05D0382A0FD075
:10C6D000392A01D103F05AFC10BD028989888A42A7
:10C6E000FAD10021C943018100218180C18010BDA0
:10C6F000008989888842FAD106F082FA10BD0000CC
:10C70000F0B50646087885B00C4600283BD1A088D5
:10C710002049884237D1A079012834D16088694600
:10C72000488000251C4F13E00C2068430019C08985
:10C73000B84208D10C2045432819028B69468A80EB
:10C74000C08AC88007E01549012003F073FA6D1C08
:10C75000207AA842E8D81249032003F06BFA308906
:10C760001049884207D0B088002804D1F0880028FA
:10C7700001D1019870600120694608703268002A72
:10C7800003D03046904705B0F0BD07A1012003F06B
:10C7900051FAF8E7161800005B2A0000383602004C
:10C7A0009C360200FFFF0000424C455F4353435359
:10C7B0005F433A4552524F523A705F626C655F6315
:10C7C0007363735F632D3E6576745F68616E646C3E
:10C7D0006572206973204E554C4C0D0A0000000014
:10C7E00070B500280AD00F4D2978002908D00446DA
:10C7F00005F0B4FA002805D0002070BD0E2070BDF1
:10C80000082070BDE868062809D2074A8100891807
:10C8100022880A8062884A80401CE860ECE7042095
:10C8200070BD0000E01E0020A8230020002808D0D2
:10C83000002205490123CA600B708A6048601046D7
:10C8400070470E2070470000E01E002010B5002841
:10C8500011D000290FD0124A1278002A0BD00A8872
:10C86000112A11D0302A07D0322A09D0332A02D116
:10C87000091D03F021FB10BD091D03F0F5FB10BDE0
:10C88000091D03F099FA10BD8A88FF21AB31095ABE
:10C890008A42F8D10021FF30A130C17110BD0000E3
:10C8A000E01E002070B50E4600280ED017490A7809
:10C8B000002A0CD0CA68002A09D00446FF34A134EB
:10C8C000E279002A05D0112070BD0E2070BD08202D
:10C8D00070BDFF22AB32165200228A6005462272DA
:10C8E0000B48A27101882980408868808AB233464B
:10C8F0000849032003F0ABF92A460121304690DFB6
:10C900000028E5D10120E071002070BDE01E00206C
:10C91000A82300200835020010B50446FFF7ACFD3F
:10C92000204604F0C7FC21460648FFF78FFF20464B
:10C9300000F0E8FD204600F069F8204603F0B4F965
:10C9400010BD00008020002000B5174887B00068A7
:10C95000059000234822154905A806F01BF8002879
:10C9600001D0FFF71DFC6A460021012005F0FAFF07
:10C97000002801D0FFF714FC684605F085FF002869
:10C9800001D0FFF70DFC0A4805F074FF002801D024
:10C99000FFF706FC074806F02FF8002801D0FFF744
:10C9A000FFFB07B000BD0000C8310200F01F0020EF
:10C9B00019C901000D2A02007CB5134E00250C4652
:10C9C0003060002918D06946002000F0B5F8002832
:10C9D00019D101A9012000F0AFF8002813D1684651
:10C9E00001790020002901D0022004E0694609787D
:10C9F000002900D00B2020707068002802D1FFF7BA
:10CA000013FB054628467CBDD81E002010B51C4CE3
:10CA10000188606810290DD011290AD1401E60607C
:10CA200007D1FFF701FB002803D02168002900D0BF
:10CA3000884710BD00281ED100210122084600F0C1
:10CA4000C9F8002801D0072811D1072202210120AE
:10CA500000F0C0F8002801D0072808D104220221E4
:10CA6000002000F0B7F8002805D0072803D021687F
:10CA7000002900D088476068401C606010BD00003D
:10CA8000D81E002010B5032000F022FA002801D0A3
:10CA9000062800D1002010BDF8B507460024234821
:10CAA00002E0641C042C1AD2A2008258BA42F8D1C7
:10CAB000042C14D21D481E4E0C38002929D00129FF
:10CAC0000ED002290BD16000201880194578002D66
:10CAD00005D018480169002901D028468847F8BDCB
:10CAE00061006118755C8E19717800290CD01149AC
:10CAF0000A224968806851430E4A521CFFF7ACFB7A
:10CB0000002801D10B4847700A48B178143001550C
:10CB1000DDE78068FFF7E4FB064861006118143028
:10CB20008919005D8D78A842D1D0F8BDE0310200AE
:10CB300048230020C01E002004280CD2074A126996
:10CB4000074B80001B5C01209840904300D00120DF
:10CB50000870002070470020FAE700000005005030
:10CB6000E031020070B51A4C042815D007281BD0FC
:10CB70000A2810D1002000F051F8002801D0FFF75A
:10CB80000FFBFFF77FFF002801D0FFF709FB3CDF19
:10CB900007E0FFF705FB70BD1321A08876DF0828AA
:10CBA000F9D00028F5D170BD2078012501280AD1DF
:10CBB0006078002807D165708BDF002805D0082831
:10CBC00001D0FFF7EDFA657070BD05F02DF9FAE7B9
:10CBD000B01E002070B50023042811D244000419AF
:10CBE0000D4D012A02D101290DD0002246008019E5
:10CBF000094E801900290CD0012906D0022906D03F
:10CC00000723184670BD0D30C2B22A55F9E74270AD
:10CC1000F7E78270F5E700004823002010B5054AC9
:10CC20000146127A0020D20702D0084600F054F8DC
:10CC300010BD0000C01E002070B50E4620490546FC
:10CC40004E608D6000200A61A9071ED500240122D4
:10CC500011462046FFF7BEFF641C042C02D20028B8
:10CC6000F5D012E0002810D1720804211548FFF712
:10CC70003FFA002809D1FFF729FA002805D1114809
:10CC8000114A00211438FFF797FAE90706D00F225E
:10CC90000E4952058A600023CB608A6100280DD1BD
:10CCA00008480B4A00211C38FFF786FA002805D1F6
:10CCB0000448084A01211838FFF77EFA70BD0000C9
:10CCC000C01E0020F03102001FCF010000050050FF
:10CCD00071EC0100B5C00100FEB57A4D0722EB688A
:10CCE00092059A4302936B6800939C0006461B19B9
:10CCF00000200121019349050746734C3300FEF7DC
:10CD0000FEFE180D1515374755677C887F8891DE24
:10CD10009E9E9E9E9EC8CED1D8DEDE140F21029A22
:10CD200049059143A160E7602F70FEBDA260E760F6
:10CD300060680F2252055040800209D5A160E7606B
:10CD4000022E02D1E120C0000AE07D20400107E070
:10CD5000E160A760022E01D1C82001E0FF209130E0
:10CD60002E706421FEF7D2F90099414300223FE082
:10CD7000A260E76060680F2252055040800204D52F
:10CD8000A160E76019204001EAE7E160A760E3E7FE
:10CD9000A260E76060680F2252055040800202D511
:10CDA000A160E760D1E7E160A760D7E7A260E76034
:10CDB00060680F2252055040800202D5A160E760F2
:10CDC00001E0E160A7602E700098410000220FE0B2
:10CDD000A260E76060680F2252055040800202D5D1
:10CDE000A160E76001E0E160A7602E700099002279
:10CDF00036480068FFF730FAFEBDA260E7601BE02E
:10CE000061680120800502468A43A2600140E1601A
:10CE100010E06068012189050A468243A26008404B
:10CE2000E060E3E76068012189050A468243A26069
:10CE30000840E0600199C9E7E160A7602DE0234860
:10CE40004068FFF74DFA11218A1B01D0002807D056
:10CE50000F22E96852051140A160E760EF60FEBD56
:10CE60000121C905E960012A0CD91046C8214843AF
:10CE70006421FEF74BF9696800224143134840687A
:10CE8000FFF7EAF90F22E96852051140E160A76057
:10CE9000FEBD0F214905A160E7602E70FEBD07228F
:10CEA0009205AAE70D214905A160E76001218905E6
:10CEB000C2E70321C905A160E7608910BCE70F2123
:10CEC0004905B9E7C01E002000050050D43102001A
:10CED000F0B500210B4C0C4D03273F048A00A258EB
:10CEE00092005619326801238B40034000D003237F
:10CEF000BA431B0413433360491C0429EED30020BA
:10CF0000F0BD0000E031020000070050002901DA06
:10CF1000002070470268511801600120704710B569
:10CF200000780221FFF7B8FD10BD000070B514466F
:10CF30000D46064603460A460F49032002F087FEC7
:10CF40000E49142248680E4B4243401C4007400FD4
:10CF50004860D21855810220D081101D1061002038
:10CF60009081012010721471210A51711680907005
:10CF700005F046FE002070BDE4360200541F00207C
:10CF8000CC2900200022D243830004490428CA503F
:10CF900002D308182030027770470000802A002052
:10CFA000F0B50025ED43002A02D00023042601E05D
:10CFB000042308260B4C04E09F00E7597F1C04D093
:10CFC0005B1CB342F8D32846F0BD26185DB220366C
:10CFD00035709E00A151002AF5D1E1182031087763
:10CFE000F1E70000802A0020024909182020085695
:10CFF00070470000802A002038B50B460146FF31FB
:10D000000246A13188794624604380184A79002A73
:10D0100008D0521ED2B20C214A431118498A6A46DE
:10D02000491C01E0C1886A46118000895080114680
:10D03000184692DF38BD0000002807D0044981421D
:10D0400004D80449814201D901207047002070476B
:10D05000E01F0020F01F0020044A0168914201D027
:10D06000083101E00149383901607047E02B0020A8
:10D0700070B50D4D04460A462846AC4208D1FF243F
:10D0800001342146104604F0C5F8A0420AD070BD14
:10D09000FF2CFCD82146104604F0AEF8002801D041
:10D0A000204670BD284670BDFFFF000070B5084CDB
:10D0B000050009D010342168002907D008682060D5
:10D0C000496828468847F6E70834F4E770BD000051
:10D0D0006C2A0020F8B52348416800293ED00E682C
:10D0E00021494C6887688078E11B0D022D0AED1CF0
:10D0F000002814D101201D4A000450601B4A403A08
:10D1000050601B49400008601A4908601A49012014
:10D1100008602F2002F04CF9124901208870B542B6
:10D1200000D23546E81900020F4B000A4033186060
:10D130000D4A5168001B091B0902090A0002000A76
:10D14000C91C814209D9506818602F2002F030F9BB
:10D1500001200749400480390860F8BD04F024FE2E
:10D16000F8BD0000741F002000150140401301406D
:10D1700080E200E000E100E00010014070B50546EB
:10D1800008780C4601280BD0022808D1201D00F099
:10D190004FF9020021D01249012002F051FD70BD6B
:10D1A0006188221D0F48FFF75BFA002801D0FEF7C7
:10D1B000F7FF6088002103F017FF002801D0FEF779
:10D1C000EFFF2846FFF738FA002801D0FEF7E8FF06
:10D1D00005A1032002F02EFD70BD00F043F870BDE4
:10D1E000DC32020040220020435343532041505080
:10D1F0003A494E464F3A4379636C696E67205370E3
:10D2000065656420616E6420436164656E636520BA
:10D210007365727669636520646973636F7665729E
:10D220006564200D0A00000000B58BB02821684617
:10D23000FDF7AFFF58210948FDF7ABFF0848009004
:10D2400007206946888105487038FFF717FA0028DB
:10D2500001D0FEF7A5FF0BB000BD0000B0220020FA
:10D260007DD1010010B51A49032002F0E3FC194CEE
:10D27000E169A069FEF780F9024617A1032002F0D8
:10D28000DFFCE16BA06BFEF777F9024620A10320DB
:10D2900002F0D6FCE16CA06CFEF76EF902462AA102
:10D2A000032002F0CDFC35A10320626802F0C8FC27
:10D2B000A2893DA1032002F0C3FC228A46A10320DB
:10D2C00002F0BEFCA28A4FA1032002F0B9FC10BDFF
:10D2D000C0330200B022002043534353204150503A
:10D2E0003A494E464F3A74726176656C20646973B0
:10D2F00074616E63652020202020202020202020C3
:10D3000020203D20256420286D290D0A0000000002
:10D3100043534353204150503A494E464F3A776861
:10D3200065656C20737065656420202020202020B6
:10D330002020202020202020203D20256420286D32
:10D340002F73290D0A0000004353435320415050CE
:10D350003A494E464F3A6372616E6B206361646571
:10D360006E63652020202020202020202020203DCA
:10D37000202564202872706D290D0A004353435301
:10D38000204150503A494E464F3A6F6C64207768BE
:10D3900065656C207265766F6C7574696F6E2020A0
:10D3A0003D202564200D0A00435343532041505033
:10D3B0003A494E464F3A6F6C64206372616E6B203F
:10D3C0007265766F6C7574696F6E2020203D202524
:10D3D00064200D0A00000000435343532041505085
:10D3E0003A494E464F3A6F6C6420776865656C2009
:10D3F0006576656E742074696D65203D2025642016
:10D400000D0A000043534353204150503A494E46C1
:10D410004F3A6F6C64206372616E6B206576656E47
:10D42000742074696D6520203D202564200D0A005C
:10D4300070B50025044600281CD0207800281FD095
:10D440002189606804F00CFA060023D46078002873
:10D4500026D0A189608904F0AFF901B2002919DB57
:10D460003046FDF769FEFEF765F8FEF785F80246DF
:10D470000CA112E01749012002F0DCFB022070BD74
:10D48000607800280CD0A189608904F095F902B277
:10D49000002A01DA012503E00FA1032002F0D0FBEE
:10D4A000284670BD43534353204150503A494E469D
:10D4B0004F3A576865656C20746F206372616E6BBC
:10D4C000206469666620726174696F203D2025645E
:10D4D000200D0A005434020043534353204150505E
:10D4E0003A494E464F3A4372616E6B207265766FD1
:10D4F0006C7574696F6E2064696666203D202564D2
:10D50000200D0A0010B5074982880989914204D08C
:10D510000549032002F08EFB10BD01460148FFF7CC
:10D52000CBF810BD402200200834020010B501469F
:10D530000148FFF7E5F810BD4022002010B58288B1
:10D5400007498A4202D1FFF7F1FF10BD04480938AC
:10D550008242FAD003A1012002F072FB10BD00004C
:10D56000161800004150503A4552524F523A6462E8
:10D570005F646973635F68616E646C657220636188
:10D580006C6C6564207769746820756E6B6E6F775C
:10D590006E20555549443A2025640D0A00000000CC
:10D5A000F0B585B00C46002802D0012005B0F0BDD2
:10D5B000207900270126002806D01F4D012820D001
:10D5C00002282CD00F20F1E702970397E068019022
:10D5D000694601A804F0F6FA00280ED00298818866
:10D5E000E18000882081029804F066FB6946098882
:10D5F0000A01124951188E7300E00A20022121719C
:10D60000D4E70F4B6A460021A01D04F099FA0028C8
:10D6100007D00B4908398F60CF600A28C6D1284649
:10D62000C4E7019804F048FB054989880A010349C9
:10D6300051188E73F1E700001D1D0000F02B002033
:10D64000A81F0020F7B50546FF350646A135A87985
:10D650004621484387196C790C206043C1193A79F7
:10D66000601C0A3182B0904226D101AB00223046C4
:10D6700001F0A6FA002822D010E0401EA04201D1FD
:10D68000002003E00C206043C019163002460090D1
:10D6900001AB304601F094FA002807D0039800212E
:10D6A000017001A9049893DF05B0F0BD6879009975
:10D6B000401C641C6871E4B23879A042DDD803983C
:10D6C000012101700020EFE7F8B500260124154D77
:10D6D00023E06968F0004718387821462A698140BC
:10D6E000114218D08A432A6101F086FF3A78214618
:10D6F000EB68914019400346934099420BD17978E9
:10D70000012901D0012100E000217B684140002B6C
:10D7100001D010469847761CF6B228788642D8D3B6
:10D72000F8BD0000601F0020F7B5FF21A7311446A7
:10D73000095C462251430F18384604F00FFB0600DF
:10D7400033D01A4A906806282FD221461446502218
:10D750005043174D4622401941803946001DFDF7C0
:10D76000FFFC01980027002804D0A06850214843FE
:10D770002F5404E0A0680221502250432954A0688D
:10D78000502141434919401CCE64A060E1688842A1
:10D790000BD1002605E0502070434019C16C88472A
:10D7A000761CE0688642F6D3A760FEBDE01E00202E
:10D7B000C023002030B50D46FF21A7311446095C77
:10D7C0004622514393B0081804F0C8FA030005D06C
:10D7D00068464480012101700195984713B030BD1F
:10D7E00010B50E4900230A784C78A24212D0521C80
:10D7F000D2B20A70022A00D10B700A78074B92004D
:10D8000018339A580260886810180002000A88606D
:10D81000012010BD0360002010BD0000741F002017
:10D820003EB5094D38CD0093029501946B46588062
:10D8300099809A71054900220978FEF7E9FE684649
:10D8400000F08EF83EBD000090320200381F00202C
:10D8500010B5047800222300FEF751F907060507EA
:10D860000D1D262C06000A7010BD01220A700289C7
:10D870008A81828814E002220A7002898A81828861
:10D88000CA81C2688A60007C062802D00020087421
:10D8900010BD0120FBE703220A70C2888A81028939
:10D8A000CA81C068886010BD04230B70C08888815D
:10D8B000CA8110BD0520087010BD000070B5064D6E
:10D8C00006460024A0002958002901D03046884788
:10D8D000641C082CF6D370BD102B00200EB5002957
:10D8E00010D011290ED00022009202926A46508078
:10D8F00001910D2907D0042907D009201070104686
:10D9000000F03CF80EBD0B20F8E70A20F6E7000017
:10D910000149096808470000F81E002070B5054D50
:10D9200006460024A000295830468847641C022C73
:10D93000F8D370BD28320200F8B507460024064E21
:10D94000064D04E0A000315838468847641CE8784A
:10D950008442F7DBF8BD000080290020281F00204A
:10D9600070B5054D06460024A0002958304688476A
:10D97000641C022CF8D370BD5832020001490968BA
:10D98000084700009C3202007FB50446406800282A
:10D990000BD00020039020780026414D0300FEF7B5
:10D9A000AEF8066D0606304E7B6D0120F2E7A089C9
:10D9B00000F0DCF9002804D1E08904F095F9002892
:10D9C0005CD0A08900F0CCF9014668464180E0892E
:10D9D00004F084F9014668460171207801286068E6
:10D9E00007D0002809D004206946087060680390B9
:10D9F00020E00028F8D00320F6E70120F4E70846ED
:10DA00003AE0A08900F0B2F9002804D1E08904F0DE
:10DA10006BF9002832D0A08900F0A2F9694648804D
:10DA2000E08904F05BF9694608716068002804D059
:10DA300005200870A0680290E1E70220F9E7A089BC
:10DA400000F094F9002819D0E089002816D1A089A7
:10DA500000F086F969464880E08904F03FF9FF202C
:10DA600069460871606800280FD0072008706E7042
:10DA7000AE7003F08BF8684602F046FF6878002825
:10DA800002D06E7003F082F87FBD062168460170F7
:10DA9000408803F009F9EAE7082069460870AEE714
:10DAA000141F002000B5104987B00978890702D4F7
:10DAB000022007B000BD0D49884201D10420F8E7DB
:10DAC000052269460A7001220A71C88000221146A7
:10DAD000684602F077FB002803D004F00DF8002020
:10DAE000E7E70820E5E70000A01F0020FFFF000097
:10DAF00000B50F4887B00078800702D4022007B035
:10DB000000BD06206946087000221146684602F0F2
:10DB100059FB002809D007480178002901D00121CC
:10DB2000017303F0E9FF0020E9E70820E7E70000C0
:10DB3000A01F0020102C002000B58DB014216846D5
:10DB4000FDF727FB1E480078810703D56846FFF7DD
:10DB5000B5FE32E0C00730D1012000F02DF900F011
:10DB6000A5F902F0C1FB00280ED006280FD0012134
:10DB70006A4611750300FDF7C2FF0C19111911193E
:10DB800018191819131613190B200DB000BD022017
:10DB900000F012F9012000F0F5F8D7E7002000E0CE
:10DBA0000320107602E00220FBE7117600221146E6
:10DBB00005A802F007FB03F09FFF0020E5E7000047
:10DBC000A01F002038B5040014D0694603F0FAFF06
:10DBD000002813D06846008801010948091888897F
:10DBE000002809D0A27A002A06D0401E8881002091
:10DBF000A07238BD052038BD062038BD0A2038BDCA
:10DC0000F02B00201FB501A9684603F099FF04B06E
:10DC100010BD07B513460A466946002003F090FF81
:10DC20000EBD07B513460A460021684603F088FF7B
:10DC30000EBD002805D0002903D000680860002030
:10DC4000704705207047000038B50D46040017D016
:10DC5000002D15D0694603F0B5FF002812D06846A4
:10DC6000008861680201084812189089401C908160
:10DC7000296060680C3068600120A072002038BD07
:10DC8000052038BD0A2038BDF02B002010B5002833
:10DC900004D00323002205F065F910BD052010BD56
:10DCA00010B50223002205F05DF910BD10B5002A61
:10DCB00003D0022305F056F910BD052010BD000069
:10DCC00010B5064A5178082906D08B00044C491C2F
:10DCD000E0505170002010BD0C2010BDA01F00208E
:10DCE000102B002038B504460A480D4600788007FE
:10DCF00001D4022038BD002C0AD06946284605F020
:10DD00003DFA0028F6D1694609882180658038BD32
:10DD1000052038BDA01F002010B504460E4800782D
:10DD2000800701D4022010BD002C10D021880229C8
:10DD30000FD80A4A0801801842896088121A032AFB
:10DD400007D405F011FA00202080608010BD052066
:10DD500010BD042010BD0000A01F0020F02B0020EB
:10DD600003218903401A80B2704700000321890310
:10DD7000401A0349884201D80120704700207047AB
:10DD8000FE3F000002490A7882430A707047000093
:10DD9000A01F002010B504460078182802D1FEF715
:10DDA00001FC207010BD10B504460078182802D17F
:10DDB000FEF7F8FB207010BD02490A7802430A7092
:10DDC00070470000A01F002070B5064600200546E1
:10DDD000042906D0112902D0002903D070BD0125E5
:10DDE00000E001200E4C002A02460FD06179304637
:10DDF000FEF70EFC2A4621793046FEF709FC002288
:10DE000061783046FEF704FC002204E06178304679
:10DE1000FEF7FEFB2A4621783046FEF7F9FB70BD7F
:10DE20003C1F0020F8B506461C481F4600781546E2
:10DE30000C46C0070AD03046FFF7FEF8002807D08E
:10DE4000002C07D0A00507D00620F8BD0120F8BDA2
:10DE50000220F8BD0320F8BD3068A04204D8A80213
:10DE600071680019884201D90520F8BD002D10D035
:10DE7000684603F093FD00280DD000980221C0C031
:10DE80000170A101090C8180058103F043FE00208F
:10DE9000F8BD0420F8BD0720F8BD0000B81F002021
:10DEA00010B5084603F096FD10BD0000F0B52648F9
:10DEB000264C001B0309264819464069421C03D121
:10DEC0000120000740698002224A12789646D20754
:10DED0000CD00020F0BD1D4C15012C192568002D1B
:10DEE00003D06468002C00D0491E521C9A42F2D321
:10DEF000002420E0E2B2002594462A460FE0134EAB
:10DF00001701BE193768002F02D07768002F05D19E
:10DF1000767BAE4202D93546D6B2B446521C9A42FE
:10DF2000EDD362461501094AAA185060157BAD026F
:10DF3000401B641C10608C42DCD3064871460122F1
:10DF400011430170C5E70000F01F0020E01F002012
:10DF500000100010B81F0020002804D00349496EAB
:10DF6000016000207047032070470000202C002033
:10DF7000F8B507461E481E46007815460C46C007F1
:10DF80000ED03846FFF758F800280BD0002D0BD0E4
:10DF9000002C09D028462043800707D00620F8BD72
:10DFA0000120F8BD0220F8BD0320F8BD3868A0426A
:10DFB00004D8B10078680919884201D20520F8BD5B
:10DFC000002E11D0684603F0E9FC00280ED000981E
:10DFD00006990760416001210172C5600461868273
:10DFE00003F098FD0020F8BD0420F8BD0720F8BD1F
:10DFF000B81F002070B5174B0446186E182148430F
:10E000001549C0180A78950715D5022C02D0032CA3
:10E010001CD102E001F0FEFF18E04A78521CD2B297
:10E020004A70032A12D900224A70082104F000F92C
:10E0300003F09EFC0AE0500708D5FB2002400A705E
:10E04000586E002802D0022002430A7003F01EFD21
:10E0500070BD0000202C0020B81F002070B50028E3
:10E0600001D0012070BD164C0025207B002801D076
:10E07000257301E000F09CF820780300FDF73FFDD8
:10E08000081E05080B0E1E111A1E00F01BF870BDAD
:10E0900000F07EF870BD00F061F870BD00F038F857
:10E0A00070BD60880649000120394018406802F0C0
:10E0B000FBF870BD656002F005F970BD0F2070BD02
:10E0C000102C002070B5104900208A1C0D46034614
:10E0D000203D0C18A67A002E08D0A3720401641902
:10E0E000A689002E02D1A47B012C08D0401C80B24E
:10E0F0000228EED30B704B8004484B6070BD10803B
:10E1000000F046F870BD0000102C00201D1D00001E
:10E1100010B50F4C6088010120462038081881890D
:10E1200000290BD0052020700A4802218180016857
:10E13000002301220848FFF775FE10BD4168002347
:10E1400001220548FFF76EFE0421217010BD00007A
:10E15000102C0020B01F0020E01F002038B50A4915
:10E1600008480B6889884268890059185388032435
:10E1700004700020DB1C00909BB20448FFF7F8FEFF
:10E1800038BD0000102C0020B01F0020E01F002030
:10E1900010B506494888091D03F064FD002802D027
:10E1A000FFF7DCFF10BDFFF7B3FF10BD102C002000
:10E1B000F0B51D481D4907780246012502268C88C6
:10E1C000203A3B00FDF79BFC080517171A212C2C61
:10E1D00016170189491C01810021418001730B013F
:10E1E000D35C002B08D000234418491C89B2A372C9
:10E1F0000229F4D30570F0BD0123F5E74268528887
:10E20000D21CA2188A800670F0BD45880B682D01CB
:10E21000AA1855680D60536014818E80062100E0B5
:10E2200007210170F0BD0000102C0020B01F00205D
:10E23000F0B504460088384D8DB050281DD05228C6
:10E2400002D0542826D103E0A08800F057FF21E037
:10E25000062069460870A08800F0A8FB694648803F
:10E26000A2888A8000F054F9A0880022E978FEF79D
:10E27000CFF96846FFF74CFB0CE0207B012809D161
:10E28000A07A012806D120892449884202D1A08899
:10E2900000F070FFA878FEF79DF9002819D008A8B3
:10E2A000FEF7BEF8142208A903A8FCF759FF0024C2
:10E2B00003AE0BE060008719B888A978FEF796F9DD
:10E2C000002802D0B88800F019FF641C0398A0420F
:10E2D000F0D86878FEF77EF9002819D008A8FEF774
:10E2E0009FF8142208A903A8FCF73AFF002403AE04
:10E2F0000BE060008719B8886978FEF777F9002885
:10E3000002D0B88800F036FF641C0398A042F0D811
:10E3100003F0D0FF0DB0F0BDF01E00200229000078
:10E320003EB504464088694648802078002814D0CD
:10E3300001281DD002280FD1207900280CD0608838
:10E3400000F066FA0E49884206D00E490122C978CB
:10E35000FEF75EF903F0AEFF3EBD002008700846F0
:10E36000FFF7D6FA608800F053FA00F0C7FE3EBD12
:10E37000012168460170A1888180FFF7C9FA3EBD7E
:10E38000FFFF0000F01E002010B5044600780128B1
:10E390000DD1608800F0B2FE608800F07DF90028A1
:10E3A00005D0034960880122C978FEF731F910BD14
:10E3B000F01E002010B5104C00202070FEF7F2F87F
:10E3C0006070FEF7EFF8A070FEF7ECF8E070FEF773
:10E3D000E9F82071617818290BD0A178182908D0A4
:10E3E000E178182905D0182803D0012020700020DA
:10E3F00010BD032010BD0000F01E0020F0B585B058
:10E4000000F09EF86846FEF70BF800246D460C4FAE
:10E410000EE060004619B08800F0C8FAB84205D195
:10E420000849B0880122C978FEF7F2F8641CA4B24A
:10E430000098A042EDD803F03DFF05B0F0BD00000C
:10E44000FFFF0000F01E002010B50178072902D15F
:10E45000408800F08FFE10BD10B504460A48417890
:10E460002046FEF7C3F800280CD0084800210C22F3
:10E470004A4312185288A24201D1C8B210BD491CA9
:10E480000829F4D3FF2010BD081F0020A02500207C
:10E4900070B5094D094E00240C2060434019408896
:10E4A0007178FEF7A3F8002804D0641C082CF3D37D
:10E4B000FF2070BDE0B270BDA0250020081F002025
:10E4C000F8B50746104E0125BD403068FDF708FF3E
:10E4D00000280DD10D4C2069284207D1384601F0A3
:10E4E0008BF80028E06804D0284303E0A8432061AB
:10E4F000F8BDA843E0602069002228432061A1689C
:10E500003068FDF7A9FEF8BDA0320200601F0020B0
:10E510001CB5054A9168D2680192009100226946B3
:10E5200002F0BAF81CBD00001432020003480021BA
:10E53000C94381800121017000207047FC1E00202A
:10E5400010B5044801F0D4FF0349888003F0DEFED3
:10E5500010BD0000FFFF0000FC1E0020F1B582B0DE
:10E56000029800F023FA00241649032501272646C5
:10E57000884209D06A46082102F064F8002803D1D5
:10E58000019886880568841D2B46324621460298EC
:10E59000A9DF042804D0082804D00B2807D002E003
:10E5A000112000E00020002F00D10B20FEBD00272D
:10E5B000A80701D50125E7E73443F6D00024264615
:10E5C0000325E1E7FFFF0000F1B582B0029800F0FB
:10E5D000EDF907461B48874201D11B48FEBD0125C6
:10E5E0002A466D1C0026ADB26B460821384602F063
:10E5F00059F8040002D0072C21D021E0019903230F
:10E600000B600A1D891D0298AADF040004D00C2C9F
:10E6100008D0052C08D008E00821384602F0DCF8C4
:10E6200004460DE0012600E000240821384602F0EF
:10E63000BDF8002800D00324002ED1D100E00C2426
:10E640002046FEBDFFFF0000023000001FB504465B
:10E650000078012813D12079012810D1608802AAFE
:10E66000012101F0EFFF002809D102216846017065
:10E670006188418001210171054909688847044882
:10E68000044908388088884201D003F03FFE1FBD4E
:10E69000041F0020FFFF00001CB500F087F96A4648
:10E6A000012101F0CFFF002801D000201CBD0198FE
:10E6B00000781CBDF8B5074E074C084D074632469A
:10E6C00061883846A7DFA84203D16088401C60807B
:10E6D000F5E7F8BDFFFF0000FC1E0020033000003E
:10E6E0008188054A914204D00088002801D0012089
:10E6F0007047002070470000FFFF00003EB5044651
:10E7000000780D46022815D10322611C6846FCF7EB
:10E7100027FD0322211D02A8FCF722FD01AA02A960
:10E720002846FDF79FFC032201A96846FCF743FD3C
:10E73000002801D000203EBD01203EBD10B50C4692
:10E74000FFF78AFEFF280AD00C214843054907221B
:10E7500041182046091DFCF703FD002010BD0520CF
:10E7600010BD0000A025002070B5018890B01029D0
:10E7700049D1011D2C2202A8FCF7F2FC6846234E69
:10E78000007B344602AD03282AD002F02DF96846FA
:10E79000007B00280ED001280CD0022820D118E0E0
:10E7A0000E99281D1131FDF714FC002802D068468F
:10E7B000048815E00DAA6946072002F0EBF800284E
:10E7C000EED10DE00E99281D491CFFF797FF002898
:10E7D000EDD10DAA6946072002F0DCF80028F1D13E
:10E7E00068460089291D00F093FDB4420BD06846AD
:10E7F0000089214600F088F868460189418001219E
:10E800000170FFF78BF810B070BD0000FFFF000033
:10E81000084A00210C234B43D35A834204D10C20D5
:10E820004143881840887047491C0829F2D30248A0
:10E8300070470000A0250020FFFF00000620704761
:10E8400010B50E4C182060700D4A0E4900200C23A4
:10E8500043435B18401C5A800828F8D3FDF7A2FEFA
:10E860006070182804D00548C01C71DF002801D052
:10E87000032010BD01202070002010BD081F0020C3
:10E88000FFFF0000A025002070B504460D46401C87
:10E8900000F0DCF9002810D01022691C601CFCF785
:10E8A0008AFC00280AD00026294620461131113062
:10E8B000FDF78FFB01463046084370BD0126F3E7A4
:10E8C0000188002903D142189278002A01D0012042
:10E8D0007047491C0829F6D30020704710B50C4634
:10E8E0000346FFF7EDFF00280BD0188821888842E7
:10E8F00006D10822A11C981CFCF75DFC002801D061
:10E90000002010BD012010BD10B502F029FA10BD85
:10E9100010B50446007888B0002826D12079072851
:10E9200023D1608801AA072101F08CFE00281CD1A8
:10E9300002F05AF81BE0694660880988884216D0C0
:10E9400004990298FFF7A0FF002810D06088FFF715
:10E950005FFF01466846C18200210175618801831D
:10E960000188418305A8FEF7D9FF08B010BD03AAAE
:10E970006946072002F00EF80028DCD1F5E7000018
:10E9800070B50446FFF744FF0546204601F05FFEE0
:10E99000054904468D4204D0002C02D1284602F0DD
:10E9A000DFF9204670BD0000FFFF000010B5FFF743
:10E9B00053FDFF2804D00C2148430249085A10BDDA
:10E9C000014810BDA0250020FFFF00003EB5044611
:10E9D00002F00AF810E0019920464631FFF77EFF69
:10E9E000002806D1019920462A31FFF777FF002839
:10E9F00002D0684600893EBD6A4602A9072001F0A0
:10EA0000C9FF0028E7D101483EBD0000FFFF00001C
:10EA10007CB514460A000A49897802D015688D42EF
:10EA200004D3002B04D01D688D4201D204207CBD8C
:10EA30000193134602460094024802F0E1F97CBDBE
:10EA4000081F00200026002070B50C460546102146
:10EA50000948FCF79EFB0948002D09D0002C07D07F
:10EA60008470620029460448FCF77AFB002070BDE0
:10EA700000218170FAE7000000260020081F002016
:10EA8000F8B50F46002804D00120FFF77BF90120DC
:10EA9000F8BD397900290AD00026254D01290BD06F
:10EAA000244C022920681FD003293BD125E001F026
:10EAB00009FC0121397133E000200101695C022960
:10EAC0000BD0401C80B20228F7D30220FFF774F964
:10EAD0000120FFF757F91848F8BD04016019406894
:10EAE00001F0E2FB2E551BE00146002301221348F2
:10EAF000FFF798F90221A18011E001F0D5FB0C4944
:10EB00002368203149880A01094951184D68256058
:10EB10004B60A3880B810221A18005498E543E7170
:10EB20000028D9D00120FFF72DF90E20F8BD0000F4
:10EB3000F02B0020B01F00201D1D0000E01F002052
:10EB4000F8B51E4C2078002836D0E0680026002852
:10EB50000CD00025607800282ED1684652DF0528A9
:10EB600006D0002806D0FDF71BFB0BE00125F1E7DE
:10EB7000012607E0009800F06BFC2169002901D014
:10EB800000988847002D13D16078002814D1608840
:10EB900069460880A06861DF052804D0002804D0F9
:10EBA000FDF7FEFA04E0012502E0E168A06888476D
:10EBB000002ECFD0002DE5D0F8BD0000C81F0020EA
:10EBC00030B50989002A05D0D088491C814213D16B
:10EBD000002030BD0246FF32A132947946256C43B5
:10EBE00024182489A142F3D0491C19809179462226
:10EBF00051430818008902E01980D088401E5880CF
:10EC0000012030BD1048018CC9B2012917D1818C77
:10EC1000090714D1018D09060A0F03D1828D12064E
:10EC2000120F0ED0090F012903D1828D1206120F87
:10EC300007D0032903D1808D0006000F01D00020EA
:10EC40007047012070470000C00F00F00021425CB7
:10EC5000002A01D001207047491C1029F7D3002059
:10EC60007047800701D000207047012070470000E6
:10EC700010B50448017AC90702D00078FEF72CF8D5
:10EC800010BD0000C01E0020FFB5244D81B0287AC1
:10EC90001F460E46084304D0039A002E04D00021DC
:10ECA00004E0052005B0F0BD1C491031019803F0C7
:10ECB000E3FC0446014600220198FFF785F8002F87
:10ECC00003D021460198FEF709FE0D2C0DD006DC7D
:10ECD000002C0AD0042C16D0082C05D105E0112CEC
:10ECE00005D00F48C44200D003242046DAE732465C
:10ECF000E9780198FDF78CFCA978039A0198FDF753
:10ED000087FC0024F1E73246E9780198FDF780FCA2
:10ED1000A978039A0198FDF77BFCE6E73C1F0020E9
:10ED2000FECFFFFFFEB517460C00064604D0207844
:10ED3000C00704D0012003E000217EDFFEBD0220D9
:10ED4000694608713046FFF731FE1749054688428B
:10ED500008D001A800902B463A462146304600F0E4
:10ED600025F806E020782146C007304603D000F0A1
:10ED700081F804460BE07EDF044600200090002C62
:10ED800008D0002201232946304603F01DFA002C4A
:10ED900002D006E00122F5E768460179304603F02B
:10EDA00039FA2046FEBD0000FFFF0000FFB585B028
:10EDB00000252E4601AA07210E9F089801F042FC6B
:10EDC000040008D1029D4420405D1835C607F60FA7
:10EDD00001D0029D34350798204312D1002D10D068
:10EDE000002E05D128461230FFF76AFD002808D012
:10EDF00029462A461231059885DF044600203870DE
:10EE000023E0002C01D0052C1FD106980078C00704
:10EE10000DD003AB01220721089801F043FC040048
:10EE20000AD10721089801F03BFD040004D106999E
:10EE300005987EDF040008D00721089801F0B6FC91
:10EE4000002802D0052800D0032400200090387844
:10EE5000002801D0012300E00023002C07D000226D
:10EE60000899059803F0B0F9204609B0F0BD0122D9
:10EE7000F6E70000FEB50F46064601F0D7FB054653
:10EE80001848854220D001AB01220721284601F015
:10EE900009FC04000AD10721284601F001FD040005
:10EEA00004D1394630467EDF040008D007212846C9
:10EEB00001F07CFC002802D0052800D003240120AA
:10EEC0000090002C0BD002E00324002000900022D0
:10EED00001232946304603F077F92046FEBD012282
:10EEE000F6E70000FFFF0000F7B5114D0F4616468C
:10EEF00029780098FDF77AFB002812D00098FFF7D8
:10EF000055FD04460B4884420BD069780098FDF704
:10EF10006DFB002806D033463A462146009801F0A2
:10EF20005BFAFEBD324639460098FEF779FCFEBD1D
:10EF3000381F0020FFFF0000F1B586B00698FDF7EE
:10EF400049FB002821D06846FDF76AFA00246E4686
:10EF500018E060008519A8880699FDF747FB00288E
:10EF60000FD00B4FA888B978FDF740FB0590A88813
:10EF7000F978FDF73BFB0146A8880123059AFFF7C6
:10EF800083FE641C0098A042E3D807B0F0BD0000E7
:10EF90003C1F0020F0B5284C2146103948688B688A
:10EFA000227886469C46CF78667836E0182353430D
:10EFB0006168521CC918A378D2B2934200D10022D2
:10EFC0000B78022B02D0032B27D123E003464D6898
:10EFD000194603E0A94204D00B46C96900291CD098
:10EFE000F8E7002919D08B4208D1C069002805D163
:10EFF000124F0125BD600025AC4601270D68C96987
:10F00000D961002909D00B685B190B6005E0017418
:10F01000C06900E000210028F9D19642C6D1064916
:10F02000624610398A604860CF70704501D0012077
:10F03000F0BD0020F0BD0000841F00200010014042
:10F04000F8B52C4E044670680025009041E0002C75
:10F0500002D02046E46920E02648182310300178C9
:10F0600042684B43491CC9B2D21801708378994257
:10F0700000D105701178506801292CD1017C00293C
:10F0800029D191684160D16881601169C16051697D
:10F090008161F178002900D045604368B268164F5D
:10F0A000991A0902090AB94202D28268891806E04F
:10F0B000D11A09028268090A8A4202D9511A0160EA
:10F0C00000E005604560012185600174C56103F0C1
:10F0D000FBFC002CBBD107481030017840788142FE
:10F0E000BAD171680098814201D00120F8BD00209A
:10F0F000F8BD0000741F0020FFFF7F00FEB504462E
:10F100001948002684422DD02046FFF727FA050033
:10F1100012D00B2D14D0112D10D01448C5421BD085
:10F120000921684601702046FFF740FC0146684609
:10F130004180848002950DE0022102E001260BE06F
:10F140000321684601702046FFF730FC01466846FF
:10F1500041808480FEF7DCFB0548324681782046FA
:10F16000FDF756FAFEBD0000FFFF0000FECFFFFFD7
:10F17000F01E0020FEB504460026FFF725FA0546DE
:10F180000C281AD004DC002D13D0042D05D127E063
:10F19000112D10D01348C5421BD0092168460170BB
:10F1A0002046FFF703FC01466846418084800295B3
:10F1B0000DE0012102E001260BE007216846017005
:10F1C00084802046FFF7F2FB014668464180FEF747
:10F1D0009FFB0548324641782046FDF719FAFEBDEF
:10F1E0000821EBE7FECFFFFFF01E0020F8B5054633
:10F1F00000780C46002620420FD100206946087096
:10F200006846FDF781F82878204202D12043287013
:10F21000012668460078FDF795F83046F8BD0000F5
:10F220001CB5002000F022FD002802D00020C043C1
:10F230001CBD0023244A03211846FCF7D3FF0028F5
:10F2400001D0FCF7ADFF214A21490320FDF7F4FC72
:10F25000002801D0FCF7A4FF01A90020FDF7ACFBBA
:10F26000002801D0FCF79CFF68460079022828D0CE
:10F27000002069460870002000F0F8FC002801D04A
:10F28000FCF78EFF13A1032000F0D4FCFDF75CFB1C
:10F29000FDF7DAF86846007801F076FD1B48FDF7C7
:10F2A000C5FA002801D0FCF77BFFFDF7BDFF03F096
:10F2B000CDFD02F0B9FD48DF0028FCD0FCF770FF5F
:10F2C000F9E70120D5E700003820002065CB0100D8
:10F2D000CD0C00004150503A494E464F3A437963B5
:10F2E0006C696E6720537065656420616E642043AD
:10F2F0006164656E636520636F6C6C6563746F72C7
:10F30000206578616D706C650D0A00003DD50100C7
:10F31000F8B5FF240F46054600291FD0104EB54210
:10F320001CD01048012241782846FDF771F9284683
:10F33000FFF792F80446FF2804D1FFF7A9F8044626
:10F34000FF280BD00C21484307490246401845804E
:10F350008E5207223946001DFBF702FF2046F8BDFA
:10F36000FFFF0000081F0020A025002070B50B4DF6
:10F370000E46A84201D1002000E0401C84B209E002
:10F380002146304601F060FF002801D0204670BDC4
:10F39000641CA4B2FF2CF3D9284670BDFFFF000007
:10F3A0000121890740180068002800D0012070471B
:10F3B00000280FD00849094A096800BF00BF00BFF4
:10F3C00000BF00BF00BF00BF00BF914200D000BF20
:10F3D000401EF2D170470000DC1F00200024F40022
:10F3E00010B50C4C2078002801D0852010BD0020DD
:10F3F000A06060602061E060032100F02FF803F05E
:10F40000F5FA0121002801D1034881612170002013
:10F4100010BD00006C2A00200005004038B5002017
:10F42000694608706846FCF76FFF084C2078002892
:10F4300001D1FFF7D5FFE068401CE0600120A0701B
:10F4400068460078FCF77EFF38BD00006C2A00207B
:10F4500010B5002801D1FDF729FE10BD8207D30E9B
:10F46000FF229A408907090E10B5994000280BDA4F
:10F4700003071B0F083B9C080C4BA400E318DC6936
:10F4800094430C43DC6107E08408094BA400E418B2
:10F49000236893430B432360C106C90E01208840B3
:10F4A000044908600449086010BD000000ED00E058
:10F4B00000E400E080E200E000E100E0F3B581B0AC
:10F4C0000F46019801F0F8FC012400281D4E019818
:10F4D00017D0FDF789FD80192030007F80090328AF
:10F4E00002D0012806D007E01748006901998C4036
:10F4F000204201D1022100E00321019800F022FA0C
:10F50000FEBD01F0E5FC0028FAD00198FDF76CFD86
:10F5100005468100C81D0D4AF93089180A6980B274
:10F5200022430A6100F01EFA002FE9D00198FDF78E
:10F530005BFD800030580028E2D00548AC404460B4
:10F54000FEBD0000802A002000050050006500403C
:10F5500000630040FEB5044623480E4600192021F2
:10F5600041560027C8171346401C01D0082738E031
:10F57000F27819462046FDF713FD0546401C2FD0B2
:10F58000B078002807D01948A1000918086802229D
:10F590009043086007E000217378204600910A46F6
:10F5A000019100F08FF9F078002810D01048AA00DF
:10F5B0001018317802690F4B1A400261E206D20C32
:10F5C0008907890B0A4301690A43026109E0064879
:10F5D000327840192030017F92011143017700E019
:10F5E00004273846FEBD0000802A00200007005096
:10F5F00000650040FFE0FCFF03490969C140C807FE
:10F60000C00F00D0012070470005005070B5144DA8
:10F610002879002801D0082070BD11490020403908
:10F62000421E0B182033401CC0B21A702028F8D399
:10F6300000242046FDF7A6FC641CE4B2082CF8D395
:10F6400003210620FFF70AFFFF207D3000F08AF932
:10F6500001200449C007486001202871002070BDC6
:10F66000C02A00200063004002480079002800D032
:10F6700001207047C02A0020F7B505460C460079E6
:10F680001C21484332494618F07E002801D008204A
:10F69000FEBD20780127394681402E4881602068D0
:10F6A00000F046F90021606800F039F92A68052069
:10F6B00000021218A1695162617D227D2B681143FD
:10F6C0001A18D1662A680ACC1018C1604361207BE1
:10F6D000083C012813D10021A06800F020F9207B0C
:10F6E000394681401B488160E06800F021F92968B3
:10F6F000052212028918E368A0688B6008610298ED
:10F70000706021693160002814D0FF231D332A68FE
:10F71000217F0020D050FF232A684533D050032397
:10F7200028681B020C4AC01842602868000B40B2CF
:10F73000FFF794FE052128680422090240180260A0
:10F740000020F0753076B075F776B076FEBD00001B
:10F75000C82A0020000500508000020070B5054650
:10F760000C4600791C21484308494318284600F0FC
:10F7700055F8002801D0112070BD9A7500209C60BA
:10F780009882284600F004F870BD0000C82A0020C6
:10F79000F8B5044600791C2148431F490026451846
:10F7A000FF2720681D37C651206801218160294646
:10F7B000206803F071FA6968002913D027E0FF2759
:10F7C0000137FF211D31206800F061FA002802D1C5
:10F7D000A88AB842F5D1A88AB84203D02946206841
:10F7E00003F05AFAA88AA97D8842E8D3A98AC81FDB
:10F7F000F9380ED0FF271D373946206800F047FA48
:10F800000028F9D020680121C1600020A875304689
:10F81000F8BD0F26F9E70000C82A002000791C2156
:10F82000484303494018807D002800D001207047DC
:10F83000C82A0020F8B501791C2251431E4A002332
:10F840008E1805220168120289180B607168002960
:10F850000CD0032401682402184B09198B6001683D
:10F86000C903CB0E01219940154B1960052201688F
:10F8700012028A18D3685769956814690021C94330
:10F88000D160516100680522120280188160016117
:10F89000184600F03BF8384600F038F8601C02D0FB
:10F8A000204600F033F8681C02D0284600F02EF8FD
:10F8B0000020F0767060F8BDC82A002084020200A3
:10F8C00080E100E030B552000A439900039C0A43EE
:10F8D0002102049D0A4329040A430249800040187A
:10F8E000026030BD0007005030B552000A43990055
:10F8F000039C0A432102049D0A4329040A43024946
:10F9000080004018026030BD000700501CB5002187
:10F9100000910B4601220191FFF7E6FF1CBD1CB5CB
:10F9200000220B46009211460192FFF7DDFF1CBD3D
:10F930001CB5002100910B46012201911146FFF7F1
:10F94000D3FF1CBD820006481018026803231B0465
:10F950009A430260026809040A430260704700008B
:10F960000007005002494018002101607047000064
:10F9700000600040034940180068012800D00020C2
:10F9800070470000006000400048704709FA01001D
:10F9900030B5194C0546207889B0002805D060782C
:10F9A000854202D1002009B030BD202213496846AB
:10F9B000FBF7D6FB002069460875092000900B2054
:10F9C0000190082003900A2002900D4806900A48F2
:10F9D000001DFFF72FFF002D01D0002200E0094A93
:10F9E00005486946001DFFF747FE0028DBD10120CE
:10F9F00020706570D6E70000BC1F0020BC320200FA
:10FA000000E0D701D12C0200F0B5C3B00D460021B3
:10FA10004B98009149991C46081817460290002DF2
:10FA200001D00A2000E00020019002F025FC00280F
:10FA300078D103AE002C17D100986A4631182846B9
:10FA400003F0C6F800286DD03846FBF7ADFBC2289E
:10FA500000D9C220054600982A4630183946FBF7DF
:10FA60007FFB00984019009001990098421803A963
:10FA7000081831328918002203E020230370401C4B
:10FA8000521C019B9A42F8D30026029A944207D353
:10FA900020220270427082700A70C01C491C26E04D
:10FAA000499A944202D2489A125D02E0A31A4A9AF5
:10FAB000D25C01259446AB006246DA4013071B0F67
:10FAC000092B01D9373300E0303301277F1B6D1E2E
:10FAD000C3556A1CEFD12022827062461346203B38
:10FAE000C01C5E2B00D92E220A70491C641C761C97
:10FAF000102ECAD30D220A700A224A7020210170EA
:10FB0000009901980918433103A8009102F0BCFB49
:10FB1000002807D002F0B0FB002803D10090029823
:10FB20008442A1D3204643B0F0BDFFB5C5B0002547
:10FB30001C464E9F049502F09FFB002837D1049885
:10FB400005AE311804AA469803F042F800282FD0D9
:10FB50003B00FBF7D4FF0705131A2F38434F210052
:10FB60004798FBF721FB049905464018FF2813D856
:10FB700070182A464799FBF7F3FA0DE004982268BB
:10FB800030184799FBF790FF05E004980CCC30182B
:10FB90004799FBF789FF0546294604A8FDF7B6F902
:10FBA000002804D0FF200499013081422ED9002082
:10FBB00049B0F0BDA068009004980CCC301847996B
:10FBC000FBF772FFE7E7E168A068009001910498F5
:10FBD0000CCC30184799FBF767FFDCE7204608306C
:10FBE00007C86B4607C304980CCC30184799FBF73D
:10FBF0005BFFD0E7204608300FC86D460FC504985C
:10FC00000CCC30184799FBF74FFFC4E705A802F06A
:10FC10003BFBCDE7004870472BFB010038B5009354
:10FC2000034B0D465C69134600212A46A04738BDA8
:10FC3000882D002010B500231A46FFF7EFFF10BDF6
:10FC400008B5009201236A46FFF7E8FF08BD1CB51E
:10FC50000193009202236A46FFF7E0FF1CBD0000FB
:10FC6000014A916150617047882D002070B50120D4
:10FC7000FFF78EFE040008D1FFF7CCFF0546FFF723
:10FC800083FE01462846FFF7EBFF204670BD405833
:10FC9000002800D00120704703221202801840681B
:10FCA000084000D001207047F0B50188041D85B0E0
:10FCB0001D2927D00CDC102914D0112968D01B294C
:10FCC00004D12079022801D102F0AEF805B0F0BDD0
:10FCD0001F2959D03A2960D05529F7D1808813219E
:10FCE00076DF0AE081882F48FCF7DCFD002801D090
:10FCF000FCF756FA0720FCF791FF0028E6D0FCF746
:10FD00004FFAE3E720460D300290207B6946C00899
:10FD100088816A4602A90220FCF76FF9002806D004
:10FD20006A4602A90320FCF768F90028CED11E4ECE
:10FD3000694689880020093E1B4D4B0821E041009F
:10FD4000009A4F1CD25D009F1202795C1143A942B8
:10FD500001D0B14214D18BDF0020FCF75FFF0028F7
:10FD600001D0FCF71DFA1148FD2201781140017005
:10FD700001460F4A201D8CDF0E4900204870A5E780
:10FD8000401C8342DBD8A1E72088211D75DFB4E742
:10FD9000FCF768FB002897D098E78088132176DF6E
:10FDA000ABE7000080200020161800002C22002065
:10FDB000CC310200B01E0020F3B583B003980C468E
:10FDC000FF3081300988408D81425BD1039F4621FD
:10FDD000FF37A137B879484303994618608800284F
:10FDE0003DD12046083001903579207A2818052821
:10FDF00000D9052030710020009014E000980A21FD
:10FE0000484301990A2241180C2068438019029046
:10FE10000A30891CFBF7A4F902980021818200981E
:10FE2000401C6D1C00903079A842E7D80C20454357
:10FE3000A819C288B8794623039958434018008905
:10FE400082420CD23079052809D078712188039834
:10FE5000FDF7D2F8010015D00020F87109E0002567
:10FE60007D71228869460398FDF7ECFB01000BD0F9
:10FE7000FD7122880398FDF79DFC0D480321017058
:10FE80002188418005B0F0BD684600780028F9D08F
:10FE90002388328807490320FFF7D9FE22880121F1
:10FEA0000398FDF741FC2188039800F04DF9E9E73C
:10FEB000C0230020A0340200F8B50546FF300C46F0
:10FEC00081300988408D814244D12E46FF36A136CB
:10FED000B07946214843471970790C225043C01924
:10FEE0000A308646214660880831002813D10B88E5
:10FEF000234A9C460DE0062343435B189B889342AC
:10FF000006D106225043401841887046418102E0E4
:10FF1000401C8445EFD80020694608707079397913
:10FF2000401C884203D101206946087017E07071B7
:10FF3000228869462846FDF785FB01000BD000208A
:10FF4000F07122882846FDF735FC0E480321017028
:10FF500021884180F8BD684600780028FAD02388BF
:10FF60003A8809490320FFF772FE228801212846BA
:10FF7000FDF7DAFB2188284600F0E6F8F8BD00001E
:10FF800002290000C023002064350200F0B50C46B1
:10FF900006460089898885B0884238D1A089F188D1
:10FFA000884234D1022168460170A1884180A77C33
:10FFB0000120F90713D069462546087113352846F4
:10FFC000FBF706F9E9780002000A090608430290E7
:10FFD000217EE27D08021043694688810720B90727
:10FFE00011D501216A4651712118CA7C8B7C1102FE
:10FFF00019436A46801CD1812018C17C827C08028A
:020000040002F8
:1000000010436A461082326869463046904705B010
:10001000F0BD000010B5134A00215170017A01298A
:1000200011D002290ED18189491C8181C189491CC5
:1000300089B2C181028A914204D1002102F0F8F80C
:1000400001F096FC10BD838AC28A991AFF2901DC4F
:1000500089B201E0FF210131511889B2C182994270
:10006000EBD010BDB81F0020F8B50746FF37054696
:10007000A1370C46B879462148434619FF20AB30DA
:100080002188405B814210D16088328800280DD0E1
:1000900015A10320FFF7D4FD228800212846FDF793
:1000A00043FB2188284600F04FF8F8BD1AA1032031
:1000B000FFF7C6FD61893180A1897180E189F180F6
:1000C000208A308121882846FCF796FF0100ECD079
:1000D0000020F87122882846FDF76CFB194803219F
:1000E000017021884180F8BD424C455F44425F4425
:1000F0004953433A494E464F3A53657276696365B0
:1001000020555549442030782578204E6F7420665C
:100110006F756E640D0A0000424C455F44425F44B7
:100120004953433A494E464F3A466F756E642073C1
:100130006572766963652055554944203078257885
:100140000D0A0000C0230020F8B50446FF3406461F
:10015000A134207A0D46401CC0B217492072CA68EB
:100160000021904226D26171A0794622401CC0B283
:1001700042439719A071114A8000801802883A8082
:100180004088788039712B460D490320FFF75FFDC9
:100190003A460121284690DF01000AD00020E07194
:1001A0002A463046FDF706FB04480321183001704B
:1001B0004580F8BDE171F7E7E01E0020A82300208C
:1001C00008350200F7B51C4D0E4601466A6F002047
:1001D00082B0032A2DD82C4678340827636CBF1BC5
:1001E000BB4226D8286F10188007800F1C2250436E
:1001F0004019FAF7B5FF686F401C6867002E17D0EA
:10020000216C606C40184007800E0019002300909C
:1002100009E00498D9000A1806CA009806C0684682
:10022000FCF71AFF5B1CB342F3D3606C8019606467
:10023000012005B0F0BD0000302B00200389CA1C4E
:100240009A1802814289511AC91E418170470000E3
:10025000F7B50D46012189024718044600260834E7
:100260000220288012E02046FEF73AFA002817D034
:100270000C48A1684268914200D9416060888100C1
:100280000C1929880818C01C28800C34BC4202D2E2
:100290002068401CE7D10298002800D00670FEBDFF
:1002A0000126EBE7A01F002008B5002100910146C0
:1002B0000223024A0248FDF75BFE08BDB432020089
:1002C000E01F002008B500200090044802230168C8
:1002D000034A0448FDF74CFE08BD0000B01F002093
:1002E000AC320200E01F0020F8B50025354F2C4647
:1002F0002E4600953448B102006840180168B942A2
:1003000005D1324A4168891830D001290CD000212A
:100310008A0082580346521C36D003202C49220101
:100320008854641CA4B21BE0009900290CD0284B0F
:10033000022221015A54274A1368254A89180222A9
:100340004B60641C0A81A4B2224900220860091D86
:10035000FFF77EFF1F488088022831D00820054320
:10036000761CB6B2032EC5D3E8B2F8BD18490023F7
:1003700022018B5451180A4648600E320831FFF7AB
:1003800067FF02200543CCE7491CFF29C0D911496A
:100390000A68002A0CD00E4A02212301D1549A186F
:1003A00050600B48118120304480641CA4B204E0EA
:1003B00002200B6088800120009001200543CFE7D8
:1003C0000420CCE7DEC0ADDEE01F002002FEE10E1F
:1003D000F02B0020B01F002070B5184D0E460446CB
:1003E00023CD86B0029500900191684644808280BA
:1003F0008371134D2046A978FCF7F8F8002803D044
:100400003046FEF7BDFA0FE00721304600F0CEF986
:10041000002809D0052807D1092269460A73CC8132
:10042000049003A8FDF79CFA002229782046FCF7E7
:10043000EFF86846FDF794FA06B070BD843202000A
:10044000381F0020F0B585B00746FCF7C3F8002838
:1004500014D06846FBF7E4FF00246D460BE0600013
:100460004619B0883946FCF7C1F8002802D0B08898
:1004700002F0A2F9641C0098A042F0D805B0F0BDCB
:1004800070B5054D06460024A0002958304688471F
:10049000641C052CF8D370BD343202003EB50F4DFC
:1004A000002414206043401902F036FD641C082C1F
:1004B000F7D30821502001910A490124C20002907B
:1004C000074B0094881800F03EFD002801D003205F
:1004D0003EBD0348447000203EBD0000A02800201F
:1004E000201F00201026002010B500F04BFA10BD90
:1004F00010B500F04BFA10BDF0B5002585B00095A1
:10050000019502950395044641886846418021790A
:1005100001712E462179608802F0D8FC22780421EE
:10052000404F1300FBF7EBFA0A0606361C1C383E58
:1005300043484B4D00280DD0417CC9070AD002F03A
:10054000FDFC684606702078012800D0002069462E
:1005500008722AE0012069460870A068029024E031
:1005600000280ED08268A3689A420AD1427CD30741
:1005700007D07B6852085B1C52000A437B604274C0
:100580001FE0022069460870E06803900DE0FFF765
:1005900077FF16E0032006E068460170E0680290ED
:1005A0006846F4E70520694608700846EFE706202C
:1005B00069460870E068D1E701250720F3E7E068A5
:1005C00002907868002824D0174E00241420274673
:1005D0004743B819417C4A0703D48907C90F294208
:1005E0001CD08178F05B00F0F7F8002816D01421B9
:1005F0004C43325B69464A80B9198A7869460A7168
:10060000042808D009216A46117002906846FFF755
:1006100037FF05B0F0BD08200870F7E7641C082C10
:10062000D4D3F6E7201F0020A028002010B500F04A
:1006300071FA10BD08B513889B0000936B4600F05B
:10064000DBF908BD10B5002300F0D6F910BD38B5B0
:100650000546002420460AE08178284600F0A6F8E6
:10066000002802D0052800D003240098401C0090E8
:100670006946284602F03CFC0028EDD1002C07D149
:10068000284600F04FFA002802D0072802D00324A1
:10069000204638BD0724FBE710B51346002200F0C2
:1006A000E3F910BDFFB581B0049815460E46002849
:1006B00004D0072E05D0082E19D102E00E2005B077
:1006C000F0BD002D13D0082D11D8019800F035FA97
:1006D00000280CD0002000903146019802F0F6FB73
:1006E000041E26D0E068A84212D2002709E00720A5
:1006F000E5E7207CC019C1B22A4800F05CFC7F1CF1
:10070000FFB2E068B842F4D8204602F005FC10E0E1
:10071000A84217D9EFB207E0207CC019C1B2214826
:1007200000F049FC7F1CFFB2E068B842F4D8002C0E
:1007300008D1FF211C48019F02F0C8FB041E05D010
:100740000780A670207CFF2802D00AE01120B6E7BF
:100750002946144800F0C8FB2074FF2813D001205C
:100760000090E560217C0F4800F00EFC02000ED0E6
:10077000ABB23146049800F071FA009800280FD00F
:10078000082E06D00CE0204602F0C6FBDEE7032070
:1007900095E704980499008849688000801F888044
:1007A00000208CE790280020FFFF000070B5002497
:1007B00002F08CFB05000CD06868002804D000F023
:1007C000D8F9040000D00324284602F0B7FB2046E5
:1007D00070BD052070BD00007CB50D46064607299A
:1007E00003D0082D01D007207CBD0020009001908F
:1007F000684685702946304602F068FB040004D044
:10080000607CC00703D000207CBD05207CBD217C1E
:10081000214800F0B9FB020025D029466846E3686C
:1008200000F0AFF9684602F03FFB23460833694603
:100830003046626800F018F90246607C17494307A9
:1008400004D5830702D54B685B1E4B60FB25FD2357
:10085000002A0AD0112A0DD0042A14D0072A00D069
:10086000032210467CBD03207CBD012108432840A3
:1008700018400EE04A68521C4A60042108431840A0
:1008800060740022EDE74B6828405B1C4B6002213E
:1008900008436074E5E7000090280020201F002036
:1008A0007CB50D46072903D0082D01D007207CBD5B
:1008B000002602F00BFB040003D06068002802D081
:1008C0001BE005207CBD217C0E4800F05DFB02464C
:1008D00000200090019068468570002A0FD02946BC
:1008E000E36800F04EF9684602F0DEFA211D684622
:1008F00000F027F90646092801D030467CBD0320C8
:100900007CBD0000902800200149096808470000CC
:100910003032020070B588B01748FDF7D1F90028D1
:1009200002D0032008B070BDFDF706F9002801D001
:100930000420F7E700F0E8F90020104C0290E61FD1
:1009400003900DE0694604A8FDF77EF900988088C1
:10095000801B85B204A8FDF735F9284600F088F918
:1009600002AA04A92046FDF754F90028EAD0044958
:10097000012008700020D5E789D9010007C00000D8
:10098000141F002010B500F09DF910BD10B500F047
:10099000A1F910BD70B505460320800386B014464A
:1009A0000E46281880B20F4A6946FDF732F9002832
:1009B00005D103A96846FDF747F9002802D00020B9
:1009C00006B070BDA57003984088208004986060D0
:1009D00003988088FDF7C4F930806846FDF7F2F887
:1009E0000120EDE7181F00200248002141608160CE
:1009F00070470000141F0020F0B587B01D46144654
:100A000007460E46FF280CD8084600F017F90028C4
:100A100007D003AA3146384600F0F8F8002809D17B
:100A200002E0072007B0F0BD01A903A8FDF70CF90B
:100A3000002801D00520F5E7A6700198002D408818
:100A400020800AD082002868904204D80299606809
:100A5000FAF786FB03E00420E4E70298606003A84D
:100A6000FDF7B0F80020DDE77FB588B01D460C46E5
:100A70000646FF2831D8A07800F0E0F800282CD0F6
:100A800060680690208869468883304600F076F9D1
:100A900069460880A0780321890340186946488088
:100AA00006A8019001200881A17803AA304600F031
:100AB000ADF8052813D00AA8FDF72EF9694603A85A
:100AC000FDF7E4F8002818D0072820D008281CD00B
