:020000040001F9
:10B00000D8340020D5B00100EFB00100F1B001004C
:10B010000000000000000000000000000000000030
:10B02000000000000000000000000000F3B001007C
:10B030000000000000000000F5B00100F7B00100C2
:10B040006DB40100F9B00100A9B50100F9B001002B
:10B05000F9B0010000000000D9B20100F9B0010010
:10B06000F9B00100F9B00100F9B00100F9B0010038
:10B07000F9B00100F9B00100F9B00100F9B0010028
:10B08000F9B00100C1B40100F9B00100F9B001004C
:10B09000E1B40100F9B00100E9B40100F9B0010028
:10B0A000F9B00100F9B0010000000000000000004C
:10B0B0000000000000000000000000000000000090
:10B0C0000348854600F0AAF8004800479DE80100C3
:10B0D000D83400200321094802680A430260084866
:10B0E00002680A4302600748804707480047FEE7B6
:10B0F000FEE7FEE7FEE7FEE7FEE70000240500406E
:10B100005405004009B50100C1B0010030B50B463F
:10B11000014600202022012409E00D46D5409D4231
:10B1200005D31D469540491B2546954040191546B7
:10B13000521E002DF1DC30BD03460B439B0703D0AC
:10B1400009E008C9121F08C0042AFAD203E00B78EC
:10B150000370401C491C521EF9D27047D2B201E064
:10B160000270401C491EFBD270470022F6E710B562
:10B1700013460A4604461946FFF7F0FF204610BD65
:10B18000421C0178401C0029FBD1801A704730B561
:10B1900004460020034600E05B1C934203D2E05CBF
:10B1A000CD5C401BF8D030BD0321001D401E03784C
:10B1B00012021A43491EF9D510467047F0B51FB464
:10B1C0000646002082B005464024019100901BE015
:10B1D000019922460F46304600F042F8049A059B3A
:10B1E000801A994110D310461946224600F028F8DB
:10B1F000361A8F410197224601200021009F00F05E
:10B200001FF838184D4100902046641E0028DFDCEE
:10B21000019B00982946324607B0F0BD064C012537
:10B22000064E05E0E36807CC2B430C3C98471034EE
:10B23000B442F7D3FFF748FF242C0200442C02004D
:10B2400010B5202A04DB0146203A9140002010BDB1
:10B25000914020239C1A0346E3401943904010BDBF
:10B2600010B5202A04DB0846203AD040002110BD4A
:10B270000B46D340D0402024A21A914008431946DF
:10B2800010BD70B58C180578401C6B075B0F01D1A1
:10B290000378401C2A1106D10278401C03E006788E
:10B2A0000E70401C491C5B1EF9D12B0705D40023EE
:10B2B000521E0DD40B70491CFAE70378401CCB1AC0
:10B2C000921C03E01D780D70491C5B1C521EF9D5C1
:10B2D000A142D8D3002070BDF0B50025FF268BB069
:10B2E000013601242F460195304603F087FE0028E1
:10B2F00007D048484068204203D0304603F076FE2D
:10B300002543361D64007F1CB6B2042FECD3FF2406
:10B310007D34204603F072FE002807D0204603F05B
:10B3200065FE600705433C48006901903B4C2807D7
:10B3300014D0012700262F420CD03948B200111832
:10B3400008690969C004C00E8903A258890F002A40
:10B3500000D090477F00761C042EECD3002D57DAE6
:10B3600000200590401E4DE0A11940310878850667
:10B37000AD0E42B2521C39D00121A940089A009169
:10B38000114233D080090390284601F075FB8000FC
:10B3900020580490002802D10398032826D103984E
:10B3A0000099032802D10598084305901D4AA8007A
:10B3B00080180068019A8003800F114202D0022891
:10B3C00002D013E0032811D10399032907D10228E1
:10B3D0001CD00221284603F0F9FD7F1CFFB204981F
:10B3E000002803D0049A284603999047761C042E1F
:10B3F000BAD3002F0CD0084800690199884207D0C1
:10B400000190059800273E460890ADE70321E1E74B
:10B410000BB0F0BD0063004000050050B4290020CF
:10B4200000650040000700508307FF22DB0E9A40B2
:10B430008907090E994000280BDA0007000F083829
:10B44000830808489B001818C36993430B43C361E2
:10B450007047830804489B001B18186890430843F2
:10B460001860704700ED00E000E400E0F8B5FF2050
:10B47000013003F0D9FA002401250E4E0E4F0028AA
:10B4800007D00E4804600120B0607D70002001F0FC
:10B4900055FBFF20053003F0C7FA002808D0074805
:10B4A000001D04600220B060BD70012001F046FB69
:10B4B000F8BD000000030040A0290020000100406A
:10B4C00010B506490020086048608860C8600349DC
:10B4D00040390860486006F0ABFE10BD40110140E5
:10B4E00010B506F017FE10BD10B5064840680028DC
:10B4F00005D08047002801D000F0C4FB10BD02F049
:10B500005DFE10BDBC1F002010B502F0B9FE002882
:10B5100005D01F491D484860C8131E4988611E4850
:10B52000018CC9B201290BD1828C120708D1028D7E
:10B530001206120F042A03D1828D1206120F0AD0AE
:10B54000012921D1818C09071ED1018D0906090F1E
:10B550000A2904D007E0114A01219160F5E7828DA4
:10B560001206120F05D00D290ED1808D0006000F96
:10B570000AD10B480168012904D00A490160016819
:10B580000129FCD1C021416110BD0000DFFF07C0CF
:10B5900000050040006C0040C00F00F000060040B5
:10B5A00000EC06407593000010B50249024806F011
:10B5B00003FF10BDFC290020002000400FB410B58F
:10B5C00004A9074B02AA039800F036F8044602A922
:10B5D000002000F06BFA204610BC08BC04B01847ED
:10B5E000ADBA010030B47446641E2578641CAB42C9
:10B5F00000D21D46635D5B00E31830BC184702E0D3
:10B6000008C8121F08C1002AFAD1704770470020ED
:10B6100001E001C1121F002AFBD17047202804DA83
:10B62000012181400348014201D0012070470020E0
:10B6300070470000FC06FFBCFFB591B00F46054601
:10B64000002606E025280AD0149A139990476D1C0D
:10B65000761C28780028F5D1304615B0F0BD0024BE
:10B6600000940121F34A029400E004436D1C2B78FE
:10B670000846203B98401042F7D128782A280ED05F
:10B68000022128780246303A092A15D8009A0A235E
:10B690005A43303A80180C436D1C0090F1E701CFFB
:10B6A0000090002805DA012040030443009840423E
:10B6B0000090022004436D1C28782E2815D1042008
:10B6C000044368786D1C2A280AD101CF6D1C0290B2
:10B6D0000BE002990A225143303940186D1C029048
:10B6E0002878014630390929F3D928786C2810D0F8
:10B6F00006DC4C281AD068280ED06A2817D104E03E
:10B70000742813D07A2812D110E001204005044398
:10B710000CE00121090501E0032109050C436978CA
:10B72000814203D10120000524186D1C6D1C28786E
:10B7300003906E281ED00CDC632831D004DC002876
:10B740008AD0582811D1B2E064287BD069280CD166
:10B7500078E073282DD004DC6F2870D0702804D1D5
:10B76000A7E075286CD078286BD0149A139990476D
:10B77000761C62E06002400F022807D003280AD03E
:10B78000042838680AD006603F1D56E03868F11773
:10B7900006604160F8E738680680F5E70670F3E771
:10B7A0003878694608740020487404A80390012082
:10B7B00003E0386803900020C0433F1D61070FD5A8
:10B7C000002101E00199491C029A0191914213DA8A
:10B7D0008142F7DB019A0399895C0029F2D10BE0E1
:10B7E000002101E00199491C01918142FADB019A93
:10B7F0000399895C0029F5D101990098139A401AA0
:10B8000000902146149B00F03BF9019980194618DD
:10B8100007E0039803990078491C0391149A13993F
:10B8200090470198401E0190401CF2D12146149B84
:10B83000139A009800F014F986196D1C09E741E08D
:10B8400033E034E00A200021049005916002410FAA
:10B85000022905D001CFC2179446032905D007E07D
:10B86000FF1DFF08FF0003CF06E000B2C217944699
:10B87000042902D140B2C1178C460022614694458A
:10B8800006DA0A460021404291418C462D2102E011
:10B89000210504D52B216A461176012103E0E10739
:10B8A00001D02021F7E7019154E00A200BE010209D
:10B8B00009E0102004900021042004430820059191
:10B8C000029003E008200021059104906002410FDE
:10B8D000022905D001CF00229446032906D006E0B4
:10B8E000FF1DFF08FF0003CF8C4603E080B2042950
:10B8F00000D1C0B20021019121072BD503997029F5
:10B9000006D0049A1021059B4A401A4305D00EE048
:10B9100040216A461176012108E06146014306D0C4
:10B9200030216A4611760399517602210191049AD9
:10B930000821059B4A401A430CD16146014301D1BD
:10B94000610707D530216A461176012101910299DC
:10B95000491E02910399582904D037A103910FA9D8
:10B960000F910DE039A1F9E76146059B049AFFF7B5
:10B9700025FC039B8C469B5C0F9A521E0F92137002
:10B9800061460143F0D10F9807A9081A20300390AF
:10B99000600704D5012000048443029801E00120DF
:10B9A00002900399884201DD401A00E0002041180E
:10B9B0000290019809180098401A0090E00306D4FC
:10B9C0002146149B139A009800F05AF8861900201B
:10B9D000049008E006A9085C149A1399904704980B
:10B9E000401C761C049001998842F3DBE0030CD5DF
:10B9F0002146149B139A009800F042F8861904E03F
:10BA0000149A302013999047761C0299481E029090
:10BA10000029F5DC08E00F980F990078491C0F9178
:10BA2000149A13999047761C0399481E0390002995
:10BA3000F1DCFBE60928010030313233343536378A
:10BA4000383961626364656600000000303132336A
:10BA5000343536373839414243444546000000000A
:10BA6000F8B5044600251E461746880404D405E0B0
:10BA700039462020B0476D1C641EF9D52846F8BD14
:10BA8000FFB50446002581B01E46C80301D5302706
:10BA900000E02027880404D505E038460399B04724
:10BAA0006D1C641EF9D5284605B0F0BD0A68531C0C
:10BAB0000B601070704710B500280CD000290AD018
:10BAC00002780B789A4206D10622401C491CFFF7E7
:10BAD0005EFB002801D0002010BD012010BD70B514
:10BAE00000238D880C680DE0E6187678E15C8642CC
:10BAF00006D1E018801C491E10609180002070BDA6
:10BB00005B185B1C9D42EFD8052070BD10B501226B
:10BB10000221002000F0A6FD002801D0072812D144
:10BB200007220221012000F09DFD002801D00728F6
:10BB300009D100210A22084600F094FD002801D016
:10BB4000072800D1002010BDF0B50F468DB00021B0
:10BB500016466D460F24621A825C6A54491C1029ED
:10BB6000F9D328460D211030FFF7FFFA0020221AE2
:10BB7000395C5219401C11740328F8D368464DDF14
:10BB80000020211A4919203109783154401C03281A
:10BB9000F7D30DB0F0BD0000044842680121C9058B
:10BBA0000B46934383600A40C26070470005005013
:10BBB00070B50024064D06E06968E000085C0121CC
:10BBC00002F0C0FF641C28788442F5D3002070BDC9
:10BBD000541F0020F8B515460C460646052A01D22A
:10BBE0000720F8BD03F084F8002803D103F052F8D1
:10BBF0000028F6D1104900204E600C70C8608D609E
:10BC000008610E4D0DE0E0006968801900918178AF
:10BC10006A46517000780A4A694602F0DFFF002840
:10BC2000DFD12046641EE4B20028ECD1054A002191
:10BC3000024800F033F8F8BD541F002078290200B4
:10BC40003DDB010045CD010006A1012003F036FBDC
:10BC5000BFF34F8F0A490948C860BFF34F8F00BF39
:10BC6000FDE700004150505F4552524F523A455255
:10BC7000524F523A466174616C0D0A000400FA0595
:10BC800000ED00E00EB50021029000916A4601919E
:10BC90000148FFF7D9FF0EBD01400000094B5B686A
:10BCA000002B07D0002A07D0002805D00068037CAD
:10BCB000002B03D008207047072070474174426171
:10BCC00000207047781F0020FFB507469007002529
:10BCD00081B01E461446002825D1002C23D005F043
:10BCE000D3FB3046114EF060304610300570457081
:10BCF0000299817044607560357001240C4875703C
:10BD00002405046003211420FFF78EFB094804601A
:10BD1000094CA76003211120FFF786FB6068B06023
:10BD2000002005B0F0BD0720FBE70000681F0020E1
:10BD300080E200E000E100E000150140FEB51F4B8D
:10BD40005B68002B30D000282ED0052901D20720B7
:10BD5000FEBD4369002B27D0437C012B26D0002752
:10BD6000029104460025694616460D70684600F0AB
:10BD70003DF801A806F0C0FB002819D00121017090
:10BD80000F49446049688160029907614661C1605A
:10BD900068460A49007948706846007800F044F81F
:10BDA00006F0FAF92846FEBD0820FEBD0F46D7E78B
:10BDB00068460425007800F037F8F3E7781F002084
:10BDC0000015014010B50849496800290AD000282B
:10BDD00008D04169002905D000210174022106F034
:10BDE00003FA10BD082010BD781F002030B5EFF316
:10BDF000108172B6094A54680123002C04D00370E4
:10BE0000002900D162B630BD5360054B1D68054C5A
:10BE1000254015601C6000220270F1E78C1F002095
:10BE200080E100E0FC06FFBC08494A68002A0CD00B
:10BE300000280AD1EFF3108072B60A68044B1A602A
:10BE400000224A60002800D162B670478C1F002093
:10BE500000E100E0F0B504468BB0008800F0FAF88D
:10BE60000590208802F0E0F80646A0680090657A08
:10BE7000684605741E4F20880022397800F03AF990
:10BE80000598002831D06079400710D50721304649
:10BE900003F0DEFF002813D0082269460A742288C6
:10BEA0004A828E82069004A801F098F808E0208863
:10BEB000B97800F00DF9002802D0304602F09EF863
:10BEC0000321684601712188C18060794007C10F54
:10BED00068460172A0794007C10F68464172017837
:10BEE0008172C57201A801F079F80BB0F0BD0000B5
:10BEF000301F002010B534210148FFF736F910BD7E
:10BF0000A822002010B503490A7D091D05F0FBFB9E
:10BF100010BD0000A8220020034B10B50246D97DB9
:10BF2000181D05F0DDFB10BDA822002010B5FFF79D
:10BF3000E1FF10BD034B10B50246197E181D05F038
:10BF4000CFFB10BDA822002010B50349887D497D94
:10BF5000084005F0FBFB10BDA8220020F0B5044608
:10BF600002883A488DB0014615310191102A09D056
:10BF7000112A50D01A2A4AD1217A090901294ED909
:10BF800001234DE0027D417D05468A43011D07A83E
:10BF900005F0B9FB142207A902A8FFF7CDF8002687
:10BFA0002A483746143008900AE0710002A80818A1
:10BFB00083881D220097281D089905F051FB761CE7
:10BFC0000298B042F1D8287DA688C043C0B205F0DF
:10BFD0006BFB1F49884217D040004019868001231F
:10BFE0003246281D019905F0C1FB01233246281D68
:10BFF000089905F0BBFBA07D02280AD00023134955
:10C00000A2881631281D1DE00420FFF73BFE0DB06D
:10C01000F0BD0123F3E70023A288001D12E00023F6
:10C020000A490546A2881731001D05F09FFB207ABA
:10C030000009022801D9012300E000230349A28856
:10C040001831281D05F092FBE1E70000A82200202E
:10C05000FFFF000070B50B4E05460024317D2A46D7
:10C06000301D05F03DFB002809D0B17D2A46301D6A
:10C0700005F036FB002801D0022400E00124204610
:10C0800070BD0000A822002010B50024204606F054
:10C0900027FA002805D0641CE4B2182CF6D3182027
:10C0A00010BD044801220168A240114301602046EE
:10C0B00010BD0000A822002010B5044606F010FABA
:10C0C000002802D001480019407E10BDA82200209F
:10C0D00070B505460C46084606F002FA002806D060
:10C0E00003482A460119497E001D05F0F9FA70BD82
:10C0F000A822002070B5064615460C46084606F0F4
:10C10000EFF9002807D004482B4601193246001DDC
:10C11000193105F02BFB70BDA822002070B5002856
:10C120000AD00F4D2978002908D0044605F076F88A
:10C13000002805D0002070BD0E2070BD082070BD05
:10C14000E868062809D2074A8100891822880A80EF
:10C1500062884A80401CE860ECE7042070BD000063
:10C16000D81E0020DC220020002808D0002205492B
:10C170000123CA600B708A604860104670470E2029
:10C1800070470000D81E002010B5002811D00029EB
:10C190000FD0124A1278002A0BD00A88112A11D027
:10C1A000302A07D0322A09D0332A02D1091D03F0E0
:10C1B000BFF910BD091D03F093FA10BD091D03F06E
:10C1C00037F910BD8A88FF21AB31095A8A42F8D16C
:10C1D0000021FF30A130C17110BD0000D81E002029
:10C1E00070B50E4600280ED017490A78002A0CD0E8
:10C1F000CA68002A09D00446FF34A134E279002A33
:10C2000005D0112070BD0E2070BD082070BDFF222A
:10C21000AB32165200228A60054622720B48A27188
:10C2200001882980408868808AB233460849032003
:10C2300003F051F82A460121304690DF0028E5D16D
:10C240000120E071002070BDD81E0020DC220020FB
:10C250001C2A020010B50446FFF780FE204604F0B9
:10C2600065FB21460648FFF78FFF2146054800F091
:10C2700033F8204600F012F9204603F059F810BDBB
:10C280007420002020220020002808D00180002AED
:10C2900003D01188418051888180002070470E2092
:10C2A0007047000008B5002812D0002910D00123E3
:10C2B0006A469370074B1380096881600021C94367
:10C2C00001800021418081806846FFF727FF08BD7B
:10C2D0000E2008BD1618000010B500280AD000294D
:10C2E00008D00A88112A0DD0382A04D0392A01D161
:10C2F00003F088F910BD008889888842FAD105F0DA
:10C30000EFFF10BD028889888A42FAD10021C94313
:10C31000018000214180818010BD000010B50028FF
:10C3200005D0038806498B4203D1082010BD0E209A
:10C3300010BD41880122184600F040FB10BD0000EE
:10C34000FFFF000030B50446087885B0002839D1D9
:10C3500088881D4A904235D18879012832D1488891
:10C360006A4650800022194B087A0FE00C2555438D
:10C370006D18ED899D4208D10C2042435018028B64
:10C3800069468A80C08AC88002E0521C9042EDD87B
:10C390000F49032002F092FF20880E4988420BD0FB
:10C3A0006088002808D1A088002805D168468088C8
:10C3B00060806846C088A080012069460870A26835
:10C3C0002046904705B030BD161800005B2A0000DB
:10C3D000442B0200FFFF000000B5174887B000683B
:10C3E000059000234822154905A805F043FE0028C2
:10C3F00001D0FFF747FC6A460021012005F022FE2C
:10C40000002801D0FFF73EFC684605F0ADFD00288E
:10C4100001D0FFF737FC0A4805F09CFD002801D049
:10C42000FFF730FC074805F057FE002801D0FFF762
:10C4300029FC07B000BD0000A0280200E41F002076
:10C4400055C20100ED2002007CB5134E00250C46BC
:10C450003060002918D06946002000F0B5F80028A7
:10C4600019D101A9012000F0AFF8002813D16846C6
:10C4700001790020002901D0022004E069460978F2
:10C48000002900D00B2020707068002802D1FFF72F
:10C490003DFB054628467CBDD01E002010B51C4C37
:10C4A0000188606810290DD011290AD1401E6060F2
:10C4B00007D1FFF72BFB002803D02168002900D00B
:10C4C000884710BD00281ED100210122084600F037
:10C4D000C9F8002801D0072811D107220221012024
:10C4E00000F0C0F8002801D0072808D1042202215A
:10C4F000002000F0B7F8002805D0072803D02168F5
:10C50000002900D088476068401C606010BD0000B2
:10C51000D01E002010B5032000F022FA002801D020
:10C52000062800D1002010BDF8B507460024234896
:10C5300002E0641C042C1AD2A2008258BA42F8D13C
:10C54000042C14D21D481E4E0C38002929D0012974
:10C550000ED002290BD16000201880194578002DDB
:10C5600005D018480169002901D028468847F8BD40
:10C5700061006118755C8E19717800290CD0114921
:10C580000A224968806851430E4A521CFFF7D6FBC5
:10C59000002801D10B4847700A48B1781430015582
:10C5A000DDE78068FFF70EFC064861006118143073
:10C5B0008919005D8D78A842D1D0F8BDB828020055
:10C5C0007C220020B81E002004280CD2074A1269E1
:10C5D000074B80001B5C01209840904300D0012055
:10C5E0000870002070470020FAE7000000050050A6
:10C5F000B828020070B51A4C042815D007281BD0A3
:10C600000A2810D1002000F051F8002801D0FFF7CF
:10C6100039FBFFF77FFF002801D0FFF733FB3CDF3A
:10C6200007E0FFF72FFB70BD1321A08876DF0828F5
:10C63000F9D00028F5D170BD2078012501280AD154
:10C640006078002807D165708BDF002805D00828A6
:10C6500001D0FFF717FB657070BD04F055FFFAE7D6
:10C66000B01E002070B50023042811D24400041924
:10C670000D4D012A02D101290DD00022460080195A
:10C68000094E801900290CD0012906D0022906D0B4
:10C690000723184670BD0D30C2B22A55F9E7427023
:10C6A000F7E78270F5E700007C22002010B5054A0C
:10C6B0000146127A0020D20702D0084600F054F852
:10C6C00010BD0000B81E002070B50E46204905467A
:10C6D0004E608D6000200A61A9071ED5002401224A
:10C6E00011462046FFF7BEFF641C042C02D200282E
:10C6F000F5D012E0002810D1720804211548FFF788
:10C7000069FA002809D1FFF753FA002805D111482A
:10C71000114A00211438FFF7C1FAE90706D00F22A9
:10C720000E4952058A600023CB608A6100280DD132
:10C7300008480B4A00211C38FFF7B0FA002805D141
:10C740000448084A01211838FFF7A8FA70BD000014
:10C75000B81E0020C8280200AFC901000005005023
:10C76000EDE2010099BB0100FEB57A4D0722EB68AE
:10C7700092059A4302936B6800939C0006461B192E
:10C7800000200121019349050746734C3300FEF751
:10C7900029FF180D1515374755677C887F8891DE6E
:10C7A0009E9E9E9E9EC8CED1D8DEDE140F21029A98
:10C7B00049059143A160E7602F70FEBDA260E7606C
:10C7C00060680F2252055040800209D5A160E760E1
:10C7D000022E02D1E120C0000AE07D20400107E0E6
:10C7E000E160A760022E01D1C82001E0FF20913056
:10C7F0002E706421FEF78AFC0099414300223FE03D
:10C80000A260E76060680F2252055040800204D5A4
:10C81000A160E76019204001EAE7E160A760E3E773
:10C82000A260E76060680F2252055040800202D586
:10C83000A160E760D1E7E160A760D7E7A260E760A9
:10C8400060680F2252055040800202D5A160E76067
:10C8500001E0E160A7602E700098410000220FE027
:10C86000A260E76060680F2252055040800202D546
:10C87000A160E76001E0E160A7602E7000990022EE
:10C8800036480068FFF75AFAFEBDA260E7601BE079
:10C8900061680120800502468A43A2600140E16090
:10C8A00010E06068012189050A468243A2600840C1
:10C8B000E060E3E76068012189050A468243A260DF
:10C8C0000840E0600199C9E7E160A7602DE02348D6
:10C8D0004068FFF777FA11218A1B01D0002807D0A2
:10C8E0000F22E96852051140A160E760EF60FEBDCC
:10C8F0000121C905E960012A0CD91046C821484325
:10C900006421FEF703FC6968002241431348406834
:10C91000FFF714FA0F22E96852051140E160A760A1
:10C92000FEBD0F214905A160E7602E70FEBD072204
:10C930009205AAE70D214905A160E760012189055B
:10C94000C2E70321C905A160E7608910BCE70F2198
:10C950004905B9E7B81E002000050050AC280200C8
:10C96000F0B500210B4C0C4D03273F048A00A25860
:10C9700092005619326801238B40034000D00323F4
:10C98000BA431B0413433360491C0429EED300202F
:10C99000F0BD0000B828020000070050002901DAAD
:10C9A000002070470268511801600120704710B5DF
:10C9B00000780221FFF7B8FD10BD000070B51446E5
:10C9C0000D46064603460A460F49032002F083FC43
:10C9D0000E49142208680E4B4243401C4007400F8A
:10C9E0000860D21855810220D081101D10610020EE
:10C9F0009081012010721471210A5171168090707B
:10CA000005F06EFC002070BD8C2B02004C1F002036
:10CA1000002900200022D243830004490428CA5080
:10CA200002D308182030027770470000B429002094
:10CA3000F0B50025ED43002A02D00023042601E0D2
:10CA4000042308260B4C04E09F00E7597F1C04D008
:10CA50005B1CB342F8D32846F0BD26185DB22036E1
:10CA600035709E00A151002AF5D1E11820310877D8
:10CA7000F1E70000B42900200249091820200856D7
:10CA800070470000B429002038B50B460146FF313D
:10CA90000246A13188794624604380184A79002AE9
:10CAA00008D0521ED2B20C214A431118498A6A4654
:10CAB000491C01E0C1886A461180008950801146F6
:10CAC000184692DF38BD0000002807D00449814293
:10CAD00004D80449814201D90120704700207047E1
:10CAE000D41F0020E41F0020044A0168914201D0B5
:10CAF000083101E00149383901607047142B0020EA
:10CB000070B50D4D04460A462846AC4208D1FF24B4
:10CB100001342146104603F0B9FEA0420AD070BD90
:10CB2000FF2CFCD82146104603F0A2FE002801D0BD
:10CB3000204670BD284670BDFFFF000070B5084C50
:10CB4000050009D010342168002907D0086820604A
:10CB5000496828468847F6E70834F4E770BD0000C6
:10CB6000A0290020F8B52348416800293ED00E686E
:10CB700021494C6887688078E11B0D022D0AED1C65
:10CB8000002814D101201D4A000450601B4A403A7D
:10CB900050601B49400008601A4908601A4901208A
:10CBA00008602F2001F048FF124901208870B5422B
:10CBB00000D23546E81900020F4B000A40331860D6
:10CBC0000D4A5168001B091B0902090A0002000AEC
:10CBD000C91C814209D9506818602F2001F02CFF30
:10CBE00001200749400480390860F8BD04F04CFC7E
:10CBF000F8BD0000681F00200015014040130140EF
:10CC000080E200E000E100E00010014010B50146C4
:10CC10000148FFF797FB10BD20220020F0B585B03A
:10CC20000C46002802D0012005B0F0BD2079002775
:10CC30000126002806D01F4D012820D002282CD024
:10CC40000F20F1E702970397E0680190694601A879
:10CC500004F018FA00280ED002988188E18000883C
:10CC60002081029804F088FA694609880A0112496D
:10CC700051188E7300E00A2002212171D4E70F4B76
:10CC80006A460021A01D04F0BBF9002807D00B491B
:10CC900008398F60CF600A28C6D12846C4E70198BA
:10CCA00004F06AFA054989880A01034951188E730C
:10CCB000F1E700001D1D0000242B00209C1F002018
:10CCC000F7B50546FF350646A135A8794621484304
:10CCD00087196C790C206043C1193A79601C0A31BC
:10CCE00082B0904226D101AB0022304601F0A6FA74
:10CCF000002822D010E0401EA04201D1002003E015
:10CD00000C206043C01916300246009001AB30463B
:10CD100001F094FA002807D003980021017001A9BE
:10CD2000049893DF05B0F0BD68790099401C641C3D
:10CD30006871E4B23879A042DDD80398012101700E
:10CD40000020EFE7F8B500260124154D23E06968BF
:10CD5000F0004718387821462A698140114218D0DE
:10CD60008A432A6101F08CFF3A782146EB689140B2
:10CD700019400346934099420BD17978012901D09B
:10CD8000012100E000217B684140002B01D01046CA
:10CD90009847761CF6B228788642D8D3F8BD0000B2
:10CDA000541F0020F7B5FF21A7311446095C462225
:10CDB00051430F18384604F031FA060033D01A4AAE
:10CDC000906806282FD22146144650225043174D12
:10CDD0004622401941803946001DFEF7ADF9019801
:10CDE0000027002804D0A068502148432F5404E0B5
:10CDF000A0680221502250432954A0685021414389
:10CE00004919401CCE64A060E16888420BD100261D
:10CE100005E0502070434019C16C8847761CE068DB
:10CE20008642F6D3A760FEBDD81E0020F422002063
:10CE300030B50D46FF21A7311446095C4622514307
:10CE400093B0081804F0EAF9030005D0684644805E
:10CE5000012101700195984713B030BD10B50E49FE
:10CE600000230A784C78A24212D0521CD2B20A7027
:10CE7000022A00D10B700A78074B920018339A5897
:10CE80000260886810180002000A8860012010BD46
:10CE90000360002010BD0000681F00203EB5094D52
:10CEA00038CD0093029501946B46588099809A7111
:10CEB000054900220978FFF71DF9684600F08EF851
:10CEC0003EBD000068290200301F002010B5047824
:10CED00000222300FEF786FB070605070D1D262C02
:10CEE00006000A7010BD01220A7002898A818288B8
:10CEF00014E002220A7002898A818288CA81C2688B
:10CF00008A60007C062802D00020087410BD012031
:10CF1000FBE703220A70C2888A810289CA81C0683D
:10CF2000886010BD04230B70C0888881CA8110BD41
:10CF30000520087010BD000070B5064D064600249F
:10CF4000A0002958002901D030468847641C082CCD
:10CF5000F6D370BD442A00200EB5002910D0112947
:10CF60000ED00022009202926A46508001910D2953
:10CF700007D0042907D009201070104600F03CF8B3
:10CF80000EBD0B20F8E70A20F6E70000014909680A
:10CF900008470000F01E002070B5054D064600242D
:10CFA000A000295830468847641C022CF8D370BD75
:10CFB00000290200F8B507460024064E064D04E09D
:10CFC000A000315838468847641CE8788442F7DB73
:10CFD000F8BD0000B4280020201F002070B5054DCA
:10CFE00006460024A000295830468847641C022CBD
:10CFF000F8D370BD302902000149096808470000D4
:10D00000742902007FB50446406800280BD0002038
:10D01000039020780026414D0300FEF7E3FA066DE9
:10D020000606304E7B6D0120F2E7A08900F0DCF9A6
:10D03000002804D1E08904F0B7F800285CD0A0896A
:10D0400000F0CCF9014668464180E08904F0A6F87A
:10D0500001466846017120780128606807D00028E1
:10D0600009D00420694608706068039020E0002819
:10D07000F8D00320F6E70120F4E708463AE0A0895B
:10D0800000F0B2F9002804D1E08904F08DF80028FE
:10D0900032D0A08900F0A2F969464880E08904F006
:10D0A0007DF8694608716068002804D00520087082
:10D0B000A0680290E1E70220F9E7A08900F094F966
:10D0C000002819D0E089002816D1A08900F086F93F
:10D0D00069464880E08904F061F8FF2069460871DC
:10D0E000606800280FD0072008706E70AE7003F0E3
:10D0F00089F8684602F044FF6878002802D06E7014
:10D1000003F080F87FBD062168460170408803F077
:10D1100007F9EAE7082069460870AEE70C1F00200F
:10D1200000B5104987B00978890702D4022007B0FA
:10D1300000BD0D49884201D10420F8E70522694667
:10D140000A7001220A71C88000221146684602F066
:10D1500075FB002803D003F02FFF0020E7E708202D
:10D16000E5E70000941F0020FFFF000000B50F4816
:10D1700087B00078800702D4022007B000BD0620E7
:10D180006946087000221146684602F057FB0028E5
:10D1900009D007480178002901D00121017303F06B
:10D1A0000BFF0020E9E70820E7E70000941F0020BC
:10D1B000442B002000B58DB014216846FDF7D5FF43
:10D1C0001E480078810703D56846FFF7B5FE32E0B8
:10D1D000C00730D1012000F02DF900F0A5F902F0D0
:10D1E000BFFB00280ED006280FD001216A4611751A
:10D1F0000300FEF7F7F90C1911191119181918196C
:10D20000131613190B200DB000BD022000F012F907
:10D21000012000F0F5F8D7E7002000E003201076A9
:10D2200002E00220FBE711760022114605A802F079
:10D2300005FB03F0C1FE0020E5E70000941F00207D
:10D2400038B5040014D0694603F01CFF002813D041
:10D25000684600880101094809188889002809D012
:10D26000A27A002A06D0401E88810020A07238BD14
:10D27000052038BD062038BD0A2038BD242B0020EB
:10D280001FB501A9684603F0BBFE04B010BD07B589
:10D2900013460A466946002003F0B2FE0EBD07B5EC
:10D2A00013460A460021684603F0AAFE0EBD002878
:10D2B00005D0002903D000680860002070470520D1
:10D2C0007047000038B50D46040017D0002D15D06A
:10D2D000694603F0D7FE002812D0684600886168CE
:10D2E0000201084812189089401C908129606068EA
:10D2F0000C3068600120A072002038BD052038BDC8
:10D300000A2038BD242B002010B5002804D00323A8
:10D31000002205F093F910BD052010BD10B50223C1
:10D32000002205F08BF910BD10B5002A03D00223AE
:10D3300005F084F910BD052010BD000010B5064AA7
:10D340005178082906D08B00044C491CE0505170DC
:10D35000002010BD0C2010BD941F0020442A002086
:10D3600038B504460A480D460078800701D40220EB
:10D3700038BD002C0AD06946284605F06BFA002813
:10D38000F6D1694609882180658038BD052038BD01
:10D39000941F002010B504460E480078800701D481
:10D3A000022010BD002C10D0218802290FD80A4A73
:10D3B0000801801842896088121A032A07D405F0F0
:10D3C0003FFA00202080608010BD052010BD0420A1
:10D3D00010BD0000941F0020242B0020032189038E
:10D3E000401A80B27047000003218903401A0349A4
:10D3F000884201D80120704700207047FE3F00009E
:10D4000002490A7882430A7070470000941F002086
:10D4100010B504460078182802D1FEF735FE2070BA
:10D4200010BD10B504460078182802D1FEF72CFE76
:10D43000207010BD02490A7802430A70704700004C
:10D44000941F002070B5064600200546042906D02A
:10D45000112902D0002903D070BD012500E0012070
:10D460000E4C002A02460FD061793046FEF742FE8C
:10D470002A4621793046FEF73DFE0022617830468B
:10D48000FEF738FE002204E061783046FEF732FEF7
:10D490002A4621783046FEF72DFE70BD341F00204D
:10D4A000F8B506461C481F46007815460C46C007CE
:10D4B0000AD03046FFF708FB002807D0002C07D021
:10D4C000A00507D00620F8BD0120F8BD0220F8BD58
:10D4D0000320F8BD3068A04204D8A8027168001982
:10D4E000884201D90520F8BD002D10D0684603F010
:10D4F000B5FC00280DD000980221C0C00170A10128
:10D50000090C8180058103F065FD0020F8BD042031
:10D51000F8BD0720F8BD0000AC1F002010B508467C
:10D5200003F0B8FC10BD0000F0B52648264C001BE7
:10D530000309264819464069421C03D1012000070F
:10D5400040698002224A12789646D2070CD0002009
:10D55000F0BD1D4C15012C192568002D03D0646801
:10D56000002C00D0491E521C9A42F2D3002420E025
:10D57000E2B2002594462A460FE0134E1701BE1969
:10D580003768002F02D07768002F05D1767BAE4236
:10D5900002D93546D6B2B446521C9A42EDD3624601
:10D5A0001501094AAA185060157BAD02401B641C86
:10D5B00010608C42DCD30648714601221143017091
:10D5C000C5E70000E41F0020D41F00200010001059
:10D5D000AC1F0020002804D00349496E01600020E0
:10D5E0007047032070470000542B0020F8B5074611
:10D5F0001E481E46007815460C46C0070ED0384619
:10D60000FFF762FA00280BD0002D0BD0002C09D0B8
:10D6100028462043800707D00620F8BD0120F8BD2A
:10D620000220F8BD0320F8BD3868A04204D8B1003C
:10D6300078680919884201D20520F8BD002E11D062
:10D64000684603F00BFC00280ED00098069907608E
:10D65000416001210172C5600461868203F0BAFC59
:10D660000020F8BD0420F8BD0720F8BDAC1F002045
:10D6700070B5174B0446186E182148431549C01859
:10D680000A78950715D5022C02D0032C1CD102E094
:10D6900001F0FCFF18E04A78521CD2B24A70032A0B
:10D6A00012D900224A70082104F032F903F0C0FBBD
:10D6B0000AE0500708D5FB2002400A70586E002887
:10D6C00002D0022002430A7003F040FC70BD00004B
:10D6D000542B0020AC1F002070B5002801D0012081
:10D6E00070BD164C0025207B002801D0257301E079
:10D6F00000F09CF820780300FDF774FF081E050871
:10D700000B0E1E111A1E00F01BF870BD00F07EF803
:10D7100070BD00F061F870BD00F038F870BD608831
:10D720000649000120394018406802F0F9F870BD40
:10D73000656002F003F970BD0F2070BD442B00201E
:10D7400070B5104900208A1C0D460346203D0C1878
:10D75000A67A002E08D0A37204016419A689002EAF
:10D7600002D1A47B012C08D0401C80B20228EED349
:10D770000B704B8004484B6070BD108000F046F881
:10D7800070BD0000442B00201D1D000010B50F4C83
:10D7900060880101204620380818818900290BD0B3
:10D7A000052020700A48022181800168002301229F
:10D7B0000848FFF775FE10BD4168002301220548A7
:10D7C000FFF76EFE0421217010BD0000442B0020E5
:10D7D000A41F0020D41F002038B50A4908480B6850
:10D7E00089884268890059185388032404700020EE
:10D7F000DB1C00909BB20448FFF7F8FE38BD000028
:10D80000442B0020A41F0020D41F002010B506497F
:10D810004888091D03F086FC002802D0FFF7DCFFD2
:10D8200010BDFFF7B3FF10BD442B0020F0B51D481D
:10D830001D4907780246012502268C88203A3B00C4
:10D84000FDF7D0FE080517171A212C2C1617018991
:10D85000491C01810021418001730B01D35C002B25
:10D8600008D000234418491C89B2A3720229F4D3BA
:10D870000570F0BD0123F5E742685288D21CA2185A
:10D880008A800670F0BD45880B682D01AA1855687E
:10D890000D60536014818E80062100E00721017025
:10D8A000F0BD0000442B0020A41F0020F0B504466A
:10D8B0000088384D8DB050281DD0522802D05428F1
:10D8C00026D103E0A08800F057FF21E0062069463A
:10D8D0000870A08800F0A8FB69464880A2888A806A
:10D8E00000F054F9A0880022E978FEF703FC6846AE
:10D8F000FFF74CFB0CE0207B012809D1A07A01281E
:10D9000006D120892449884202D1A08800F070FF06
:10D91000A878FEF7D1FB002819D008A8FEF7F2FA84
:10D92000142208A903A8FDF707FC002403AE0BE0AE
:10D9300060008719B888A978FEF7CAFB002802D0D2
:10D94000B88800F019FF641C0398A042F0D86878EA
:10D95000FEF7B2FB002819D008A8FEF7D3FA14226C
:10D9600008A903A8FDF7E8FB002403AE0BE0600064
:10D970008719B8886978FEF7ABFB002802D0B88811
:10D9800000F036FF641C0398A042F0D804F002F8BF
:10D990000DB0F0BDE81E0020022900003EB504468F
:10D9A0004088694648802078002814D001281DD07E
:10D9B00002280FD1207900280CD0608800F066FA88
:10D9C0000E49884206D00E490122C978FEF792FB23
:10D9D00003F0E0FF3EBD002008700846FFF7D6FACE
:10D9E000608800F053FA00F0C7FE3EBD0121684692
:10D9F0000170A1888180FFF7C9FA3EBDFFFF0000DA
:10DA0000E81E002010B50446007801280DD160887A
:10DA100000F0B2FE608800F07DF9002805D00349CF
:10DA200060880122C978FEF765FB10BDE81E002062
:10DA300010B5104C00202070FEF726FB6070FEF73A
:10DA400023FBA070FEF720FBE070FEF71DFB2071AA
:10DA5000617818290BD0A178182908D0E178182905
:10DA600005D0182803D001202070002010BD03200D
:10DA700010BD0000E81E0020F0B585B000F09EF853
:10DA80006846FEF73FFA00246D460C4F0EE060003A
:10DA90004619B08800F0C8FAB84205D10849B088E4
:10DAA0000122C978FEF726FB641CA4B20098A042AC
:10DAB000EDD803F06FFF05B0F0BD0000FFFF0000E0
:10DAC000E81E002010B50178072902D1408800F037
:10DAD0008FFE10BD10B504460A4841782046FEF777
:10DAE000F7FA00280CD0084800210C224A431218EB
:10DAF0005288A24201D1C8B210BD491C0829F4D3F2
:10DB0000FF2010BD001F0020D424002070B5094D57
:10DB1000094E00240C206043401940887178FEF7BC
:10DB2000D7FA002804D0641C082CF3D3FF2070BD62
:10DB3000E0B270BDD4240020001F0020F8B50746D5
:10DB4000104E0125BD403068FEF73CF900280DD18C
:10DB50000D4C2069284207D1384601F091F8002881
:10DB6000E06804D0284303E0A8432061F8BDA8433F
:10DB7000E0602069002228432061A1683068FEF738
:10DB8000DDF8F8BD78290200541F00201CB5054AB5
:10DB90009168D268019200910022694602F0B8F8BB
:10DBA0001CBD0000EC28020003480021C94381800D
:10DBB0000121017000207047F41E002010B50448B8
:10DBC00001F0D2FF0349888003F010FF10BD000070
:10DBD000FFFF0000F41E0020F1B582B0029800F0B3
:10DBE00023FA00241649032501272646884209D036
:10DBF0006A46082102F062F8002803D1019886885D
:10DC00000568841D2B46324621460298A9DF042868
:10DC100004D0082804D00B2807D002E0112000E02F
:10DC20000020002F00D10B20FEBD0027A80701D542
:10DC30000125E7E73443F6D0002426460325E1E733
:10DC4000FFFF0000F1B582B0029800F0EDF9074641
:10DC50001B48874201D11B48FEBD01252A466D1C89
:10DC60000026ADB26B460821384602F057F8040092
:10DC700002D0072C21D021E0019903230B600A1D5B
:10DC8000891D0298AADF040004D00C2C08D0052CB2
:10DC900008D008E00821384602F0DAF804460DE022
:10DCA000012600E000240821384602F0BBF80028D5
:10DCB00000D00324002ED1D100E00C242046FEBD6C
:10DCC000FFFF0000023000001FB504460078012865
:10DCD00013D12079012810D1608802AA012101F016
:10DCE000EDFF002809D1022168460170618841805A
:10DCF0000121017105490968884704480449083829
:10DD00008088884201D003F071FE1FBDFC1E0020F8
:10DD1000FFFF00001CB500F087F96A46012101F001
:10DD2000CDFF002801D000201CBD019800781CBD4B
:10DD3000F8B5074E074C084D07463246618838460D
:10DD4000A7DFA84203D16088401C6080F5E7F8BDDA
:10DD5000FFFF0000F41E0020033000008188054A08
:10DD6000914204D00088002801D001207047002093
:10DD700070470000FFFF00003EB5044600780D46E6
:10DD8000022815D10322611C6846FDF7D5F903224C
:10DD9000211D02A8FDF7D0F901AA02A92846FDF726
:10DDA000D3FE032201A96846FDF7F1F9002801D04E
:10DDB00000203EBD01203EBD10B50C46FFF78AFE97
:10DDC000FF280AD00C214843054907224118204664
:10DDD000091DFDF7B1F9002010BD052010BD0000A0
:10DDE000D424002070B5018890B0102949D1011DBC
:10DDF0002C2202A8FDF7A0F96846234E007B34468A
:10DE000002AD03282AD002F02BF96846007B0028D7
:10DE10000ED001280CD0022820D118E00E99281D20
:10DE20001131FDF748FE002802D06846048815E04D
:10DE30000DAA6946072002F0E9F80028EED10DE0AE
:10DE40000E99281D491CFFF797FF0028EDD10DAA58
:10DE50006946072002F0DAF80028F1D16846008907
:10DE6000291D00F099FDB4420BD068460089214677
:10DE700000F088F868460189418001210170FFF7B0
:10DE80008BF810B070BD0000FFFF0000084A0021B1
:10DE90000C234B43D35A834204D10C2041438818AE
:10DEA00040887047491C0829F2D302487047000097
:10DEB000D4240020FFFF00000620704710B50E4C50
:10DEC000182060700D4A0E4900200C2343435B1854
:10DED000401C5A800828F8D3FEF7D6F8607018283E
:10DEE00004D00548C01C71DF002801D0032010BDFC
:10DEF00001202070002010BD001F0020FFFF000047
:10DF0000D424002070B504460D46401C00F0DCF916
:10DF1000002810D01022691C601CFDF738F9002879
:10DF20000AD000262946204611311130FDF7C3FDE5
:10DF300001463046084370BD0126F3E701880029F9
:10DF400003D142189278002A01D001207047491C61
:10DF50000829F6D30020704710B50C460346FFF79A
:10DF6000EDFF00280BD018882188884206D10822AE
:10DF7000A11C981CFDF70BF9002801D0002010BD52
:10DF8000012010BD10B502F027FA10BD10B50446EF
:10DF9000007888B0002826D12079072823D160880E
:10DFA00001AA072101F08AFE00281CD102F058F8CE
:10DFB0001BE0694660880988884216D00499029857
:10DFC000FFF7A0FF002810D06088FFF75FFF014631
:10DFD0006846C182002101756188018301884183FF
:10DFE00005A8FEF7D9FF08B010BD03AA69460720AF
:10DFF00002F00CF80028DCD1F5E7000070B504460B
:10E00000FFF744FF0546204601F05DFE0549044642
:10E010008D4204D0002C02D1284602F0DDF92046C2
:10E0200070BD0000FFFF000010B5FFF753FDFF2893
:10E0300004D00C2148430249085A10BD014810BDC4
:10E04000D4240020FFFF00003EB5044602F008F88B
:10E0500010E0019920464631FFF77EFF002806D1E7
:10E06000019920462A31FFF777FF002802D0684641
:10E0700000893EBD6A4602A9072001F0C7FF0028BB
:10E08000E7D101483EBD0000FFFF00007CB514460B
:10E090000A000A49897802D015688D4204D3002B02
:10E0A00004D01D688D4201D204207CBD019313462B
:10E0B00002460094024802F0DFF97CBD001F0020F8
:10E0C0003425002070B50C46054610210948FDF79F
:10E0D0004CF80948002D09D0002C07D0847062004C
:10E0E00029460448FDF728F8002070BD0021817002
:10E0F000FAE7000034250020001F0020F8B50F4685
:10E10000002804D00120FFF77BF90120F8BD397900
:10E1100000290AD00026254D01290BD0244C0229C4
:10E1200020681FD003293BD125E001F007FC012125
:10E13000397133E000200101695C02290BD0401CD9
:10E1400080B20228F7D30220FFF774F90120FFF70D
:10E1500057F91848F8BD04016019406801F0E0FB68
:10E160002E551BE00146002301221348FFF798F9C2
:10E170000221A18011E001F0D3FB0C49236820317A
:10E1800049880A01094951184D6825604B60A388E8
:10E190000B810221A18005498E543E710028D9D0FF
:10E1A0000120FFF72DF90E20F8BD0000242B0020E0
:10E1B000A41F00201D1D0000D41F0020F8B51E4C18
:10E1C0002078002836D0E068002600280CD00025F2
:10E1D000607800282ED1684652DF052806D0002836
:10E1E00006D0FDF74FFD0BE00125F1E7012607E022
:10E1F000009800F071FC2169002901D0009888473F
:10E20000002D13D16078002814D1608869460880F9
:10E21000A06861DF052804D0002804D0FDF732FD96
:10E2200004E0012502E0E168A0688847002ECFD015
:10E23000002DE5D0F8BD0000BC1F002030B50989D5
:10E24000002A05D0D088491C814213D1002030BD5E
:10E250000246FF32A132947946256C432418248962
:10E26000A142F3D0491C19809179462251430818E4
:10E27000008902E01980D088401E5880012030BDFE
:10E280001048018CC9B2012917D1818C090714D11A
:10E29000018D09060A0F03D1828D1206120F0ED0CE
:10E2A000090F012903D1828D1206120F07D003290D
:10E2B00003D1808D0006000F01D00020704701209F
:10E2C00070470000C00F00F00021425C002A01D01E
:10E2D00001207047491C1029F7D3002070478007A0
:10E2E00001D00020704701207047000010B504489D
:10E2F000017AC90702D00078FEF736FA10BD000097
:10E30000B81E0020FFB5244D81B0287A1F460E4666
:10E31000084304D0039A002E04D0002104E0052015
:10E3200005B0F0BD1C491031019803F015FD0446FD
:10E33000014600220198FFF785F8002F03D02146FF
:10E340000198FEF709FE0D2C0DD006DC002C0AD03A
:10E35000042C16D0082C05D105E0112C05D00F484F
:10E36000C44200D003242046DAE73246E978019817
:10E37000FDF7C0FEA978039A0198FDF7BBFE0024C3
:10E38000F1E73246E9780198FDF7B4FEA978039ADF
:10E390000198FDF7AFFEE6E7341F0020FECFFFFF38
:10E3A000FEB517460C00064604D02078C00704D0FE
:10E3B000012003E000217EDFFEBD022069460871D6
:10E3C0003046FFF731FE17490546884208D001A8BC
:10E3D00000902B463A462146304600F025F806E0EC
:10E3E00020782146C007304603D000F081F804466B
:10E3F0000BE07EDF044600200090002C08D00022B5
:10E4000001232946304603F04FFA002C02D006E0E3
:10E410000122F5E768460179304603F06BFA2046A1
:10E42000FEBD0000FFFF0000FFB585B000252E46B1
:10E4300001AA07210E9F089801F040FC040008D1B2
:10E44000029D4420405D1835C607F60F01D0029D9D
:10E4500034350798204312D1002D10D0002E05D15D
:10E4600028461230FFF76AFD002808D029462A46C0
:10E470001231059885DF04460020387023E0002C17
:10E4800001D0052C1FD106980078C0070DD003AB32
:10E4900001220721089801F041FC04000AD107215C
:10E4A000089801F039FD040004D1069905987EDF33
:10E4B000040008D00721089801F0B4FC002802D01D
:10E4C000052800D00324002000903878002801D0CF
:10E4D000012300E00023002C07D0002208990598B2
:10E4E00003F0E2F9204609B0F0BD0122F6E7000092
:10E4F000FEB50F46064601F0D5FB05461848854295
:10E5000020D001AB01220721284601F007FC0400BE
:10E510000AD10721284601F0FFFC040004D1394646
:10E5200030467EDF040008D00721284601F07AFC3F
:10E53000002802D0052800D0032401200090002CE0
:10E540000BD002E003240020009000220123294682
:10E55000304603F0A9F92046FEBD0122F6E700008F
:10E56000FFFF0000F7B5114D0F46164629780098B9
:10E57000FDF7AEFD002812D00098FFF755FD0446C8
:10E580000B4884420BD069780098FDF7A1FD002864
:10E5900006D033463A462146009801F059FAFEBDAE
:10E5A000324639460098FEF779FCFEBD301F002048
:10E5B000FFFF0000F1B586B00698FDF77DFD00284D
:10E5C00021D06846FDF79EFC00246E4618E06000EE
:10E5D0008519A8880699FDF77BFD00280FD00B4F01
:10E5E000A888B978FDF774FD0590A888F978FDF73B
:10E5F0006FFD0146A8880123059AFFF783FE641C7E
:10E600000098A042E3D807B0F0BD0000341F0020FE
:10E61000F0B5284C2146103948688B682278864628
:10E620009C46CF78667836E0182353436168521CC5
:10E63000C918A378D2B2934200D100220B78022BE2
:10E6400002D0032B27D123E003464D68194603E08F
:10E65000A94204D00B46C96900291CD0F8E700295B
:10E6600019D08B4208D1C069002805D1124F01256D
:10E67000BD600025AC4601270D68C969D961002934
:10E6800009D00B685B190B6005E00174C06900E0FC
:10E6900000210028F9D19642C6D1064962461039B8
:10E6A0008A604860CF70704501D00120F0BD002025
:10E6B000F0BD0000781F002000100140F8B52C4E7E
:10E6C000044670680025009041E0002C02D02046EE
:10E6D000E46920E0264818231030017842684B4353
:10E6E000491CC9B2D21801708378994200D10570D3
:10E6F0001178506801292CD1017C002929D1916819
:10E700004160D16881601169C16051698161F178AE
:10E71000002900D045604368B268164F991A090273
:10E72000090AB94202D28268891806E0D11A0902A0
:10E730008268090A8A4202D9511A016000E0056024
:10E740004560012185600174C56103F02DFD002C39
:10E75000BBD107481030017840788142BAD1716846
:10E760000098814201D00120F8BD0020F8BD0000D2
:10E77000681F0020FFFF7F00FEB5044619480026F1
:10E7800084422DD02046FFF727FA050012D00B2D2A
:10E7900014D0112D10D01448C5421BD00921684651
:10E7A00001702046FFF740FC0146684641808480A6
:10E7B00002950DE0022102E001260BE003216846EC
:10E7C00001702046FFF730FC014668464180848096
:10E7D000FEF7DCFB0548324681782046FDF78AFCCF
:10E7E000FEBD0000FFFF0000FECFFFFFE81E00207F
:10E7F000FEB504460026FFF725FA05460C281AD078
:10E8000004DC002D13D0042D05D127E0112D10D0EC
:10E810001348C5421BD00921684601702046FFF706
:10E8200003FC014668464180848002950DE0012189
:10E8300002E001260BE00721684601708480204633
:10E84000FFF7F2FB014668464180FEF79FFB054853
:10E85000324641782046FDF74DFCFEBD0821EBE72E
:10E86000FECFFFFFE81E0020F8B5054600780C46F5
:10E87000002620420FD10020694608706846FDF747
:10E88000B5FA2878204202D1204328700126684634
:10E890000078FDF7C9FA3046F8BD00001CB500202D
:10E8A00000F028FD002802D00020C0431CBD00233A
:10E8B000284A03211846FDF707FA002801D0FDF782
:10E8C000E1F9254A25490320FDF7FEFE002801D085
:10E8D000FDF7D8F901A90020FDF7B6FD002801D009
:10E8E000FDF7D0F968460079022830D0002069464B
:10E8F0000870002000F0FEFC002801D0FDF7C2F9EE
:10E9000017A1032000F0DAFCFDF766FDFDF70EFB12
:10E910006846007801F074FD1C48FDF725FC0028CE
:10E9200001D0FDF7AFF91A48009069461948FDF784
:10E93000B9FC002801D0FDF7A5F903F0F3FD02F0C2
:10E94000E3FD48DF0028FCD0FDF79CF9F9E7012042
:10E95000CDE700002C200020F5C50100CD0C000003
:10E960004150503A494E464F3A52756E6E696E6745
:10E9700020537065656420636F6C6C6563746F729F
:10E98000206578616D706C650D0A00000DCC01008A
:10E990006912020020220020F8B5FF240F46054628
:10E9A00000291FD0104EB5421CD0104801224178DA
:10E9B0002846FDF79FFB2846FFF78CF80446FF2802
:10E9C00004D1FFF7A3F80446FF280BD00C214843DD
:10E9D00007490246401845808E5207223946001DDD
:10E9E000FCF7AAFB2046F8BDFFFF0000001F002037
:10E9F000D424002070B50B4D0E46A84201D1002052
:10EA000000E0401C84B209E02146304601F058FF86
:10EA1000002801D0204670BD641CA4B2FF2CF3D99D
:10EA2000284670BDFFFF00000121890740180068DB
:10EA3000002800D00120704700280FD00849094A5B
:10EA4000096800BF00BF00BF00BF00BF00BF00BF1C
:10EA500000BF914200D000BF401EF2D170470000BD
:10EA6000D01F00200024F40010B50C4C20780028A2
:10EA700001D0852010BD0020A06060602061E060B2
:10EA8000032100F02FF803F021FB0121002801D120
:10EA9000034881612170002010BD0000A0290020E2
:10EAA0000005004038B50020694608706846FDF74B
:10EAB0009DF9084C2078002801D1FFF7D5FFE068C8
:10EAC000401CE0600120A07068460078FDF7ACF9BA
:10EAD00038BD0000A029002010B5002801D1FEF7A4
:10EAE0002DF810BD8207D30EFF229A408907090E28
:10EAF00010B5994000280BDA03071B0F083B9C0850
:10EB00000C4BA400E318DC6994430C43DC6107E080
:10EB10008408094BA400E418236893430B43236043
:10EB2000C106C90E012088400449086004490860F4
:10EB300010BD000000ED00E000E400E080E200E035
:10EB400000E100E0F3B581B00F46019801F0F0FC60
:10EB5000012400281D4E019817D0FDF78DFF801964
:10EB60002030007F8009032802D0012806D007E06A
:10EB70001748006901998C40204201D1022100E030
:10EB80000321019800F022FAFEBD01F0DDFC00280F
:10EB9000FAD00198FDF770FF05468100C81D0D4AA7
:10EBA000F93089180A6980B222430A6100F01EFA1E
:10EBB000002FE9D00198FDF75FFF80003058002852
:10EBC000E2D00548AC404460FEBD0000B4290020FE
:10EBD000000500500065004000630040FEB504469B
:10EBE00023480E460019202141560027C817134616
:10EBF000401C01D0082738E0F27819462046FDF77E
:10EC000017FF0546401C2FD0B078002807D01948C0
:10EC1000A1000918086802229043086007E000215B
:10EC20007378204600910A46019100F08FF9F07840
:10EC3000002810D01048AA001018317802690F4B34
:10EC40001A400261E206D20C8907890B0A43016966
:10EC50000A43026109E00648327840192030017FFA
:10EC600092011143017700E004273846FEBD000001
:10EC7000B42900200007005000650040FFE0FCFFC1
:10EC800003490969C140C807C00F00D0012070477F
:10EC90000005005070B5144D2879002801D00820D7
:10ECA00070BD114900204039421E0B182033401C12
:10ECB000C0B21A702028F8D300242046FDF7AAFE1F
:10ECC000641CE4B2082CF8D303210620FFF70AFFE6
:10ECD000FF207D3000F08AF901200449C007486018
:10ECE00001202871002070BDF4290020006300403D
:10ECF00002480079002800D001207047F429002044
:10ED0000F7B505460C4600791C21484332494618A0
:10ED1000F07E002801D00820FEBD2078012739466A
:10ED200081402E488160206800F046F9002160682B
:10ED300000F039F92A68052000021218A169516211
:10ED4000617D227D2B6811431A18D1662A680ACC8E
:10ED50001018C1604361207B083C012813D10021B9
:10ED6000A06800F020F9207B394681401B48816073
:10ED7000E06800F021F92968052212028918E36889
:10ED8000A0688B600861029870602169316000287A
:10ED900014D0FF231D332A68217F0020D050FF2389
:10EDA0002A684533D050032328681B020C4AC01838
:10EDB00042602868000B40B2FFF794FE05212868E6
:10EDC00004220902401802600020F0753076B07508
:10EDD000F776B076FEBD0000FC290020000500504B
:10EDE0008000020070B505460C4600791C2148439E
:10EDF00008494318284600F055F8002801D0112092
:10EE000070BD9A7500209C609882284600F004F836
:10EE100070BD0000FC290020F8B5044600791C21D3
:10EE200048431F4900264518FF2720681D37C65153
:10EE30002068012181602946206803F099FA6968F9
:10EE4000002913D027E0FF270137FF211D3120685B
:10EE500000F061FA002802D1A88AB842F5D1A88A48
:10EE6000B84203D02946206803F082FAA88AA97D17
:10EE70008842E8D3A98AC81FF9380ED0FF271D376A
:10EE80003946206800F047FA0028F9D020680121AF
:10EE9000C1600020A8753046F8BD0F26F9E70000D4
:10EEA000FC29002000791C21484303494018807D3B
:10EEB000002800D001207047FC290020F8B5017916
:10EEC0001C2251431E4A00238E180522016812029B
:10EED00089180B60716800290CD003240168240292
:10EEE000184B09198B600168C903CB0E01219940A9
:10EEF000154B19600522016812028A18D3685769F8
:10EF0000956814690021C943D160516100680522E8
:10EF10001202801881600161184600F03BF8384603
:10EF200000F038F8601C02D0204600F033F8681C6E
:10EF300002D0284600F02EF80020F0767060F8BD70
:10EF4000FC2900208402020080E100E030B552007C
:10EF50000A439900039C0A432102049D0A432904A1
:10EF60000A43024980004018026030BD000700508B
:10EF700030B552000A439900039C0A432102049DC4
:10EF80000A4329040A43024980004018026030BD48
:10EF9000000700501CB5002100910B460122019191
:10EFA000FFF7E6FF1CBD1CB500220B460092114680
:10EFB0000192FFF7DDFF1CBD1CB5002100910B463F
:10EFC000012201911146FFF7D3FF1CBD82000648C4
:10EFD0001018026803231B049A43026002680904A4
:10EFE0000A430260704700000007005002494018C1
:10EFF0000021016070470000006000400349401894
:10F000000068012800D00020704700000060004028
:10F010000048704791F0010030B5194C0546207842
:10F0200089B0002805D06078854202D1002009B05F
:10F0300030BD202213496846FCF77EF8002069465F
:10F040000875092000900B200190082003900A20E9
:10F0500002900D4806900A48001DFFF72FFF002D73
:10F0600001D0002200E0094A05486946001DFFF76B
:10F0700047FE0028DBD1012020706570D6E7000034
:10F08000B01F00209429020000E0D701A92302004C
:10F09000F0B5C3B00D4600214B98009149991C462C
:10F0A000081817460290002D01D00A2000E0002029
:10F0B000019002F051FC002878D103AE002C17D14A
:10F0C00000986A463118284603F0F2F800286DD0FF
:10F0D0003846FCF755F8C22800D9C22005460098EA
:10F0E0002A4630183946FCF727F800984019009056
:10F0F00001990098421803A9081831328918002292
:10F1000003E020230370401C521C019B9A42F8D359
:10F110000026029A944207D3202202704270827025
:10F120000A70C01C491C26E0499A944202D2489AAF
:10F13000125D02E0A31A4A9AD25C01259446AB0004
:10F140006246DA4013071B0F092B01D9373300E061
:10F15000303301277F1B6D1EC3556A1CEFD120225F
:10F16000827062461346203BC01C5E2B00D92E22C3
:10F170000A70491C641C761C102ECAD30D220A701A
:10F180000A224A7020210170009901980918433120
:10F1900003A8009102F0E8FB002807D002F0DCFB96
:10F1A000002803D1009002988442A1D3204643B0A6
:10F1B000F0BDFFB5C5B000251C464E9F049502F07A
:10F1C000CBFB002837D1049805AE311804AA469825
:10F1D00003F06EF800282FD03B00FCF703FA070578
:10F1E000131A2F38434F21004798FBF7C9FF0499A2
:10F1F00005464018FF2813D870182A464799FBF790
:10F200009BFF0DE00498226830184799FCF7D6F967
:10F2100005E004980CCC30184799FCF7CFF9054667
:10F22000294604A8FDF7BAFB002804D0FF20049962
:10F23000013081422ED9002049B0F0BDA068009075
:10F2400004980CCC30184799FCF7B8F9E7E7E16867
:10F25000A0680090019104980CCC30184799FCF7F5
:10F26000ADF9DCE72046083007C86B4607C30498B1
:10F270000CCC30184799FCF7A1F9D0E720460830AC
:10F280000FC86D460FC504980CCC30184799FCF791
:10F2900095F9C4E705A802F067FBCDE70048704781
:10F2A000B3F1010038B50093034B0D465C6913467A
:10F2B00000212A46A04738BDBC2C002010B50023F1
:10F2C0001A46FFF7EFFF10BD08B5009201236A460A
:10F2D000FFF7E8FF08BD1CB50193009202236A46C0
:10F2E000FFF7E0FF1CBD0000014A916150617047CB
:10F2F000BC2C002070B50120FFF78EFE040008D161
:10F30000FFF7CCFF0546FFF783FE01462846FFF7CF
:10F31000EBFF204670BD4058002800D00120704708
:10F320000322120280184068084000D00120704774
:10F330007FB50188041D1D2926D00BDC102913D0B0
:10F34000112962D01B2904D12079022801D102F0B1
:10F35000DBF87FBD1F2954D03A295BD05529F8D15D
:10F360008088132176DF0AE081882C48FCF738FF7B
:10F37000002801D0FCF786FC0720FDF797F900284C
:10F38000E7D0FCF77FFC7FBD20460D300290207B4C
:10F390006946C00888816A4602A90220FCF79FFBE3
:10F3A000002806D06A4602A90320FCF798FB002833
:10F3B000E9D1694689880020194D4B081EE04100BB
:10F3C000009E4A1CB25C715C12021143A94214D126
:10F3D0008BDF0020FDF76AF9002801D0FCF752FC12
:10F3E0001048FD2201781140017001460E4A201D8F
:10F3F0008CDF0E49002048707FBD401C8342DED860
:10F400007FBD2088211D75DFB9E7FCF79DFD002831
:10F410009DD07FBD8088132176DFB0E77420002067
:10F42000161800002C220020A4280200B01E002084
:10F43000F3B583B003980C46FF3081300988408DC6
:10F4400081425BD1039F4621FF37A137B8794843FA
:10F4500003994618608800283DD120460830019065
:10F460003579207A2818052800D905203071002028
:10F47000009014E000980A21484301990A2241189B
:10F480000C206843801902900A30891CFBF754FE57
:10F490000298002181820098401C6D1C00903079F8
:10F4A000A842E7D80C204543A819C288B87946235A
:10F4B000039958434018008982420CD230790528BC
:10F4C00009D0787121880398FDF7DEFA010015D084
:10F4D0000020F87109E000257D71228869460398B3
:10F4E000FDF7EEFB01000BD0FD7122880398FDF7BC
:10F4F0009FFC0D48032101702188418005B0F0BDBB
:10F50000684600780028F9D023883288074903200C
:10F51000FFF7E1FE228801210398FDF743FC2188D3
:10F52000039800F04DF9E9E7F4220020B429020025
:10F53000F8B50546FF300C4681300988408D814280
:10F5400044D12E46FF36A136B079462148434719AB
:10F5500070790C225043C0190A30864621466088D3
:10F560000831002813D10B88234A9C460DE006235E
:10F5700043435B189B88934206D1062250434018B0
:10F5800041887046418102E0401C8445EFD800204C
:10F590006946087070793979401C884203D101208E
:10F5A0006946087017E07071228869462846FDF7A1
:10F5B00087FB01000BD00020F07122882846FDF760
:10F5C00037FC0E480321017021884180F8BD684650
:10F5D00000780028FAD023883A8809490320FFF7E9
:10F5E0007AFE228801212846FDF7DCFB2188284687
:10F5F00000F0E6F8F8BD000002290000F422002027
:10F60000782A020070B504460A4600888B880C32BE
:10F6100086B0984237D18889A388984233D1022096
:10F620006B461870888858809079C507ED0F1D715A
:10F6300090798007C10F597190794007C00F987178
:10F64000137AD679180230436B461881507A987233
:10F650000420002D06D0D37A957A180228436B46F1
:10F660009881062000290AD01518AD1D2846FBF701
:10F670009BFD0002E978000A090608430490A2688D
:10F6800069462046904706B070BD000010B5134A89
:10F6900000215170017A012911D002290ED18189EE
:10F6A000491C8181C189491C89B2C181028A914268
:10F6B00004D1002102F02CF901F0BAFB10BD838ABD
:10F6C000C28A991AFF2901DC89B201E0FF210131C8
:10F6D000511889B2C1829942EBD010BDAC1F0020F5
:10F6E000F8B50746FF370546A1370C46B8794621DD
:10F6F00048434619FF20AB302188405B814210D13E
:10F700006088328800280DD015A10320FFF7DCFDAA
:10F71000228800212846FDF745FB2188284600F075
:10F720004FF8F8BD1AA10320FFF7CEFD61893180A3
:10F73000A1897180E189F180208A30812188284661
:10F74000FDF7A2F90100ECD00020F87122882846CC
:10F75000FDF76EFB19480321017021884180F8BD37
:10F76000424C455F44425F444953433A494E464FF9
:10F770003A5365727669636520555549442030785F
:10F780002578204E6F7420666F756E640D0A000038
:10F79000424C455F44425F444953433A494E464FC9
:10F7A0003A466F756E64207365727669636520559D
:10F7B00055494420307825780D0A0000F4220020B5
:10F7C000F8B50446FF340646A134207A0D46401CA5
:10F7D000C0B217492072CA680021904226D26171D6
:10F7E000A0794622401CC0B242439719A071114A29
:10F7F0008000801802883A804088788039712B46D2
:10F800000D490320FFF767FD3A460121284690DFA6
:10F8100001000AD00020E0712A463046FDF708FBBF
:10F8200004480321183001704580F8BDE171F7E705
:10F83000D81E0020DC2200201C2A0200F7B51C4D37
:10F840000E4601466A6F002082B0032A2DD82C464E
:10F8500078340827636CBF1BBB4226D8286F10186A
:10F860008007800F1C2250434019FBF765FC686F2E
:10F87000401C6867002E17D0216C606C4018400750
:10F88000800E00190023009009E00498D9000A189E
:10F8900006CA009806C06846FDF726F95B1CB3420D
:10F8A000F3D3606C80196064012005B0F0BD0000E6
:10F8B000642A00200389CA1C9A1802814289511ABD
:10F8C000C91E418170470000F7B50D46012189022C
:10F8D00047180446002608340220288012E02046FB
:10F8E000FEF73CFA002817D00C48A1684268914204
:10F8F00000D94160608881000C1929880818C01C53
:10F9000028800C34BC4202D22068401CE7D1029807
:10F91000002800D00670FEBD0126EBE7941F0020F2
:10F9200008B50021009101460223024A0248FDF772
:10F930005DFE08BD8C290200D41F002008B5002000
:10F940000090044802230168034A0448FDF74EFE74
:10F9500008BD0000A41F002084290200D41F00203D
:10F96000F8B50025354F2C462E4600953448B10297
:10F97000006840180168B94205D1324A41688918C7
:10F9800030D001290CD000218A0082580346521C35
:10F9900036D003202C4922018854641CA4B21BE0F9
:10F9A000009900290CD0284B022221015A54274AE1
:10F9B0001368254A891802224B60641C0A81A4B28C
:10F9C000224900220860091DFFF77EFF1F4880883A
:10F9D000022831D008200543761CB6B2032EC5D3C9
:10F9E000E8B2F8BD1849002322018B5451180A4689
:10F9F00048600E320831FFF767FF02200543CCE76D
:10FA0000491CFF29C0D911490A68002A0CD00E4AA6
:10FA100002212301D1549A1850600B4811812030E3
:10FA20004480641CA4B204E002200B6088800120A2
:10FA3000009001200543CFE70420CCE7DEC0ADDE17
:10FA4000D41F002002FEE10E242B0020A41F002062
:10FA500070B5184D0E46044623CD86B00295009031
:10FA600001916846448082808371134D2046A978B5
:10FA7000FCF72EFB002803D03046FEF7BFFA0FE05C
:10FA80000721304600F0CEF9002809D0052807D11B
:10FA9000092269460A73CC81049003A8FDF79EFAF7
:10FAA000002229782046FCF725FB6846FDF796FAE8
:10FAB00006B070BD5C290200301F0020F0B585B093
:10FAC0000746FCF7F9FA002814D06846FCF71AFA42
:10FAD00000246D460BE060004619B0883946FCF7FB
:10FAE000F7FA002802D0B08802F0D6F9641C00981A
:10FAF000A042F0D805B0F0BD70B5054D0646002413
:10FB0000A000295830468847641C052CF8D370BDE6
:10FB10000C2902003EB50F4D00241420604340190B
:10FB200002F066FD641C082CF7D3082150200191D7
:10FB30000A490124C2000290074B0094881800F083
:10FB40003EFD002801D003203EBD03484470002044
:10FB50003EBD0000D4270020181F002044250020AF
:10FB600010B500F04BFA10BD10B500F04BFA10BD07
:10FB7000F0B5002585B000950195029503950446E2
:10FB8000418868464180217901712E46217960883B
:10FB900002F008FD22780421404F1300FBF722FDFC
:10FBA0000A0606361C1C383E43484B4D00280DD033
:10FBB000417CC9070AD002F02DFD68460670207806
:10FBC000012800D00020694608722AE00120694619
:10FBD0000870A068029024E000280ED08268A36814
:10FBE0009A420AD1427CD30707D07B6852085B1C3B
:10FBF00052000A437B6042741FE00220694608708D
:10FC0000E06803900DE0FFF777FF16E0032006E0C1
:10FC100068460170E06802906846F4E7052069468E
:10FC200008700846EFE7062069460870E068D1E7EB
:10FC300001250720F3E7E06802907868002824D0C7
:10FC4000174E0024142027464743B819417C4A0721
:10FC500003D48907C90F29421CD08178F05B00F0DA
:10FC6000F7F8002816D014214C43325B69464A80CD
:10FC7000B9198A7869460A71042808D009216A46A8
:10FC8000117002906846FFF737FF05B0F0BD0820FD
:10FC90000870F7E7641C082CD4D3F6E7181F00207F
:10FCA000D427002010B500F071FA10BD08B51388F4
:10FCB0009B0000936B4600F0DBF908BD10B50023F4
:10FCC00000F0D6F910BD38B50546002420460AE0FC
:10FCD0008178284600F0A6F8002802D0052800D038
:10FCE00003240098401C00906946284602F06CFCF2
:10FCF0000028EDD1002C07D1284600F04FFA00284B
:10FD000002D0072802D00324204638BD0724FBE791
:10FD100010B51346002200F0E3F910BDFFB581B025
:10FD2000049815460E46002804D0072E05D0082E4C
:10FD300019D102E00E2005B0F0BD002D13D0082D22
:10FD400011D8019800F035FA00280CD0002000905E
:10FD50003146019802F026FC041E26D0E068A84235
:10FD600012D2002709E00720E5E7207CC019C1B2C4
:10FD70002A4800F05CFC7F1CFFB2E068B842F4D86F
:10FD8000204602F035FC10E0A84217D9EFB207E098
:10FD9000207CC019C1B2214800F049FC7F1CFFB291
:10FDA000E068B842F4D8002C08D1FF211C48019F1C
:10FDB00002F0F8FB041E05D00780A670207CFF2807
:10FDC00002D00AE01120B6E72946144800F0C8FB2B
:10FDD0002074FF2813D001200090E560217C0F489B
:10FDE00000F00EFC02000ED0ABB23146049800F0D9
:10FDF00071FA009800280FD0082E06D00CE020469B
:10FE000002F0F6FBDEE7032095E7049804990088EA
:10FE100049688000801F888000208CE7C42700206C
:10FE2000FFFF000070B5002402F0BCFB05000CD001
:10FE30006868002804D000F0D8F9040000D003243A
:10FE4000284602F0E7FB204670BD052070BD00008B
:10FE50007CB50D460646072903D0082D01D00720A2
:10FE60007CBD002000900190684685702946304690
:10FE700002F098FB040004D0607CC00703D000208F
:10FE80007CBD05207CBD217C214800F0B9FB02002F
:10FE900025D029466846E36800F0AFF9684602F0CD
:10FEA0006FFB2346083369463046626800F018F954
:10FEB0000246607C1749430704D5830702D54B6887
:10FEC0005B1E4B60FB25FD23002A0AD0112A0DD0B2
:10FED000042A14D0072A00D0032210467CBD032038
:10FEE0007CBD01210843284018400EE04A68521C9E
:10FEF0004A6004210843184060740022EDE74B6813
:10FF000028405B1C4B60022108436074E5E7000059
:10FF1000C4270020181F00207CB50D46072903D0F8
:10FF2000082D01D007207CBD002602F03BFB040019
:10FF300003D06068002802D01BE005207CBD217C36
:10FF40000E4800F05DFB02460020009001906846DC
:10FF50008570002A0FD02946E36800F04EF9684604
:10FF600002F00EFB211D684600F027F9064609281D
:10FF700001D030467CBD03207CBD0000C42700209A
:10FF800001490968084700000829020070B588B0D7
:10FF90001748FDF7D3F9002802D0032008B070BD40
:10FFA000FDF708F9002801D00420F7E700F0E8F990
:10FFB0000020104C0290E61F03900DE0694604A853
:10FFC000FDF780F900988088801B85B204A8FDF7B2
:10FFD00037F9284600F088F902AA04A92046FDF75F
:10FFE00056F90028EAD00449012008700020D5E71E
:10FFF00005D0010007C000000C1F002010B500F064
:020000040002F8
:100000009DF910BD10B500F0A1F910BD70B5054601
:100010000320800386B014460E46281880B20F4A8B
:100020006946FDF734F9002805D103A96846FDF7B4
:1000300049F9002802D0002006B070BDA5700398D1
:10004000408820800498606003988088FDF7C6F996
:1000500030806846FDF7F4F80120EDE7101F00201E
:100060000248002141608160704700000C1F0020A1
:10007000F0B587B01D46144607460E46FF280CD83B
:10008000084600F017F9002807D003AA3146384681
:1000900000F0F8F8002809D102E0072007B0F0BD11
:1000A00001A903A8FDF70EF9002801D00520F5E706
:1000B000A6700198002D408820800AD08200286810
:1000C000904204D802996068FBF736F803E00420F8
:1000D000E4E70298606003A8FDF7B2F80020DDE7CE
:1000E0007FB588B01D460C460646FF2831D8A0785B
:1000F00000F0E0F800282CD060680690208869465F
:100100008883304600F076F969460880A07803219C
:10011000890340186946488006A80190012008819B
:10012000A17803AA304600F0ADF8052813D00AA83C
:10013000FDF730F9694603A8FDF7E6F8002818D066
:10014000072820D008281CD00E281AD003200CB075
:1001500070BD0720FBE70A98002805D00AAA694667
:1001600003A8FDF7E1F8E9E7694603A8FDF7D6F82B
:10017000E4E7002D03D0294603A8FDF798F80020F6
:10018000E5E71120E3E70420E1E7000010B50248AD
:1001900000F0AAF810BD0000FFFF000010B5FF2816
:1001A00001D9072010BD00F0A7F800F02BF80020BF
:1001B00010BD10B500F0F8F810BD70B504460D463E
:1001C000807800F077F800280BD021882846FDF7CA
:1001D000C7F8002804D0072805D0092800D003203C
:1001E00070BD072070BD042070BD01B56846FDF7E5
:1001F000D1F8002800D0032008BD10B59BB200F054
:1002000069F810BDF0B589B000261C4F0496384639
:10021000059603E0204600F083F8204600F08EF8B3
:100220000446B84207D000F0E5F804AA06A9FDF795
:1002300036F80A28EED0124DA878002819D1BC4211
:1002400017D00320800301272018AF7080B2FCF77D
:1002500067FF08280FD000280BD0AE70092269462E
:100260000A704C80FF220A71039002966846FFF7DD
:1002700087FE09B0F0BD6F70FBE70000FFFF0000D4
:100280000C1F00207CB5054616460C46084600F0BB
:1002900011F800200321009089030190681861186B
:1002A00080B289B26B463246FCF7EAFF002800D0E4
:1002B00005207CBD07280BD0012809D0082807D0CD
:1002C000052805D0062803D0042801D00020704757
:1002D0000120704710B5502463439BB28170DB1C32
:1002E00099084260018010BD10B50249FCF708FC76
:1002F00010BD00007428002010B504460648844252
:1003000007D006492046FCF7FBFBA04201D10120A3
:1003100010BD002010BD0000FFFF00009428002049
:1003200010B50446044900F095FF034920462031EA
:1003300000F090FF10BD00007428002010B50249A5
:10034000FEF758FB10BD00009428002070B50A4944
:10035000FEF750FB0446094D08E000F031F8002894
:1003600007D005492046FEF745FB0446AC42F4D1D0
:1003700070BD204670BD000074280020FFFF000003
:1003800010B508484021FAF7F0FEFF240134214659
:10039000044800F065FA03482146203000F060FA76
:1003A00010BD00007428002010B5FF2804D80146B5
:1003B000024800F085FA10BD002010BD742800200E
:1003C00010B5FF2804D80146024800F079FA10BDA4
:1003D000002010BD9428002010B50C46FDF77AFBD4
:1003E000FF2803D00C21484301490C5210BD0000E6
:1003F000D424002003218903401880B270470000F4
:100400001CB5044600F0EAF9002801D0FBF73AFCDD
:10041000002C05D000F0FEFB002801D0FBF732FCD9
:10042000002000900190684600780122104381214D
:10043000084030304106490E68460170072141707E
:1004400010218170C178022311431943C1700179D1
:1004500011431943017100F013FC002801D0FBF790
:1004600011FC044800F0F4FB002801D0FBF70AFC63
:100470001CBD000091060200FFB599B050201790F6
:10048000002016901B99239E1D460746002904D084
:10049000002D02D00121169128602299002903D055
:1004A000002E01D00127306014906846002415907A
:1004B00037E050216846FAF758FE19986100405A13
:1004C00017AB14AA0721FFF7D3FD05280AD0072888
:1004D00008D06846407C002806D0012804D0134884
:1004E0001DB0F0BD0520FBE7169800280BD0E000FA
:1004F000011B1B980722081804A90131FAF71CFEFA
:100500002868401C2860002F0AD022982101081872
:1005100000A910220131FAF70FFE3068401C30604C
:10052000641C1A988442C4D30020D9E70232000028
:100530000449081820214156042901DB0120704795
:1005400000207047B4290020044908182021415692
:10055000042901D20120704700207047B4290020EF
:10056000F8B50F46060028D03068002825D07068FE
:10057000002822D0FF2400251CE02946706800F0E6
:1005800077F9002808D0FF2C00D12C46281B401CEE
:10059000B8420DD12046F8BDFF2C06D108E0214617
:1005A000304600F044F8641CE4B2AC42F7D3FF24B8
:1005B0006D1CEDB2B068A842DFD8FF20F8BDF8B5D9
:1005C0000400069E089D079818D0002916D0002B1D
:1005D00014D007466F43974210D8C21DD208B242CA
:1005E0000CD800280AD0002D08D0E560A0600AC40D
:1005F00081B2184600F034F90020F8BD0720F8BD9C
:1006000070B504000D4610D0206800280DD0606839
:1006100000280AD0FF2D08D000F052F9002804D09D
:10062000E06821686843081870BD002070BD70B58F
:1006300004000D460FD0206800280CD06068002808
:1006400009D0FF2D07D000F03BF9002803D0294640
:10065000606800F041F970BD10B501F03FFA10BDBF
:1006600010B5044A1278002A02D001F06DFA10BDCC
:10067000082010BD201F002010B5044A1278002A5F
:1006800002D0FDF719FC10BD082010BD201F00206E
:1006900008B501780B00FAF7A5FF0F091209131E20
:1006A0002531122C12312E3112331200808800F0C5
:1006B000F9F9112803D0002801D0FBF7E3FA08BDAF
:1006C0004189114AD142FAD140880121FFF7C8FF80
:1006D0000828F0D108BD0021009140886946FFF745
:1006E000BBFF08BDFCF742FD0E28FAD00828F8D061
:1006F000E1E70020E1E700F007FF08BD8068DAE7E6
:1007000000F0A4F808BD0000FAEFFFFF70B586B056
:10071000044614216846FAF728FD608869468880F7
:10072000FDF7B4FB6946488026780020082207219F
:1007300005253300FAF756FF0A06060B0D0F1416AF
:10074000281A1D256B46197058721A7219E00D206F
:1007500009E00E2007E06A4611705072157210E031
:100760000F2000E01020694608700AE06846057016
:1007700007E0062168460170A0680290A1886846DB
:1007800041806846FCF716FC06B070BD10B5044603
:10079000007886B000281AD0012816D10E4960884A
:1007A00001224979FBF7A6FC14216846FAF7DDFC23
:1007B0006088694648806088FDF736FC6946888015
:1007C000002008706846FCF7F5FB06B010BDE08815
:1007D00000F05CF9F9E70000201F002070B5FFF77A
:1007E000D5FB00282ED1FFF795F900282AD101F07A
:1007F00083F9002826D101F091FA002822D1FDF7D3
:1008000017F900281ED1FDF7CFF900281AD1FDF7FE
:1008100055FB002816D10C4C401EE0800025182006
:10082000A56020716071FBF72FFC2071182809D09A
:10083000FBF72AFC6071182804D065700120207035
:10084000002070BD032070BD201F002010B503489C
:100850000078002801D0FDF70FF910BD201F0020FF
:1008600010B5002803D0C91DC908FAF77EFC10BDD9
:1008700010B5002809D04B075B0F01229A40C90828
:10088000D2B208181146FDF7EFFF10BDF8B50D46BE
:10089000060013D0002401270EE06107490F3846F7
:1008A0008840C1B2E0088019FDF7DEFF002801D0C2
:1008B0002046F8BD641CA4B2AC42EED32846F8BD75
:1008C000002807D0CA08805C4A07520F01219140D6
:1008D000084000D001207047F8B504464805050ED1
:1008E0004907490F01208840C6B2002C0ED0605D38
:1008F00030420BD0002168460170FBF777FA605D4B
:10090000B043605568460078FBF78EFAF8BD0000EA
:1009100010B504490978002902D0FFF725F910BD68
:10092000014810BD201F0020FFFF000010B5044645
:1009300006480078002808D02046FDF753FA2046E4
:1009400001F0C2F82046FCF7B1FF10BD201F0020C7
:10095000F0B58BB0044614216846FAF706FC6088AF
:1009600069468880FDF792FA694648802778012019
:10097000082207210026434D3B00FAF733FE0A0602
:100980000E20353B435F80787A806A46117021796A
:1009900011725672039690726EE06A461170217958
:1009A00011725672A16803919072A868002863D0F2
:1009B000A168814260D1AE609088E88012E068460C
:1009C0000270217901724672A0680390E068049079
:1009D000A868002850D0A16881424DD1AE60E86877
:1009E000401EE860039647E06A4611702179117253
:1009F0005072F7E769460A7022790A724872A06855
:100A0000049039E0092069460870A878002833D09E
:100A10001D4C2046FFF7A8F8A0422DD12046FFF735
:100A20009FF8A04228D1AE70142105A8FAF79DFBCB
:100A30000B21684601750483C48214E00A206946CC
:100A40000870A0680290A878002815D0AE70142114
:100A500005A8FAF78AFB0C20694608750A4808833E
:100A6000C882A068079005A8FCF7A4FA04E0052056
:100A700000E00620694608706846FCF79BFA0BB058
:100A8000F0BD0000201F0020FFFF000010B504494A
:100A90000978002902D0FDF7B1FA10BD082010BD79
:100AA000201F0020F0B52D4C0646207887B0002886
:100AB00008D02B498868C96806910590607800289D
:100AC00003D00FE0082007B0F0BD244900230C310B
