:020000040001F9
:10B0000048290020D5B00100EFB00100F1B00100E7
:10B010000000000000000000000000000000000030
:10B02000000000000000000000000000F3B001007C
:10B030000000000000000000F5B00100F7B00100C2
:10B04000A5B20100F9B00100F5B30100F9B00100AB
:10B0500019B301000000000055B10100F9B0010072
:10B06000F9B00100F9B00100F9B00100F9B0010038
:10B07000F9B00100F9B00100F9B00100F9B0010028
:10B08000F9B00100F9B20100F9B00100F9B0010016
:10B090002DB30100F9B0010035B30100F9B0010092
:10B0A000F9B00100F9B0010000000000000000004C
:10B0B0000000000000000000000000000000000090
:10B0C0000348854600F034F8004800471DBD0100E4
:10B0D000482900200321094802680A430260084801
:10B0E00002680A4302600748804707480047FEE7B6
:10B0F000FEE7FEE7FEE7FEE7FEE70000240500406E
:10B100005405004055B30100C1B00100D2B201E0C6
:10B110000270401C491EFBD270470022F6E710B5B2
:10B1200013460A4604461946FFF7F0FF204610BDB5
:10B13000064C0125064E05E0E36807CC2B430C3C8A
:10B1400098471034B442F7D3FFF7BEFFFCC60100A6
:10B150001CC70100F0B50025FF268BB00136012485
:10B160002F460195304600F019FE002807D04848C8
:10B170004068204203D0304600F008FE2543361DCB
:10B1800064007F1CB6B2042FECD3FF247D3420462C
:10B1900000F004FE002807D0204600F0F7FD60070D
:10B1A00005433C48006901903B4C280714D0012717
:10B1B00000262F420CD03948B200111808690969DD
:10B1C000C004C00E8903A258890F002A00D09047FE
:10B1D0007F00761C042EECD3002D57DA002005905A
:10B1E000401E4DE0A119403108788506AD0E42B2EF
:10B1F000521C39D00121A940089A0091114233D044
:10B2000080090390284600F045F9800020580490FA
:10B21000002802D10398032826D103980099032817
:10B2200002D10598084305901D4AA80080180068BF
:10B23000019A8003800F114202D0022802D013E04D
:10B24000032811D10399032907D102281CD0022118
:10B25000284600F08BFD7F1CFFB20498002803D025
:10B26000049A284603999047761C042EBAD3002FDF
:10B270000CD0084800690199884207D001900598D0
:10B2800000273E460890ADE70321E1E70BB0F0BD93
:10B290000063004000050050281F002000650040AA
:10B2A00000070050F8B5FF20013000F039FD002400
:10B2B00001250E4E0E4F002807D00E4804600120D5
:10B2C000B0607D70002000F0FDF8FF20053000F038
:10B2D00027FD002808D00748001D04600220B06048
:10B2E000BD70012000F0EEF8F8BD00000003004042
:10B2F000141F00200001004010B50649002008601E
:10B3000048608860C860034940390860486001F0BF
:10B3100085F810BD4011014010B50249024800F007
:10B32000B0FF10BD8C1F00200040004010B501F0A0
:10B330000BF810BD10B506484068002805D08047BE
:10B34000002801D000F09AF810BD00F0C9FB10BD34
:10B35000EC1E002010B500F003FC002805D01F49AA
:10B360001D484860C8131E4988611E48018CC9B237
:10B3700001290BD1828C120708D1028D1206120FFF
:10B38000042A03D1828D1206120F0AD0012921D17D
:10B39000818C09071ED1018D0906090F0A2904D0E5
:10B3A00007E0114A01219160F5E7828D1206120F24
:10B3B00005D00D290ED1808D0006000F0AD10B4853
:10B3C0000168012904D00A49016001680129FCD102
:10B3D000C021416110BD0000DFFF07C00005004033
:10B3E000006C0040C00F00F00006004000EC06407A
:10B3F0007593000010B50249024801F06AF810BDCB
:10B40000701F00200020004030B47446641E257870
:10B41000641CAB4200D21D46635D5B00E31830BC88
:10B42000184702E008C8121F08C1002AFAD1704765
:10B430007047002001E001C1121F002AFBD17047B4
:10B4400006A1012000F0C0FCBFF34F8F0A49094854
:10B45000C860BFF34F8F00BFFDE700004150505F51
:10B460004552524F523A4552524F523A46617461D8
:10B470006C0D0A000400FA0500ED00E00EB5002195
:10B48000029000916A4601910148FFF7D9FF0EBD75
:10B4900001400000024909182020085670470000AA
:10B4A000281F0020002807D00449814204D80449FD
:10B4B000814201D90120704700207047041F0020FD
:10B4C000141F002070B5084C050009D01034216805
:10B4D000002907D008682060496828468847F6E7B1
:10B4E0000834F4E770BD0000141F0020F8B52348AD
:10B4F000416800293ED00E6821494C6887688078F1
:10B50000E11B0D022D0AED1C002814D101201D4A5B
:10B51000000450601B4A403A50601B4940000860DC
:10B520001A4908601A49012008602F2000F000FC29
:10B53000124901208870B54200D23546E819000250
:10B540000F4B000A403318600D4A5168001B091B5D
:10B550000902090A0002000AC91C814209D950687F
:10B5600018602F2000F0E4FB0120074940048039D7
:10B570000860F8BD00F022FEF8BD0000B01E0020FB
:10B58000001501404013014080E200E000E100E0CE
:10B5900000100140F0B585B00C46002802D0012013
:10B5A00005B0F0BD207900270126002806D01F4DE8
:10B5B000012820D002282CD00F20F1E70297039712
:10B5C000E0680190694601A800F03EFD00280ED019
:10B5D00002988188E18000882081029800F0AEFD09
:10B5E000694609880A01124951188E7300E00A2041
:10B5F00002212171D4E70F4B6A460021A01D00F003
:10B60000E1FC002807D00B4908398F60CF600A2879
:10B61000C6D12846C4E7019800F090FD0549898805
:10B620000A01034951188E73F1E700001D1D000047
:10B6300090200020D81E002010B50E4900230A7863
:10B640004C78A24212D0521CD2B20A70022A00D107
:10B650000B700A78074B920018339A58026088687A
:10B6600010180002000A8860012010BD036000204D
:10B6700010BD0000B01E002010B504780022230089
:10B68000FFF7C2FE070605070D1D262C06000A70EF
:10B6900010BD01220A7002898A81828814E0022288
:10B6A0000A7002898A818288CA81C2688A60007CA5
:10B6B000062802D00020087410BD0120FBE70322F9
:10B6C0000A70C2888A810289CA81C068886010BDF8
:10B6D00004230B70C0888881CA8110BD05200870C2
:10B6E00010BD000070B5064D06460024A000295884
:10B6F000002901D030468847641C082CF6D370BD61
:10B70000B01F002002490A7882430A707047000087
:10B71000D01E002002490A7802430A7070470000D8
:10B72000D01E0020F8B506461C481F460078154676
:10B730000C46C0070AD03046FFF7B4FE002807D0F9
:10B74000002C07D0A00507D00620F8BD0120F8BDC9
:10B750000220F8BD0320F8BD3068A04204D8A8023A
:10B7600071680019884201D90520F8BD002D10D05C
:10B77000684600F06BFB00280DD000980221C0C085
:10B780000170A101090C8180058100F00DFC0020F1
:10B79000F8BD0420F8BD0720F8BD0000E81E002019
:10B7A00010B5084600F06EFB10BD0000F8B5074666
:10B7B0001E481E46007815460C46C0070ED0384677
:10B7C000FFF770FE00280BD0002D0BD0002C09D005
:10B7D00028462043800707D00620F8BD0120F8BD89
:10B7E0000220F8BD0320F8BD3868A04204D8B1009B
:10B7F00078680919884201D20520F8BD002E11D0C1
:10B80000684600F023FB00280ED0009806990760D8
:10B81000416001210172C5600461868200F0C4FBB1
:10B820000020F8BD0420F8BD0720F8BDE81E002068
:10B8300070B5002801D0012070BD164C0025207B7A
:10B84000002801D0257301E000F09CF82078030067
:10B85000FFF7DAFD081E05080B0E1E111A1E00F078
:10B860001BF870BD00F07EF870BD00F061F870BD8F
:10B8700000F038F870BD6088064900012039401892
:10B88000406800F0C3FA70BD656000F0CDFA70BD8D
:10B890000F2070BDB020002070B5104900208A1C18
:10B8A0000D460346203D0C18A67A002E08D0A37240
:10B8B00004016419A689002E02D1A47B012C08D0B2
:10B8C000401C80B20228EED30B704B8004484B60C2
:10B8D00070BD108000F046F870BD0000B020002060
:10B8E0001D1D000010B50F4C608801012046203856
:10B8F0000818818900290BD0052020700A480221F0
:10B9000081800168002301220848FFF70BFF10BD6A
:10B910004168002301220548FFF704FF042121703C
:10B9200010BD0000B0200020E01E0020041F0020F9
:10B9300038B50A4908480B6889884268890059184F
:10B940005388032404700020DB1C00909BB2044841
:10B95000FFF72CFF38BD0000B0200020E01E0020C3
:10B96000041F002010B506494888091D00F0BCFBE3
:10B97000002802D0FFF7DCFF10BDFFF7B3FF10BDBA
:10B98000B0200020F0B51D481D490778024601256A
:10B9900002268C88203A3B00FFF736FD0805171772
:10B9A0001A212C2C16170189491C01810021418084
:10B9B00001730B01D35C002B08D000234418491CF1
:10B9C00089B2A3720229F4D30570F0BD0123F5E713
:10B9D00042685288D21CA2188A800670F0BD458841
:10B9E0000B682D01AA1855680D60536014818E8074
:10B9F000062100E007210170F0BD0000B02000200A
:10BA0000E01E00208188054A914204D00088002869
:10BA100001D001207047002070470000FFFF0000A8
:10BA2000F8B50F46002804D00120FFF76BFE012077
:10BA3000F8BD397900290AD00026254D01290BD0FF
:10BA4000244C022920681FD003293BD125E000F0B7
:10BA5000EBF90121397133E000200101695C022911
:10BA60000BD0401C80B20228F7D30220FFF752FE11
:10BA70000120FFF747FE1848F8BD0401601940682F
:10BA800000F0C4F92E551BE00146002301221348A3
:10BA9000FFF748FE0221A18011E000F0B7F90C4940
:10BAA0002368203149880A01094951184D682560E9
:10BAB0004B60A3880B810221A18005498E543E7101
:10BAC0000028D9D00120FFF71DFE0E20F8BD000090
:10BAD00090200020E01E00201D1D0000041F0020FB
:10BAE000F8B51E4C2078002836D0E06800260028E3
:10BAF0000CD00025607800282ED1684652DF05283A
:10BB000006D0002806D0FFF7B9FC0BE00125F1E7CD
:10BB1000012607E0009800F023F92169002901D0EF
:10BB200000988847002D13D16078002814D16088D0
:10BB300069460880A06861DF052804D0002804D089
:10BB4000FFF79CFC04E0012502E0E168A06888475B
:10BB5000002ECFD0002DE5D0F8BD0000EC1E002057
:10BB60001048018CC9B2012917D1818C090714D161
:10BB7000018D09060A0F03D1828D1206120F0ED015
:10BB8000090F012903D1828D1206120F07D0032954
:10BB900003D1808D0006000F01D0002070470120E6
:10BBA00070470000C00F00F0800701D000207047F0
:10BBB00001207047F0B5284C2146103948688B6841
:10BBC000227886469C46CF78667836E01823534321
:10BBD0006168521CC918A378D2B2934200D10022E6
:10BBE0000B78022B02D0032B27D123E003464D68AC
:10BBF000194603E0A94204D00B46C96900291CD0AC
:10BC0000F8E7002919D08B4208D1C069002805D176
:10BC1000124F0125BD600025AC4601270D68C9699A
:10BC2000D961002909D00B685B190B6005E001742C
:10BC3000C06900E000210028F9D19642C6D106492A
:10BC4000624610398A604860CF70704501D001208B
:10BC5000F0BD0020F0BD0000C01E0020001001401B
:10BC6000F8B52C4E044670680025009041E0002C89
:10BC700002D02046E46920E02648182310300178DD
:10BC800042684B43491CC9B2D2180170837899426B
:10BC900000D105701178506801292CD1017C002950
:10BCA00029D191684160D16881601169C160516991
:10BCB0008161F178002900D045604368B268164F71
:10BCC000991A0902090AB94202D28268891806E063
:10BCD000D11A09028268090A8A4202D9511A0160FE
:10BCE00000E005604560012185600174C56100F0D8
:10BCF00075FB002CBBD10748103001784078814299
:10BD0000BAD171680098814201D00120F8BD0020AD
:10BD1000F8BD0000B01E0020FFFF7F00002070472C
:10BD20000121890740180068002800D001207047D1
:10BD300000280FD00849094A096800BF00BF00BFAA
:10BD400000BF00BF00BF00BF00BF914200D000BFD6
:10BD5000401EF2D170470000001F00200024F400B4
:10BD600010B5002801D1FFF7ADFB10BD82000648D9
:10BD70001018026803231B049A4302600268090436
:10BD80000A43026070470000000700500249401853
:10BD90000021016070470000006000400349401826
:10BDA0000068012800D000207047000000600040BB
:10BDB00038B50093034B0D465C69134600212A46B3
:10BDC000A04738BD2821002010B500231A46FFF7F0
:10BDD000EFFF10BD4058002800D0012070474058A8
:10BDE000002800D00120704703221202801840680A
:10BDF000084000D0012070470389CA1C9A180281AC
:10BE00004289511AC91E41817047000008B50021BE
:10BE1000009101460223024A0248FFF7C7FC08BD11
:10BE2000F4C60100041F002008B50020009004485B
:10BE300002230168034A0448FFF7B8FC08BD00006C
:10BE4000E01E0020ECC60100041F002070B50C4964
:10BE50000446486E042810D00A6E1218042A00D333
:10BE6000121F401C486618204243551801462846B8
:10BE7000FFF753F90120256070BD002070BD000060
:10BE8000C0200020F0B52B4C1C22216F85B05143FF
:10BE90000D192978284E00270B00FFF7B5FA07196E
:10BEA0000509090D0D1119002946FFF7B9FD09E033
:10BEB000294600F0A3FB05E02946FFF76BFB01E0F4
:10BEC000FFF7B6FC00282FD0B04202D1019710E056
:10BED0000F2001902878022801D0032809D11548A5
:10BEE000AA7D7830016C89180164AA7D416C891A99
:10BEF000416469462846FFF7BFFB6846FFF7F2FB3F
:10BF0000206F1C2148430019FFF707F9606F0028D4
:10BF10000CD0216F491C8907890F2167401E60677B
:10BF200004D00020FFF7AEFF05B0F0BD0420FFF7FE
:10BF3000E9FBF9E7D01F00201D1D000010B51848CF
:10BF40001822016E51430C18406E00281FD0207A31
:10BF5000012802D0022816D10FE0A18AE08A091A2E
:10BF6000FF2901DC8AB201E0FF220132E168800092
:10BF700023690918181829DF01E0A08928DF112892
:10BF800006D0002803D00921204600F056F910BD44
:10BF90000449FD220878104004221043087010BDA7
:10BFA000C0200020E81E002010B5054801784A078F
:10BFB000920F04D1022211430170FFF7BFFF10BDA1
:10BFC000E81E0020F8B507461D481C4600781546B7
:10BFD0000E46800701D40220F8BD002D01D0002CB0
:10BFE00028D10520F8BD01011648405C00281ED16B
:10BFF00016E02068002F03D081883A8891420FD143
:10C00000002E03D001883288914209D180682860CF
:10C01000206868600B482030008928810020F8BD26
:10C02000A088214600F060F80028E2D12060A088B6
:10C03000401CA080A0880228D5D30A20F8BD0000AB
:10C04000D01E002090200020F8B505464068244FFF
:10C0500000260C46002828D022490A68824224D8AB
:10C060004968814221D3FFF79FFD00281DD0288910
:10C070003989884219D103CD083D8A68904214D18C
:10C080003A460020203A0125AD0203019B185B6867
:10C090008B4204D25B198B4201D9208011E0401CF5
:10C0A00080B20228F1D30020F8BD268000960AE075
:10C0B000009829688068884205D1009868603889AE
:10C0C00028810120F8BD2088694600F00DF800287D
:10C0D000EED12088401C80B220800228E6D3E2E71F
:10C0E000B0200020041F0020F8B50E460A6812494F
:10C0F00000014518002A04D05088800084180C34B0
:10C1000001E06C6808340127BF026868C019A042CA
:10C110000FD92068401C0CD02046FFF773FC002884
:10C1200002D001203460F8BD6088800004190C340E
:10C13000EBE70020F8BD00009020002008B50021AA
:10C14000009101460123044A0448FFF72FFB002811
:10C1500000D00E2008BD0000E8C60100041F00202A
:10C1600038B5044613480025436C002B08D0026CF8
:10C17000D500521C52072D18520F5B1E43640264F7
:10C1800000200090A08AAB88800041180A482A68E5
:10C19000FFF70CFBA18AAA888918A182A17D491EFC
:10C1A0000906090EA17501D101212174002800D0D2
:10C1B0000E2038BD48200020041F002070B5012447
:10C1C0000B49600408600B494010886009494039F8
:10C1D0008860094D6C602F20FFF7AAFDAC60074D09
:10C1E00000242F20AC60FFF7A3FDAC7070BD0000F1
:10C1F00080E100E04013014000100140B01E00202B
:10C2000030B5FF220523CD7D002409321B02C3185F
:10C21000002D8450986905D04B7ECA68D054487E62
:10C22000401C487630BD1FB501246B461C70197246
:10C23000019206C8684690471FBD1FB500220092B4
:10C24000019202920392037A012B02D0022B11D1A8
:10C2500006E06B461A7002690292828A9A8109E0AE
:10C2600001236A4613708289C389D31A6A461381EF
:10C2700083895381426801920068826868469047CA
:10C280001FBDF8B5FF270D46293704463946FFF78D
:10C29000A1FD0026002817D0E651687D012813D1A2
:10C2A000E9682868C2B2052000022018416482644F
:10C2B0002A6969684263C9B281630120A0620222CF
:10C2C0002946204600F012F8FF2705373946204658
:10C2D000FFF780FD002808D0E651687D022804D1D0
:10C2E00003222946204600F001F8F8BD10B54A7532
:10C2F00000F001F810BD3EB54A7D0C460121012A2F
:10C3000016D0022A16D0032A11D16A4611700521CF
:10C3100009024018C16BC9B20191C06CC0B2029051
:10C32000A06800280BD06D4607CDA36898473EBD96
:10C3300041623EBD0020694608700190EFE7002091
:10C34000FFF79CF8EFE70000FEB51F4C0025A7683B
:10C35000606802906846FFF76FF90190FFF72AFCCA
:10C3600006460198002822D000230098616817E053
:10C370000E680A46864202D9301A086012E0801B15
:10C38000F31800261660D668D169B446002E07D08F
:10C39000FE183602360A566066469660D561154626
:10C3A0000029E5D128466160FFF75AFC06E02846DF
:10C3B000FFF756FC002801D1002E02D00298FFF7AB
:10C3C00095F80020E070FEBDB01E0020012002495B
:10C3D000000508607047000000E200E010B50E4B59
:10C3E0005968002906D002680C68A24204D8A21A33
:10C3F0000A60C161586010BD0B4604E00B46C96974
:10C40000121B002904D00C689442F7D3A41A0C60C4
:10C410000260C161D86110BDB01E0020F8B51D4D8D
:10C420006C68002C34D01C4800274068A968401A6A
:10C430000602360A2068B04218D8361AC7192246B2
:10C44000107CE46900280FD000201074EB68002BEA
:10C4500007D0916950699847002805D0FFF70EF87A
:10C4600002E0516990698847002CE3D12978687807
:10C47000814206D1401CC0B26870022801D1002060
:10C48000687004490006800D18310F50FFF79EFFB9
:10C49000F8BD0000B01E002000150140FF221D3233
:10C4A000002383508B8A8A68D25C8B8A5B1C8B82C8
:10C4B000052109024018C26170471FB500226B4672
:10C4C0001A70197281680191827506C86846904792
:10C4D0001FBDF0B50C46012185B005464902FFF7A6
:10C4E00083FC032109026F180026002826D0FF21B3
:10C4F00025312846FFF773FC00281FD0FF20253088
:10C500002E5081208000B860A07E002801D101203B
:10C5100068600221684601700920C0012918086876
:10C5200008600390E17D68460172E0680190E6755D
:10C53000267606CC6846083C90472DE00421284624
:10C54000FFF752FC002827D0FF2109312846FFF7CA
:10C5500046FC002820D021462846FFF751FEE07D0A
:10C56000617E884218D1207E002807D0617EE26873
:10C57000E0752069E060267666760AE0A07E0028F5
:10C5800001D10120686081208000B860E675617E7D
:10C59000E2682046FFF747FEFF271D373946284649
:10C5A000FFF71DFC00280FD0A08AA17D884204D28D
:10C5B00021462846FFF772FF06E0EE51A17D0029D3
:10C5C00002D02046FFF779FFFF2745373946284636
:10C5D000FFF705FC00280ED0EE51A07E002801D008
:10C5E00001202860E07D002805D0E675617EE268C4
:10C5F0002046FFF718FE05B0F0BD0000F8B50C4668
:10C60000498A364A09018E18002805D0E18830464B
:10C61000FFF7F2FB0120F8BD3189706889004518E9
:10C62000217C2E480027EC380B00FEF7EDFE070FAB
:10C63000311B2B05445254004760A1690160274813
:10C640006946EC38FFF700FD002809D02946012390
:10C65000221D23480097FFF7A9F80221217424E046
:10C660000A20F8BD2246294601230C3208311C4815
:10C670000097FFF79BF8A17D002901D0032213E06A
:10C68000012211E029462046FFF76AFD074618E01F
:10C69000224601230832291D11480097FFF786F82A
:10C6A0002178032905D00622227400280FD00E27F6
:10C6B00009E00522F8E74068FFF740FD074606203D
:10C6C0002074002F03D0E1883046FFF795FB3846F1
:10C6D000F8BD044FF7E70F27F5E700009020002092
:10C6E000041F00201D1D00000000FFFFDEC0ADDEA6
:10C6F000FF011EF1DEC0ADDEFE011EF11CC7010010
:10C70000B01E00206400000022B4010080C70100B8
:10C71000141F0020340A000032B4010000000000A1
:10C720000000000000000000000000000000000009
:10C7300000000000000000000000000000000000F9
:10C7400000000000000000000000000000000000E9
:10C7500000000000000000000000000000000000D9
:10C760000000000000000000000000000024F400B1
:10C770000000000000000000A1B7010003FF00005E
:040000050001B0C185
:00000001FF
