:020000040001F9
:10B00000A8370020D5B00100EFB00100F1B0010079
:10B010000000000000000000000000000000000030
:10B02000000000000000000000000000F3B001007C
:10B030000000000000000000F5B00100F7B00100C2
:10B04000EDBA0100F9B001001DBC0100F9B001002A
:10B0500069BB010000000000A1B70100F9B00100C8
:10B06000F9B00100F9B00100F9B00100F9B0010038
:10B07000F9B00100F9B00100F9B00100F9B0010028
:10B08000F9B0010041BB0100F9B00100F9B00100C5
:10B090007DBB0100F9B0010085BB0100F9B00100E2
:10B0A000F9B00100F9B0010000000000000000004C
:10B0B0000000000000000000000000000000000090
:10B0C0000348854600F02EFB004800473506020085
:10B0D000A83700200321094802680A430260084893
:10B0E00002680A4302600748804707480047FEE7B6
:10B0F0007047FEE7FEE7FEE7FEE70000240500409C
:10B1000054050040B9BB0100C1B0010030B50B4689
:10B11000014600202022012409E00D46D5409D4231
:10B1200005D31D469540491B2546954040191546B7
:10B13000521E002DF1DC30BD70B5002425460028DC
:10B1400001DA01244042002901DA01254942FFF7D2
:10B15000DDFFAC4200D04042002C00D0494270BD1F
:10B1600003460B439B0703D009E008C9121F08C020
:10B17000042AFAD203E00B780370401C491C521ECB
:10B18000F9D27047D2B201E00270401C491EFBD2D6
:10B1900070470022F6E710B513460A4604461946E2
:10B1A000FFF7F0FF204610BD421C0178401C00292B
:10B1B000FBD1801A704730B504460020034600E0FA
:10B1C0005B1C934203D2E05CCD5C401BF8D030BDE9
:10B1D000F0B507460846584087B0C00F04904800B5
:10B1E0000E46590040084908BC1A884105D2384625
:10B1F00031461E4617460B4602465800400810438B
:10B200004CD0300D039040055900400D490D05907C
:10B21000401A0290402872DA18030121000B090538
:10B220000843019004980092002805D001995242E9
:10B230000020884100920190029840210A1A019949
:10B24000009800F0DBF905460C466B4607CB00F092
:10B25000F6F9C0197141039A0E0D0023D717564015
:10B260001A467A40164344D0049A002A2DD0029AF6
:10B27000012A039A15DC1205C01A914101263605F0
:10B28000001C7141D20F059ED207009301920296D5
:10B290002A46234600F0F3F907B0F0BD38463146A0
:10B2A000FAE71605224A0F46B218C01AB741012123
:10B2B0000905001C4F4100187F41114618187941BB
:10B2C000E20F10436D19644113E0E2076D08154366
:10B2D0006408C2071443039A01261205C01A91415B
:10B2E0003605001C7141CE07400830434908C0189C
:10B2F00051412A46234600F0B5F9CDE7FFE704980F
:10B3000001224000C117121A00238B4104983146D4
:10B31000C417381AA141EEE730B40124E4076340B2
:10B3200030BC55E730B40124E407614030BC4FE73E
:10B330000000E0FFF0B51FB488B00B990998002415
:10B3400048400999C00F490049080991C0070B9965
:10B350000090490049080B9109990898A6460843AE
:10B360001CD00B990A98084318D009980124400072
:10B37000420D4800410D099824050003000B2043AD
:10B3800009900B980003000B20430B9050181C49A8
:10B390004018002201901446104605E000200146A6
:10B3A0000DB0F0BD032801DA034600E003239C46FC
:10B3B000C11A0AAE0AE05F0008ADED5B4F00F75B13
:10B3C0007D430027AA187C41491C5B1E6145F2DDC4
:10B3D000410004AB5A522104120C0A43240C401CB5
:10B3E0000828DFDB019802900099704601910090D7
:10B3F000059B049A0799069800F041F9D0E70000F0
:10B400000DFCFFFFF0B50C465C4085B0E40FE4078F
:10B4100003944C00002664085900944649080246EB
:10B420000296224321D062460A431ED06200570D85
:10B430004A000E032303550D012402462C4924051E
:10B44000781B1B0B360B40182343264361460090A4
:10B450001C46501AB44103D30098401C009002E0EF
:10B46000921800985B41002803DA0020014605B0DD
:10B47000F0BD0020012109050746864611E064461B
:10B480001D46141BB54106D36546521BB341744695
:10B4900007430C43A646CD074008490828439218A5
:10B4A0005B4105460D43EAD11046184313D0604670
:10B4B000194650407140084306D06046101AB34107
:10B4C00006D20122002306E000220123DB0702E06E
:10B4D0000122D2435310009874460105381C614183
:10B4E000029C039D0019694100F0BCF8BFE7000011
:10B4F000FD0300000EB5C217C10F5040CA07401827
:10B500000021054B0293019200910A460B4600F080
:10B51000B6F803B000BD0000330400000EB50549C5
:10B520000291002100910A460B46019100F0A7F814
:10B5300003B000BD330400004A0009030123090BD6
:10B540001B051943094B10B5520D9A4201DA002030
:10B5500010BD064B34339A4203DC9A1A00F05EF8B1
:10B5600010BD03495118884010BD0000FF030000C2
:10B57000CDFBFFFF10B5002904DB0124E4074042A6
:10B580008C412146002B04DB1C460123DB07524281
:10B59000A341994200D1904210BD0000F0B51FB404
:10B5A0000646002082B005464024019100901BE031
:10B5B000019922460F46304600F030F8049A059B68
:10B5C000801A994110D310461946224600F016F809
:10B5D000361A8F410197224601200021009F00F07A
:10B5E0000DF838184D4100902046641E0028DFDC1D
:10B5F000019B00982946324607B0F0BD10B5202ABD
:10B6000004DB0146203A9140002010BD91402023E8
:10B610009C1A0346E3401943904010BD10B5202A00
:10B6200004DB0846203AD040002110BD0B46D34031
:10B63000D0402024A21A91400843194610BD10B5ED
:10B64000202A06DBCB170846203A1041C1170B43CE
:10B6500006E00B461341D0402024A21A9140084333
:10B66000194610BD10B5002B08DA0024401C6141BA
:10B6700092185B411A4301D14008400010BDF0B55B
:10B680001FB482B005460C0003D0084600F0E4FA6F
:10B6900002E000F0E1FA2030024600902146284600
:10B6A000FFF7ACFF049B059A04460F46184311436D
:10B6B000084314D0184610431BD0009840210A1AA2
:10B6C00018460599FFF7AAFF05460E46009A059908
:10B6D0000498FFF793FF084305D0012004E02046BB
:10B6E000394607B0F0BD0020C11705430E432C4377
:10B6F000374300990E986305401A7905E40A002241
:10B700000C43FD0A0A3002D500200146E9E7010595
:10B71000101969410C9C0D9D00196941FFF7A2FFAA
:10B72000DFE70000064C0125064E05E0E36807CC84
:10B730002B430C3C98471034B442F7D3FFF7C4FCBA
:10B740008C6A0200AC6A020070B58C180578401C47
:10B750006B075B0F01D10378401C2A1106D10278D8
:10B76000401C03E006780E70401C491C5B1EF9D19A
:10B770002B0705D40023521E0DD40B70491CFAE789
:10B780000378401CCB1A921C03E01D780D70491CF5
:10B790005B1C521EF9D5A142D8D3002070BD000019
:10B7A000F0B58BB0002700200A90FF2001300990EF
:10B7B0000125002416E0099805F0A2FC00280BD012
:10B7C00000BF714840682840002805D0099805F05E
:10B7D0008FFC3846284307466D000998001D80B24B
:10B7E0000990641C042CE6D3FF207D3005F088FC12
:10B7F00000280AD0FF207D3005F07AFC0120C00728
:10B80000074300BF614800690A903807000F00280D
:10B810002CD00125002427E028463840002821D0DC
:10B8200000BF5B48512109014018A10040581F2169
:10B8300009020840000A089000BF5548512109013B
:10B840004018A1004058032109040840000C07904B
:10B85000204602F00FF80646002E02D007990898FD
:10B86000B04700BF6D00641C042CD5D3F80FC0078F
:10B8700000287DD0002008900790401E069000BF51
:10B8800000200890002464E04248005D0590C0213B
:10B890000598884306463F480057401C002857D06B
:10B8A0000120B04006990840002851D0C0210598D9
:10B8B000084080110490304602F020F8029001F018
:10B8C000D9FF03900398002802D1049803283ED1A1
:10B8D0000120B04005460498032802D10798284368
:10B8E000079000BF05200007072109024018B1009A
:10B8F0004058032109040840000C02900A9828408F
:10B90000002802D00298022806D00A982840002871
:10B910001CD10298032819D1049803280FD102984A
:10B92000022801D1032000E0022001903046019955
:10B9300005F0ACFB0898401CC0B2089000BF03980B
:10B94000002803D03046039A0499904700BF00BFF7
:10B95000641C042C98D3089800280ED000BF0B4913
:10B96000096908460A99884203D10021089103E039
:10B9700008E00A900799069100BF0898002800D0B7
:10B980007EE700BF0BB0F0BD006300400005005033
:10B9900000600040A82C0020C206D20E0121914078
:10B9A000014A11607047000080E200E0C206D20E3A
:10B9B00001219140014A11607047000080E100E0E0
:10B9C000C206D20E01219140014A11607047000069
:10B9D00000E100E0C206D20E01219140014A11604F
:10B9E0007047000000E100E0C206D20E0121914044
:10B9F000014A11607047000000E200E010B5002825
:10BA000019DA1A4A03071B0F083B9B089B00D25800
:10BA10008307DC0EFF23A3409A438B071B0E84078A
:10BA2000E40EA3401A43114B0407240F083CA4085A
:10BA3000A4001A5118E00E4A03231B02D2188308EF
:10BA40009B00D2588307DC0EFF23A3409A438B0749
:10BA50001B0E8407E40EA3401A43054B0324240263
:10BA60001B198408A4001A5110BD00001CED00E051
:10BA700000E100E010B5002819DA1A4A03071B0F8D
:10BA8000083B9B089B00D2588307DC0EFF23A34092
:10BA90009A438B071B0E8407E40EA3401A43114BF5
:10BAA0000407240F083CA408A4001A5118E00E4A09
:10BAB00003231B02D21883089B00D2588307DC0E95
:10BAC000FF23A3409A438B071B0E8407E40EA34079
:10BAD0001A43054B032424021B198408A4001A519D
:10BAE00010BD00001CED00E000E100E010B5FF20FB
:10BAF000013004F089FE00280CD0FF20013004F052
:10BB00008EFE012004F092FE01200C4948700020B6
:10BB100001F0B8FFFF20053004F076FE00280BD0BE
:10BB2000FF20053004F07BFE022004F07FFE0120A0
:10BB30000249887001F0A6FF10BD0000542C0020BF
:10BB400010B5002007490860002106484160816067
:10BB5000C160002003494039086048600AF072F86B
:10BB600010BD00004011014010B50249024809F023
:10BB70006DFE10BDCC2C00200040004010B509F037
:10BB800071FF10BD70B50B48006800280ED0094841
:10BB900000688047044600BF2546002D04D000BF42
:10BBA000284600F031FC00BF00BF01E004F036F889
:10BBB00070BD0000AC21002010B504F041F9002850
:10BBC00005D0104810494860C8131049886104F036
:10BBD0001BF9002802D001200D49886004F066F9A5
:10BBE00000280ED00B480068012807D00A480949F0
:10BBF000086000BF074800680128FBD1C020054944
:10BC0000486110BDDFFF07C000050040006C004028
:10BC10000006004000EC06407593000010B5024994
:10BC200002480AF01BF910BDB02C00200020004093
:10BC30000FB410B504A9074B02AA039800F058F8F6
:10BC4000044602A9002000F08DFA204610BC08BC72
:10BC500004B0184765C101002021020C01D0102159
:10BC60001046020A01D010460839020901D01046D8
:10BC7000091F820801D01046891E420801D0881E83
:10BC80007047081A704730B47446641E2578641CE7
:10BC9000AB4204D3635D5B00E31830BC18471D461C
:10BCA000F8E702E008C8121F08C1002AFAD170475D
:10BCB0007047002001E001C1121F002AFBD170472C
:10BCC0000146202909DA01208840054A1040002851
:10BCD00001D0012070470020FCE70120FAE70000B6
:10BCE000FC06FFBC00BFEFF31081084672B6704738
:10BCF000FFB591B00F460546002606E025280AD07C
:10BD0000149A139990476D1C761C28780028F5D159
:10BD1000304615B0F0BD002400940121F34A02948E
:10BD200000E004436D1C2B780846203B98401042ED
:10BD3000F7D128782A280ED0022128780246303AF6
:10BD4000092A15D8009A0A235A43303A80180C431E
:10BD50006D1C0090F1E701CF0090002805DA01206A
:10BD600040030443009840420090022004436D1CAD
:10BD700028782E2815D10420044368786D1C2A28C1
:10BD80000AD101CF6D1C02900BE002990A225143A7
:10BD9000303940186D1C0290287801463039092945
:10BDA000F3D928786C2810D006DC4C281AD06828E3
:10BDB0000ED06A2817D104E0742813D07A2812D143
:10BDC00010E00120400504430CE00121090501E0D9
:10BDD000032109050C436978814203D10120000544
:10BDE00024186D1C6D1C287803906E281ED00CDC66
:10BDF000632831D004DC00288AD0582811D1B2E061
:10BE000064287BD069280CD178E073282DD004DC1D
:10BE10006F2870D0702804D1A7E075286CD07828DE
:10BE20006BD0149A13999047761C62E06002400F21
:10BE3000022807D003280AD0042838680AD00660F0
:10BE40003F1D56E03868F11706604160F8E7386832
:10BE50000680F5E70670F3E7387869460874002035
:10BE6000487404A80390012003E038680390002080
:10BE7000C0433F1D61070FD5002101E00199491C16
:10BE8000029A0191914213DA8142F7DB019A0399F8
:10BE9000895C0029F2D10BE0002101E00199491CE5
:10BEA00001918142FADB019A0399895C0029F5D15D
:10BEB00001990098139A401A00902146149B00F0B3
:10BEC0003BF901998019461807E003980399007817
:10BED000491C0391149A139990470198401E0190B0
:10BEE000401CF2D12146149B139A009800F014F9DB
:10BEF00086196D1C09E741E033E034E00A20002197
:10BF0000049005916002410F022905D001CFC217AC
:10BF10009446032905D007E0FF1DFF08FF0003CF6B
:10BF200006E000B2C2179446042902D140B2C117FC
:10BF30008C4600226146944506DA0A4600214042BA
:10BF400091418C462D2102E0210504D52B216A4622
:10BF50001176012103E0E10701D02021F7E70191EB
:10BF600054E00A200BE0102009E01020049000218A
:10BF70000420044308200591029003E008200021DA
:10BF8000059104906002410F022905D001CF0022E3
:10BF90009446032906D006E0FF1DFF08FF0003CFEB
:10BFA0008C4603E080B2042900D1C0B20021019187
:10BFB00021072BD50399702906D0049A1021059BDF
:10BFC0004A401A4305D00EE040216A46117601210D
:10BFD00008E06146014306D030216A461176039994
:10BFE000517602210191049A0821059B4A401A4387
:10BFF0000CD16146014301D1610707D530216A4662
:10C000001176012101910299491E02910399582943
:10C0100004D037A103910FA90F910DE039A1F9E7E1
:10C020006146059B049AFFF7B9FA039B8C469B5C1B
:10C030000F9A521E0F92137061460143F0D10F9870
:10C0400007A9081A20300390600704D501200004D6
:10C050008443029801E0012002900399884201DDA7
:10C06000401A00E000204118029001980918009839
:10C07000401A0090E00306D42146149B139A0098BE
:10C0800000F05AF886190020049008E006A9085C20
:10C09000149A139990470498401C761C04900199B7
:10C0A0008842F3DBE0030CD52146149B139A0098D9
:10C0B00000F042F8861904E0149A30201399904752
:10C0C000761C0299481E02900029F5DC08E00F98C2
:10C0D0000F990078491C0F91149A13999047761C78
:10C0E0000399481E03900029F1DCFBE609280100B2
:10C0F00030313233343536373839616263646566DE
:10C10000000000003031323334353637383941429F
:10C110004344454600000000F8B5044600251E468D
:10C120001746880404D405E039462020B0476D1C2A
:10C13000641EF9D52846F8BDFFB50446002581B038
:10C140001E46C80301D5302700E02027880404D507
:10C1500005E038460399B0476D1C641EF9D52846A2
:10C1600005B0F0BD0A68531C0B601070704770B5C5
:10C1700005460C46002D01D0002C01D1002070BDD9
:10C1800028782178884201D00020F8E70622611C37
:10C19000681CFFF710F8002801D10120EFE700200C
:10C1A000EDE7000010B50446002C0ED008480068EA
:10C1B000A0420AD806484068A04206D3204603F0B1
:10C1C000ACFE002801D0012010BD0020FCE70000DB
:10C1D000C8210020F0B505460B4600211C680EE082
:10C1E000665C481C275CAF4206D1881C2018106092
:10C1F000701E90800020F0BD701C091800BF988848
:10C200008842EDD80520F6E710B501220221002072
:10C2100000F024FF044600BF002C03D0072C01D0FF
:10C22000204610BD00BF07220221012000F016FFAA
:10C23000044600BF002C03D0072C01D02046F0E7B5
:10C2400000BF0A220021084600F008FF044600BF94
:10C25000002C03D0072C01D02046E2E700BF0020CD
:10C26000DFE770B58CB004460D461646002005E0A9
:10C270000F21091A615C6A461154401C1028F7D33B
:10C280000D2104A8FEF785FF002005E02A5C0F21A0
:10C290000B1A04A9CA54401C0328F7D368464DDF83
:10C2A000002005E00F210A1A08A9895C3154401CBE
:10C2B0000328F7D30CB070BD014600BF054A506893
:10C2C00020228243034B9A6020220240DA6000BFA2
:10C2D000704700000005005010B5002407E0E100A1
:10C2E000064A1268505C012104F02AFB641C0448D1
:10C2F00000788442F3D3002010BD000040210020CC
:10C3000044210020FEB506460C461746052F01D2F3
:10C310000720FEBD04F02EFC002808D104F0FEFB2F
:10C32000054600BF002D01D02846F2E700BF1748A0
:10C330000660174804701748076000201649086017
:10C340001649086017E0E000801901901448006861
:10C350000090019880786946487001990878114AE0
:10C36000694604F051FB054600BF002D01D0284668
:10C37000CFE700BF00BF2046611ECCB20028E2D14B
:10C38000094A0021094800F04FF8C2E74021002087
:10C3900044210020482100204C2100205021002071
:10C3A000AC65020029F40100EDE10100A86502007E
:10C3B0000DA1012005F067F800BF00BF00BF00BF5E
:10C3C00000BFBFF34F8F00BF00BF00BF0C480D4937
:10C3D000C86000BF00BF00BFBFF34F8F00BF00BFEA
:10C3E00000BF00BF00BFFDE74150505F4552524FB4
:10C3F000523A4552524F523A466174616C0D0A00EE
:10C400000400FA0500ED00E03EB50446002000906F
:10C410000190029002946A4600210248FFF7C8FF8B
:10C420003EBD00000140000010B503460C4600BFB1
:10C430000D484068002801D1082010BD00BF002A27
:10C4400001D10720F9E7002B01D10720F5E7186893
:10C45000007C002801D00820EFE71968002008744C
:10C460004C744A6100BFE8E754210020F8B5074644
:10C470000D4614461E4620468107890F002901D12A
:10C48000012100E00021002901D10720F8BD002C86
:10C4900001D10720FAE708F0BDF811480660002036
:10C4A00010490870487008468570446000200E49A5
:10C4B00008600E4908700E4908701420FFF76CFAE6
:10C4C00003211420FFF7D6FA1420FFF779FA384633
:10C4D00008F076F808F06EF8064908600020D5E705
:10C4E00070210020542100205C2100206C210020BC
:10C4F0006D21002060210020F8B504460E46174645
:10C50000254600BF10484068002801D10820F8BD2A
:10C5100000BF002C01D10820F9E7052E01D2072029
:10C52000F5E76869002801D10820F0E7687C012858
:10C5300001D1304600E0002000903B4631462846BD
:10C54000009A09F02FFBE2E75421002070B5044661
:10C55000254600BF0A484068002801D1082070BD68
:10C5600000BF002C02D06869002801D10820F6E73E
:10C57000002028740221284609F042FBEFE7000062
:10C580005421002070B5044600BFFFF7ABFB054601
:10C590000E48406800280ED101200C4948600C4824
:10C5A00000680C490840094908600A4808490860C1
:10C5B0000020207001E001202070002D03D100BF79
:10C5C00062B600BF00BF00BF70BD00007821002030
:10C5D00080E100E0FC06FFBC70B5044625460C482F
:10C5E0004068002812D0002D10D1FFF77BFB0646D3
:10C5F0000748006807490860002005494860002E88
:10C6000003D100BF62B600BF00BF00BF00BF70BD56
:10C610007821002000E100E070B505460C46206856
:10C6200004F058FD206804F025FD0021606804F046
:10C6300014FD2868A169052212028218516200BF08
:10C64000617D227D28680B46134305263602861934
:10C65000F36600BF62682168286804F0ABFF207DA4
:10C6600001280ED10021A06804F0F7FCE06804F076
:10C6700031FDE06804F0FEFCA268E168286804F07F
:10C6800077FF70BD30B58BB01448007800F05AF9D0
:10C690000546284608F00AF900281CD001A800F039
:10C6A0009DF8142201A906A8FEF75AFD00240EE009
:10C6B000620007A9885A0949097800F051F9002851
:10C6C00004D0620007A9885A03F0EEFE641C0698A5
:10C6D000A042EDD800BF0BB030BD0000D620002036
:10C6E00010B5044663799A07920F2179208803F0E8
:10C6F000A9FD10BD10B504462079002803D12046BD
:10C7000000F008F803E02046FFF7EAFF00BF00BF93
:10C7100010BD0000F0B589B004460025208800F067
:10C72000DFF80746208803F07BF90646A0680890EA
:10C73000607A0790208800222249097800F024F9C5
:10C74000002F01D109B0F0BD60794007C00F00286B
:10C7500011D00721304605F037FF0546002D16D0D1
:10C760000821684601712188C1800681039501A8CE
:10C7700001F00CFF0BE020881349097800F0F0F875
:10C78000002804D0304603F033F9039000BF0321A2
:10C79000684601742188418260794007C10F68466C
:10C7A0000175A0794007C10F04A84171811D08A837
:10C7B0000078087004A86946097FC17101F0E6FE9F
:10C7C00000BFBFE71A2100201C21002010B5342132
:10C7D0000148FEF7DEFC10BD5C25002010B50446C4
:10C7E0000348027D011D204608F0D4F810BD00006A
:10C7F0005C25002010B504460348C17D2246001D7B
:10C8000008F0B2F810BD00005C25002010B5FFF75D
:10C81000DDFF10BD10B504460348017E2246001D11
:10C8200008F0A2F810BD00005C25002010B50449F6
:10C83000897D034A527D1140084608F0CEF810BDAC
:10C840005C25002070B504462088102804D01128EB
:10C850001ED01A283FD11FE007F000FEA08807F085
:10C8600067FC002804D100BF0420FFF7CDFD0EE0D7
:10C87000A07D022801D1012000E000200546A28809
:10C880002B4616490846123808F0B8F800BF22E0D7
:10C89000A08807F005FE1EE0207A0009012801DDCE
:10C8A000012000E000200346A2880C49491C0846EC
:10C8B000133808F0A3F8207A0009022801DD0120CE
:10C8C00000E000200346A2880449891C0846143869
:10C8D00008F094F800BF00BF70BD00007225002072
:10C8E00070B5044600250C48017D2246001D08F065
:10C8F0003BF800280DD00848817D2246001D08F035
:10C9000033F80646002E01D0022000E00120054643
:10C9100000BF284670BD00005C25002010B5002433
:10C920000BE0204609F084FB002804D1204609F0E2
:10C9300075FB204610BD601CC4B2182CF1DB18201A
:10C94000F8E7000010B50446204609F071FB002806
:10C9500002D00248005D10BD0020FCE775250020D4
:10C9600070B505460C46204609F062FB002806D04B
:10C970000448015D2A46153807F0F6FF70BD002017
:10C98000FCE700007525002070B505460C461646EC
:10C99000204609F04DFB002806D004480119334613
:10C9A0002A46153808F02AF870BD000075250020C9
:10C9B00010B5044600BF002C01D10E2010BD00BFF1
:10C9C00020890549884201D10820F7E7A1882089FC
:10C9D000012200F0F3FEF1E7FFFF0000034600BF75
:10C9E000002B01D10E20704700BF1981002A03D00F
:10C9F000108898805088D8800020F4E738B5044625
:10CA00000D4600BF002C01D10E2038BD00BF00BF75
:10CA1000002D01D10E20F8E700BF0121684681708A
:10CA2000084901800120084908702868206000201A
:10CA3000C04320810020A0800021E180684600F0F2
:10CA4000AFF8E2E7161800003421002070B5054663
:10CA50000C46002D01D0002C00D170BD208811287B
:10CA600006D0362813D038280CD0392810D104E04D
:10CA70002146284604F0C5FF0BE02146284604F075
:10CA8000CCFF06E02146284605F05EF901E000E013
:10CA900000BF00BF00BFE0E770B586B005460C469A
:10CAA0002078002854D1A0882A49884250D1A07902
:10CAB00001284DD160886946C880002620E00C20FE
:10CAC0003146414320460E30405A2349884212D114
:10CAD0000C203146414320460E30081840896946F3
:10CAE00008810C203146414320460E300818018948
:10CAF00001A8C18007E01949012004F0C4FC761C9C
:10CB0000207AB042DBD800BF1549032004F0BBFCFB
:10CB10002889144988420BD0A888002808D1E888C1
:10CB2000002805D168460089A88068464089E880C9
:10CB30000120694608712868002804D001A9284608
:10CB40002A68904703E008A1012004F09CFC00BF84
:10CB500006B070BD161800005B2A00004069020094
:10CB6000A4690200FFFF0000424C455F435343535A
:10CB70005F433A4552524F523A705F626C655F6351
:10CB80007363735F632D3E6576745F68616E646C7A
:10CB90006572206973204E554C4C0D0A0000000050
:10CBA00010B5044600BF002C01D10E2010BD00BFFF
:10CBB00000BF06480078012801D00820F6E700BF32
:10CBC00003480168204607F0C1FCEFE7CC200020B5
:10CBD000C02000200146002200BF002901D10E2004
:10CBE000704700BF0020064B18600120054B1870ED
:10CBF0000020054B1860054801601046F0E7000072
:10CC0000C8200020CC200020C4200020C02000200C
:10CC100070B505460C4600BF002D00D170BD00BFA9
:10CC200000BF002C00D1F9E700BF00BF1348007817
:10CC3000012800D0F2E700BF2088112815D0302845
:10CC400004D0322807D0332814D109E0211D28460A
:10CC500004F08CFF0FE0211D284604F093FD0AE04C
:10CC6000211D284604F044FE05E0211D284604F05D
:10CC7000BDFE00E000BF00BF00BFCFE7CC2000201A
:10CC8000F8B504460D4600BF002C01D10E20F8BDBA
:10CC900000BF00BF22480078012801D00820F6E735
:10CCA00000BF20480068002801D10820EFE7FF20DE
:10CCB000A830005D002801D01120E8E7FF20AB304C
:10CCC00005530020184908600021FF20A9300155B4
:10CCD000801E0155005D462148430619FF20A730FC
:10CCE000005D8000114940180188318040887080C3
:10CCF00032882B460E49032004F0DBFB324601212B
:10CD0000284690DF074600BF002F01D03846BEE717
:10CD100000BF0121FF20A83001550020B7E7000027
:10CD2000CC200020C8200020C42000209025002016
:10CD30001068020010B504462046FFF783FD204628
:10CD400006F022FC21460648FFF762FF204601F06C
:10CD50005DF9204600F082F8204604F035FC10BD55
:10CD6000D821002070B586B028480068059000BF23
:10CD700000234822264905A808F0F6FB054600BF17
:10CD80002E46002E04D000BF3046FFF73DFB00BF0B
:10CD900000BF00BF6A460021012008F0C3FB044623
:10CDA00000BF2546002D04D000BF2846FFF72CFB0E
:10CDB00000BF00BF684608F041FB044600BF25469F
:10CDC000002D04D000BF2846FFF71EFB00BF00BFA8
:10CDD000104808F025FB044600BF2546002D04D06E
:10CDE00000BF2846FFF710FB00BF00BF0A4808F04D
:10CDF00015FC044600BF2546002D04D000BF284680
:10CE0000FFF702FB00BF00BF06B070BDC4640200A4
:10CE10009423002035CD01000D5A020070B505465F
:10CE20000C4600260B480560002C09D0204608F06F
:10CE3000AAFD064600BF002E01D0304670BD00BFDF
:10CE400005480068002802D1FFF7DEF906463046A3
:10CE5000F4E70000B8200020BC20002070B5054693
:10CE60002888102802D0112832D118E01A4800680A
:10CE700000280ED100F094FE044600BF002C07D01D
:10CE800016480068002803D02046144909688847DE
:10CE900000BF11480068401C0F49086019E00E48A7
:10CEA0000068401E0C4908600846006800280ED142
:10CEB000FFF7AAF9044600BF002C07D00748006816
:10CEC000002803D0204605490968884700BF00E0D4
:10CED00000BF00BF70BD0000BC200020B8200020B3
:10CEE00010B5032000F0E2FB044600BF002C03D085
:10CEF000062C01D0204610BD00BF0020FBE700003B
:10CF0000F3B581B006460025002400E0641C032C24
:10CF100004D2A00029490858B042F7D1032C42D2CC
:10CF20000298002825D0012802D002283AD133E007
:10CF30006000201822490D5C6000201840184078DD
:10CF400000280ED01F4800680A22504301461E4A9E
:10CF50001E480068FFF7D0FA0746002F01D11A4893
:10CF60000670600020181649401880781849085546
:10CF700018E016480068FFF7E9FA1548005D6100FF
:10CF800061180F4A89188978884204D160002018F6
:10CF900011464018857805E06000201808494018BF
:10CFA000457800BF00BF002D07D00A480068002860
:10CFB00003D02846074909688847FEBDF46402008B
:10CFC00030250020A4200020B4200020F0640200BE
:10CFD000B5200020B020002010B50246032A0FD251
:10CFE000094B1B69D8439300084CE45C0123A34020
:10CFF0000340002B01D0012300E000230B7001E06F
:10D0000000200870002010BD00050050F4640200EC
:10D0100070B50546042D06D0072D16D00A2D17D160
:10D0200007F06EFF15E013210B48008876DF0446F9
:10D03000082C09D000BF2646002E04D000BF304681
:10D04000FFF7E2F900BF00BF03E009F021F800E0BC
:10D0500000BF00BF70BD00008220002030B5034635
:10D060000020032B24D2012A07D1012903D11C4619
:10D070000D34E4B200E00024224600290FD001293B
:10D0800002D0022911D104E05C001C19094D2A5577
:10D090000DE05C001C19074D6419627007E05C002C
:10D0A0001C19044D6419A27001E0072000BF00E0C4
:10D0B000072030BD3025002070B504460025064805
:10D0C0000078C007C00F002803D0204600F06EF89B
:10D0D0000546284670BD0000A8200020F7B505468B
:10D0E0000E46002426480660264805602649029818
:10D0F000086002202840002822D0002706E00122F4
:10D1000011463846FFF7AAFF04467F1C032F01D2C1
:10D11000002CF4D0002C05D1720803211B48FFF726
:10D12000F1F80446002C02D1FFF7D6F80446002C93
:10D1300005D1174A00211748FFF776F9044600BFCA
:10D14000E807C00F002808D000BF382012498860C7
:10D150000020C86000BF38208861002C05D10F4A2C
:10D1600000210F48FFF760F90446002C05D10D4A55
:10D1700001210D48FFF758F904462046FEBD000086
:10D18000A4200020A8200020B0200020006502007C
:10D190001DD70100F0640200000500503DFF0100B2
:10D1A000E8640200B9C20100EC640200F8B504466C
:10D1B000002500262300FEF766FD180D1C1D61A545
:10D1C000FEFCFBFAF9F8F7F6F5F4F3F2F1F0EFEE06
:10D1D000EDECEBEA00BFFE480168382088433821B7
:10D1E0000840FC4988600020C86000BFFA4804700D
:10D1F00053E200BF00BFF648016830208843382161
:10D200000840F44988600020C86000BF08464068B4
:10D21000382148400821084000280FD000BF0820CE
:10D22000EC4988600020C86000BF022C02D1E120D8
:10D23000C00001E07D20400106460DE000BF08204F
:10D24000E449C8600020886000BF022C01D1C820DA
:10D2500001E0FF2091300646DF480470642130462B
:10D26000FDF754FFDD490968484307460022394667
:10D27000DB480068FFF740F905460EE200BFD448DE
:10D2800001683020884338210840D2498860002056
:10D29000C86000BF0846406838214840082108405F
:10D2A00000280FD000BF0820CA4988600020C8604D
:10D2B00000BF032C02D11920400101E07D20400174
:10D2C00006460DE000BF0820C249C8600020886003
:10D2D00000BF032C01D1C82001E0FF209130064699
:10D2E000BD48047064213046FDF710FFBB49096852
:10D2F0004843074600223946B9480068FFF7FCF862
:10D300000546CAE100BFB248016830208843382191
:10D310000840B04988600020C86000BF08464068E7
:10D32000382148400821084000280FD000BF0820BD
:10D33000A84988600020C86000BF042C02D17D206D
:10D34000400101E07D20400106460EE000BF0820BC
:10D35000A049C8600020886000BF042C02D1FF20D3
:10D36000913001E0FF20913006469B480470642113
:10D370003046FDF7CBFE994909684843074600222D
:10D38000394697480068FFF7B7F8054685E183E11D
:10D3900078E176E165E154E143E138E1F2E0F0E083
:10D3A000EEE0ECE0EAE0DFE0C8E0B3E09CE087E03C
:10D3B00071E043E0FFE700BF854801683020884303
:10D3C00038210840834988600020C86000BF0846B3
:10D3D0004068382148400821084000280ED000BF8E
:10D3E00008207C4988600020C86000BF052C01D15E
:10D3F000C82001E07D20400106460DE000BF082066
:10D400007449C8600020886000BF052C01D1C82085
:10D4100001E0FF20913006466F48047064213046D9
:10D42000FDF774FE6D4909684843074600223946F6
:10D430006B480068FFF760F805462EE100BF6448BE
:10D440000168302088433821084062498860002004
:10D45000C86000BF0846406838214840082108409D
:10D46000002806D000BF08205A4988600020C86004
:10D4700006E000BF08205749C8600020886000BF50
:10D480005548047055480022016855480068FFF768
:10D4900033F8054601E100BF4D480168302088435C
:10D4A000382108404B4988600020C86000BF00BF99
:10D4B0000820C8600020886000BF47480470ECE086
:10D4C00000BF4449486810218143424A91601021BD
:10D4D0000140D16000BF4148002201684048006817
:10D4E000FFF70AF80546D8E000BF3A49486810211E
:10D4F0008143384A916010210140D16000BF374814
:10D50000006882008118002235480068FEF7F4FFA9
:10D510000546C2E000BF2F494868102181432D4ACB
:10D52000916010210140D16000BF2C4800220168A9
:10D530002B480068FEF7E0FF0546AEE000BF254936
:10D54000486810218143234A916010210140D16035
:10D5500000BF22480068820081180022204800682D
:10D56000FEF7CAFF054698E000BF38201949C86099
:10D570000020886000BF184804708EE000BF00BF24
:10D5800000BF00BF17480068FEF7E0FF0546112006
:10D59000061B002E2ED0002D2CD120200C49086017
:10D5A000012E10D9C821714308466421FDF7AEFD54
:10D5B0000A49096848430746002239460948006875
:10D5C000FEF79AFF054600BF0148006838210BE0CE
:10D5D000AC20002000050050A0200020A420002046
:10D5E000E8640200EC64020008402D49C860002095
:10D5F00088600BE000BF2B480068382108402849AC
:10D6000088600020C86000BF2649086045E000BF70
:10D610003820234988600020C86000BF2248047079
:10D620003BE000BF30201E4988600020C86000BF7A
:10D6300000BF0820C8600020886000BF1A4804703E
:10D640002BE000BF2820164988600020C86000BF7A
:10D6500000BF1020C8600020886000BF124804701E
:10D660001BE000BF20200E4988600020C86000BF7A
:10D6700000BF1820C8600020886000BF0A480470FE
:10D680000BE000BF00BF38200549C860002088605B
:10D6900000BF0548047000E000BF00BF2846F8BD89
:10D6A00000050050AC200020A020002070B50246EC
:10D6B000002021E08400124D2C59A400114D641962
:10D6C0002168012484401440002C01D0032400E090
:10D6D0000024234603252D040C46AC4321461C049C
:10D6E00021430524240707252D0264198500044ED3
:10D6F0007559AD006151401C0328DBD3002070BD7B
:10D70000F4640200000700500246002901DA0020FC
:10D7100003E013685B1813600120704710B50446DE
:10D7200020780221FFF7ECFB10BD0000F8B505469C
:10D73000134A14490320FFF7D1FC044600BF2646D4
:10D74000002E04D000BF3046FEF75EFE00BF00BFD3
:10D7500069460020FFF762FB044600BF2646002E04
:10D7600004D000BF3046FEF74FFE00BF00BF684642
:10D770000078022801D1012000E000202870F8BDC7
:10D7800011D00100CD0C000030B502460B4602213D
:10D790000EE08D0014462C412007000F092802DD01
:10D7A0000446373401E00446303401256D1A5C55D7
:10D7B0000C46491E002CECD130BD0000F8B50646E1
:10D7C0000F46154633463A461649032003F071FECC
:10D7D00000951548006814490968491C124A1160EF
:10D7E0001421484311494418104600784007400F5F
:10D7F0001146086067810221E181211D216100211C
:10D80000A18101212172009D2571FF200002009D50
:10D8100028400112617126800120A07008F080FA72
:10D820000020F8BDEC69020038210020B42B002054
:10D8300001468879012808D10879012805D148884E
:10D84000034A904201D1012070470020FCE700000C
:10D85000022900000021C9438200054B9950042889
:10D8600004DB0B46011F024A40325354704700004C
:10D87000682C002001468800014A105870470000BB
:10D88000682C0020F7B585B00B460020C0430490FB
:10D89000002A01D0002000E004200390002A01D0DB
:10D8A000042000E00820029003991EE08800124C3A
:10D8B0002058401C002817D10846059C009301926F
:10D8C00046B20D4D20352E5585000B4E009B7351F1
:10D8D000019A002A04D166B2051F074F40377E55D2
:10D8E00000BF48B2049003E0491C02988142DDD396
:10D8F00000BF049808B0F0BD682C00200146014824
:10D9000040567047882C00200146202903DB7E29E1
:10D9100001DC084670472E20FCE7F8B504460E46A9
:10D92000FF20A730005D462148430519FF20A6309F
:10D93000005D002814D0FF22A632125D521ED1B223
:10D94000FF22A732125D46235A4315190C224A437F
:10D950002B460A33D0180289521C6B461A8002E00B
:10D96000E88869460880288969464880304692DF01
:10D97000F8BD00000146002907D00548884204D8B8
:10D980000448884201D9012070470020FCE70000CC
:10D99000C8210020D821002070B505460E4600247D
:10D9A00007E0E100685802F0B8FA002800D170BD25
:10D9B000641CB442F5D30120F9E700000A49496C20
:10D9C00000290FD00849096CC900074A891801606D
:10D9D0001146096C491C4907490F11641146496CED
:10D9E000491E5164704700009C2D002006490268C2
:10D9F0008A4203D001680831016070470249383912
:10DA0000016000BFF9E70000D42D00200178022951
:10DA100002D0017803290BD106490A6C817D511887
:10DA2000044A116411464A6C817D511A014A5164BD
:10DA3000704700009C2D0020F8B504460D46104E9E
:10DA4000304684420BD1FF210131284605F040FDCC
:10DA50000646FF20013086420FD126460DE0FF2CFE
:10DA60000BDC2146284605F022FD0746002F01D099
:10DA7000204600E00248064600BF3046F8BD0000E0
:10DA8000FFFF000070B50546002D01D1094C01E0F3
:10DA9000084C08340AE0204602F048FA0646002EF8
:10DAA00000D104E028467168884700BFF3E700BF53
:10DAB00070BD00005C2C0020FEB51F4800680028E7
:10DAC00036D01D480068056806F074FD01901B48BB
:10DAD00004682146019807F0A2FFC61C1848007888
:10DAE000002801D106F078FDAE4201D2284600E0C0
:10DAF000304604192402240A204606F055FD06F09B
:10DB000059FD00900199009807F089FFC71C204635
:10DB1000019907F084FF874209D906F04BFD0746BB
:10DB200006F042FD2F2002F087FE08F0D5F801E054
:10DB300006F070FDFEBD00005C2100206021002089
:10DB4000742100203EB504462088FEF753FE0028CD
:10DB50001AD020880F490978FEF702FF002805D166
:10DB6000208800220C490978FEF70EFF21886846BC
:10DB70004180052101702088FEF74CFE694608713E
:10DB8000684600F003FD04E020880122034900F00C
:10DB900027FC3EBD1B2100201A210020061000009A
:10DBA00010B5012200210846FFF758FA044600BFCD
:10DBB000002C03D0072C01D0204610BD00BF072247
:10DBC00002210120FFF74AFA044600BF002C03D0CF
:10DBD000072C01D02046F0E700BF042202210020DC
:10DBE000FFF73CFA044600BF002C03D0072C01D0FD
:10DBF0002046E2E700BF0020DFE70000F3B581B078
:10DC00000D4600262878012802D0022841D131E0B3
:10DC100069882A1D2048FEF7E1FE044600BF27461A
:10DC2000002F04D000BF3846FEF7EEFB00BF00BF58
:10DC30006888002105F07EFA044600BF2746002FC1
:10DC400004D000BF3846FEF7DFFB00BF00BF0198DD
:10DC5000FEF7AEFE044600BF2746002F04D000BFEB
:10DC60003846FEF7D1FB00BF00BF0CA1032003F034
:10DC70000AFC0FE0281D00F047F90646002E05D0EB
:10DC800032461649012003F008FC01E000F04AF892
:10DC900000E000BF00BFFEBD2824002043534353D3
:10DCA000204150503A494E464F3A4379636C696E71
:10DCB0006720537065656420616E6420436164650C
:10DCC0006E6365207365727669636520646973634A
:10DCD0006F7665726564200D0A000000E46502003D
:10DCE00030B58BB001240025282101A8FDF751FA99
:10DCF00058210948FDF74DFA084801900720694668
:10DD0000088201A90648FEF779FE0546002D00D0DD
:10DD1000002420460BB030BD98240020FDDB01001C
:10DD20002824002010B52049032003F0ACFB1F4835
:10DD30008269C1691046FDF7FFFB044622461CA11B
:10DD4000032003F0AAFB1948826BC16B1046FDF754
:10DD5000F3FB0446224624A1032003F09EFB134953
:10DD60008A6CC96C1046FDF7E7FB044622462CA1DD
:10DD7000032003F092FB0D4836A14268032003F014
:10DD80008CFB0A4882893EA1032003F086FB0748EA
:10DD9000028A47A1032003F080FB0448828A4FA136
:10DDA000032003F07AFB10BDC8660200982400200F
:10DDB00043534353204150503A494E464F3A7472B0
:10DDC0006176656C2064697374616E6365202020E0
:10DDD000202020202020202020203D2025642028D5
:10DDE0006D290D0A00000000435343532041505059
:10DDF0003A494E464F3A776865656C2073706565A1
:10DE000064202020202020202020202020202020CE
:10DE1000203D20256420286D2F73290D0A00000065
:10DE200043534353204150503A494E464F3A637250
:10DE3000616E6B20636164656E6365202020202025
:10DE4000202020202020203D202564202872706D75
:10DE5000290D0A0043534353204150503A494E463E
:10DE60004F3A6F6C6420776865656C207265766FD9
:10DE70006C7574696F6E20203D202564200D0A00AA
:10DE800043534353204150503A494E464F3A6F6CEA
:10DE900064206372616E6B207265766F6C75746955
:10DEA0006F6E2020203D202564200D0A0000000018
:10DEB00043534353204150503A494E464F3A6F6CBA
:10DEC0006420776865656C206576656E742074697A
:10DED0006D65203D202564200D0A00004353435307
:10DEE000204150503A494E464F3A6F6C642063725D
:10DEF000616E6B206576656E742074696D65202097
:10DF00003D202564200D0A00FEB504460020029045
:10DF1000002700BF0190002C05D12449012003F007
:10DF2000B2FA0220FEBD207800282BD0218960683B
:10DF300005F0F8FE02900298002802DA0120019014
:10DF400032E0607800282FD0A189608905F072FE48
:10DF500007B2002F02DA0120019025E0394602982D
:10DF6000FDF7EAF80090FDF7C5FA05460E4628468B
:10DF70003146FDF7E1FA02460DA10090032003F0BF
:10DF80008CFA11E0607800280ED0A189608905F034
:10DF900051FE07B2002F02DA0120019004E03A4658
:10DFA0000FA1032003F079FA0198BBE75C67020038
:10DFB00043534353204150503A494E464F3A5768D5
:10DFC00065656C20746F206372616E6B2064696696
:10DFD0006620726174696F203D202564200D0A005F
:10DFE00043534353204150503A494E464F3A4372AF
:10DFF000616E6B207265766F6C7574696F6E2064EC
:10E00000696666203D202564200D0A0010B504468F
:10E0100007480089A188884204D00649032003F0FC
:10E0200032FA10BD21460248FEF710FD00BFF8E7A6
:10E03000282400201067020010B50446214602483B
:10E04000FEF72AFD10BD00002824002010B504466C
:10E05000A0880949884203D12046FFF7EDFF09E077
:10E06000A08805490939884204D0A28803A101206B
:10E0700003F013FA10BD0000161800004D41494E80
:10E080003A4552524F523A64625F646973635F6803
:10E09000616E646C65722063616C6C656420776985
:10E0A000746820756E6B6E6F776E20555549443AD3
:10E0B0002025640D0A00000070B50748FEF78AFDB0
:10E0C000044600BF2546002D04D000BF2846FEF7B9
:10E0D0009BF900BF00BF70BD4DE0010070B5064662
:10E0E0000D46002E01D0012070BD2879002804D0F3
:10E0F000012809D0022811D10EE0284606F086F842
:10E100000446022028710BE0284600F0E5FC044696
:10E110000A2C00D1044C03E0034C01E00F2400BFA3
:10E1200000BF2046E0E700001D1D0000F7B584B0E9
:10E1300004460F4600200190FF20A730005D4621D5
:10E1400048430519FF20A630005D0C2148432946AD
:10E150000A3140180290FF20A630005D401C29794A
:10E16000884207D103AB00222046029901F020FE2D
:10E1700001902DE0FF20A630065D24E02879401EA6
:10E18000B04202D10020009006E0701C0C214843F0
:10E1900029460A314018009003AB2046009A0299A4
:10E1A00001F006FE002802D0012001900EE0009848
:10E1B0000290FF20A630005D401CC1B2FF20A630B7
:10E1C0000155701CC6B22879B042D7DC00BF00BF31
:10E1D0000198002804D101203870002007B0F0BD5C
:10E1E0000020387003A9069893DFF7E7F8B50025FB
:10E1F00035E0E8001C49096844182178012088406E
:10E2000006461A4800683040002826D017480068A3
:10E21000B04316490860207802F070FC0746217868
:10E220000120884012490968084022783946914007
:10E23000884211D16078012800D100E000207840A8
:10E240000121484000906068002804D0009BD9B2AA
:10E2500020786268904700BF00BF681CC5B20548BF
:10E2600000788542C5DBF8BD402100205021002008
:10E270004C2100204421002070B5044620793D281F
:10E2800001D1054801E01120000205462088002246
:10E29000294601F0D7FF70BD3D100000F8B50446D7
:10E2A0000D461646FF20A730005D46214843001961
:10E2B0000090009806F02AF90746002F3AD01E4831
:10E2C0000068062836D21C480068502148431B4984
:10E2D000401846801849096850225143174A891846
:10E2E000081D46220099FCF73BFF002D07D00021B6
:10E2F0001148006850225043104A115406E0022190
:10E300000D480068502250430C4A11540A480068D6
:10E310005021484309494018C76407480068401C19
:10E32000054908600846006805490968884201D126
:10E3300004F0DCFDF8BD0000C4200020A82500206A
:10E34000C8200020F0B595B004460D461646FF20C3
:10E35000A730005D4621484300191490149806F038
:10E36000D5F80746002F07D06846C6800121017105
:10E37000029501A8B84700BF15B0F0BD014614488A
:10E380000078144A127890421DD011480078401C41
:10E390000F4A107010460078022801D1002010703A
:10E3A0000B48007880000C4A105808600B4A086837
:10E3B00012688018094A1060104600680002000ABE
:10E3C0001060012070470020086000BFFAE70000DD
:10E3D0006C2100206D21002064210020602100209C
:10E3E000FEB504460D461646084A07CA6B4607C3E3
:10E3F0006846448085808671002205480178204661
:10E40000FEF7C2FA684600F0C1F8FEBD986502004A
:10E410001A21002010B50446A08928DF10BD00B5E0
:10E4200002781300FDF72FFC0734050811212A316B
:10E43000340000220A702CE001220A7003898B81CB
:10E440008388CB81C2688A6023E002220A70038934
:10E450008B818388CB81C2688A60027C062A01D1C5
:10E46000012300E000230B7413E003220A70C38829
:10E470008B810389CB81C2688A600AE004220A701A
:10E48000C3888B810023CB8103E005220A7000E062
:10E4900000BF00BF00BD000070B5054600240AE0C3
:10E4A000A00006490858002804D0A0000A461158C8
:10E4B00028468847641C082CF2D370BD042D002028
:10E4C0003EB505460C46002C1BD0112C19D000205F
:10E4D0000090019002906846458001940D2C03D174
:10E4E0000B206946087008E0042C03D10A20694615
:10E4F000087002E0092069460870684600F056F886
:10E5000000BF3EBD70B50546002405E0A000044AEA
:10E51000115828468847641C002CF7D070BD0000B5
:10E52000D020002070B50546002405E0A000044A74
:10E53000115828468847641C002CF7D070BD000095
:10E54000DC20002070B50546002405E0A000044A48
:10E55000115828468847641C022CF7D370BD000070
:10E560003065020070B50546002405E0A000054AAC
:10E57000115828468847641C034800788442F5DB1C
:10E5800070BD0000682B00201621002070B50546E4
:10E59000002405E0A000044A115828468847641C5E
:10E5A000022CF7D370BD00006065020070B505460F
:10E5B000002405E0A000044A115828468847641C3E
:10E5C000002CF7D070BD0000A4650200F0B5034632
:10E5D000002420E0134E306806689E4203D9066886
:10E5E000F61A06601BE006689B1B066834190026B5
:10E5F00006600C4E35680B4FC6693E60C668002E3B
:10E6000008D00E193602360A4660C668866016685B
:10E61000C661156000BF034800680028DAD100BF5A
:10E62000F0BD00005C2100201FB504466068002892
:10E6300001D1012000E00020039020780300FDF7C5
:10E6400022FB068A04053456838A00BFA08900F0A5
:10E650006BFA002804D1E08905F0F2FE002823D0EF
:10E66000A08900F05BFA69464880E08905F0E2FE87
:10E67000694608712078012807D16068002800D118
:10E6800000E003206946087007E06068002801D1B7
:10E69000012000E004206946087060680390A068CB
:10E6A0000290684604F058F856E0A08900F03CFA61
:10E6B000002804D1E08905F0C3FE002816D0A08907
:10E6C00000F02CFA69464880E08905F0B3FE6946FF
:10E6D00008716068002801D1022000E00520694629
:10E6E0000870A0680290684604F036F834E0A0890B
:10E6F00000F01AFA002826D0E089002823D1A0894A
:10E7000000F00CFA69464880E08905F093FE014666
:10E7100068460171FF2101716068002806D106205A
:10E7200069460870488804F035FA02E00720694617
:10E73000087000200E4908700E49087004F078F93E
:10E74000684604F009F807E0082069460870684642
:10E7500004F002F800E000BF00BF05480078002880
:10E7600004D000200249087004F062F91FBD0000C7
:10E77000F1200020F220002010B588B004460220CD
:10E7800000F0FAF9002802D1022008B010BD0C48B0
:10E79000844201D10420F8E7052168460171012176
:10E7A000017201A8C4800022114603F0D9FA0028A2
:10E7B00003D005F075FC0020E7E70820E5E700003E
:10E7C000FFFF000000B587B0022000F0D5F9002857
:10E7D00002D1022007B000BD062069460870002261
:10E7E0001146684603F0BCFA00280AD006480078B3
:10E7F000002802D001200449087305F051FC0020D4
:10E80000E8E70820E6E70000042E002010B58CB0F1
:10E81000142107A8FCF7BDFC022000F0ADF9002888
:10E8200005D007A8FFF738FE00200CB010BD01206E
:10E8300000F0A2F9002801D00020F6E7012000F046
:10E84000A7F900F057FA03F095FB0446002C01D11C
:10E850000B20EAE7062C0AD1022000F099F90120EA
:10E8600000F070F907A8FFF717FE0020DDE7012090
:10E87000694608702300FDF706FA0C1A071A081AF1
:10E88000151A161A0C110D1A00BF002069460871DE
:10E890000EE000BF03206946087109E002206946C6
:10E8A000087105E000BF01206946087100E000BF63
:10E8B00000BF00221146684603F052FA05F0F0FB53
:10E8C0000020B2E738B50446002C01D1052038BD40
:10E8D0006946204605F0C0FC00281DD06846008827
:10E8E00000010F4940188089002813DDA07A002814
:10E8F00010D068460088000140188089401E81B20F
:10E90000684600880001064A801881810020A072B4
:10E91000002502E0062500E00A252846D7E700008A
:10E92000E42D00207FB514461D462B46224601A942
:10E93000684605F023FC04B070BD37B50C4615469B
:10E940002B4622466946002005F018FC3EBD37B52F
:10E950000C4615462B4622460021684605F00EFC63
:10E960003EBD0246002A01D0002901D10520704792
:10E97000106808600020FAE738B504460D46002C00
:10E9800001D0002D01D1052038BD6946204605F093
:10E9900063FC002816D061686846008800010A4AB6
:10E9A00080188089401C82B2684600880001064BAE
:10E9B000C0188281296060680C3068600120A072F4
:10E9C0000020E1E70A20DFE7E42D002070B50446CF
:10E9D0000D46002C01D1052070BD032300222946DD
:10E9E000204607F043FCF7E770B504460D460223C6
:10E9F00000222946204607F039FC70BD70B5054657
:10EA00000E461446002C01D1052070BD022322467B
:10EA10003146284607F02AFCF7E700000146094A7C
:10EA20001278082A01D10C200AE0064A12789200D6
:10EA3000054B9950034A1278521C024B1A70002061
:10EA40007047000085210020042D0020F8B5044601
:10EA50000D46022000F090F8002801D10220F8BDF8
:10EA6000002C01D10520FAE76946284607F0F2FCA0
:10EA70000646002E03D16846008820806580304617
:10EA8000EDE7000070B50446022000F075F800289C
:10EA900001D1022070BD002C01D10520FAE72088A9
:10EAA000022801DD0420F5E7208800010949461805
:10EAB00071896088C01C081A08D42188608807F012
:10EAC000BBFC002020806080002500E00425284653
:10EAD000E0E70000E42D00203EB504460D4B6A46F9
:10EAE0000021A01D05F04AFB0546002D0BD1019821
:10EAF00005F024FC05460120064989880901064ADB
:10EB00008918887303E003480021016041602846AA
:10EB10003EBD000094210020E42D0020014603208A
:10EB20008003081A80B270470146032080038142A7
:10EB300004DB0348814201DC012070470020FCE730
:10EB4000FEFF0000024909788143014A11707047B5
:10EB50008421002010B504462078182802D1FDF742
:10EB6000DDFE207010BD10B504462078182802D1B3
:10EB7000FDF7D4FE207010BD01460448007808401F
:10EB8000002801D0012070470020FCE784210020EC
:10EB9000024909780143014A11707047842100201D
:10EBA000F8B506460C461546002700200090042CB8
:10EBB00003D0112C01D0002C37D1042C03D100201C
:10EBC000009001270AE0112C03D1012000900027BA
:10EBD00004E0002C02D1002000900027002D18D066
:10EBE0003A46124801783046FDF7CEFE10480178CB
:10EBF0003046009AFDF7C8FE00220E4801783046E4
:10EC0000FDF7C2FE00220C4801783046FDF7BCFE3D
:10EC10000BE03A46074801783046FDF7B5FE064856
:10EC200001783046009AFDF7AFFEF8BD3121002093
:10EC3000302100202D2100202C210020F8B5054690
:10EC40000C4616461F461F480078C007C00F002814
:10EC500001D10120F8BD2846FEF78CFE002801D125
:10EC60000220F7E7002C01D10320F3E7A005800D77
:10EC7000002801D00620EDE72868A04204D8B002A1
:10EC800000196968884201D90520E3E7002E01D107
:10EC90000420DFE7684605F045F9002801D1072088
:10ECA000D8E7009847600098056002200099087234
:10ECB000A001000C009988810098068205F0FEF9F9
:10ECC0000020C7E79C21002070B505460C46204671
:10ECD00005F05AF970BD000005484169481C00283C
:10ECE00001D0084670470120000740698002F9E71B
:10ECF00000100010FEB52D482D49401A04092B487C
:10ED0000401A0509FFF7E8FF02902A480078C0077B
:10ED1000C00F002801D00020FEBD00200AE0020143
:10ED2000234BD1180A68002A03D04A68002A00D071
:10ED30006D1E401CA042F2D300202CE002011C4BAF
:10ED4000D11800220192C2B20092002213E01601F3
:10ED5000174FF3191E68002E03D05E68002E00D0F6
:10ED600008E05F7B019EB74203DD5E7B0196D6B271
:10ED7000009600BF521CA242E9D3009A12010C4B2C
:10ED8000D118029A4A600A7B9302029AD21A0A6048
:10ED90000A680292401CA842D0D30648007801219C
:10EDA0000843044908700020B6E70000D82100207D
:10EDB000C82100209C2100200146002901D1032008
:10EDC00070470248406E08600020F9E7202E0020BE
:10EDD000F8B505460C4616461F4623480078C0077E
:10EDE000C00F002801D10120F8BD2846FEF7C2FD62
:10EDF000002801D10220F7E7002E01D0002C01D11C
:10EE00000320F1E7B007800F002803D1A007800F8F
:10EE1000002801D00620E7E72868A04204D8B900FE
:10EE200009196868884201D20520DDE7002F01D169
:10EE30000420D9E7684605F075F8002801D10720BD
:10EE4000D2E7009906984860009805600120009973
:10EE500008720098C660009804610098878205F0E7
:10EE60002DF90020C0E700009C21002070B5044669
:10EE70001848006E1821484316494518164800786E
:10EE80000221084000280DD0022C02D0032C08D10A
:10EE900003E0284602F02EFE03E0284602F014FEAE
:10EEA00000BF14E00C4800780421084000280ED070
:10EEB000094800788843084908700648406E0028D1
:10EEC00005D008460078022108430349087005F080
:10EED000AFF870BD202E00209C21002070B50546A3
:10EEE000002D01D0012070BD1848007B002803D000
:10EEF00000201649087301E000F0D8F813480078A4
:10EF00000300FCF7C0FE081D05090D111D15191D94
:10EF100000F03CF8044615E000F0B4F8044611E0B7
:10EF200000F090F804460DE000F044F8044609E0D3
:10EF300000F020F9044605E000F02CF9044601E059
:10EF40000F2400BF00BF2046CDE70000042E0020A4
:10EF50000C480089401C0B49088100204880087338
:10EF600000BF0CE00101084A515C002901D10122D7
:10EF700000E0002203490A310A54411C88B20228E9
:10EF8000F0DB7047042E0020E42D002010B5074868
:10EF900000F032F8002806D10449891E0870488024
:10EFA0004860034810BD00F06DF8FBE7062E002016
:10EFB0001D1D000070B50D48458828010C494018FA
:10EFC000808900280DD128010A46801800230122DB
:10EFD00041680848FFF732FE0446042003490870E0
:10EFE00002E000F08FF80446204670BD042E002099
:10EFF000E42D0020C821002010B501460022002089
:10F0000016E00E4B1B5C002B10D000240B4B1C5445
:10F0100003010B4C1B199B89002B07D103011B1902
:10F020009B7B012B02D10880012203E0431C98B294
:10F030000228E6DB00BF104610BD00000E2E0020A7
:10F04000E42D0020F8B50C4844680C4800680B49D2
:10F050008988890045186088C01C86B2032006494B
:10F06000087000200090084633462946426804484C
:10F07000FFF7AEFEF8BD0000042E00208C2100201A
:10F08000C821002010B508494888091D05F024F959
:10F09000002803D0FFF7D6FF044602E0FFF78AFFFF
:10F0A0000446204610BD0000042E002010B5144870
:10F0B00000780300FCF7E7FD080520200B11171866
:10F0C0001C20FFF745FF01200D49087015E000F0F6
:10F0D0006DF802200A4908700FE000F029F80620B8
:10F0E0000749087009E000BF07200549087004E0DF
:10F0F00001200349087000E000BF00BF10BD000000
:10F10000042E002010B5052006490870022006498B
:10F11000888008460023012201680448FFF78EFD1D
:10F1200010BD0000042E00208C210020C8210020EA
:10F130000D4908680D49498809010D4A891849682F
:10F14000094A1160094949880901094A8918486032
:10F1500005498988054A52881201054BD218118148
:10F160000221014A918070478C210020042E00204A
:10F17000E42D002010B506200449087049880901D3
:10F18000034A8918486802F0D3FE10BD042E0020FF
:10F19000E42D002010B507200349087000204860C6
:10F1A00002F0D6FE10BD0000042E0020054A506873
:10F1B0004288D21C91B2044A92885218024B9A801B
:10F1C00070470000042E00208C2100203EB504462C
:10F1D0002088502821D0522802D0542826D103E07C
:10F1E000A08801F061F921E0062168460170A0883D
:10F1F00000F016FC014668464180A188818069467E
:10F20000488800F051F9A08800220C490978FDF7E0
:10F21000BBFB6846FFF776F908E0A01DFEF708FB88
:10F22000002802D0A08801F08FF900BF00BFFDF7D1
:10F2300029FA06F0C5FE05F0A3FD3EBDD72000204B
:10F240003EB504466088694648802078002804D08E
:10F2500001280FD0022829D114E000206946087047
:10F260006846FFF74FF9608800F0F0FA054601F0B4
:10F270001BF91BE0012168460170A1888180FFF71E
:10F2800041F913E0207900280FD0608800F0DEFA01
:10F2900005460748854207D00122064801782846DE
:10F2A000FDF772FB05F06CFD00BF00BF00BF3EBD67
:10F2B000FFFF0000D720002010B504462078012869
:10F2C0000ED1608801F0F0F8608800F0DFF90028C6
:10F2D00005D06088012204490978FDF755FB00E05C
:10F2E00000BF00BF10BD0000D720002010B500F007
:10F2F000FBFCFDF713FB12490870FDF70FFB1149EA
:10F300000870FDF70BFB10490870FDF707FB0F496C
:10F3100008700B48007818280BD00A480078182885
:10F3200007D009480078182803D008460078182824
:10F3300001D1032010BD0120054908700020F9E724
:10F34000D5200020D6200020D7200020D820002063
:10F35000D420002010B586B000F0BEF801A8FDF75B
:10F360003DFA002411E0620002A9885A00F058FB1F
:10F370000949884207D1620002A9885A0122074937
:10F380000978FDF701FB601C84B20198A042EAD81D
:10F3900005F0F6FC06B010BDFFFF0000D7200020EE
:10F3A00010B504462078072803D1608801F0CCF816
:10F3B00000E000BF00BF10BD10B504460B48017847
:10F3C0002046FDF7CDFA00280DD0002109E00C20E1
:10F3D0004843074A80184088A04201D1C8B210BDF6
:10F3E000491C0829F3D3FF20F9E70000E72000209B
:10F3F0008827002010B500240DE00C216143084A45
:10F400008918488807490978FDF7AAFA002801D128
:10F41000E0B210BD641C082CEFD3FF20F9E7000018
:10F4200088270020E7200020F8B505460F46012078
:10F43000A840044618480068FDF788F80646002EE4
:10F4400000D0F8BD15480068204000281DD128468E
:10F4500001F054FB002805D01148006820431049F2
:10F46000086004E00E480068A0430D4908600B489E
:10F47000006820430949086000220A4801680648DC
:10F480000068FDF739F8064604E004480068A04328
:10F490000249086000BFD4E7A8650200502100209F
:10F4A0004C210020482100201CB50446044903C912
:10F4B0000191009000226946204602F0B9FF1CBD70
:10F4C0002865020010B500F015FC01200149087004
:10F4D000002010BDE020002010B5044802F078FEA6
:10F4E0000349088005F084FC10BD0000FFFF000008
:10F4F000E2200020F1B584B0049800F091FA0546AE
:10F500000026002703200190012000901F4885421B
:10F510000DD002AA0821284602F050FF0446002C14
:10F5200005D10398861D87880168019100BF00BF3F
:10F530003A463146019B0498A9DF0446042C01D1C8
:10F54000112419E0082C01D1002415E00B2C13D153
:10F5500000200090022101980840002802D00120DC
:10F56000019009E0002E01D1002F04D000260027D1
:10F570000320019000E003240B2CD9D00098002830
:10F5800000D10B24204605B0F0BD0000FFFF0000B5
:10F59000F1B584B0049800F043FA07462248874248
:10F5A00002D1224805B0F0BD01200190002000905A
:10F5B00000BF002000900198411C89B2024602ABB6
:10F5C00001910821384602F03FFF0446002C22D169
:10F5D000039D032028602A1DA91D2B680498AADF1B
:10F5E0000446002C05D10821384602F0EDFF044600
:10F5F00010E00C2C02D10120009002E0052C00D17B
:10F6000000240821384602F0C3FF0646002E00D031
:10F61000032400BF02E0072C00D10C24009800282E
:10F62000C7D100BF2046BDE7FFFF00000230000049
:10F630007FB50446207801281CD12079012819D1F2
:10F64000608802AA012102F0B9FE0546002D10D102
:10F650000221684601706188418003A8002801D01A
:10F66000012000E00020694608716846FEF75AFF55
:10F6700000BF00BF034800880349884201D005F05D
:10F68000B7FB7FBDE2200020FFFF00007CB50446F1
:10F69000204600F0C5F906466A460121304602F0D0
:10F6A0008DFE0546002D01D000207CBD019800781C
:10F6B000FBE7000070B505460A4E00BF094A0A483C
:10F6C00001882846A7DF04460848844204D106483A
:10F6D0000088401C0449088004488442EED020463B
:10F6E00070BD0000FFFF0000E42000200330000098
:10F6F00001468888044A904204D00888002801D036
:10F70000012070470020FCE7FFFF00003EB50446E3
:10F710000D462078022801D000203EBD0322611C46
:10F7200002A8FBF71DFD0322211D6846FBF718FD0B
:10F7300001AA69462846FCF794FD032201A902A804
:10F74000FBF739FD002801D10120E6E70020E4E7BE
:10F7500070B506460C463046FFF72EFE0546FF2DD7
:10F760000AD00C206843054A8018011D0722204654
:10F77000FBF7F6FC002070BD0520FCE78827002081
:10F7800070B58EB004462088102801D00EB070BD30
:10F790002C22211D03A8FBF7E3FC2B4D6846007CBF
:10F7A000032837D003F040F86846007C002804D0D6
:10F7B000012803D002282AD115E000BF0AE00198F1
:10F7C0000146113104A8FCF7D2FC002802D068469B
:10F7D000058906E06A4602A9072002F0F7FF002823
:10F7E000EDD100BF14E009E00198411C04A8FFF727
:10F7F0008DFF002802D06846058906E06A4602A906
:10F80000072002F0E3FF0028EED100BF00E000BFB8
:10F8100000BF00BF6946888904A900F0A3FF06461F
:10F82000094885420DD069468889294600F09AF832
:10F8300068468189C1800121017101A8FEF782FE1D
:10F8400000BF00BFA2E70000FFFF0000024600214A
:10F850000BE00C204843074B185A904204D10C206F
:10F860004843C01840887047491C0829F1D3024812
:10F87000F9E7000088270020FFFF0000024606206D
:10F880007047000010B500F041FAFDF747F80A494B
:10F89000087008460078182801D1032010BD0748D9
:10F8A00071DF0446002C01D00320F7E70120044952
:10F8B00008700020F2E70000E7200020E920002087
:10F8C000E6200020F8B504460D46601C00F018FB49
:10F8D000002800D1F8BD1022691C601CFBF76BFCEE
:10F8E000002801D1012000E00020074629461131FF
:10F8F00020461130FCF73BFC0646002F01D1002EBC
:10F9000001D00120E6E70020E4E702461088002845
:10F9100001D001207047002106E0901C405C0028C7
:10F9200001D00120F6E7491C0829F6D30020F1E7B1
:10F9300070B505460C462846FFF7E7FF002800D1C2
:10F9400070BD28882188884201D00020F8E708226D
:10F95000A11CA81CFBF72FFC002801D10120EFE718
:10F960000020EDE770B504460D462946204603F019
:10F9700075F970BD30B587B004462078002802D1F3
:10F980002079072801D007B030BD608804AA07217C
:10F9900002F014FD0546002D00D0F4E702F044FF0C
:10F9A0001BE060886946098B884200D115E0039905
:10F9B0000598FFF787FF00280ED06088FFF746FF05
:10F9C0006946488000216846017061888180018B0A
:10F9D000C180FEF7B7FD07E000BF02AA06A9072015
:10F9E00002F0F4FE0028DCD100BF00BFCBE700002E
:10F9F00070B506463046FFF729FF0446304602F050
:10FA0000E8FC05460548844205D0002D03D1014697
:10FA1000204603F023F9284670BD0000FFFF0000D8
:10FA200070B505462846FFF7C7FC0446FF2C04D0F6
:10FA30000C2060430249085A70BD0248FCE70000F0
:10FA400088270020FFFF00003EB5044602F0ECFED0
:10FA500012E00198014646312046FFF769FF002871
:10FA600007D1019801462A312046FFF761FF00289F
:10FA700002D0684600893EBD6A4602A9072002F00E
:10FA8000A5FE0028E5D10148F5E70000FFFF0000D2
:10FA9000FEB506460C4617461D46002C04D00C4900
:10FAA00009782068884206D3002D06D008490978D5
:10FAB0002868884201D20420FEBD2346324604480D
:10FAC000009701950178034803F0A8F9F4E70000D6
:10FAD000E8200020E827002070B505460C461021DC
:10FAE0000948FBF756FB002D01D0002C03D1002064
:10FAF0000649087070BD05490C706200294602482D
:10FB0000FBF72EFB0020F5E7E8270020E820002087
:10FB1000F8B506460C460F200090002E04D00120B8
:10FB2000FFF710F80120F8BD2079002806D0012841
:10FB30000AD002282DD003285AD138E002F008FA62
:10FB400000900120207154E00027002513E02801D7
:10FB50002D49085C02280CD129012B4A89184868D4
:10FB600002F0E6F9009000202901274A50540127AD
:10FB700003E0681C85B2022DE9DB00BF002F07D12E
:10FB80000220FFF705F80120FEF7DCFF1F48CAE757
:10FB90002FE01F480023012201681E48FFF74EF89E
:10FBA000009002201A4988800020207121E0184925
:10FBB000086802F0BDF900901748458814480768A6
:10FBC00028011149401840681149086028010E4970
:10FBD000401847600E48808829010B4A891808811F
:10FBE00002200B498880002029015054207100E038
:10FBF00000BF00BF0098002804D00120FEF7A2FF3C
:10FC00000E2090E700208EE7E42D00201D1D00004F
:10FC10008C210020C8210020042E0020F8B52C489B
:10FC20000078002800D1F8BD00252A480068002887
:10FC300001D1012000E00020064600BF002D1ED1AA
:10FC400025480078002800D0EDE7684652DF0446DA
:10FC5000052C01D1012511E0002C04D000BF204665
:10FC6000FCF7D2FB0AE0009800F040FE1B48006859
:10FC7000002803D0194900980968884700BF002E62
:10FC80001DD115480078002800D0CCE71448008822
:10FC9000009069461348006861DF0446052C01D1D5
:10FCA00001260BE0002C04D000BF2046FCF7ACFB83
:10FCB00004E00C48006807490968884700BF002D28
:10FCC00002D0002E00D000E0B8E700BF00BFAAE7D6
:10FCD000B0210020BC210020B1210020C021002043
:10FCE000B8210020B421002000200149087070478D
:10FCF000D4200020002003490870401E02490880DB
:10FD000070470000E0200020E22000201820074972
:10FD10000870002007E00022D2430C214143044B2D
:10FD2000C9184A80401C0828F5D37047E7200020F6
:10FD30008827002010B5002406E014216143044AFE
:10FD4000881806F067FA641C082CF6D310BD000072
:10FD50000828002010B5044640212046FBF719FA78
:10FD600010BD00000020C04305490880002005495F
:10FD700008601820044908700449087070470000A2
:10FD8000142100200C210020172100201821002020
:10FD900010B502460B89FF20A730805C46246043E3
:10FDA00080180089834201DA012010BD0020FCE7A1
:10FDB00070B50446002A18D10D89FF20A730005DD8
:10FDC0004626704300190089854201D1002070BD8C
:10FDD0000889401C1880FF20A730005D4625684335
:10FDE0000019008958800120F1E70889401CD58856
:10FDF000A84201D10020EAE70889401C1880D08879
:10FE0000401E58800120E2E70C48008CC0B2012857
:10FE100012D10A48808C0007000F00280CD1074837
:10FE2000806AF0210840402806D10448C06A084092
:10FE3000002801D1012070470020FCE7C00F00F02E
:10FE40001948008CC0B201282CD11748808C0007BB
:10FE5000000F002826D11448806AF02108400028AD
:10FE600006D11148C06A0840002801D1012070471E
:10FE70000D48806AF0210840102806D10A48C06A5F
:10FE80000840002801D10120F1E70748806AF021ED
:10FE90000840302806D10448C06A0840002801D133
:10FEA0000120E4E70020E2E7C00F00F01348008CD7
:10FEB000C0B201281FD11148808C0007000F002814
:10FEC00019D10E48806AF0210840A02806D10B48BD
:10FED000C06A0840002801D1012070470748806AA5
:10FEE000F0210840D02806D10448C06A0840002804
:10FEF00001D10120F1E70020EFE70000C00F00F082
:10FF00000246002105E0505C002801D00120704726
:10FF1000491C1029F7D30020F9E701468807800F14
:10FF2000002801D1012070470020FCE70146086845
:10FF3000002801D002680A607047000010B504462E
:10FF400005480078C007C00F002803D00348007898
:10FF5000FDF72CF910BD0000A8200020A0200020F3
:10FF6000FFB581B007460D461E46002D06D12B4831
:10FF70000078002802D1052005B0F0BD002D06D084
:10FF800000213846039A05F033F9044605E0244978
:10FF90003846039A05F02CF90446002221463846DB
:10FFA000FEF7FEFD002E03D021463846FEF788FA04
:10FFB0000D2C2AD006DC002C26D0042C17D0082CBF
:10FFC00026D124E0112C04D01648201800281FD177
:10FFD0001CE02A46144801783846FCF7D5FC134843
:10FFE00001783846039AFCF7CFFC002412E02A4639
:10FFF0000D4801783846FCF7C7FC0C4801783846B4
:020000040002F8
:10000000039AFCF7C1FC05E000BF00BF00BF01E0A0
:10001000032400BF00BF2046AEE7000026210020D9
:1000200021210020FECFFFFF2F2100202E210020C4
:10003000F7B582B007460E46002E03D138467EDF64
:1000400005B0F0BD3078C007C00F002801D00120F6
:1000500000E0022001903846FFF7E2FC054619490E
:100060008D4209D001A82B46009031463846049AAB
:1000700000F02AF804461BE03078C007C00F0028C3
:1000800005D03146384600F09BF8044610E0314672
:1000900038467EDF044600200090002C01D101206C
:1000A00000E00020024601232946384604F0B4FD52
:1000B000002C04D168460179384604F0F5FD20464D
:1000C000BEE70000FFFF0000FFB587B00F461E46E9
:1000D00000250020029005AA0721304602F06EF9A3
:1000E0000446002C0ED10698054618350698343083
:1000F000007CC007C00F02900298002802D006982A
:10010000054634350998002816D1002C14D1002D4D
:1001100012D00298002805D128461230FFF7F5FBCF
:10012000002809D02A4629461231079885DF04465F
:100130000021109801702CE0002C01D0052C28D152
:1001400000243878C007C00F00280DD003AB01226F
:100150000721304602F078F90446002C04D107212B
:10016000304602F0BBFA0446002C03D1394607980A
:100170007EDF0446002C0CD00721304602F008FA3E
:1001800001900198002803D00198052800D003248D
:1001900000BF0020009010980078002801D00120B6
:1001A00000E000200346002C01D1012000E00020E7
:1001B00002463146079804F02FFD20460BB0F0BDF3
:1001C000F3B583B0074602F0E7F805461C488542C0
:1001D00020D001AB01220721284602F035F9044660
:1001E000002C04D10721284602F078FA0446002C9E
:1001F00003D1384604997EDF0446002C0BD007213A
:10020000284602F0C5F90646002E02D0052E00D081
:10021000032400E003240A48854201D0012000E0C5
:1002200000200090002C01D1012000E000200246B7
:1002300001232946384604F0EFFC204605B0F0BD06
:10024000FFFF0000F8B507460C4615461148017837
:100250003846FCF785FB00281AD03846FFF7E0FB4C
:1002600006460D48864212D00C4801783846FCF705
:1002700077FB002806D02B4622463146384601F04F
:1002800007FF04E02A4621463846FEF7A9F800BFDA
:10029000F8BD00001A210020FFFF00001B210020F4
:1002A000F0B589B005462846FCF74CFB0890089845
:1002B00004F003FB00282CD003A8FCF78FFA0024DD
:1002C00023E0620004A9885A2946FCF749FB064648
:1002D000002E19D0620004A9885A0F490978FCF74A
:1002E0003FFB0290620004A9885A0C490978FCF788
:1002F00037FB0190620004A9885A0123029A0199F0
:10030000FFF72EFE074600BF641C0398A042D8D812
:1003100000BF09B0F0BD00002E2100202F210020D9
:1003200070B504460D46294620467EDF0646304617
:1003300070BD000070B51C4804781C48066826E0B3
:1003400019484168182060430D18601CC4B2164853
:100350008078A04200D100242878022802D0032807
:1003600012D103E0686805F0E5FB0EE007E00F49F5
:100370000868002101740D4AC169116000BF0B4873
:1003800000680028F3D100E000BF00BF00BF0648AE
:100390004078A042D4D105480068B04201D0012085
:1003A00070BD0020FCE70000542100205C210020EB
:1003B000F8B50546374806685BE0002D02D02C46AC
:1003C000E56929E034494A680978182359435018E7
:1003D00031490978491C304A1170114609789278E0
:1003E000914202D100212C4A117044680178012900
:1003F00002D1217C002900D03BE081686160C168A6
:10040000A1600169E1604169A1612449097800297D
:1004100001D00021616000BF214960680968401A6D
:100420000002000A1F49884208D21D496068096815
:1004300005F0F5FAA168401820600FE018486168DF
:10044000006805F0ECFA0746A068B84203D9A06836
:10045000C01B206001E00020206000BF0020606021
:10046000A060012020740020E061204605F02CFBF4
:1004700000BF002DA1D1084800780749497888427B
:100480009BD104480068B04201D00120F8BD002093
:10049000FCE700005C210020542100207521002091
:1004A00060210020FFFF7F00FEB5044600262348A0
:1004B000844200D1FEBD2046FFF71CF80546002D02
:1004C00008D00B2D15D0112D11D01D48281800284B
:1004D0001DD11BE00221684601702046FFF7A0FAFB
:1004E0000146684641808480FEF70CF81DE0012635
:1004F0001BE00321684601702046FFF791FA014690
:10050000684641808480FDF7FDFF0EE00DE0092183
:10051000684601702046FFF783FA0146684641802D
:1005200084800295FDF7EEFF00BF00BF324605480C
:1005300001782046FCF728FA00BFBBE7FFFF000068
:10054000FECFFFFFD6200020FEB504460026204641
:10055000FFF71EF805460C2D1CD004DC002D09D039
:10056000042D31D123E0112D12D022482818002863
:100570002AD10CE001216846017084802046FFF7F3
:100580004FFA694648806846FDF7BCFF2AE029E03B
:10059000012627E007216846017084802046FFF786
:1005A0003FFA694648806846FDF7ACFF1AE008212B
:1005B0006846017084802046FFF732FA6946488019
:1005C0006846FDF79FFF0DE009216846017020464F
:1005D000FFF726FA01466846418084800295FDF7C0
:1005E00091FF00BF00BF3246034801782046FCF768
:1005F000CBF9FEBDFECFFFFFD5200020F8B50446A5
:100600000D46002620782840002810D1009068462A
:10061000FBF7B8FF20782840002803D12078284332
:100620002070012668460078FBF7D6FF00BF3046F1
:10063000F8BD000008B500BF0023234A0321184677
:10064000FBF714FF044600BF2546002D04D000BF71
:100650002846FBF7D9FE00BF00BF00BF6846FDF784
:1006600065F800BF002000F039FF0446002C04D0DC
:1006700000BF2046FBF7C8FE00BF00BF13A1032048
:1006800000F001FFFCF76EFBFCF7C0F8684600784D
:1006900002F042FBFDF710FDFDF722FB002803D11D
:1006A0001AA1012000F0EFFE05F050F8002803D158
:1006B00021A1012000F0E7FE05F012FD04F008F88A
:1006C00000BF03F0A9FAFCE7DC2300204D41494EAE
:1006D0003A494E464F3A52756E6E696E67205348DE
:1006E000494654592D4175746F6D61746963205486
:1006F00072616E736D697373696F6E2042696B65A9
:1007000020736F6674776172650D0A004D41494E22
:100710003A4552524F523A4661696C656420746F93
:1007200020696E697469616C697A652063736373AB
:100730004170700D0A0000004D41494E3A45525239
:100740004F523A4661696C656420746F20696E6926
:100750007469616C697A6520737069734170700D9A
:100760000A00000070B505460E46FF24002E26D074
:100770001448854223D00122134801782846FCF70B
:1007800003F92846FEF718FE0446FF2C02D1FEF7B7
:1007900031FE0446FF2C12D00C2060430B49401858
:1007A00045800021C9430C206043084A11520C21A6
:1007B00061438918081D07223146FAF7D1FC20460B
:1007C00070BD0000FFFF0000E72000208827002008
:1007D00070B505460E460B48854201D1002000E069
:1007E000681C84B209E02146304602F08BFE0028E6
:1007F00001D0204670BD601C84B2FF2CF3DD01489F
:10080000F8E70000FFFF00000146012080070818FC
:100810000068002801D0012070470020FCE700217B
:100820000122920782181160704700000149886018
:100830007047000000030040002800D1704700BF4F
:1008400000BF00BF00BF00BF00BF00BF00BF00BFB0
:1008500006490968064A914200D101E000BF00BF85
:10086000401E00D0ECE700BFE8E70000C4210020F4
:100870000024F40010B50E480078002801D085202F
:1008800010BD00200A49886048600861C8600321E3
:1008900000F034F804F0BCFE002804D10120054922
:1008A000886100BF00BF0120014908700020E7E710
:1008B000542C00200005004008B500200090684638
:1008C000FBF760FE08480078002801D1FFF7D2FF4F
:1008D0000548C068401C0449C8600120887068460B
:1008E0000078FBF779FE08BD542C002010B50446B3
:1008F000002C01D1FDF7C6F810BD000070B504460C
:100900000D4629462046FBF779F800BFE106C90EDF
:10091000012088400549086000BF00BFE106C90EFC
:10092000012088400249086000BF70BD80E200E0FD
:1009300000E100E001460803020E50B270470000DB
:10094000FEB505460E46284602F0FAFA002820D0E9
:100950002846FCF7D3FF001F28490F5CBC11032C6D
:100960000CD100BF264800690121A9400840002899
:1009700001D0032000E00220019005E0012C01D10C
:10098000022000E0032001902846019900F07EFB40
:1009900032E0284602F0E0FA00282DD02846FCF785
:1009A000ADFF0446A000FF30013080B20190204628
:1009B00014495122120189188200895801221143D9
:1009C000104A51231B01D2188300D15000BF019857
:1009D00000F08EFB002E0ED02846FCF78FFF009013
:1009E000FCF748FF0746002F04D00121A14008462C
:1009F00000F092FB00BF00BFFEBD0000A82C00204D
:100A00000005005000600040F7B584B004460E4673
:100A100000200390204602F085FA002802D008202A
:100A2000039060E0F27820460699FCF72BFF05461C
:100A3000681C002854D0B078002810D000BFA10056
:100A40002A4A8918096802229143084605210907A4
:100A5000072212028918A200885000BF0BE07778A5
:100A6000002000903B46024601460190204600F0DF
:100A7000AFFA00BF00BFF078002826D037781C48B6
:100A8000512109014018A90040581A490840184945
:100A9000512212018918AA008850154851210901D4
:100AA0004018A900415820021F22120210403A04A7
:100AB00003231B041A40104301430D485122120125
:100AC0008018AA00815000BF0CE0281F0A49085C6A
