:020000040000FA
:10000000F80D0020D5000000EF000000F100000016
:1000100000000000000000000000000000000000E0
:10002000000000000000000000000000F3000000DD
:100030000000000000000000F5000000F7000000D4
:1000400035030000F900000071040000F900000011
:10005000F900000000000000A1010000F90000000C
:10006000F9000000F9000000F9000000F9000000AC
:10007000F9000000F9000000F9000000F90000009C
:10008000F900000089030000F9000000F9000000F9
:10009000A9030000F9000000B1030000F90000000E
:1000A000F9000000F900000000000000000000005E
:1000B0000000000000000000000000000000000040
:1000C0000348854600F05AF8004800479D1100009B
:1000D000F80D00200321094802680A43026008481D
:1000E00002680A4302600748804707480047FEE766
:1000F000FEE7FEE7FEE7FEE7FEE70000240500401E
:1001000054050040D1030000C100000003460B432A
:100110009B0703D009E008C9121F08C0042AFAD2BD
:1001200003E00B780370401C491C521EF9D2704743
:10013000D2B201E00270401C491EFBD2704700227F
:10014000F6E710B513460A4604461946FFF7F0FFD6
:10015000204610BD421C0178401C0029FBD1801AAA
:10016000704730B504460020034600E05B1C934214
:1001700003D2E05CCD5C401BF8D030BD064C0125BD
:10018000064E05E0E36807CC2B430C3C984710343F
:10019000B442F7D3FFF798FF801F0000A01F0000B4
:1001A000F0B50025FF268BB0013601242F460195BE
:1001B000304601F005FA002807D048484068204240
:1001C00003D0304601F0F4F92543361D64007F1C4E
:1001D000B6B2042FECD3FF247D34204601F0F0F9B1
:1001E000002807D0204601F0E3F9600705433C48AA
:1001F000006901903B4C280714D0012700262F42AC
:100200000CD03948B200111808690969C004C00E41
:100210008903A258890F002A00D090477F00761CDE
:10022000042EECD3002D57DA00200590401E4DE03F
:10023000A119403108788506AD0E42B2521C39D062
:100240000121A940089A0091114233D080090390FE
:10025000284600F08FFC800020580490002802D12E
:100260000398032826D103980099032802D1059802
:10027000084305901D4AA80080180068019A800371
:10028000800F114202D0022802D013E0032811D1BE
:100290000399032907D102281CD00221284601F026
:1002A00077F97F1CFFB20498002803D0049A2846EF
:1002B00003999047761C042EBAD3002F0CD008481F
:1002C00000690199884207D00190059800273E46B1
:1002D0000890ADE70321E1E70BB0F0BD00630040FB
:1002E0000005005070050020006500400007005028
:1002F0008307FF22DB0E9A408907090E99400028E8
:100300000BDA0007000F0838830808489B0018180C
:10031000C36993430B43C3617047830804489B0040
:100320001B181868904308431860704700ED00E000
:1003300000E400E0F8B5FF20013000F0ABFF00243E
:1003400001250E4E0E4F002807D00E4804600120F4
:10035000B0607D70002000F035FCFF20053000F01B
:1003600099FF002808D00748001D04600220B060F3
:10037000BD70012000F026FCF8BD00000003004025
:100380005C0500200001004010B50649002008600F
:1003900048608860C860034940390860486001F0DF
:1003A000A5FC10BD4011014010B501F011FC10BDBD
:1003B00010B506484068002805D08047002801D0C5
:1003C00000F0F0F810BD00F083FD10BD60000020CB
:1003D00010B500F0DFFD002805D01F491D4848601A
:1003E000C8131E4988611E48018CC9B201290BD16E
:1003F000828C120708D1028D1206120F042A03D133
:10040000828D1206120F0AD0012921D1818C090791
:100410001ED1018D0906090F0A2904D007E0114AEF
:1004200001219160F5E7828D1206120F05D00D298A
:100430000ED1808D0006000F0AD10B4801680129FA
:1004400004D00A49016001680129FCD1C021416141
:1004500010BD0000DFFF07C000050040006C004039
:10046000C00F00F00006004000EC0640759300004D
:1004700010B50249024801F0B6FC10BDB8050020D5
:100480000020004002E008C8121F08C1002AFAD16B
:1004900070477047002001E001C1121F002AFBD104
:1004A00070470000202804DA0121814003480142FE
:1004B00001D001207047002070470000FC06FFBCFF
:1004C00070B500238D880C680DE0E6187678E15C45
:1004D000864206D1E018801C491E106091800020E1
:1004E00070BD5B185B1C9D42EFD8052070BD0000FD
:1004F00070B50024064D06E06968E000085C012143
:1005000000F056FF641C28788442F5D3002070BDAB
:1005100020000020F8B515460C460646052A01D2F3
:100520000720F8BD01F01AF8002803D100F0E8FF19
:100530000028F6D1104900204E600C70C8608D6014
:1005400008610E4D0DE0E000696880190091817826
:100550006A46517000780A4A694600F075FF002823
:10056000DFD12046641EE4B20028ECD1054A002108
:10057000024800F023F8F8BD20000020781F00009A
:10058000810E0000290D0000BFF34F8F044903487E
:10059000C860BFF34F8F00BFFDE700000400FA05FD
:1005A00000ED00E00EB50021029000916A46019135
:1005B0000148FFF7E9FF0EBD01400000094B5B68F1
:1005C000002B07D0002A07D0002805D00068037C44
:1005D000002B03D008207047072070474174426108
:1005E0000020704744000020FFB507469007002513
:1005F00081B01E461446002825D1002C23D001F0DE
:10060000EBF93046114EF060304610300570457001
:100610000299817044607560357001240C487570D2
:100620002405046003211420FFF762FE09480460DA
:10063000094CA76003211120FFF75AFE6068B060E3
:10064000002005B0F0BD0720FBE7000034000020CB
:1006500080E200E000E100E000150140FEB51F4B24
:100660005B68002B30D000282ED0052901D207204E
:10067000FEBD4369002B27D0437C012B26D00027E9
:10068000029104460025694616460D70684600F042
:100690003DF801A801F03CFC002819D001210170AF
:1006A0000F49446049688160029907614661C160F1
:1006B00068460A49007948706846007800F044F8B6
:1006C00001F0C8FA2846FEBD0820FEBD0F46D7E758
:1006D00068460425007800F037F8F3E7440000206E
:1006E0000015014010B50849496800290AD00028C2
:1006F00008D04169002905D000210174022101F0D0
:10070000D1FA10BD082010BD4400002030B5EFF331
:10071000108172B6094A54680123002C04D003707A
:10072000002900D162B630BD5360054B1D68054CF1
:10073000254015601C6000220270F1E7580000207F
:1007400080E100E0FC06FFBC08494A68002A0CD0A2
:1007500000280AD1EFF3108072B60A68044B1A60C1
:1007600000224A60002800D162B67047580000207D
:1007700000E100E070B500280AD00F4D297800296B
:1007800008D0044601F00CF9002805D0002070BD07
:100790000E2070BD082070BDE868062809D2074AFF
:1007A0008100891822880A8062884A80401CE8609B
:1007B000ECE7042070BD000008000020C402002007
:1007C000002808D0002205490123CA600B708A6006
:1007D0004860104670470E20704700000800002057
:1007E00010B5002811D000290FD0124A1278002A23
:1007F0000BD00A88112A11D0302A07D0322A09D00A
:10080000332A02D1091D00F0E5FF10BD091D01F0DA
:1008100041F810BD091D00F065FF10BD8A88FF2159
:10082000AB31095A8A42F8D10021FF30A130C171A1
:1008300010BD00000800002010B50B4600280ED0A7
:10084000144A117800290CD0D168002909D0044637
:10085000FF34A134E179002905D0112010BD0E200C
:1008600010BD082010BDFF21AB310B52002191605B
:10087000024621720848A171018811804088508089
:100880000121184690DF0028ECD10120E071002002
:1008900010BD000008000020C402002010B504466E
:1008A00000F0DAFE21460448FFF79AFF024821468D
:1008B000103800F06DF810BD1801002070B5002848
:1008C00005D0028811498A4203D1082070BD0E204C
:1008D00070BD0F4B4488186814214143401C4007E9
:1008E0000C4D400F186049194C810220C881081D29
:1008F000086100248C810120087208714C710A8003
:10090000887001F033FA204670BD0000FFFF000040
:1009100018000020BC04002010B51346002809D0A0
:100920000180002B04D006221946801CFFF7EEFB45
:10093000002010BD0E2010BD30B5134D04002DCD8C
:1009400085B003956D460DC51CD000291AD00868E6
:10095000002817D000206080A080E080401E20800A
:1009600008682146A0600C31684663DF002807D183
:10097000217B684681740549018204A8FFF7FAFECD
:1009800005B030BD0E20FBE7681F000023150000F6
:100990000EB500281DD000291BD00A88112A20D0AE
:1009A000382A17D0392A14D102888B889A4210D15C
:1009B0008A8983889A420CD10A8A012A09D10223A2
:1009C0006A46137003885380897C11718268694676
:1009D00090470EBD008889888842FAD101F0C6F997
:1009E0000EBD028889888A42FAD10021C94301805C
:1009F000002141808180C1800EBD000070B50028BB
:100A000005D00288114B9A4203D1082070BD0E20F8
:100A100070BD0F4C142223680E4D5A435B1C5B07BC
:100A20005B0F23605219C38853810123D381141DA6
:100A300014610024948102241472117100881080C2
:100A4000937001F093F9002070BD0000FFFF0000DB
:100A500018000020BC040020FEB5044608780028D9
:100A60003CD188881E4A904238D18879227B9042B6
:100A700034D10122684602704A884280184B002017
:100A8000DB4312E00C2242435218D5890E32ED1896
:100A900005D0012D08D112896D462A8104E01589FF
:100AA0006E46F5805289B280401C0A7A8242E9D8AB
:100AB00020880C4988420DD0E08800280AD1A088FF
:100AC000002807D16088002804D10622A01C01A9B3
:100AD000FFF71CFBA268694620469047FEBD000058
:100AE00023150000FFFF000010B5002809D10648BB
:100AF000FFF784FF002806D00449884203D0082865
:100B000001D0FFF74FFD10BD0801002002300000AA
:100B10000022D243830004490428CA5002D3081893
:100B2000203002777047000070050020F0B50025E6
:100B3000ED43002A02D00023042601E00423082606
:100B40000B4C04E09F00E7597F1C04D05B1CB342B0
:100B5000F8D32846F0BD26185DB2203635709E00C9
:100B6000A151002AF5D1E11820310877F1E7000002
:100B7000700500200249091820200856704700001F
:100B80007005002038B50B460146FF310246A13101
:100B900088794624604380184A79002A08D0521E7A
:100BA000D2B20C214A431118498A6A46491C01E015
:100BB000C1886A461180008950801146184692DF2C
:100BC00038BD000070B5084C050009D0103421680C
:100BD000002907D008682060496828468847F6E75A
:100BE0000834F4E770BD00005C050020F8B5234828
:100BF000416800293ED00E6821494C68876880789A
:100C0000E11B0D022D0AED1C002814D101201D4A04
:100C1000000450601B4A403A50601B494000086085
:100C20001A4908601A49012008602F2000F03AFB99
:100C3000124901208870B54200D23546E8190002F9
:100C40000F4B000A403318600D4A5168001B091B06
:100C50000902090A0002000AC91C814209D9506828
:100C600018602F2000F01EFB012007494004803946
:100C70000860F8BD00F0B0FEF8BD000034000020B0
:100C8000001501404013014080E200E000E100E077
:100C90000010014010B501460148FFF7DDFE10BD10
:100CA00008010020F7B50546FF350646A135A879AD
:100CB0004621484387196C790C206043C1193A7961
:100CC000601C0A3182B0904226D101AB002230462E
:100CD00000F03EF9002822D010E0401EA04201D1D1
:100CE000002003E00C206043C0191630024600903B
:100CF00001AB304600F02CF9002807D00398002102
:100D0000017001A9049893DF05B0F0BD68790099DE
:100D1000401C641C6871E4B23879A042DDD80398A5
:100D2000012101700020EFE7F8B500260124154DE0
:100D300023E06968F0004718387821462A69814025
:100D4000114218D08A432A6100F0D0FB3A7821463C
:100D5000EB68914019400346934099420BD1797852
:100D6000012901D0012100E000217B684140002BD6
:100D700001D010469847761CF6B228788642D8D320
:100D8000F8BD000020000020F7B5FF21A731144670
:100D9000095C462251430F18384600F001FE060058
:100DA00033D01A4A906806282FD221461446502282
:100DB0005043174D4622401941803946001DFFF728
:100DC000A5F901980027002804D0A06850214843C5
:100DD0002F5404E0A0680221502250432954A068F7
:100DE000502141434919401CCE64A060E16888420B
:100DF0000BD1002605E0502070434019C16C884794
:100E0000761CE0688642F6D3A760FEBD080000208D
:100E1000DC02002030B50D46FF21A7311446095CE5
:100E20004622514393B0081800F0BAFD030005D0E4
:100E300068464480012101700195984713B030BD88
:100E400010B50E4900230A784C78A24212D0521CE9
:100E5000D2B20A70022A00D10B700A78074B9200B6
:100E600018339A580260886810180002000A8860D7
:100E7000012010BD0360002010BD000034000020E0
:100E8000F8B50746104E0125BD403068FFF72AFC33
:100E900000280DD10D4C2069284207D1384600F0BA
:100EA00025FB0028E06804D0284303E0A843206124
:100EB000F8BDA843E0602069002228432061A168B2
:100EC0003068FFF7CBFBF8BD781F00002000002042
:100ED000F8B51E4C2078002836D0E068002600289F
:100EE0000CD00025607800282ED1684652DF0528F6
:100EF00006D0002806D0FFF755FB0BE00125F1E7EF
:100F0000012607E0009800F01DFA2169002901D0B0
:100F100000988847002D13D16078002814D160888C
:100F200069460880A06861DF052804D0002804D045
:100F3000FFF738FB04E0012502E0E168A06888477C
:100F4000002ECFD0002DE5D0F8BD000060000020BD
:100F500030B50989002A05D0D088491C814213D1B7
:100F6000002030BD0246FF32A132947946256C4301
:100F700024182489A142F3D0491C19809179462272
:100F800051430818008902E01980D088401E58801B
:100F9000012030BD1048018CC9B2012917D1818CC4
:100FA000090714D1018D09060A0F03D1828D12069B
:100FB000120F0ED0090F012903D1828D1206120FD4
:100FC00007D0032903D1808D0006000F01D0002037
:100FD0007047012070470000C00F00F010B50446B4
:100FE000087801280AD0022807D10B790021202295
:100FF0000E48002B16D0C260816010BD48880A1DC3
:1010000001460B48FFF788FCFFF772FA002801D071
:10101000FFF7C8FA2046FFF751FC0028EDD0FFF794
:10102000C1FA10BD8260C16010BD00000005005013
:1010300008010020F0B5284C2146103948688B681B
:10104000227886469C46CF78667836E0182353434C
:101050006168521CC918A378D2B2934200D1002211
:101060000B78022B02D0032B27D123E003464D68D7
:10107000194603E0A94204D00B46C96900291CD0D7
:10108000F8E7002919D08B4208D1C069002805D1A2
:10109000124F0125BD600025AC4601270D68C969C6
:1010A000D961002909D00B685B190B6005E0017458
:1010B000C06900E000210028F9D19642C6D1064956
:1010C000624610398A604860CF70704501D00120B7
:1010D000F0BD0020F0BD00004400002000100140E1
:1010E000F8B52C4E044670680025009041E0002CB5
:1010F00002D02046E46920E0264818231030017809
:1011000042684B43491CC9B2D21801708378994296
:1011100000D105701178506801292CD1017C00297B
:1011200029D191684160D16881601169C1605169BC
:101130008161F178002900D045604368B268164F9C
:10114000991A0902090AB94202D28268891806E08E
:10115000D11A09028268090A8A4202D9511A016029
:1011600000E005604560012185600174C56100F003
:1011700079FD002CBBD107481030017840788142BE
:10118000BAD171680098814201D00120F8BD0020D9
:10119000F8BD000034000020FFFF7F000020012187
:1011A000334B86B0032205460C468440A406640FE8
:1011B00002D08400E4182260401C2028F4D32D4C77
:1011C0003820A060E56000232B4A03211846FFF772
:1011D0000BFA002801D0FFF7E5F9284A0121284839
:1011E000FFF798F9002801D0FFF7DCF925482249DC
:1011F0000068059000234822483905A800F0B6FC95
:10120000002801D0FFF7CEF96A460021012000F046
:1012100095FC002801D0FFF7C5F9684600F084FC72
:10122000002801D0FFF7BEF9174800F073FC002832
:1012300001D0FFF7B7F91548FFF7C2FA002801D02F
:10124000FFF7B0F9124800900B4869464830FFF7A5
:1012500073FB002801D0FFF7A5F900F0FDFB082083
:10126000E060A56048DF0028FCD0FFF79BF9F9E7B4
:101270000007005000050050C00000206606000076
:10128000000000203C1F00009D080000950C00009D
:10129000DD0F00000121890740180068002800D0F8
:1012A0000120704700280FD00849094A096800BF8B
:1012B00000BF00BF00BF00BF00BF00BF00BF914222
:1012C00000D000BF401EF2D1704700007400002023
:1012D0000024F40010B50C4C2078002801D08520A3
:1012E00010BD0020A06060602061E060032100F07C
:1012F0002FF800F067FC0121002801D1034881612B
:101300002170002010BD00005C0500200005004099
:1013100038B50020694608706846FFF7F7F9084CB1
:101320002078002801D1FFF7D5FFE068401CE0607D
:101330000120A07068460078FFF706FA38BD00006B
:101340005C05002010B5002801D1FFF73BFC10BD63
:101350008207D30EFF229A408907090E10B59940E3
:1013600000280BDA03071B0F083B9C080C4BA4005A
:10137000E318DC6994430C43DC6107E08408094B03
:10138000A400E418236893430B432360C106C90EED
:1013900001208840044908600449086010BD00002D
:1013A00000ED00E000E400E080E200E000E100E0A9
:1013B000F3B581B00F46019800F0DAFA0124002855
:1013C0001D4E019817D0FFF7D5FB80192030007F04
:1013D0008009032802D0012806D007E017480069D9
:1013E00001998C40204201D1022100E003210198A3
:1013F00000F0CEF8FEBD00F0C7FA0028FAD0019840
:10140000FFF7B8FB05468100C81D0D4AF930891861
:101410000A6980B222430A6100F0CAF8002FE9D0BD
:101420000198FFF7A7FB800030580028E2D005485C
:10143000AC404460FEBD0000700500200005005077
:101440000065004000630040FEB5044623480E4698
:101450000019202141560027C8171346401C01D00F
:10146000082738E0F27819462046FFF75FFB05466B
:10147000401C2FD0B078002807D01948A1000918C7
:10148000086802229043086007E000217378204634
:1014900000910A46019100F069F8F078002810D018
:1014A0001048AA001018317802690F4B1A400261E7
:1014B000E206D20C8907890B0A4301690A430261DB
:1014C00009E00648327840192030017F920111432B
:1014D000017700E004273846FEBD000070050020BB
:1014E0000007005000650040FFE0FCFF0349096968
:1014F000C140C807C00F00D0012070470005005050
:1015000070B5144D2879002801D0082070BD11490C
:1015100000204039421E0B182033401CC0B21A7004
:101520002028F8D300242046FFF7F2FA641CE4B226
:10153000082CF8D303210620FFF70AFFFF207D3097
:1015400000F036F801200449C007486001202871E6
:10155000002070BDB0050020006300400248007903
:10156000002800D001207047B005002030B552009F
:101570000A439900039C0A432102049D0A4329045B
:101580000A43024980004018026030BD0007005045
:10159000820006481018026803231B049A43026065
:1015A000026809040A430260704700000007005007
:1015B00002494018002101607047000000600040AF
:1015C000034940180068012800D00020704700003F
:1015D000006000404058002800D0012070470322DE
:1015E000120280184068084000D0012070470000B7
:1015F00010B586B00146113104460391007C69465E
:10160000C0080882083401AA03A90920FEF758FF80
:10161000002806D001AA03A90820FEF751FF0028E0
:1016200016D10C48FEF796FD002811D068460289B5
:1016300008480199FEF795FD002809D1054A204682
:10164000083A114618318CDF002801D0FEF7AAFFB6
:1016500006B010BD481F000010B50188041D1D29EB
:101660002CD006DC10290ED0112901D100F0F4F99C
:1016700010BD1F2925D03A292AD05529F8D18088B4
:10168000132176DF27E0218800221448FFF744F970
:10169000002801D0FEF786FF104821881030FFF7A0
:1016A000CBF8002801D0FEF77DFF0D481021C16066
:1016B0000021816008228260C16010BDFFF798FFA1
:1016C00010BD2088211D75DF05E0FEF76BFF10BD02
:1016D0008088132176DF0028F7D110BD0801002093
:1016E00000050050F3B583B003980C46FF308130FD
:1016F0000988408D81425BD1039F4621FF37A13786
:10170000B879484303994618608800283DD120469F
:10171000083001903579207A2818052800D905204D
:1017200030710020009014E000980A21484301998C
:101730000A2241180C206843801902900A30891C43
:10174000FEF7E4FC0298002181820098401C6D1C89
:1017500000903079A842E7D80C204543A819C288E8
:10176000B8794623039958434018008982420CD225
:101770003079052809D0787121880398FFF702FA9B
:10178000010015D00020F87109E000257D71228844
:1017900069460398FFF786FA01000BD0FD71228895
:1017A0000398FFF737FB0A48032101702188418025
:1017B00005B0F0BD684600780028F9D022880121E4
:1017C0000398FFF7E1FA2188039800F09BF8EFE710
:1017D000DC020020F8B50546FF300C468130098850
:1017E000408D814243D12E46FF36A136B079462145
:1017F0004843421970790C23584380180A308646B2
:10180000214660880831002813D10F881F4BBC4641
:101810000DE0062747437F18BF889F4206D1062365
:101820005843401841887046418102E0401C84457D
:10183000EFD800276846077070791179401C8842FC
:1018400003D101206946087016E07071228869464C
:101850002846FFF727FA01000AD0F77122882846A8
:10186000FFF7D8FA0A480321017021884180F8BDAA
:10187000684600780028FAD0228801212846FFF720
:1018800083FA2188284600F03DF8F8BD02290000BF
:10189000DC02002070B50646FF360C460546A13630
:1018A000B079462148434119FF20AB302288405B84
:1018B00082420AD16088002808D000212846FFF71C
:1018C00063FA2188284600F01DF870BD62890A80FD
:1018D000A2894A80E289CA80208A08812188284614
:1018E000FFF750F90100F0D00020F071228828465F
:1018F000FFF790FA0248032101702188418070BDF2
:10190000DC020020F8B50446FF340646A134207AF4
:101910000F46401CC0B214492072C9680025884295
:101920001FD26571A0794621401CC0B241438A197B
:10193000A0710E49800040180188118040885080B5
:1019400015710121384690DF010009D0E5713A4652
:101950003046FFF75FFA05480321183001704780D1
:10196000F8BDE571F7E7000008000020C402002080
:101970000449081820214156042901DB0120704741
:1019800000207047700500200449081820214156A6
:10199000042901D201207047002070477005002003
:1019A000F0B50C4B00210A4ADC680CE08D00AE1843
:1019B000B6788778BE4205D1555B0688B54201D11D
:1019C0005868F0BD491CA142F0D30020F0BD0000D2
:1019D000C40200200800002070B501240B496004F7
:1019E00008600B4940108860094940398860094DFA
:1019F0006C602F20FFF756FCAC60074D00242F20B1
:101A0000AC60FFF74FFCAC7070BD000080E100E0FF
:101A100040130140001001403400002030B5FF2287
:101A20000523CD7D002409321B02C318002D8450EC
:101A3000986905D04B7ECA68D054487E401C4876D1
:101A400030BD1FB501246B461C701972019206C887
:101A5000684690471FBD000010B58BDF082803D0F3
:101A6000002801D0FEF79EFD07488ADF002801D03C
:101A7000FEF798FD0548102181600021C160082211
:101A8000C260816010BD0000581F000000050050BA
:101A900010B50446FEF706FD00280CD0A007C00EC6
:101AA000002C0ADA2107090F08398908144A89002D
:101AB0008918C96906E0134810BDA108124A8900B7
:101AC00089180968C1400806800F042811D200282F
:101AD0000FD002280DD00D494B68E206D20E01202E
:101AE0009040002B08D0620992008B5803438B5022
:101AF00004E00448401C10BD05490860002010BDEA
:101B000000ED00E00120000000E400E058000020AB
:101B100000E100E0002803D00249C86000207047BF
:101B20000E207047600000201CB503490191009110
:101B3000694660DF1CBD00000000002070B50E4645
:101B40000546144614211046FEF7F9FA012000213B
:101B500020802161217326726572002D00D0A07251
:101B6000002070BD10B5FEF70FFD10BDF8B50029BF
:101B700003D08C070025002C01D00720F8BD0E4EA5
:101B80000E4FB1607280736039680124214003D028
:101B90000A49254680310C60094910DF002803D02E
:101BA000002DEBD03C60F8BD3470FFF7B1FB162080
:101BB000FFF76EFFF8BD00006000002000E100E0CC
:101BC000651B00000148007870470000600000209D
:101BD000FEB51F4C0025A768606802906846FFF7B5
:101BE0002FF90190FFF726FA06460198002822D027
:101BF00000230098616817E00E680A46864202D901
:101C0000301A086012E0801BF31800261660D668B0
:101C1000D169B446002E07D0FE183602360A566047
:101C200066469660D56115460029E5D12846616073
:101C3000FFF756FA06E02846FFF752FA002801D1CE
:101C4000002E02D00298FEF7D1FF0020E070FEBD0A
:101C500034000020012002490005086070470000A0
:101C600000E200E010B50E4B5968002906D002686A
:101C70000C68A24204D8A21A0A60C161586010BD63
:101C80000B4604E00B46C969121B002904D00C68FE
:101C90009442F7D3A41A0C600260C161D86110BDF0
:101CA000340000207CB50D460646002469460C70C1
:101CB0006846FEF72BFD01A800F02AF900280DD098
:101CC00005704660684608490079487068460078A3
:101CD000FEF73AFDFFF7BEFF20467CBD68460424B0
:101CE0000078FEF731FDF7E744000020F8B51D4D00
:101CF0006C68002C34D01C4800274068A968401A42
:101D00000602360A2068B04218D8361AC719224689
:101D1000107CE46900280FD000201074EB68002BC1
:101D200007D0916950699847002805D0FEF73AFC22
:101D300002E0516990698847002CE3D129786878DE
:101D4000814206D1401CC0B26870022801D1002037
:101D5000687004490006800D18310F50FFF77AFFB4
:101D6000F8BD0000340000200015014010B50E4CF5
:101D700021686068884210D014210C4A48438118B9
:101D80008B78002B0AD0105A083198DF002804D134
:101D90002079401C4007400F606010BD105A8988B0
:101DA000002296DFF2E7000018000020BC040020AB
:101DB000FF221D32002383508B8A8A68D25C8B8A73
:101DC0005B1C8B82052109024018C26170471FB558
:101DD00000226B461A70197281680191827506C8DB
:101DE000684690471FBDF0B50C46012185B00546F9
:101DF0004902FFF7F4FB032109026F1800260028AF
:101E000026D0FF2125312846FFF7E4FB00281FD00C
:101E1000FF2025302E5081208000B860A07E002851
:101E200001D1012068600221684601700920C001CB
:101E30002918086808600390E17D68460172E0682F
:101E40000190E675267606CC6846083C90472DE062
:101E500004212846FFF7C3FB002827D0FF210931C2
:101E60002846FFF7B7FB002820D021462846FFF779
:101E7000D5FDE07D617E884218D1207E002807D004
:101E8000617EE268E0752069E060267666760AE0A9
:101E9000A07E002801D10120686081208000B86008
:101EA000E675617EE2682046FFF7CBFDFF271D3710
:101EB00039462846FFF78EFB00280FD0A08AA17D67
:101EC000884204D221462846FFF772FF06E0EE5111
:101ED000A17D002902D02046FFF779FFFF27453773
:101EE00039462846FFF776FB00280ED0EE51A07E3B
:101EF000002801D001202860E07D002805D0E6758B
:101F0000617EE2682046FFF79CFD05B0F0BD000051
:101F100010B509494B788C785A1CD2B2944200D142
:101F200000220C78944201D1002010BD0270486854
:101F300018214B43C01810BD4400002000100207B8
:101F400006001800000090014E6F726469635F42E2
:101F50006C696E6B79000000010000000000000059
:101F6000A00050000000000023D1BCEA5F782315D8
:101F7000DEEF121200000000D40500200300000074
:101F8000A01F000000000020780000008404000072
:101F90001820000078000020800D0000940400004C
:101FA00000000300E90A000000000000000000003B
:101FB0000000000000000000000000000000000021
:101FC0000000000000000000000000000000000011
:101FD0000000000000000000000000000000000001
:101FE00000000000000000000000000000000000F1
:101FF00000000000000000000000000000000000E1
:1020000000000000000000000000000000000000D0
:08201000000000000024F400B0
:04000005000000C136
:00000001FF
