:020000040800F2
:1000000078E903203904000841040008430400088B
:1000100045040008470400084904000800000000E7
:1000200000000000000000000000000021030008A4
:100030004D04000800000000C1030008250400086A
:100040005304000853040008530400085304000834
:100050005304000853040008530400085304000824
:100060005304000853040008530400085304000814
:100070005304000853040008530400085304000804
:1000800053040008530400085304000853040008F4
:1000900053040008530400085304000853040008E4
:1000A00053040008530400085304000853040008D4
:1000B00053040008530400085304000853040008C4
:1000C00053040008530400085304000853040008B4
:1000D00053040008530400085304000853040008A4
:1000E0005304000853040008530400085304000894
:1000F0005304000853040008530400085304000884
:100100005304000853040008530400085304000873
:100110005304000853040008530400085304000863
:100120005304000853040008530400085304000853
:100130005304000853040008530400085304000843
:100140005304000853040008530400085304000833
:100150005304000853040008530400085304000823
:100160005304000853040008530400085304000813
:100170005304000853040008530400080000000062
:1001800053040008530400085304000853040008F3
:1001900053040008530400085304000853040008E3
:1001A00053040008530400085304000853040008D3
:1001B0005304000800F002F800F05CF80AA090E890
:1001C000000C82448344AAF10107DA4501D100F012
:1001D00051F8AFF2090EBAE80F0013F0010F18BF83
:1001E000FB1A43F001031847E8310100083201000F
:1001F0000A444FF0000C10F8013B13F0070408BF4D
:1002000010F8014B1D1108BF10F8015B641E05D0EA
:1002100010F8016B641E01F8016BF9D113F0080F9F
:100220001EBF10F8014BAD1C0C1B09D16D1E58BF31
:1002300001F801CBFAD505E014F8016B01F8016B68
:100240006D1EF9D59142D6D37047000000230024DB
:1002500000250026103A28BF78C1FBD8520728BFD6
:1002600030C148BF0B6070471FB50DF0D6FC1FBDF5
:1002700010B510BD00F012FA1146FFF7F5FF0FB4EC
:1002800000F00CF80FBC0BF0E3FD00F0F9F803B43C
:10029000FFF7EEFF03BC00F0FBF9000004B00BF029
:1002A0005FFF044800210CF027F80BF06BFF00F013
:1002B000E7F80000CC01002080F309887047EFF3D5
:1002C00009807047684680F3098804480078C007B1
:1002D00014BF0220032080F314887047FC3101080A
:1002E000DFF818C0EFF305831B0618BF6047EFF374
:1002F0001483DB0708BF604700DF70478DC5000827
:10030000DFF818C0EFF305831B0618BF6047EFF353
:100310001483DB0708BF604700DF704771C7000820
:10032000EFF30980816911F8021C99BB90E80F1066
:1003300010B5E047BDE81040EFF3098C8CE80700EA
:100340001C4B93E80600914208BF704781B11EF034
:10035000100F06BF2CED108A0120002081F8250027
:100360002CE9F00FC1F828C00CB40CF047FE0CBC0F
:100370001A60D2F828C0BCE8F00F92F825000028D7
:100380001ABFBCEC108A6FF0120E6FF0020E8CF3E5
:100390000988704710B5084A1268914209D8074C7D
:1003A00054F8214090E80F10A047EFF3098C8CE837
:1003B0000F0010BDE8010020E8060008E80600086C
:1003C00010B50CF0A3FCBDE81040154B93E80600F7
:1003D000914208BF7047EFF3098C1EF0100F06BF63
:1003E0002CED108A0120002081F825002CE9F00F67
:1003F000C1F828C00CB40CF001FE0CBC1A60D2F895
:1004000028C0BCE8F00F92F8250000281ABFBCEC09
:10041000108A6FF0120E6FF0020E8CF3098870478D
:10042000E801002010B50CF0B1FECCE710B50BF0E0
:10043000D5FF0CF0ABFEC6E70948804709480047E6
:10044000FEE7FEE7FEE7FEE7FEE7FEE7FEE7FEE784
:10045000FEE7FEE704480549054A064B70470000E1
:100460006D5F0008B501000878E3032078E90320F8
:1004700078E5032078E503200048704714E3032063
:100480000446AFF300802046FFF701FF10B5431C80
:1004900002E010F8011B71B18107FAD14FF001326F
:1004A00002C88C1A8C4314EAC211F9D0C01A0A0689
:1004B00003D0C01E10BDC01A10BD0A0401D0801E9A
:1004C00010BD0902FCD0401E10BD032A40F230804E
:1004D00010F0030C00F0158011F8013BBCF1020F85
:1004E000624498BF11F801CB00F8013B38BF11F806
:1004F000013BA2F1040298BF00F801CB38BF00F81D
:10050000013B11F0030300F02580083AC0F0088099
:1005100051F8043B083A51F804CBA0E80810F5E77D
:10052000121D5CBF51F8043B40F8043BAFF3008060
:10053000D20724BF11F8013B11F801CB48BF11F8D5
:10054000012B24BF00F8013B00F801CB48BF00F8A5
:10055000012B704710B5203AC0F00B80B1E818505D
:10056000203AA0E81850B1E81850A0E81850BFF49D
:10057000F5AF5FEA027C24BFB1E81850A0E818503C
:1005800044BF18C918C0BDE810405FEA827C24BF90
:1005900051F8043B40F8043B08BF7047D20728BF1E
:1005A00031F8023B48BF11F8012B28BF20F8023B6D
:1005B00048BF00F8012B70474FF0000200B513460A
:1005C00094469646203922BFA0E80C50A0E80C5073
:1005D000B1F12001BFF4F7AF090728BFA0E80C5024
:1005E00048BF0CC05DF804EB890028BF40F8042B1D
:1005F00008BF704748BF20F8022B11F0804F18BF8A
:1006000000F8012B704700004FF0013C50F8042B1C
:1006100051F8043B9A4221D1A2EB0C03934313EA15
:10062000CC1317D150F8042B51F8043B9A4215D142
:10063000A2EB0C03934313EACC130BD150F8042B19
:1006400051F8043B9A4209D1A2EB0C03934313EAFD
:10065000CC13DBD04FF00000704700BFD01A01BAB6
:10066000B1FA81F101F0180122FA01F0CB40C1F199
:100670002001DBB2C0B2C01A2CFA01F3D11A9143A7
:1006800011EAC311E6D17047704770477047000008
:1006900001491820ABBEFEE7260002007546FFF7B1
:1006A000EBFEAE4605006946534620F0070085463E
:1006B00018B020B5FFF7CEFEBDE820404FF0000691
:1006C0004FF000074FF000084FF0000B21F007013A
:1006D000AC46ACE8C009ACE8C009ACE8C009ACE87D
:1006E000C0098D4670477047000000007CB5044685
:1006F00000F098F8054600F08FF806460020CDE996
:1007000000040848006800EB800202EBC0020648C3
:1007100000EB82002B463246416A0248006804F032
:1007200045FC7CBD6C0100205056002008B500201F
:1007300000900448282315220168034802F07DFB3D
:1007400008BD00006C550020C056002008B50020F0
:1007500000900448292315220168034802F06DFB2C
:1007600008BD00006C550020C056002030B503467F
:1007700000F052F801FB003084000648006800EBEE
:10078000800505EBC005044800EB8500406A025176
:1007900030BD00006C010020505600202DE9FC47C0
:1007A00004460D4616461F4600BF1849096801EB6E
:1007B0004101174A52F8210000F0E0FA00F02CF84D
:1007C00000FB05411148006800EB800202EBC0020B
:1007D000104800EB8200406A042202FB010800F08E
:1007E0001BF8A0EB06090948006800EB4000084927
:1007F00051F820003B4632464146CDE9009003487F
:10080000006804F0D3FBBDE8FC8700006C01002009
:10081000DC56002050560020014800687047000058
:100820006401002001480068704700006801002052
:100830002DE9F04F87B0804646F62539002600F0B6
:100840002DFA00F02BF9684868490860084602F064
:1008500093F97D20049002200590002006904FF22D
:10086000244601216148C16043F60450B6FBF0F113
:100870005E48816004A902F0B7F9B8F1000F0FD10A
:100880004FF00C0A0C2003908346782478257827B3
:10089000A000574908604FF44870564908600EE0C0
:1008A0004FF00C0A0C200390834678247825782793
:1008B0004FF448704E490860A0004E4908604C480B
:1008C000006801904B480068029000204A49086087
:1008D00048600862C86148620220C86040F6FF7044
:1008E0008861002048610198086104FB06F0B0FBB4
:1008F000F9F0886205FB06F0B0FBF9F0C8620198D8
:100900002044284438447043B0FBF9F0086308469B
:10091000C0F834A0039888630846C0F83CB0029839
:1009200008644FF40040486440208864C864C001F3
:10093000086540104865401088654010C865401043
:10094000086640104866294801F0AEFF274802F0CB
:10095000ADFA601E294948616019401EC8612448EB
:10096000006820442844401E486221480068204412
:1009700028443844401EC8621D4801681F4801666B
:100980001C4801681D48416608201D4908604FF455
:10099000C070086107211A48C161002018498862A7
:1009A000084603F08FF80021144880F8341080F8CE
:1009B000351080F8361001611248104908600E4960
:1009C0000E4802F004FF0D4802F06CFE00F0E2F960
:1009D0000D4800F09DF908494868414604F0B6FD0D
:1009E000002007B0BDE8F08F006C0140C056002029
:1009F00064010020680100206C550020185600207A
:100A0000F4560020006801403C01002030B58DB054
:100A100004460D4600200090FFF7FEFE01900020E6
:100A20000290FFF7FFFE0390002004900995FF203D
:100A30000590002006908DF8300000218DF83110CF
:100A40008DF832104FF4C060079007200890FFF730
:100A5000E3FE0A90FFF7E6FE0B90224669460C483B
:100A600002F0F0FD4FF0FF3004EB4401094A02EBC5
:100A700081014860084804EB440102EB8101886071
:100A80004FF07F4004EB440142F821000DB030BD2F
:100A900018560020DC5600203C01002008B500BF9D
:100AA000002000903748006840F0806035490860B9
:100AB0000846006800F08060009000BF00BF314829
:100AC0002038006840F080602E49203908600846D0
:100AD000006820F08060086000BF00200090294876
:100AE0001438006840F400002649143908600846AC
:100AF000006800F40000009000BF00BF21483438B7
:100B0000006840F400001F49343908600846006856
:100B100020F40000086000BF002000901948006821
:100B200040F00060174908600846006800F0006067
:100B3000009000BF00BF13482038006840F00060FC
:100B40001049203908600846006820F000600860FD
:100B500000220321582002F07CFE582002F06CFE97
:100B6000002203215A2002F074FE5A2002F064FE93
:100B7000002203215C2002F06CFE5C2002F05CFE8F
:100B800008BD00004438024030B5024600BF41486D
:100B9000006800EB800404EBC0043F4800EB8400D5
:100BA000006980B9FFF738FE01FB00204400394896
:100BB000006800EB800505EBC005374800EB8500B9
:100BC000406A035963E03348006800EB800404EB9B
:100BD000C004314800EB84000069012812D1FFF7FE
:100BE0001BFE01FB002044002A48006800EB800542
:100BF00005EBC005284800EB8500406A005920F04D
:100C00007F4344E02348006800EB800404EBC00409
:100C1000214800EB84000069022817D01D480068B5
:100C200000EB800404EBC0041B4800EB8400006967
:100C300004280BD01748006800EB800404EBC004C4
:100C4000154800EB84000069072810D1FFF7E4FD88
:100C500001FB002044000F48006800EB800505EB15
:100C6000C0050D4800EB8500406A035B0FE0FFF70D
:100C7000D3FD01FB002044000648006800EB80051E
:100C800005EBC005044800EB8500406A035D18468B
:100C900030BD00006C0100205056002000B587B028
:100CA00000BF002001901548006840F08000134903
:100CB00008600846006800F08000019000BF00BF97
:100CC00080200290112003900020049003200590C2
:100CD00002A90B4802F016F900228021084802F010
:100CE0001FFA142002F000F901228021044802F0CA
:100CF00017FA0A2002F0F8F807B000BD30380240B9
:100D0000001C024001490860704700006C0100208F
:100D10000449096801EB4101034A02EB8101886043
:100D2000704700006C010020DC56002010B501293E
:100D30000CD1114A12688432C301D25842F0010327
:100D40000D4A12688432C40113510BE00A4A12683A
:100D50008432C301D25822F00103074A1268843258
:100D6000C4011351044A1268526A42F00102024B54
:100D70001B685A6210BD000018560020034909681C
:100D800001EB4101024A42F8210070476C0100204A
:100D9000DC56002010B51E481E49086002201E497E
:100DA000086007204860042088600720C86002208F
:100DB0000861486188610020164948600021154893
:100DC0008160C16020210161402141614FF4C07107
:100DD00081610021C1614FF40061016249004162FB
:100DE0000021816200F068F80B490A4803F0C7FC53
:100DF00018B101200949087002E000200749087075
:100E000040F2695000F00CF80448007810BD000072
:100E1000400100A0305700206457002070010020DE
:100E200038B50446002000900120214908601020B8
:100E30004860012088600020C8604FF6FF721D489E
:100E400003F0D2FC012002F04FF80220184908609C
:100E500010204860012088600020C8604FF6FF72B3
:100E6000144803F0C1FC03201149086010204860B9
:100E7000082088600020C8604FF6FF720D4803F01C
:100E8000B3FC4FF40C700090042009490860102056
:100E90004860012088600098C8604FF6FF720548DE
:100EA00003F0A2FC2146034803F08AFC38BD000091
:100EB000805700203057002030B587B004460D46DB
:100EC000002C7DD000BF002001907948006840F0E0
:100ED0000100774908600846006800F001000190B1
:100EE00000BF00BF00BF00200190714808380068B3
:100EF00040F480006E49083908600846006800F434
:100F00008000019000BF00BF00BF00200190084694
:100F1000006840F0040008600846006800F0040023
:100F2000019000BF00BF00BF00200190084600688C
:100F300040F0080008600846006800F008000190D2
:100F400000BF00BF00BF002001900846006840F0CD
:100F5000100008600846006800F01000019000BF13
:100F600000BF00BF002001900846006840F020004C
:100F700008600846006800F02000019000BF00BF34
:100F800000BF002001900846006840F04000086063
:100F90000846006800F04000019000BF00BF00BF9D
:100FA000002001900846006840F080000860084674
:100FB000006800F08000019000BF00BF00BF00E0AB
:100FC00074E0002001900846006840F480700860DA
:100FD0000846006800F48070019000BF00BF022046
:100FE000039001200490022005900C20069001201F
:100FF000029002A92F4801F085FF4CF20370029085
:1010000002A92D4801F07EFF4FF68370029002A9DD
:101010002A4801F077FF4FF63F00029002A92848C6
:1010200001F070FF48F23310029002A9254801F048
:1010300069FF4FF60C70029002A9234801F062FF8D
:1010400040F2FF60029002A9204801F05BFF0020FF
:101050001F49486080211E4881608900C1604900A5
:10106000016189004161890081610021C1614FF402
:101070000031016200214162032181620021C162CD
:10108000016314481249086000BF08462063846366
:1010900000BF01F095FB0E4801F0C4FB00220521C2
:1010A000382002F0D6FB382002F0C6FB07B030BD76
:1010B0003838024000080240000C02400010024094
:1010C0000014024000180240001C024000200240B0
:1010D00090570020106402402DE9FC4705464FF070
:1010E00000094B48006801694A4800788847287021
:1010F000287800287DD0002483E0684600EB440275
:1011000001A800EB44014248006843694148007867
:1011100098474148007800F0080048B101A830F82D
:1011200014603DF8140001A921F814002DF8146092
:101130003948007800F0020040B101A830F81400EE
:1011400040F21F31081A01A921F814003248007832
:1011500000F0040038B13DF8140040F2DF11081A25
:1011600080B22DF8140001A830F814002B4951F872
:101170002410884207D901A830F81400274951F8F3
:101180002410401A06E0254850F8240001A931F83F
:101190001410401A87B23DF81400214951F8241068
:1011A000884206D93DF814001D4951F82410401A10
:1011B00005E01B4850F824003DF81410401A1FFAAF
:1011C00080F807EB080005280ADD01A830F81400B4
:1011D000124941F824003DF81400114941F8240057
:1011E0000E4830F8240081B2A81C20F814100C48D6
:1011F00000E00AE030F8240081B2A81D20F81410A5
:10120000641C2878A0423FF678AF4846BDE8FC87CA
:10121000740100207901002078010020A80100203D
:10122000B001002070B504460D460026154801683F
:10123000154800788847134841685420884711288A
:101240001CD110481149086054200F490870AC4265
:1012500003DA01200E49087002E00C200C490870E6
:101260006EB90A48006881680748007888470748CF
:101270000068C16804480078884700E003263046CB
:1012800070BD00000C0100207901002074010020D5
:10129000780100202DE9F04F8FB00446E0A007F060
:1012A00079FA8346BBF1000F03D1E0A007F072FA90
:1012B0008346DFA007F06EFA8246BAF1000F03D131
:1012C000DAA007F067FA82464FF00009E06906F0FD
:1012D000C8FD0546E06906F0BDFD064600962B46B2
:1012E00000221146E06906F0F1FE208A40F010006D
:1012F00020826068807800F0200010B30020ADF8F4
:101300002C00ADF82E00681E00B2ADF830000021B0
:10131000ADF83210681E00B2ADF83400701E01B294
:10132000ADF83610284605EBD071491009B2ADF87A
:101330003810304606EBD07149100AB2ADF83A20A9
:1013400040E02846E91705EB9171891009B2ADF824
:101350002C103046F11706EB9171891009B2ADF8E7
:101360002E102846E91705EB9171A5EBA10109B2F2
:10137000ADF830103046F11706EB917189100AB2C2
:10138000ADF832202846E91705EB9171A5EBA101D4
:1013900009B2ADF834103046F11706EB9171A6EBA7
:1013A000A1010AB2ADF83620284605EBD0714910EC
:1013B00009B2ADF83810304606EBD07149100AB2C8
:1013C000ADF83A20FF21E06906F0FFFA0120FF2185
:1013D0006FF07F42CDE902B2CDE9041097A01E2143
:1013E000CDE900102B4605220021E06906F088FCBB
:1013F0006068807800F0400008B1042000E003201D
:101400000690002752E00BA800EB8701204600F071
:1014100043FB00BF02E014200AF096FEA07B00F020
:1014200001000028F7D0002080460490059011E0CC
:10143000B8F1FA0F0BD2B4F90810059808440590DA
:10144000B4F90A1004980844049008F10108142023
:101450000AF07AFEA07B00F001000028E8D1B8F184
:101460000F0FD7D30598B0FBF8F000B207A921F809
:1014700027000498B0FBF8F000B201EB8701488028
:101480000BA800EB87000390FF201F21CDE900107F
:10149000039B5B880F3B1AB2039B1B880F3B19B25F
:1014A0001F23E06906F0C6FB00BF7F1C0698874239
:1014B000A9D307AA0BA9204600F0D2F8606880786B
:1014C00000F0400000287BD0207C00F0200010B10C
:1014D0006068223001E060681C30074604F120019A
:1014E0000AA800F0B1FB6068807800F0040098BBA7
:1014F000E06906F0B3FC38B15A2806D0B42810D001
:10150000B0F5877F29D11BE028E0BDF92820681EAF
:10151000BDF82A10401A00B2ADF82800ADF82A2014
:101520001CE0681EBDF82810401A00B2ADF8280073
:10153000701EBDF82A10401A01B2ADF82A100DE055
:10154000BDF92A20701EBDF82810401A01B2ADF86E
:101550002A10ADF8282001E002E000BF00BF00BF64
:10156000BDF92800BDF93810411A4943BDF92A20B8
:10157000BDF93A00121ABDF92A30181A02FB0019F7
:10158000388810FB00F0484517D201202E494FF44F
:101590007F02CDE902A2CDE904102CA02821CDE9DB
:1015A00000102B4623220021E06906F0A9FB40F63B
:1015B000B8300AF0C9FD02E002E04FF0000900BFB8
:1015C000584606F04AF9504606F047F9208A20F0BE
:1015D00010002082208A40F004002082B9F1000F20
:1015E0000DD1208A40F0080020826068406B30B145
:1015F0006068182204F12001436B204698470021BF
:10160000E181204600F060FD08F018FD07463946EC
:10161000E06906F0DAF948460FB0BDE8F08F000047
:101620002A20446F75626C65000000002A000000EB
:101630002A204E6172726F770000000043616C696E
:1016400062726174696F6E0000FFFF0043616C6934
:1016500062726174696F6E204661696C6564210015
:10166000F0B506460B46B3F90070B3F90450B3F970
:1016700008407068807800F00400002837D1F069D5
:1016800006F0ECFB5A2805D0B4280AD0B0F5877FC5
:101690002BD118E0B3F90270B3F90650B3F90A4040
:1016A00024E0F06906F0DDFB401E00B2044605466A
:1016B00007461888381A07B29888281A05B2188978
:1016C000201A04B212E0F06906F0C4FB401E00B21A
:1016D0000446054607465888381A07B2D888281A9B
:1016E00005B25889201A04B200E000BF00BFB2F969
:1016F0000000B2F90810401A00EE900AB8EEE01AA5
:10170000B2F90610B2F90A00081A00EE900AF8EED3
:10171000E00A61EE200AB2F90400B2F90810401A9A
:1017200001EE100AF8EEC11AB2F90210B2F90A007D
:10173000081A01EE100AB8EEC11AB0EE600A01EE06
:10174000C10AB2F90610B2F90A00081A00EE900AAE
:10175000B8EEE01A381B00EE900AF8EEE00A61EEEF
:10176000200AB2F90210B2F90A00081A01EE100AB2
:10177000F8EEC11A281B01EE100AB8EEC11A41EEAC
:10178000610A80EE801A86ED081AB2F90000B2F9FB
:101790000810401A00EE900AB8EEE01A281B00EE7E
:1017A000900AF8EEE00A61EE200AB2F90400401A4D
:1017B00001EE100AF8EEC11A381B01EE100AB8EE5D
:1017C000C11A41EE610A80EE801A86ED091AB2F95B
:1017D000040000EE900AB8EEE01AB2F90A0000EE3A
:1017E000900AF8EEE00A21EE201AB2F9080000EEA5
:1017F000900AF8EEE01AB2F9060000EE900AF8EE50
:10180000E00A01EEE01A00EE907AF8EEE00A21EE2E
:10181000201AB2F9000000EE900AF8EEE01AB2F9D0
:101820000A0000EE900AF8EEE00A61EEA01AB2F9A2
:10183000080000EE900AB8EEE02AB2F9020000EECD
:10184000900AF8EEE00A42EE601A00EE905AB8EE06
:10185000E02AF0EE410A42EE610AB2F9000001EE20
:10186000100AF8EEC11AB2F9060001EE100AB8EE3D
:10187000C11A61EE811AB2F9040001EE100AB8EE45
:10188000C12AB2F9020001EE100AB8EEC11A42EE06
:10189000411A01EE104AB8EEC11A41EE210A80EE5B
:1018A000801A86ED0A1AB3F90270B3F90650B3F93B
:1018B0000A407068807800F00400002837D1F06991
:1018C00006F0CCFA5A2805D0B42815D0B0F5877F99
:1018D0002BD123E0F06906F0C4FA401E00B20446A2
:1018E000054607461888381A07B29888281A05B29C
:1018F0001889201A04B219E0F06906F0ABFA401E0C
:1019000000B20446054607465888381A07B2D888F8
:10191000281A05B25889201A04B207E0B3F90070FA
:10192000B3F90450B3F9084000E000BF00BFB2F9BA
:101930000610B2F90A00081A00EE900AB8EEE01A92
:10194000381B00EE900AF8EEE00A61EE200AB2F9C8
:101950000210B2F90A00081A01EE100AF8EEC11AD4
:10196000281B01EE100AB8EEC11A41EE610A80EEA2
:10197000801A86ED0B1AB2F90000B2F90810401A6D
:1019800000EE900AB8EEE01A281B00EE900AF8EE7E
:10199000E00A61EE200AB2F90400401A01EE100AD2
:1019A000F8EEC11A381B01EE100AB8EEC11A41EE6A
:1019B000610A80EE801A86ED0C1AB2F9040000EE7E
:1019C000900AB8EEE01AB2F90A0000EE900AF8EEBA
:1019D000E00A21EE201AB2F9080000EE900AF8EEB3
:1019E000E01AB2F9060000EE900AF8EEE00A01EE05
:1019F000E01A00EE907AF8EEE00A21EE201AB2F931
:101A0000000000EE900AF8EEE01AB2F90A0000EECB
:101A1000900AF8EEE00A61EEA00AB2F9080001EEC1
:101A2000900AB8EEE12AB2F9020001EE900AF8EE4F
:101A3000E12AF0EE601A42EE621A00EE905AB8EE19
:101A4000E02AF0EE410A42EE610AB2F9000001EE2E
:101A5000100AF8EEC11AB2F9060001EE100AB8EE4B
:101A6000C11A61EE811AB2F9040001EE100AB8EE53
:101A7000C12AB2F9020001EE100AB8EEC11A42EE14
:101A8000411A01EE104AB8EEC11A41EE210A80EE69
:101A9000801A86ED0D1AF0BD7CB505460C466FF038
:101AA0007F41B4F90200CDE900012688B61E33B2A9
:101AB000B4F9022026880F3E31B2E86906F031F809
:101AC0006FF07F41B4F90200CDE9000126880F369E
:101AD00033B2B4F902202688B61C31B2E86906F0A8
:101AE00020F86FF07F416088801E00B2CDE90001D0
:101AF000B4F9003066880F3E32B21946E86906F044
:101B000010F86FF07F4160880F3000B2CDE900011E
:101B1000B4F900306688B61C32B21946E86906F09E
:101B200000F8484960880F3000B2CDE900012688EE
:101B3000F61F33B266880F3632B226880F3E31B2B6
:101B4000E86905F0EEFF3F4960880F3000B2CDE94B
:101B5000000126880F3E33B26688F61D32B2268811
:101B60000F3E31B2E86905F0DCFF364960880F3876
:101B700000B2CDE900012688F61F33B266880F3E19
:101B800032B226880F3E31B2E86905F0CAFF2D490E
:101B900060880F3800B2CDE9000126880F3E33B2CD
:101BA0006688F61F32B226880F3E31B2E86905F02A
:101BB000B8FF244960880F3000B2CDE900012688C3
:101BC0000F3633B266880F3632B22688F61D31B230
:101BD000E86905F0A6FF1B4960880F3000B2CDE927
:101BE000000126880F3633B26688F61D32B2268889
:101BF0000F3631B2E86905F094FF124960880F385A
:101C000000B2CDE9000126880F3633B266880F3E58
:101C100032B22688F61D31B2E86905F082FF094923
:101C20006088C01F00B2CDE9000126880F3633B2AC
:101C300066880F3E32B226880F3631B2E86905F069
:101C400070FF7CBD839EB80010B5D1ED000AB0F9DD
:101C5000004000EE104AB8EEC00A20EE800A91ED76
:101C6000011AB0F9024000EE904AF8EEE00A01EEE7
:101C7000200AD1ED020A30EE200ABDEEC00A10EEB5
:101C8000104A22B2D1ED030AB0F9004000EE104A2A
:101C9000B8EEC00A20EE800A91ED041AB0F90240B5
:101CA00000EE904AF8EEE00A01EE200AD1ED050AB6
:101CB00030EE200ABDEEC00A10EE104A23B20280B8
:101CC000438010BD0146087F00F0010008B10220EA
:101CD00070470020FCE72DE9F0470C4616461F46EA
:101CE000DDF820804FF0000C0025002100220023A9
:101CF0004FEA074C48EA0C09D0F800A0CAF8449013
:101D0000D0F80090C9F83C60D0F80490B9F5403F95
:101D10004ED104F07F4504F47F0104F47F42E3B226
:101D2000D0F80890B9F1000F06D142EA010949EA5A
:101D3000050949EA030C36E0D0F80890B9F1010F23
:101D400004D142EA010949EA030C2CE0D0F80890DA
:101D5000B9F1020F09D1C90C920ADB084FEA421906
:101D600049EAC12949EA030C1DE0D0F80890B9F10D
:101D7000030F0CD1ED0FC90CD20ADB084FEA421950
:101D800049EA812949EAC53949EA030C0BE02D0FDC
:101D9000090D120B1B094FEA021949EA012949EA08
:101DA000053949EA030CD0F80090C9F838C003E0BF
:101DB000D0F80090C9F80C40BDE8F08701460878DB
:101DC00010381823B0FBF3F20848805C4865032AFA
:101DD00005D908686FF30900001D086503E008686D
:101DE0006FF309000865086D704700003A3201087A
:101DF00030B5039C42EA811545EA032545EA0445CE
:101E0000C56630BD7CB505460C46012D08D8607806
:101E10000090237815220021064801F00EF808E012
:101E2000605D2B4639220021CDE90004014800F015
:101E3000A3FF7CBDC056002030B50246002300241D
:101E40000868012816D013686FF30E03D1E9010565
:101E50002843CD6828430D6928434D6928438D697F
:101E60002843CD6928430D6A28434D6A284303431C
:101E7000136019E013686FF30E03D1E907052843D7
:101E80004D6A2843034354686FF30E04D1E90105FA
:101E90002843CD6828430D6928434D6928438D693F
:101EA0002843044313605460002030BD024650694B
:101EB00040EA4100506100207047F8B506460C46E4
:101EC0001546002000900027D4E900010843A168CE
:101ED000491E40EA4110E16840EA41200090009824
:101EE000306101F023F9074609E0681C38B125B1DB
:101EF00001F01CF9C01BA84201D90320F8BDB0694C
:101F000000F020000028F0D100BFF7E770B50346CD
:101F1000154600220024012D1FD09A6802F070425D
:101F20000868401E4E68761E40EA06168868401E05
:101F300046EA0026C868401E46EA0036088A401E67
:101F400046EA0046888A401E46EA0056087E401E41
:101F500046EA006002439A6022E0DA6802F07042CA
:101F60000868401E4E68761E40EA06168868401EC5
:101F700046EA0026088A401E46EA0046087E401EC1
:101F800046EA006002439C6804F07044C868401E42
:101F90000603888A401E46EA00500443DA609C60CB
:101FA000002070BD4FF0FF37002683E00AF0C8F92B
:101FB0003946414807F03DFD00BF0AF019F90546D2
:101FC0004FF0FF373D49086939460AF059F93C4856
:101FD0000068002869D03A48046800BF207C00F0FF
:101FE0000400A0B9207C00F0020000284AD1B542CC
:101FF00005D3A068B04202D3A068A84207D9B54271
:1020000040D2A068B04202D2A068A8423AD8207C50
:1020100000F00100A8B1E06898B1207C00F0020057
:1020200050B9E0682844A168401AE168B0FBF1F0BB
:10203000A26800FB0120A060208A20F0040020821A
:1020400015E06069A04203D100201D4908600CE042
:10205000D4E905108861D4E9050148611848006891
:10206000A04202D116496069086000202082D4F89D
:102070000080D4F80490114908690AF0F5F8484640
:10208000C0479AE7207C00F0020048B9A068401BD6
:10209000B84205D2A068401B0A490968B0FBF1F7B5
:1020A000646907480068844298D12E46034908694C
:1020B0000AF0DAF87AE700006C5400205854002047
:1020C000580000205C0000207CB50446208A20F0E7
:1020D0004000208260686946026B2046904700B944
:1020E0007CBDBDF8060000F00F00ADF8060060688A
:1020F000807800F0010010B36068B0F916006168E4
:10210000B1F9141088421CDCBDF904006168B1F912
:102110001810884206DBBDF8060040F00100ADF85B
:1021200006002BE0BDF904006168B1F91A1088427D
:1021300006DCBDF8060020F00100ADF806001DE049
:10214000CEE7BDF904006168B1F91810884206DCD9
:10215000BDF8060040F00100ADF806000EE0BDF944
:1021600004006168B1F91A10884206DBBDF8060068
:1021700020F00100ADF8060000E0B1E7606840889B
:1021800000F4007000B3207C00F0020080B1BDF8C4
:102190000600A17B484000F0010020B9208A20F011
:1021A000020020829CE7208A20F0020020820BE0BF
:1021B000BDF80600A17B484000F0010020B1208A54
:1021C00040F0020020828BE7207C00F0100070B10C
:1021D000BDF8060000F0010028B1BDF80000208124
:1021E000BDF802106181BDF80610E18178E76068F2
:1021F000408800F4807058B1BDF8060000F001007E
:1022000030B92089ADF800006089ADF8020075E0B2
:10221000207C00F0080020B104F120016846FFF79F
:1022200013FDE069002869D0E06905F01AFE024656
:10223000E06905F00FFE03466068807800F0040056
:1022400098BBE06905F00AFE38B15A2806D0B428D8
:1022500010D0B0F5877F29D11BE028E0BDF90050F0
:10226000501EBDF80210401A00B2ADF80000ADF8E3
:1022700002501CE0501EBDF80010401A00B2ADF82C
:102280000000581EBDF80210401A00B2ADF802005E
:102290000DE0BDF90250581EBDF80010401A00B202
:1022A000ADF80200ADF8005001E002E000BF00BF51
:1022B00000BF207C00F00400F8B1BDF90000002848
:1022C00003DA0020ADF8000007E0BDF900009042FD
:1022D00003DB501E00B2ADF80000BDF9020000287B
:1022E00003DA0020ADF8020007E0BDF902009842D1
:1022F00003DB581E00B2ADF8020000BF227C02F0E2
:10230000200212B16268223201E062681C3210467B
:10231000B0F90420002A1ADDBDF90020B4F9083014
:10232000D21A5243BDF90250B4F90A30ED1ABDF980
:102330000260F31A05FB0321828812FB02F28A4233
:1023400005D92289ADF800206289ADF80220B0F9E4
:102350000220002A1CDD227C02F00102C2B1BDF97C
:102360000020B4F91230D21A5243BDF90250B4F928
:102370001430ED1ABDF90260F31A05FB03214288FF
:1023800012FB02F28A4203D2228A22F00102228246
:10239000BDF80600E18920EA0106E089BDF80610D3
:1023A00020EA010506F0010028B1BDF8060040F062
:1023B0001000ADF8060005F0010028B1BDF80600D8
:1023C00040F02000ADF8060006F0030060B1BDF853
:1023D00000006082BDF80210A18209F009FFA0612F
:1023E000208A40F00100208205F00300F0B3207C39
:1023F00000F00100D0B3208A20F00100208209F013
:10240000F7FEA169401AA06130480088304948436E
:10241000304909882E4A514300EB2140A169884286
:1024200011D305F0020028B1BDF8060040F080008D
:10243000ADF8060005F0010028B1BDF8060040F037
:102440004000ADF806006068807800F0010068B1D7
:102450001E480088204948431E4909881E4A5143A6
:1024600000EB2140A169884207D800E005E0BDF8F3
:10247000060040F08000ADF80600002504E06A4642
:102480002146284603F06FFB2946144807F034F82C
:102490000500F4D100BF04E06A462146284603F057
:1024A00062FB2946204607F027F80500F4D1BDF865
:1024B00000002081BDF802106181BDF80410A181E7
:1024C000BDF80610E18100BF0AE60000F431010802
:1024D000E0930400F631010820A10700C854002051
:1024E00030B502460C4602F1180000EB041100233F
:1024F00000BF92F83800012801D1022030BD012030
:1025000082F8380000BF022082F839005068B0F528
:10251000403F02D0506800B100BF8CBB1068436AD6
:102520003548034048680A2802D04868092809D17C
:102530000D89486840EA0540CD6805F07F4528438D
:10254000034307E00D89486840EA05400D7B40EAF7
:102550000560034310684362106883696FF30D03DD
:10256000086803431068836148680A2802D04868F5
:10257000092837D1C86820F07F431068836231E0B2
:10258000FFE71068C3691C48034048680A2802D066
:102590004868092809D10D89486840EA0540CD6896
:1025A00005F07F452843034307E00D89486840EA6A
:1025B00005400D7B40EA056003431068C361106865
:1025C00003696FF30D0308680343106803614868EB
:1025D0000A2802D04868092804D1C86820F07F433F
:1025E00010680362012082F8390000BF002082F8E1
:1025F000380000BF00BF81E7F0FFFC0070B5044663
:1026000000250CB9012070BD94F8390028B90020CC
:1026100084F83800204600F022F8022084F83900BF
:102620002068056825F4403560680543206805602A
:102630002068456B25F00705A068054320684563C1
:102640002068056C6FF30D05E0680543206805649C
:102650000020E063012084F839000020D3E77047B0
:102660002DE9F04104460D4600272068006800F07F
:10267000010000283BD000F059FD074631E02068FA
:10268000406800F020082068406800F00106B8F1BA
:10269000000F00D186B120202168886001202168C8
:1026A0008860042084F8390000BF002084F83800D6
:1026B00000BF0120BDE8F081681C90B125B100F099
:1026C00035FDC01BA8420CD900BF002084F838009B
:1026D00000BFE06B40F02000E063032084F8390085
:1026E000E8E72068406800F002000028C7D02068B2
:1026F000C06900F0200030B300F018FD07461CE070
:102700002068406800F0080038B10820216888601F
:10271000042084F839000120CCE7681C68B125B199
:1027200000F004FDC01BA84207D9E06B40F0200078
:10273000E063032084F83900BCE72068406800F0BB
:1027400010000028DCD00220216888601020216859
:102750008860012084F8390000BF002084F8380028
:1027600000BF00BFA6E72DE9F84304460D46164614
:102770001F46DDF8208000BF94F83800012802D100
:102780000220BDE8F883012084F8380000BF022051
:1027900084F839002068006820F001002168086092
:1027A0003B46324629462046CDF80080FFF793FA93
:1027B0002068006840F00100216808600020E0E720
:1027C00070B504460CB9012070BD94F8350002289C
:1027D00001D10120F8E72068006820F0010021689D
:1027E00008600020216808602168486021688860CE
:1027F0002168C8602168086121202168486120465D
:10280000FFF7DCFA054694F854103F208840A86092
:102810000020E06484F8350000BF84F8340000BF75
:1028200000BFD1E770B5044600250CB9012070BD8A
:10283000606A00B100BF022084F835002068056896
:1028400018480540D4E901010843E16808432169BB
:10285000084361690843A1690843E1690843216AA3
:1028600008430543606A042803D1D4E90B010843F7
:102870000543206805602068456925F00705606A02
:102880000543606A042801D1A06A054320684561B8
:102890002046FFF793FA0020E064012084F8350019
:1028A0000020C4E73F8010F0024600BF107C0128E2
:1028B00001D1022070470120107400BF486803282E
:1028C00000D100BF1068406B20F00100136858630E
:1028D0001068D0F8000420F001001368C3F8000469
:1028E0001068806B20F00300136898631068806B99
:1028F000CB681843136898631068C06B6FF30D00C2
:102900001368D8631068C06B0B6918431368D863E9
:102910001068006C6FF30C00136818641068006C8A
:102920004B691843136818641068406C6FF30C000F
:10293000136858641068406C8B69184313685864B6
:102940001068C06820F003001368D8601068C06881
:102950000B6818431368D8601068406920F00700BE
:1029600013685861D1E908301843CB6918431368DC
:102970005B691843136858611068006920F00F0004
:1029800013681861106800694B6818431368186170
:102990001068D0F8000420F00E001368C3F800049B
:1029A0001068D0F800044B6840EA43001368C3F88D
:1029B0000004486803280BD11068006920F4807077
:1029C00013681861106800698B68184313681861F0
:1029D0001068806C6FF30B00136898641068806C4B
:1029E0008B6A1843136898641068C06C6FF30B000F
:1029F0001368D8641068C06CCB6A18431368D86435
:102A00001068006D6FF30E00136818651068006D94
:102A10000B6B1843136818651068406D6FF309005D
:102A2000136858651068406D4B6B18431368586500
:102A30001068806D6FF30900136898651068806DE9
:102A40008B6B1843136898651068C06D6FF30900AD
:102A50001368D8651068C06DCB6B18431368D865D0
:102A60001068006E6FF30D00136818661068006E32
:102A70000B6C1843136818661068806B20F40040D4
:102A8000136898631068806B4B6C184313689863E5
:102A90001068806920F47F0013689861106880696D
:102AA000B1F8483040EA03401368986110688069C3
:102AB00020F0FF001368986110688069CB6C1843A0
:102AC000136898611068806B20F400501368986355
:102AD0001068806B0B6D1843136898631068806BE7
:102AE00020F48050136898631068806B4B6D184316
:102AF000136898631068806B20F400601368986313
:102B00001068806B8B6D1843136898631068806B36
:102B100020F48060136898631068806BCB6D184355
:102B2000136898631068806B20F4007013689863D2
:102B30001068806B0B6E1843136898631068806B85
:102B400020F48070136898631068806B4B6E184394
:102B5000136898631068806B20F480401368986352
:102B60001068806B8B6E18431368986300BF002059
:102B7000107400BF00BF9DE610B504460CB90120DB
:102B800010BD032060742068D0F8040420F0080011
:102B90002168C1F804042068406820F00100216821
:102BA00048602068D0F8A00020F006002168C1F835
:102BB000A0002068D0F8300420F001002168C1F89E
:102BC00030042068D0F8300420F080702168C1F80B
:102BD0003004204600F02FF900206061607400BFCF
:102BE000207400BF00BFCBE72DE9F04104460D463D
:102BF00000260027B04614B90120BDE8F081607CB2
:102C000010B9204600F018F9032060742068D0F84D
:102C1000300440F080702168C1F8300400F086FA7A
:102C2000064607E000F082FA801BB0F57A7F01D9F2
:102C30000320E2E72068D0F80C0400F4805000285C
:102C4000F0D02068D0F83004494908402168C1F824
:102C5000300428688000696840EAC120298940EA78
:102C600001402168D1F8301408432168C1F83004CC
:102C70002068D0F8300440F001002168C1F8300429
:102C800000F054FA064607E000F050FA801BB0F559
:102C90007A7F01D90320B0E72068D0F80C0400F453
:102CA00080700028F0D02068D0F8A00040F0060026
:102CB0002168C1F8A0002068D0F8940020F003003B
:102CC0002168C1F894002068D0F89400616841F050
:102CD000010108432168C1F894002068D0F8A400DD
:102CE00020F003002168C1F8A4002068D0F8A400F7
:102CF000E16808432168C1F8A4002068806820F0DA
:102D0000FF00216888602168A0688860686808B151
:102D1000686800E001208046164808FB00F02A7A27
:102D20000121914048434FF4FA5229685143B0FBC6
:102D3000F1F72068D0F8180420F03F002168C1F8AE
:102D400018042068D0F8180438432168C1F8180422
:102D500000202168C1F8C40000212068C0F8C81014
:102D60000020A061606101206074002045E7000040
:102D70000386FCFF00093D002DE9F84F0546884613
:102D800091461F46DDE90AA60024A34600BF287C21
:102D9000012802D10220BDE8F88F0120287400BF6D
:102DA00000F0C4F983460CE000F0C0F9A0EB0B0082
:102DB000B0F57A7F05D900BF0020287400BF03203A
:102DC000E9E72868406F00F001000028ECD01FE020
:102DD00074B9305D4AEA00203119497840EA01406F
:102DE0003119897840EA016029680867E41C0FE01E
:102DF000305D3119497840EA01203119897840EA7B
:102E000001403119C97840EA016029680867241D2A
:102E1000BC42DDD3781CC0F30720791CCBB20090F4
:102E20004A4641462868FEF7E3FF00BF00202874A9
:102E300000BF00BFAFE7704770472DE9F843044675
:102E40000D4616461F46DDF820804FF0000900BFF2
:102E5000207C012802D10220BDE8F88301202074E3
:102E600000BF00F063F981460CE000F05FF9A0EBD1
:102E70000900B0F57A7F05D900BF0020207400BF9B
:102E80000320E9E72068406F00F001000028ECD043
:102E9000CDF800803B46324629462068FEF7A8FF61
:102EA00000BF0020207400BF00BFD5E7014600BF6F
:102EB000087C012801D1022070470120087400BF5E
:102EC0000868406840F001000A6850600868D0F85F
:102ED000040440F008000A68C2F8040400BF00209F
:102EE000087400BF00BFE7E731B5002400F01EF909
:102EF000044600BF00F01AF9001B00998842F9D37C
:102F000038BD0000F8B502460B460025002400201D
:102F10000021E6E0012606FA01F51E6806EA05042E
:102F2000AC4273D15E68022E02D05E68122E13D1BD
:102F3000CF0802F1200656F827004E07F70E0F269D
:102F4000BE40B0434F07FF0E1E69BE403043CF085E
:102F500002F1200646F8270010684F000326BE4005
:102F6000B0431E7906F003064F00BE4030431060A8
:102F70005E68012E08D05E68022E05D05E68112EB4
:102F800002D05E68122E13D190684F000326BE4017
:102F9000B0434F00DE68BE40304390605068012669
:102FA0008E40B0431E79C6F300168E403043506009
:102FB000D0684F000326BE40B0434F009E68BE401D
:102FC0003043D0605E6806F08056B6F1805FA8D1CD
:102FD00000BF00260096454E366846F48046434FB3
:102FE0003E603E46366806F48046009600BF00BF4D
:102FF0003F4E8F0856F827008E07370F0F26BE402A
:10300000B0433C4EB24202D100262EE068E03A4E78
:10301000B24201D1012628E0384EB24201D1022647
:1030200023E0374EB24201D103261EE0354EB242B4
:1030300001D1042619E0344EB24201D1052614E034
:10304000324EB24201D106260FE0314EB24201D1DA
:1030500007260AE02F4EB24201D1082605E02E4E87
:10306000B24201D1092600E00A268F073F0FBE4079
:1030700030431F4E8F0846F82700284E3068A04383
:103080005E6806F48036B6F5803F00D12043234EBB
:103090003060361D3068A0435E6806F40036B6F531
:1030A000003F00D120431D4E361D3060361D306874
:1030B000A0435E6806F48016B6F5801F00D1204359
:1030C000164E08363060361D3068A0435E6806F440
:1030D0000016B6F5001F00D12043104E0C363060AC
:1030E000491C1029FFF416AFF8BD00004438024017
:1030F000083801400000024000040240000802407D
:10310000000C02400010024000140240001802406F
:10311000001C02400020024000240240003C01400C
:103120000AB1816101E00B048361704701480068C6
:1031300070470000F001002010B504460CB90120D2
:1031400010BD022084F835002068006820F00100DE
:1031500021680860204600F043FA0020A06384F84C
:10316000350000BF84F8340000BF00BFE8E7014627
:1031700091F835007047000070B504460026002520
:103180000CB9012070BD94F8350028B9002084F8EE
:103190003400204600F025FA022084F8350020682B
:1031A000006820F001002168086001F071F8054610
:1031B0003748B5FBF0F620684660364960688842BB
:1031C00001D8701C07E04FF4967070434FF47A7189
:1031D000B0FBF1F0401C216808622E49606888420B
:1031E0000ED860684000B5FBF0F0C0F30B00042877
:1031F00001D204202DE060684000B5FBF0F028E02B
:10320000A06828B9606800EB4000B5FBF0F008E06A
:10321000606800EBC00101EB0010B5FBF0F040F47A
:103220008040C0F30B0008B9012012E0A06828B963
:10323000606800EB4000B5FBF0F008E0606800EB70
:10324000C00101EB0010B5FBF0F040F4804040F409
:1032500000402168C861D4E907010843216808607B
:10326000D4E90310084321688860D4E905010843C4
:103270002168C8602068006840F00100216808608B
:103280000020A063012084F8350000207AE70000C8
:1032900040420F00A08601002DE9F84F0446884601
:1032A00091469A460AADE0CD94F83500012870D1D8
:1032B00005B116B90120BDE8F88F42F21073012262
:1032C0008149204601F090FC08B10220F3E700BFDD
:1032D00094F83400012801D10220ECE7012084F8A1
:1032E000340000BF2068006820F400602168086096
:1032F000422084F835000020A06353464A464146E8
:103300002046009701F08AFB80B1A06B042806D10B
:1033100000BF002084F8340000BF0120CBE700BFCD
:10332000002084F8340000BF0320C4E7012E17D129
:103330002068006820F480602168086000BF0020D9
:10334000009020684069009020688069009000BF6C
:1033500000BF2068006840F400702168086024E025
:10336000022E17D12068006820F480602168086070
:103370002068006840F400602168086000BF0020F9
:10338000009020684069009020688069009000BF2C
:103390000BE097E000BF002000902068406900909B
:1033A00020688069009000BF00BF7FE0032E63DCCF
:1033B000012E0FD13B4600224449204601F014FC67
:1033C00008B1032077E72068006905F8010B701E3B
:1033D00086B26BE0022E1CD13B4600223B493C39B1
:1033E000204601F001FC08B1032064E72068006872
:1033F00040F40070216808602068006905F8010B3E
:10340000701E86B22068006905F8010B701E86B236
:103410004CE03B4600222D493C39204601F0E4FBBC
:1034200008B1032047E72068006820F48060216825
:1034300008602068006905F8010B701E86B23B46E3
:10344000002222493C39204601F0CEFB08B103207E
:1034500031E72068006840F4007021680860206847
:10346000006905F8010B701E86B22068006905F836
:10347000010B701E86B219E03B460022134920461C
:1034800001F0B2FB08B1032015E72068006905F8D8
:10349000010B701E86B220684069C0F3800028B11D
:1034A0002068006905F8010B701E86B2002E3FF7F8
:1034B0007DAF012084F8350000BF002084F834007F
:1034C00000BFF8E60220F6E602001000400001000E
:1034D0002DE9F84F0446884691469A460AADE0CD5C
:1034E00094F83500012874D105B116B90120BDE862
:1034F000F88F42F2107301223749204601F074FB25
:1035000008B10220F3E700BF94F83400012801D18C
:103510000220ECE7012084F8340000BF2068006836
:1035200020F4006021680860322084F83500002013
:10353000A06353464A4641462046009701F0FAFAF6
:1035400080B1A06B042806D100BF002084F83400AD
:1035500000BF0120CBE700BF002084F8340000BF8B
:103560000320C4E71AE03B4600221C49204601F034
:103570003BFB08B10320BAE715F8010B216808618D
:10358000701E86B220684069C0F3800030B12EB151
:1035900015F8010B21680861701E86B2002EE2DC6E
:1035A0003B4600220D49204601F01EFB08B10320D6
:1035B0009DE72068006840F40070216808600120E1
:1035C00084F8350000BF002084F8340000BF8EE787
:1035D000FFE702208BE700000200100080000100DE
:1035E0007047704710B50D48006840F400700B49F3
:1035F00008600846006840F480600860084600687B
:1036000040F480700860032000F062F90F2000F0A1
:1036100007F800F00CF9002010BD0000003C02404B
:1036200070B5044600F018FE4FF47A71B0FBF1F566
:10363000284601F0F6F800222146501E00F009F954
:10364000002070BD70B504460E46154600BF94F8C4
:10365000A000012801D1022070BD012084F8A00043
:1036600000BF022084F8A10005EB850101EBC50233
:1036700004F1380101EB820034223146FCF76AFF85
:103680002A463146204601F0C1FC012021684862EB
:1036900084F8A10000BF002084F8A00000BF00BF94
:1036A000DAE7000070B50446002500260CB90120B9
:1036B00070BD94F8A10028B9002084F8A00020462D
:1036C00000F084F8022084F8A1002068806920F0CE
:1036D000704021688861D4E901010843E16808432A
:1036E0002169084321688969084321688861206845
:1036F00080683549084021688860A08A05042068F0
:103700008068A16929430843216888602068C068EF
:103710002D4908402168C860A08B05042068C06856
:10372000216A294308432168C86020680069264946
:10373000084021680861A08C050420680069A16A1E
:103740002943084321680861206840691E490840F0
:1037500021684861A08D050420684069216B2943D8
:1037600008432168486194F83500050294F8360052
:1037700006042068C06A00F07F402168C86246EAFB
:10378000050094F8341008432168C96A0843216889
:10379000C8622068406B40F00400216848632068DC
:1037A000406B40F00200216848632068806940F067
:1037B0000100216888610020C4F8A400012084F879
:1037C000A100002074E7000000F800F070470246F6
:1037D000486A08B9002301E04FF00053D360086A3B
:1037E00008B9002301E04FF080439360C86908B92D
:1037F000002001E04FF000405060486B401E906197
:10380000D1E90D031844401E1062D1E90D0318449C
:103810000B6C1844401E9062D1E90D0318440B6CE8
:103820001844CB6B1844401E10630020704708B545
:103830000020009000BF08BD00BF00F01F02012162
:1038400091404209920002F1E022C2F8001100BF4B
:1038500070472DE9F05F80460D461646002701F0BF
:103860004BFE074639462A46334601F00700C0F1B1
:10387000070ABAF1040F02D94FF0040A01E0C0F1BF
:10388000070AD14600F1040ABAF1070F02D24FF03D
:10389000000A01E0A0F1030AD4464FF0010A0AFA37
:1038A00009FAAAF1010A0AEA020A0AFA0CFA4FF026
:1038B000010B0BFA0CFBABF1010B0BEA030B4AEA11
:1038C0000B042146404601F01FFEBDE8F09F0000BA
:1038D00000BF00F00702064B19684FF6FF031940BE
:1038E000044B0B4343EA0221014B196000BF7047B0
:1038F0000CED00E00000FA0538B5002400BF002000
:1039000000902348006840F0805021490860084634
:10391000006800F08050009000BF00BF012001044B
:1039200091FAA1F1B1FA81F11A4A42F82100FFF7A8
:10393000FDFB044607E0FFF7F9FB001BB0F57A7FBB
:1039400001D9032038BD1448406800F48030B0F538
:10395000803FF0D10120410491FAA1F1B1FA81F147
:103960000C4A42F82100FFF7E1FB044607E0FFF7AD
:10397000DDFB001BB0F57A7F01D90320E2E70648A2
:10398000406800F40030B0F5003FF0D10020D9E7E6
:103990004038024000000E420070004040F2BF126A
:1039A0000260474A126847F6C0731A4093FAA3F3BD
:1039B000B3FA83F3DA404260414A126802F0E0420F
:1039C0004FF0E04393FAA3F3B3FA83F3DA40826053
:1039D0003B4A126802F070624FF0706393FAA3F3EF
:1039E000B3FA83F3DA40C260354A121D126847F613
:1039F000C0731A4093FAA3F3B3FA83F3DA40026177
:103A00002F4A121D126802F0E0424FF0E04393FA91
:103A1000A3F3B3FA83F3DA40C261294A121D126894
:103A200002F070624FF0706393FAA3F3B3FA83F37A
:103A3000DA408261224A0832126802F01F021F2314
:103A400093FAA3F3B3FA83F3DA4002621C4A083212
:103A5000126802F4F8524FF4F85393FAA3F3B3FA4E
:103A600083F3DA404262164A0832126802F44032A6
:103A70008262134A7C3A126802F4F811104A143A2E
:103A8000126802F440720A43C2620D4A0832126898
:103A900002F0006242630A4A0832126802F0805261
:103AA0008263074A0832126802F080721AB9002253
:103AB00080F8302002E0012280F8302070470000BA
:103AC000843802402DE9F8430446002500260027EB
:103AD000A846A946207800F08000802807D1F94840
:103AE000006820F00060616B0843F6490860208898
:103AF00000F48070B0F5807F07D1F248006820F0B4
:103B00008050A16B0843EF490860207800F0010065
:103B100048B9207800F00200022804D0207800F094
:103B20004000402878D10020E7498866FFF7FEFA78
:103B3000054607E0FFF7FAFA401B642802D9032084
:103B4000BDE8F883DF488C380068C0F3C060002807
:103B5000F0D1207800F0010098B147F6C07191FAD9
:103B6000A1F1B1FA81F1606888404FF0E04292FA29
:103B7000A2F2B2FA82F2A16891400843D149083911
:103B80000860207800F0020002281FD1CD480838D4
:103B9000006800F0E0404FF0E04191FAA1F1B1FA85
:103BA00081F120FA01F660688101207B41EA006022
:103BB00040EA0670C34908390860C248006820F02E
:103BC0001F00216A491E0843BE490860207800F0A2
:103BD000400040280AD160688101207B41EA0061F1
:103BE000207A41EA0070B749083908600120B649D7
:103BF0008866FFF79BFA054607E0FFF797FA401B38
:103C0000642802D903209BE706E0AE488C380068A0
:103C1000C0F3C0600028F0D0207800F00400042831
:103C20000DD0207800F00800082808D0207800F097
:103C3000800080287ED1606BB0F1006FFAD1002047
:103C4000A1490867FFF772FA054606E0FFF76EFA2A
:103C5000401B642801D9032072E79A488C38006819
:103C6000C0F340700028F1D1207800F0040004284F
:103C70004CD19448001F006800F440304FF44031AC
:103C800091FAA1F1B1FA81F1C840401C47008D487A
:103C9000001F006800F0E0404FF0E04191FAA1F110
:103CA000B1FA81F120FA01F947F6C07191FAA1F158
:103CB000B1FA81F1206988400121C1EB57014FF42D
:103CC000403292FAA2F2B2FA82F2914008434FF0E7
:103CD000706292FAA2F2B2FA82F2A16991400843AC
:103CE0004FF0E04191FAA1F1B1FA81F109FA01F145
:103CF00008437449091F0860081D006820F4F85142
:103D0000606A401E41EA00206E490860207800F099
:103D1000080008284CD16B48001F006800F44030B0
:103D20004FF4403191FAA1F1B1FA81F1C840401C41
:103D3000470000E09DE06348001F006800F07060ED
:103D40004FF0706191FAA1F1B1FA81F120FA01F816
:103D500047F6C07191FAA1F1B1FA81F1206988406A
:103D60000121C1EB57014FF4403292FAA2F2B2FAAC
:103D700082F2914008434FF0706191FAA1F1B1FADB
:103D800081F108FA01F108434FF0E04292FAA2F201
:103D9000B2FA82F2E169914008434A49091F08607A
:103DA000081D006820F44030A16A084345490860B6
:103DB000207800F08000802846D1606BB0F1006F61
:103DC00042D14048001F006800F070604FF0706101
:103DD00091FAA1F1B1FA81F120FA01F83948001FF6
:103DE000006800F0E0404FF0E04191FAA1F1B1FA33
:103DF00081F120FA01F947F6C07191FAA1F1B1FA07
:103E000081F12069884001226169C2EB51014FF4C0
:103E1000403292FAA2F2B2FA82F2914008434FF095
:103E2000706191FAA1F1B1FA81F108FA01F1084348
:103E30004FF0E04191FAA1F1B1FA81F109FA01F1F3
:103E400008432049091F086001201F490867FFF740
:103E50006DF9054606E0FFF769F9401B642801D9B2
:103E600003206DE617488C380068C0F340700028C6
:103E7000F1D0207800F0200020287DD100BF002064
:103E8000009010484C38006840F080500D494C3983
:103E900008600846006800F08050009000BF00BF36
:103EA0000A48006840F4807008490860FFF73EF94E
:103EB00005460DE0FFF73AF9401B642808D90320B6
:103EC0003EE600008C38024000004742007000408F
:103ED0003048006800F480700028EBD02E4800685D
:103EE00000F44070A18D01F44071884247D02A4807
:103EF000006820F44076012028490860002008600E
:103F00002548066006F0020090B1FFF70FF905465C
:103F100008E0FFF70BF9401B41F28831884201D9D4
:103F200003200DE61C480068C0F340000028F0D0D4
:103F300000BFA08D00F44070B0F5407F0CD1164852
:103F40006838006820F4F810154AE16A1140084307
:103F500011496839086007E00F486838006820F4A4
:103F6000F8100D49683908600B480068A18DC1F34D
:103F70000B010843084900E001E0086000BF207819
:103F800000F01000102803D194F8300005490860B3
:103F90000020D5E50070004070380240400E4742D6
:103FA000FFFCFF0FE011474270B504460E460025A6
:103FB000A748006800F00F00B0426FD2A4490E700D
:103FC0000846006800F00F00B04201D0012070BD2B
:103FD000207800F00200022807D19E48006820F0F7
:103FE000F000A16808439B490860207800F00100B8
:103FF00000283ED06068012807D19648083800683C
:10400000C0F34040B8B90120E1E76068022802D05F
:104010006068032807D18F4808380068C0F3406003
:1040200048B90120D3E78B4808380068C0F3400046
:1040300008B90120CBE78748006820F003006168D9
:10404000084384490860FFF771F805466068012855
:1040500010D108E0FFF76AF8401B41F2883188422E
:1040600001D90320B3E77B48006800F00C00042866
:10407000F0D1CDE06068022811D108E0FFF756F8D2
:10408000401B41F28831884201D903209FE77148E3
:10409000006800F00C000828F0D1B9E024E0606866
:1040A000032810D108E0FFF741F8401B41F28831A6
:1040B000884201D903208AE76648006800F00C00B6
:1040C0000328F0D1A4E008E0FFF730F8401B41F2EC
:1040D0008831884201D9032079E75E48006800F002
:1040E0000C000028F0D193E0207800F002000228B4
:1040F00007D15848006820F0F000A16808435549EE
:104100000860207800F00100002877D0606801285E
:1041100007D1504808380068C0F34040B8B90120C2
:1041200055E76068022802D06068032807D1494833
:1041300008380068C0F3406048B9012047E74548A7
:1041400008380068C0F3400008B901203FE7414843
:10415000006820F00300616808433E490860FEF7EC
:10416000E5FF05466068012810D108E0FEF7DEFF94
:10417000401B41F28831884201D9032027E73548A6
:10418000006800F00C000428F0D137E060680228D5
:1041900010D108E0FEF7CAFF401B41F28831884287
:1041A00001D9032013E72B48006800F00C00082811
:1041B000F0D123E06068032810D108E0FEF7B6FFD5
:1041C000401B41F28831884201D90320FFE6214893
:1041D000006800F00C000328F0D10FE008E0FEF7C3
:1041E000A5FF401B41F28831884201D90320EEE649
:1041F0001848006800F00C000028F0D114490E7037
:104200000846006800F00F00B04201D00120DEE651
:10421000207800F00400042807D10E48006820F43C
:10422000E050E16808430B490860207800F008007E
:10423000082808D10748006820F46040216940EA56
:10424000C100044908600F20FFF7EAF90020BEE62C
:10425000003C02400838024010B500F02FF8094930
:10426000096801F0F001F02292FAA2F2B2FA82F2A9
:10427000D140054A515CC8400449086008460068BE
:1042800010BD00000838024042320108DC01002065
:1042900010B5FFF7E1FF0749096801F4E0514FF459
:1042A000E05292FAA2F2B2FA82F2D140024A515C92
:1042B000C84010BD083802404232010870B50021E4
:1042C000002200230020274C246804F00C0424B1B1
:1042D000042C04D0082C41D103E0234840E02348BB
:1042E0003EE0204C241F246804F03F011D4C241F95
:1042F000246804F4800484B11C4CB4FBF1F5194C1F
:10430000241F246847F6C076344096FAA6F6B6FA1B
:1043100086F6F44005FB04F20FE0134CB4FBF1F514
:10432000104C241F246847F6C076344096FAA6F64F
:10433000B6FA86F6F44005FB04F20A4C241F246802
:1043400004F440344FF4403595FAA5F5B5FA85F5F7
:10435000EC40641C6300B2FBF3F001E0024800BFD4
:1043600000BF70BD083802400024F40000127A003B
:1043700038B504460025207800F00100002860D000
:10438000F848006800F00C0004280DD0F5480068DB
:1043900000F00C00082813D1F248001F006800F458
:1043A0008000B0F5800F0BD1EE4808380068C0F3EC
:1043B0004040002845D06068002842D1012038BD27
:1043C0000020E849891F0870FEF7B0FE054606E0A8
:1043D000FEF7ACFE401B642801D90320EFE7E1485B
:1043E00008380068C0F340400028F1D12079DD4949
:1043F000891F0870606890B1FEF798FE054606E0D8
:10440000FEF794FE401B642801D90320D7E7D54866
:1044100008380068C0F340400028F1D011E0FEF7F2
:1044200085FE054606E0FEF781FE401B642801D9A3
:104430000320C4E7CB4808380068C0F34040002898
:10444000F1D1207800F00200022869D1C548006847
:1044500000F00C0058B1C348006800F00C000828B8
:1044600021D1C048001F006800F48000D8B9BD48C1
:1044700008380068C0F3400020B1E068012801D08E
:1044800001209CE7B7480838006820F0F800F822BF
:1044900092FAA2F2B2FA82F2216991400843B1493C
:1044A000083908603CE0E06828B30120AE490860A4
:1044B000FEF73CFE054606E0FEF738FE401B64288A
:1044C00001D903207BE7A74808380068C0F3400003
:1044D0000028F1D0A3480838006820F0F800F8223E
:1044E00092FAA2F2B2FA82F22169914008439D4900
:1044F0000839086014E000209B490860FEF716FEAA
:10450000054606E0FEF712FE401B642801D9032091
:1045100055E7944808380068C0F340000028F1D1FE
:10452000207800F0080008282CD16069A8B101208B
:104530008E490860FEF7FAFD054606E0FEF7F6FD37
:10454000401B642801D9032039E786486C30006895
:10455000C0F340000028F1D014E000208349086037
:10456000FEF7E4FD054606E0FEF7E0FD401B64288B
:1045700001D9032023E77B486C300068C0F340007A
:104580000028F1D1207800F0040004286FD100BF8A
:104590000020009073483830006840F08050714926
:1045A000383108600846006800F08050009000BF75
:1045B00000BF6F48006840F480706D490860FEF7E6
:1045C000B5FD054606E0FEF7B1FD401B642801D9A4
:1045D0000320F4E66648006800F480700028F2D0FA
:1045E0000020604968310870FEF7A0FD054608E02C
:1045F000FEF79CFD401B41F28831884201D903201F
:10460000DDE6584868300068C0F340000028EFD16C
:10461000207A544968310870A068A0B1FEF786FD81
:10462000054608E0FEF782FD401B41F288318842D2
:1046300001D90320C3E64B4868300068C0F340004E
:104640000028EFD013E0FEF771FD054608E0FEF705
:104650006DFD401B41F28831884201D90320AEE64E
:10466000404868300068C0F340000028EFD1A069DE
:10467000F0B33C48006800F00C0008287BD0A0692B
:10468000022859D1002038490866FEF74FFD05463B
:1046900006E0FEF74BFD401B642801D903208EE69F
:1046A000304808380068C0F340600028F1D1D4E9F0
:1046B0000701084347F6C07292FAA2F2B2FA82F2F8
:1046C000616A914008430122A16AC2EB51014FF493
:1046D000403292FAA2F2B2FA82F2914008434FF0CD
:1046E000706292FAA2F2B2FA82F2E16A914000E0BC
:1046F00043E008434FF0E04292FAA2F2B2FA82F2AB
:10470000216B914008431749091F08600120164991
:104710000866FEF70BFD054606E0FEF707FD401BA9
:10472000642801D903204AE60E4808380068C0F31F
:1047300040600028F1D020E000200B490866FEF719
:10474000F5FC054606E0FEF7F1FC401B642801D9A4
:10475000032034E6034808380068C0F340600028AE
:10476000F1D10AE00838024000004742800E47427B
:1047700000700040FFE7012021E600201FE670B531
:1047800004460D460CB9012070BD94F82C0028B9E0
:10479000002084F82D00204600F011F8022084F853
:1047A0002C00211D2068FDF747FB2946D4E90002B3
:1047B000FDF7ACFB012084F82C000020E4E77047F3
:1047C00070B504460D4694F82C00022800D170BD47
:1047D000022084F82C0029462068FDF767FB0120A1
:1047E00084F82C000020F2E770B504460D4616460A
:1047F00094F82C00022800D170BD022084F82C000F
:10480000324629462068FDF758FB2868022803D164
:10481000052084F82C0002E0012084F82C00002000
:10482000EAE770B504462546681EB0F1807F01D3E3
:1048300001200FE0681E4FF0E02148610F214FF08A
:10484000FF3000F061FE00204FF0E021886107207A
:104850000861002070BD000010B504460248FEF754
:104860006BFC00F003F810BDF454002010B50D48A7
:10487000FEF77DFCA8B90C480A4908600B4848605F
:10488000002108488160C1604FF48041016100212E
:1048900041618161C161016200F00AF80148FEF7DF
:1048A0006BFC10BDF454002000540040801A060038
:1048B00000B587B000BF002001902948006840F093
:1048C0000200274908600846006800F002000190D5
:1048D00000BF00BF881502901220039000200490B2
:1048E000022005900420069002A91E48FEF70AFB4C
:1048F0004FF40070029002A91A48FEF703FB00BFB4
:104900000020019016481030006840F4001014494F
:10491000103108600846006800F40010019000BFE4
:1049200000BF0F481038006840F400100C491039DF
:1049300008600846006820F4001008600022052185
:104940001F20FEF786FF1F20FEF776FF00220521BD
:104950002020FEF77EFF2020FEF76EFF07B000BD8F
:1049600030380240000402407FB504460D46002660
:10497000002003904FF47A70012103AA0B46CDE981
:10498000002102902A4621460548FEF785FC06468E
:1049900016B12046FFF760FF9DF80C0004B070BD13
:1049A000F45400202DE9FE4304460D4616461F46EA
:1049B000DDF828904FF000084FF47A7033462A460D
:1049C0002146CDE9007902900648FEF765FC804655
:1049D000B8F1000F02D02046FFF73EFF4046BDE889
:1049E000FE830000F454002077B583B004460D46E2
:1049F00000266420012105AA0B46CDE90021029082
:104A00002A4621460448FEF763FD064616B12046B5
:104A1000FFF722FF06B070BDF45400202DE9F843E3
:104A200004460E4615461F46DDF8208020680068C3
:104A300040F48060216808602068006840F480705D
:104A400021680860434600224FF00111204600F023
:104A5000CBF810B10320BDE8F88306F0FE00216812
:104A6000086142463249204600F02DF930B1A06B72
:104A7000042801D10120EEE70320ECE700BF00206D
:104A8000009020684069009020688069009000BF15
:104A900000BF4346002226497E31204600F0A4F89C
:104AA00008B10320D7E7012F03D1E8B221680861DC
:104AB00010E0C5F3072021680861434600221C4925
:104AC0007E31204600F090F808B10320C3E7E8B239
:104AD000216808614346002215497E31204600F0D6
:104AE00083F808B10320B6E72068006840F48070BE
:104AF00021680860434600224FF00111204600F073
:104B000073F808B10320A6E7F0B240F00100216875
:104B1000086142460649204600F0D5F830B1A06B46
:104B2000042801D1012096E7032094E7002092E7B2
:104B3000020001002DE9F84304460E4615461F46C3
:104B4000DDF820802068006840F4807021680860EB
:104B5000434600224FF00111204600F045F810B105
:104B60000320BDE8F88306F0FE0021680861424694
:104B70001C49204600F0A7F830B1A06B042801D1F1
:104B80000120EEE70320ECE700BF00200090206842
:104B90004069009020688069009000BF00BF4346D4
:104BA000002210497E31204600F01EF808B1032093
:104BB000D7E7012F03D1E8B22168086110E0C5F3FF
:104BC0000720216808614346002206497E312046BD
:104BD00000F00AF808B10320C3E7E8B221680861D1
:104BE0000020BEE7020001002DE9F04105460C4619
:104BF00017461E464FF00008FEF798FA804687BB1E
:104C000013E0701C88B12EB1FEF790FAA0EB0800FB
:104C1000B0420AD9012085F8350000BF002085F890
:104C2000340000BF0320BDE8F081C4F30740012831
:104C30000AD128684069A1B20840A1B2884201D1D6
:104C400001200BE0002009E028688069A1B208403B
:104C5000A1B2884201D1012000E000200028D0D07C
:104C60002FE0FFE712E0701C80B12EB1FEF75EFA74
:104C7000A0EB0800B04209D9012085F8350000BF3B
:104C8000002085F8340000BF0320CCE7C4F30740C0
:104C900001280AD128684069A1B20840A1B288421F
:104CA00001D101200BE0002009E028688069A1B251
:104CB0000840A1B2884201D1012000E00020002874
:104CC000D1D10020AFE72DE9F04104460D4616464C
:104CD0000027FEF72BFA07462DE020684069C0F355
:104CE0008020B0B12068006840F40070216808603E
:104CF0006FF48060216848610420A063012084F87B
:104D0000350000BF002084F8340000BF0120BDE85A
:104D1000F081701C78B126B1FEF708FAC01BB042D2
:104D200009D9012084F8350000BF002084F8340040
:104D300000BF0320EBE7C5F3074001280AD1206834
:104D40004069A9B20840A9B2884201D101200BE014
:104D5000002009E020688069A9B20840A9B2884211
:104D600001D1012000E000200028B6D00020CEE7CD
:104D70002DE9F04704460E461746002E09DB002FAA
:104D800007DBB4F91000B04203DDB4F91200B842F9
:104D900006DCFF2084F84B0084F84A00BDE8F08769
:104DA00054F83C0F00F0C4FB34F82A1C090491FBB2
:104DB000F0F5380490FBF5F0A073A07B684300F594
:104DC00000400014E080E188A07B401C684300F5AF
:104DD0000040C1EB204000B26081A17B206850F808
:104DE0002190484601F05EFA34F82C1C090491FB2E
:104DF000F0F5300490FBF5F0E073E17B484601F0FC
:104E0000EFF9206194F80F803C3C04E094F84B00EB
:104E1000401E84F84B0094F84B00002808DD94F8FD
:104E20004B00411E484601F0DBF9E16C8842EDD0B1
:104E300000BF08F1010080460146484601F0D0F964
:104E4000E16C8842F5D04034E07A684300F50040D8
:104E500000142080218805FB08F000F50040C1EB1C
:104E6000204000B2A080403C00BF97E770B50446E8
:104E70000D461646324629462046FFF779FF94F83C
:104E80004A0094F84810884205D194F84B0094F8F1
:104E90004910884206D0E06940F00200E0612046F7
:104EA00002F08CF870BD2DE9F04104460E4617461D
:104EB0003A4631462046FFF75BFF94F84A00FF2848
:104EC0000CD194F84800FF2806D0E06940F00200B9
:104ED000E061204602F072F8BDE8F081FF2084F81E
:104EE0004B0084F84A00E06C202846D2A06B016891
:104EF000E06C401E00EB400001EB8005287A00F0DA
:104F0000020070B1A06B4068697A50F82100E0633C
:104F1000E06920F00300E061E06940F00100E06139
:104F20001FE0287A00F0040050B1A06B4068697A55
:104F300050F82100E063E06920F00300E06110E038
:104F4000207F00F0010040B1A06B40680068E06382
:104F5000E06920F00300E06103E0E06940F0020056
:104F6000E061686828B16868007810B1204600F0F8
:104F70009BFD204602F022F8AEE7207F00F0010002
:104F800040B1A06B40680068E063E06920F0030076
:104F9000E06103E0E06940F00200E061204600F0DB
:104FA00083FD204602F00AF800BF95E72DE9F8439B
:104FB00004460D4616461F46DDE908984FF440307A
:104FC0001049486000210F488160C0F80C900E48DD
:104FD0000C4908600846FDF711FB80B921460948D5
:104FE000FDF77EFA58B933462A46414605480097F0
:104FF000FDF7B9FB18B90A210248FDF731FBBDE8FE
:10500000F8830000D855002000B00240F0B500231E
:10501000002400258E880768FF68C7F30B473E44CD
:10502000330406688436802707FB0266766806F438
:105030007047066884364FF0800C0CFB0266776080
:105040000E680768FF68C7F30B473E44761C1E4393
:10505000076884370CFB02777E608E890768FF68DB
:10506000C7F30A073E44330406688436802707FBEB
:105070000266B66806F47047066884360CFB026662
:10508000B7608E680768FF68C7F30A073E44761C5E
:105090001E43076884370CFB0277BE6006688436BF
:1050A000802707FB0266366926F007070668843604
:1050B0000CFB026637610F69066884360CFB0266DA
:1050C00037613126765C33023226765C34040E7EFC
:1050D000350606688436802707FB0266B669002716
:1050E000066884360CFB0266B76191F830601E4397
:1050F00026432E43076884370CFB0277BE6106689F
:105100008436802707FB0266766926F0FF0706686B
:1051100084360CFB026677614F69066884360CFBA7
:105120000266776106688436802707FB0266F769A6
:1051300040F20776B743066884360CFB0266F761D7
:10514000D1E907673E43076884370CFB0277FE61AD
:1051500006688436802707FB0266B66A0027066861
:1051600084360CFB0266B7624F6A066884360CFB15
:105170000266B7620E690EB9042313E00E69012EB0
:1051800001D103230EE00E69042E08D00E69022E11
:1051900005D00E69032E02D00E69072E01D102231D
:1051A00000E0012306688436802707FB0266F66A62
:1051B00006F0E027066884364FF0800C0CFB026690
:1051C000F762D1E90076F61B5E43F71C0E8D5E4355
:1051D00047EA0647066884360CFB0266F7620668F3
:1051E0008436802707FB0266366BF70AFF020668E3
:1051F00084360CFB02663763CF6A066884360CFB84
:105200000266376306688436D701F65946F001070F
:10521000066884364FEAC21C46F80C70F0BD70B5C3
:10522000044602E0284604F0ADFA04F1480004F018
:1052300005FB0500F6D1204601F0AAFC70BD2DE962
:10524000F041044688461746A4F838806787A78748
:10525000207F00F0080008B1BDE8F0810021206A3D
:1052600002F07DFF801C06B2608A801E05B2B4F990
:1052700010001238404567DC95FBF6F0216C88423F
:1052800004DB207F00F0040000285DD0142F0EDA2C
:10529000606C002857DD606C801B6064606C0028C7
:1052A00001DA00206064204601F088FE4BE0B4F98A
:1052B00012001438B84216DCD4E910017043401BC8
:1052C000814240DA606C30446064D4E9100170437C
:1052D000401B814203DD206C7043401B606420460C
:1052E00001F06CFE2FE0B4F9120000EBD071B7EBC7
:1052F000610F0FDA606C002825DD606CA84203DDC9
:10530000606C401B606401E000206064204601F096
:1053100055FE18E0D4E910017043401B814212DAB7
:10532000206C7043022101FB1500616C884203DD93
:10533000606C2844606403E0206C7043401B606430
:10534000204601F03BFE87E73A464146204600F002
:105350003CF800BF80E72DE9F04104468846154639
:10536000207F00F0080008B9BDE8F081B4F93C00E6
:10537000A84228D0676C0021206A02F0F0FE861C4B
:10538000B4F93C10691A606C401A6064206C704378
:10539000B4F91210891E401A616C884207DC206C37
:1053A0007043B4F91210891E401A401E6064606C8C
:1053B000002801DA00206064A587606CB84202D042
:1053C000204601F0FBFD00BFCEE72DE9F047054682
:1053D0008A4690460021286A02F0C1FE801C0FFA1E
:1053E00080F9686C404490FBF9F6002E02DB286CD3
:1053F000B04201DCBDE8F087AC6C002717E0287FE5
:1054000000F0010030B1BE420FD1A08880F0010051
:10541000A0800EE0BE4204D1A08840F00100A08030
:1054200003E0A08820F00100A08024687F1C002CED
:10543000E5D100BF284601F0C1FD3146284608F0FD
:1054400041F800BFD6E770B504460D461646207FEA
:1054500000F0080000B970BDB4F93820511B0029D4
:1054600001DB0A4600E04A42042A09DCB4F93A208A
:10547000901B002801DB024600E04242042A00DDC6
:10548000E9E7324629462046FFF79FFF00BFE2E7E3
:105490002DE9F04107460C4614B10020BDE8F0812B
:1054A000FBF7C0F985B2FBF7B7F986B2294630465B
:1054B000FBF7B8FE08B90120F0E70020EEE770B571
:1054C000054600216D2003F0E3FA044610E0606811
:1054D000807800F0020018B1207C00F0400010B18C
:1054E0002046FCF7F1FD21466D2003F0D1FA044679
:1054F000002CECD170BD000002480068C0F302200F
:10550000704700000CED00E010B5002807DA0A072C
:10551000140E054A00F00F031B1FD45403E00A07C2
:10552000130E024A135410BD18ED00E000E400E031
:105530000146002000E0401C08C9002BFBD1704749
:1055400010B504462046FDF7CFFC10BD70B50546EA
:105550000C46D2490020FCF755FCD1490320FCF74A
:1055600051FCD0490020FCF74DFCCF490220FCF74C
:1055700049FCCC490020FCF745FCCC490020FCF755
:1055800041FC0A20FFF7DCFFC9490020FCF73AFC88
:10559000C8490020FCF736FC0A20FFF7D1FFC649B6
:1055A0000020FCF72FFCC5490020FCF72BFCC44968
:1055B0000020FCF727FCC3490020FCF723FCC2496C
:1055C0000020FCF71FFCC1490020FCF71BFCB3497D
:1055D0000020FCF717FCBE490020FCF713FCBD4976
:1055E0000020FCF70FFCBC490020FCF70BFCBB497A
:1055F0000020FCF707FCBA490020FCF703FCB9497E
:105600000020FCF7FFFBB8490020FCF7FBFBB74983
:105610000020FCF7F7FBAB490020FCF7F3FB9F49A8
:105620000020FCF7EFFBB2490220FCF7EBFBB1498D
:105630000020FCF7E7FBB0490020FCF7E3FBAF4993
:105640000020FCF7DFFBAE490020FCF7DBFBAD4997
:105650000020FCF7D7FBAC490020FCF7D3FB9D49A9
:105660000020FCF7CFFBA9490020FCF7CBFB9B49AE
:105670000020FCF7C7FBA6490020FCF7C3FBA549A7
:105680000020FCF7BFFBA4490220FCF7BBFB8549C7
:105690000020FCF7B7FBA1490620FCF7B3FBA049AB
:1056A0000020FCF7AFFB9F490E20FCF7ABFB9E49A7
:1056B0000020FCF7A7FB9D490E20FCF7A3FB9C49AB
:1056C0000020FCF79FFB9B490A20FCF79BFB9A49B3
:1056D0000020FCF797FB99490020FCF793FB7149E8
:1056E0000020FCF78FFB96490A20FCF78BFB9549BD
:1056F0000020FCF787FB94490F20FCF783FB8849C7
:105700000020FCF77FFB91490F20FCF77BFB8649CB
:105710000020FCF777FB8E490A20FCF773FB8449D5
:105720000020FCF76FFB8B490F20FCF76BFB8249D5
:105730000020FCF767FB88490F20FCF763FB8749D3
:105740000020FCF75FFB86490A20FCF75BFB8549DC
:105750000020FCF757FB84490A20FCF753FB514912
:105760000020FCF74FFB81490A20FCF74BFB7549F1
:105770000020FCF747FB7E490F20FCF743FB6849FC
:105780000020FCF73FFB7B490F20FCF73BFB664901
:105790000020FCF737FB78490A20FCF733FB64490B
:1057A0000020FCF72FFB75490F20FCF72BFB62490B
:1057B0000020FCF727FB72490F20FCF723FB45492B
:1057C0000020FCF71FFB6F490020FCF71BFB6E4914
:1057D0000020FCF717FB6D490020FCF713FB2F4955
:1057E0000020FCF70FFB6A490320FCF70BFB2B4959
:1057F0000020FCF707FB29490020FCF703FB654963
:105800001020FCF7FFFA25490020FCF7FBFA62495B
:105810001020FCF7F7FA61490020FCF7F3FA782032
:10582000FFF78EFE35B1022D09D15D490020FCF74E
:10583000E9FA05E05B490020FCF7E4FA00E000BF6C
:1058400000BF012C0BD158490020FCF7DBFA574967
:105850000420FCF7D7FA56490420FCF7D3FA55493F
:105860000020FCF7CFFA54490020FCF7CBFA53494B
:105870000020FCF7C7FA52490020FCF7C3FA51494F
:105880000020FCF7BFFA05490020FCF7BBFA4E499F
:105890000020FCF7B7FA002070BD0000A3F4000858
:1058A00074F30008A5F4000878F30008A7F40008D2
:1058B000A9F40008ABF40008ADF40008AFF4000848
:1058C000B1F40008B3F40008B5F40008B7F4000818
:1058D000B9F40008BBF40008BDF40008BFF40008E8
:1058E000C1F40008C3F40008C5F40008C7F40008B8
:1058F0009DF30008C9F40008CBF40008CDF40008BB
:10590000CFF40008D1F40008D3F40008D5F400085F
:10591000D7F40008D9F40008A0F30008A3F30008A6
:10592000DBF40008AAF30008DDF40008B9F300086E
:10593000DFF40008C8F30008E1F40008FDF40008F3
:10594000D3F30008E3F40008DEF30008EEF30008E8
:10595000FEF3000809F4000819F40008E5F4000853
:1059600029F40008E7F4000834F400083FF40008C4
:105970004AF400085AF400086AF4000875F40008B4
:1059800085F40008FFF4000801F5000803F500089D
:1059900095F400087BF300088CF30008E9F4000894
:1059A000EBF40008EDF40008EFF4000899F40008A7
:1059B0009EF40008F1F40008F3F40008F5F4000880
:1059C000F7F40008F9F40008FBF4000870470146FA
:1059D000D1E90220D268904201DB0120704700200B
:1059E000FCE710B50446204600F010F808B101208D
:1059F00010BD0020FCE770B50446204600F006F814
:105A0000050001D1401E70BDE868FCE770B5054691
:105A1000094804680BE02088002807DC608828B962
:105A20002946A068FAF7F0FD00B902E06468002C8E
:105A3000F1D100BF204670BD0801002001468868F2
:105A4000C068704770B504460D462846FFF7DEFF74
:105A5000060000D170BDA6600120FBE72DE9F041F2
:105A600004460F461546A668F068E168401AA84249
:105A700002DAF068E168451A002D02DC0020BDE87A
:105A8000F0813069E26881182A463846FAF71DFD30
:105A90002846F4E702469068C068884201DB01208E
:105AA00070470020FCE7000070B50446002503E0C5
:105AB0002146284600F016F829460948006803F0F8
:105AC0001BFD0500F4D100BF03E02146284600F08D
:105AD00009F82946204603F00FFD0500F5D170BDF9
