:020000040800F2
:1000000048F0032059040008610400086304000854
:100010006504000867040008690400080000000087
:10002000000000000000000000000000290300089C
:100030006D04000800000000E1030008450400080A
:1000400073040008730400087304000873040008B4
:1000500073040008730400087304000873040008A4
:100060007304000873040008730400087304000894
:100070007304000873040008730400087304000884
:100080007304000873040008730400087304000874
:100090007304000873040008730400087304000864
:1000A0007304000873040008730400087304000854
:1000B0007304000873040008730400087304000844
:1000C0007304000873040008730400087304000834
:1000D0007304000873040008730400087304000824
:1000E0007304000873040008730400087304000814
:1000F0007304000873040008730400087304000804
:1001000073040008730400087304000873040008F3
:1001100073040008730400087304000873040008E3
:1001200073040008730400087304000873040008D3
:1001300073040008730400087304000873040008C3
:1001400073040008730400087304000873040008B3
:1001500073040008730400087304000873040008A3
:100160007304000873040008730400087304000893
:100170007304000873040008730400080000000002
:100180007304000873040008730400087304000873
:100190007304000873040008730400087304000863
:1001A0007304000873040008730400087304000853
:1001B0007304000800F002F800F061F80AA090E86B
:1001C000000C82448344AAF10107DA4501D100F012
:1001D00056F8AFF2090EBAE80F0013F0010F18BF7E
:1001E000FB1A43F001031847408F0400608F04009E
:1001F0000A444FF0000C10F8013B13F0070408BF4D
:1002000010F8014B1D1108BF10F8015B641E05D0EA
:1002100010F8016B641E01F8016BF9D113F0080F9F
:100220001EBF10F8014BAD1C0C1B09D16D1E58BF31
:1002300001F801CBFAD505E014F8016B01F8016B68
:100240006D1EF9D59142D6D37047000000230024DB
:1002500000250026103A28BF78C1FBD8520728BFD6
:1002600030C148BF0B607047642900F0D98100207D
:1002700070471FB51BF07DFD1FBD10B510BD00F010
:10028000C3FB1146FFF7F5FF0FB400F00BF80FBCEE
:1002900018F03AFC00F000FA03B4FFF7EEFF03BCDD
:1002A00000F0ACFB04B018F035FE0448002118F053
:1002B000FDFE18F041FE00F0EFF90000508D04083B
:1002C00080F309887047EFF309807047684680F330
:1002D000098804480078C00714BF0220032080F377
:1002E00014887047108D0408DFF818C0EFF30583F9
:1002F0001B0618BF6047EFF31483DB0708BF604796
:1003000000DF704715970108DFF818C0EFF3058389
:100310001B0618BF6047EFF31483DB0708BF604775
:1003200000DF7047F9980108EFF30980816911F83F
:10033000021CE1BB90E80F1010B5E047BDE810408B
:10034000EFF3098C8CE80700214B93E806009142FB
:1003500008BF704741B91EF0100F16D11D4908683B
:1003600020F00100086010E01EF0100F06BF2CED19
:10037000108A0120002081F825002CE9F00FC1F837
:1003800028C00CB419F008FF0CBC1A60D2F828C0C1
:10039000BCE8F00F92F8250000280EBF6FF0020EA7
:1003A0006FF0120EBCEC108A8CF30988704710B500
:1003B000094A1268914209D8084C54F8214090E843
:1003C0000F10A047EFF3098C8CE80F0010BD000060
:1003D000EC02002034EF00E0540A0008540A000840
:1003E00010B519F061FDBDE81040154B93E806000B
:1003F000914208BF7047EFF3098C1EF0100F06BF43
:100400002CED108A0120002081F825002CE9F00F46
:10041000C1F828C00CB419F0BFFE0CBC1A60D2F8A9
:1004200028C0BCE8F00F92F8250000280EBF6FF03E
:10043000020E6FF0120EBCEC108A8CF30988704724
:10044000EC02002010B519F06FFFCCE710B518F0E2
:100450009FFE19F069FFC6E7094880470948004731
:10046000FEE7FEE7FEE7FEE7FEE7FEE7FEE7FEE764
:10047000FEE7FEE704480549054A064B70470000C1
:1004800031810008B501000848EA032048F0032044
:1004900048EC032048EC032000487047E4E90320BF
:1004A00053EA020C00F069802DE9F04B4FF0000692
:1004B000002B1FBFB3FA83F503FA05F424FA05F6FF
:1004C0005E4012BF1643B2FA82F502FA05F4C5F196
:1004D00020051EBF22FA05FC44EA0C04203556EA2A
:1004E000044C4FEA144418BF641C4FF000084FF04E
:1004F0000009904271EB030C39D3002919BFB1FAFE
:1005000081F701FA07F6B0FA80F700FA07F6C7F1AB
:1005100020071EBF20FA07FC46EA0C062037B6FB70
:10052000F4FCA7EB0507103F07F01F0BCBF12006EB
:100530000CFA0BFB2CFA06F644BFB3460026202F1C
:10054000A4BF5E464FF0000B5BEA060C08BF4FF0FD
:10055000010B19EB0B09ABFB027C48EB0608C01B37
:1005600006FB02CC0BFB03CC71EB0C01C1E70B4685
:10057000024641464846BDE8F08B13B54FF00000F7
:100580004FF00001AFF30080BDE81C407047000051
:100590000FB41CB5074B06AA7B446946009005982A
:1005A00000F011FA0020694600F020FA1CBC5DF84A
:1005B00014FB0000510400002DE9F0410E460446F2
:1005C000002020622046E168884730B3252805D006
:1005D000D4E901219047206A401CF2E7E1682046F7
:1005E00000278847050018D0A5F14100192802D836
:1005F00020354FF400673246294620462760FFF732
:1006000033FE40B1012804D0F61D26F00706083657
:10061000D8E7361DD6E72846DAE7206ABDE8F0813C
:100620002DE9F0410646002410687529314616A5CB
:1006300010D0AFF30080002802DA404213A507E093
:1006400031688A0701D512A502E0490704D511A532
:10065000012401E0AFF3008000210A2206F1240703
:1006600009E0B0FBF2FCB0FBF2F302FB1C003030FF
:1006700078541846491C0028F3D123462A463046B0
:10068000BDE8F04100F040B9000000002D0000007E
:100690002B0000002000000010B50446AFF30080DE
:1006A0002046BDE81040FFF7F7BD40EA01030246CF
:1006B00030B59B0710D14FF0013400E008C208C9E3
:1006C0001D1B9D4315EAC41FF8D013F0FF0102F86B
:1006D000011B0DD01B0AF8E711F8013B002B02F8B3
:1006E000013B05D011F8013B002B02F8013BF3D18F
:1006F00030BD10B5431C02E010F8011B71B1810739
:10070000FAD14FF0013202C88C1A8C4314EAC2119C
:10071000F9D0C01A0A0603D0C01E10BDC01A10BD01
:100720000A0401D0801E10BD0902FCD0401E10BD7D
:10073000032A40F2308010F0030C00F0158011F80D
:10074000013BBCF1020F624498BF11F801CB00F8E5
:10075000013B38BF11F8013BA2F1040298BF00F839
:1007600001CB38BF00F8013B11F0030300F02580F6
:10077000083AC0F0088051F8043B083A51F804CB1D
:10078000A0E80810F5E7121D5CBF51F8043B40F8E3
:10079000043BAFF30080D20724BF11F8013B11F8EE
:1007A00001CB48BF11F8012B24BF00F8013B00F832
:1007B00001CB48BF00F8012B704710B5203AC0F0BC
:1007C0000B80B1E81850203AA0E81850B1E8185052
:1007D000A0E81850BFF4F5AF5FEA027C24BFB1E88F
:1007E0001850A0E8185044BF18C918C0BDE8104000
:1007F0005FEA827C24BF51F8043B40F8043B08BF09
:100800007047D20728BF31F8023B48BF11F8012BCF
:1008100028BF20F8023B48BF00F8012B70474FF07B
:10082000000200B5134694469646203922BFA0E840
:100830000C50A0E80C50B1F12001BFF4F7AF09074C
:1008400028BFA0E80C5048BF0CC05DF804EB89003D
:1008500028BF40F8042B08BF704748BF20F8022B80
:1008600011F0804F18BF00F8012B70474FF0013C8A
:1008700050F8042B51F8043B9A4221D1A2EB0C030F
:10088000934313EACC1317D150F8042B51F8043BCF
:100890009A4215D1A2EB0C03934313EACC130BD16C
:1008A00050F8042B51F8043B9A4209D1A2EB0C03F7
:1008B000934313EACC13DBD04FF00000704700BF26
:1008C000D01A01BAB1FA81F101F0180122FA01F04F
:1008D000CB40C1F12001DBB2C0B2C01A2CFA01F347
:1008E000D11A914311EAC311E6D17047704770479E
:1008F000704710B500F07FF8006810BD10B50446D1
:1009000000F079F8046010BD2DE9F0470D469946D6
:100910009246044600F124080168880604D5E0697F
:1009200021F01001216000E00120A84201DD471BF9
:1009300000E00027A1697A1902EB0900081AA061FA
:100940002078C00602D42046AFF30080002608E0DD
:10095000D4E901211AF806009047206A401C761C51
:1009600020624E45F4DB2078C0060AD52046AFF35E
:10097000008006E0D4E9012130209047206A401C25
:100980002062381EA7F10107F4DC07E0D4E9012159
:1009900018F805009047206A401C2062281EA5F127
:1009A0000105F3DC2046AFF300802078000602D575
:1009B0000220BDE8F0870120FBE7000001694A1C26
:1009C00002610878704700B58FB0CDE90131002190
:1009D000059105497944CDE9031011466846FFF7B2
:1009E000EBFD0FB000BD0000E5FFFFFF0A6802F855
:1009F000010B0A60704708F0D3BD000001491820C0
:100A0000ABBEFEE7260002007546FFF745FDAE4689
:100A100005006946534620F00700854618B020B50A
:100A2000FFF728FDBDE820404FF000064FF000071B
:100A30004FF000084FF0000B21F00701AC46ACE886
:100A4000C009ACE8C009ACE8C009ACE8C0098D46F3
:100A5000704770470000000010B504460020208554
:100A60006085204609F034FB94F82D0084F82C00B2
:100A700010BD00007CB5044600F098F8054600F073
:100A80008FF806460020CDE900040848006800EB16
:100A9000800202EBC002064800EB82002B46324681
:100AA000416A0248006805F097FD7CBD8002002085
:100AB000D45A002008B500200090044828231522AD
:100AC0000168034802F08FFE08BD0000F0590020C5
:100AD000445B002008B5002000900448292315221B
:100AE0000168034802F07FFE08BD0000F0590020B5
:100AF000445B002030B5034600F052F801FB0030A3
:100B000084000648006800EB800505EBC00504483A
:100B100000EB8500406A025130BD000080020020D9
:100B2000D45A00202DE9FC4704460D4616461F46C0
:100B300000BF1849096801EB4101174A52F821002A
:100B400000F0E0FA00F02CF800FB054111480068C5
:100B500000EB800202EBC002104800EB8200406A0A
:100B6000042202FB010800F01BF8A0EB060909486B
:100B7000006800EB4000084951F820003B4632462F
:100B80004146CDE900900348006805F025FDBDE829
:100B9000FC87000080020020605B0020D45A002007
:100BA0000148006870470000780200200148006892
:100BB000704700007C0200202DE9F04F87B080468E
:100BC00046F62539002600F02DFA00F02BF968488A
:100BD00068490860084602F0A5FC7D2004900220C8
:100BE0000590002006904FF2244601216148C16023
:100BF00043F60450B6FBF0F15E48816004A902F0B0
:100C0000C9FCB8F1000F0FD14FF00C0A0C20039073
:100C10008346782478257827A000574908604FF448
:100C20004870564908600EE04FF00C0A0C20039003
:100C300083467824782578274FF448704E49086019
:100C4000A0004E4908604C48006801904B4800687D
:100C5000029000204A49086048600862C861486202
:100C60000220C86040F6FF7088610020486101984A
:100C7000086104FB06F0B0FBF9F0886205FB06F0A2
:100C8000B0FBF9F0C862019820442844384470430E
:100C9000B0FBF9F008630846C0F834A003988863F5
:100CA0000846C0F83CB0029808644FF4004048641D
:100CB00040208864C864C001086540104865401041
:100CC00088654010C865401008664010486629488D
:100CD00002F0C0FA274802F0BFFD601E29494861B2
:100CE0006019401EC8612448006820442844401E02
:100CF000486221480068204428443844401EC862A5
:100D00001D4801681F4801661C4801681D4841666E
:100D100008201D4908604FF4C070086107211A4877
:100D2000C161002018498862084603F0F3FB0021E6
:100D3000144880F8341080F8351080F836100161BE
:100D40001248104908600E490E4803F06AFA0D482F
:100D500003F0D2F900F0E2F90D4800F09DF90849DE
:100D60004868414605F0ECFE002007B0BDE8F08F72
:100D7000006C0140445B0020780200207C020020CF
:100D8000F05900209C5A0020785B00200068014048
:100D90005002002030B58DB004460D460020009072
:100DA000FFF7FEFE019000200290FFF7FFFE039088
:100DB000002004900995FF200590002006908DF8F2
:100DC000300000218DF831108DF832104FF4C060E2
:100DD000079007200890FFF7E3FE0A90FFF7E6FE72
:100DE0000B90224669460C4803F056F94FF0FF304D
:100DF00004EB4401094A02EB81014860084804EB16
:100E0000440102EB810188604FF07F4004EB440114
:100E100042F821000DB030BD9C5A0020605B0020DC
:100E20005002002008B500BF00200090374800683D
:100E300040F08060354908600846006800F0806036
:100E4000009000BF00BF31482038006840F080604B
:100E50002E49203908600846006820F0806008604C
:100E600000BF0020009029481438006840F40000BA
:100E70002649143908600846006800F40000009014
:100E800000BF00BF21483438006840F400001F490B
:100E9000343908600846006820F40000086000BF8C
:100EA000002000901948006840F000601749086071
:100EB0000846006800F00060009000BF00BF1348C3
:100EC0002038006840F0006010492039086008466A
:100ED000006820F00060086000220321582003F021
:100EE000E1F9582003F0CEF9002203215A2003F043
:100EF000D9F95A2003F0C6F9002203215C2003F03F
:100F0000D1F95C2003F0BEF908BD0000443802406E
:100F100030B5024600BF4148006800EB800404EB96
:100F2000C0043F4800EB8400006980B9FFF738FE39
:100F300001FB002044003948006800EB800505EB08
:100F4000C005374800EB8500406A035963E0334829
:100F5000006800EB800404EBC004314800EB84001F
:100F60000069012812D1FFF71BFE01FB002044009D
:100F70002A48006800EB800505EBC005284800EB17
:100F80008500406A005920F07F4344E02348006810
:100F900000EB800404EBC004214800EB84000069EE
:100FA000022817D01D48006800EB800404EBC00441
:100FB0001B4800EB8400006904280BD01748006828
:100FC00000EB800404EBC004154800EB84000069CA
:100FD000072810D1FFF7E4FD01FB002044000F4873
:100FE000006800EB800505EBC0050D4800EB8500AF
:100FF000406A035B0FE0FFF7D3FD01FB00204400D4
:101000000648006800EB800505EBC005044800EBCE
:101010008500406A035D184630BD00008002002054
:10102000D45A002000B587B000BF002001901548B9
:10103000006840F08000134908600846006800F02E
:101040008000019000BF00BF80200290112003901B
:10105000002004900320059002A90B4802F028FC10
:1010600000228021084802F039FD142002F012FC11
:1010700001228021044802F031FD0A2002F00AFC1E
:1010800007B000BD30380240001C02400149086032
:1010900070470000800200200449096801EB41010B
:1010A000034A02EB81018860704700008002002043
:1010B000605B002010B501290CD1114A12688432FE
:1010C000C301D25842F001030D4A12688432C401B0
:1010D00013510BE00A4A12688432C301D25822F03D
:1010E0000103074A12688432C4011351044A12688A
:1010F000526A42F00102024B1B685A6210BD0000A6
:101100009C5A00200349096801EB4101024A42F858
:101110002100704780020020605B002010B51E484F
:101120001E49086002201E4908600720486004200C
:1011300088600720C860022008614861886100203B
:1011400016494860002115488160C1602021016175
:10115000402141614FF4C07181610021C1614FF4B0
:1011600000610162490041620021816200F068F87B
:101170000B490A4803F078FF18B1012009490870AB
:1011800002E000200749087040F2695000F00CF8B6
:101190000448007810BD0000400100A0B45B0020AE
:1011A000E85B00208402002038B50446002000904F
:1011B000012021490860102048600120886000203B
:1011C000C8604FF6FF721D4803F083FF012002F054
:1011D00061FB0220184908601020486001208860E7
:1011E0000020C8604FF6FF72144803F072FF03201E
:1011F0001149086010204860082088600020C860FD
:101200004FF6FF720D4803F064FF4FF40C7000902E
:101210000420094908601020486001208860009877
:10122000C8604FF6FF72054803F053FF214603489C
:1012300003F03BFF38BD0000045C0020B45B0020DD
:1012400030B587B004460D46002C7DD000BF00208D
:1012500001907948006840F001007749086008462D
:10126000006800F00100019000BF00BF00BF002037
:10127000019071480838006840F480006E490839D0
:1012800008600846006800F48000019000BF00BFBD
:1012900000BF002001900846006840F0040008608C
:1012A0000846006800F00400019000BF00BF00BFC6
:1012B000002001900846006840F0080008600846D9
:1012C000006800F00800019000BF00BF00BF0020D0
:1012D00001900846006840F0100008600846006869
:1012E00000F01000019000BF00BF00BF002001907F
:1012F0000846006840F0200008600846006800F0DA
:101300002000019000BF00BF00BF002001900846F0
:10131000006840F0400008600846006800F04000A7
:10132000019000BF00BF00BF002001900846006888
:1013300040F0800008600846006800F080000190DE
:1013400000BF00BF00BF00E074E00020019008462D
:10135000006840F4807008600846006800F48070FF
:10136000019000BF00BF02200390012004900220E2
:1013700005900C2006900120029002A92F4802F04F
:1013800097FA4CF20370029002A92D4802F090FAED
:101390004FF68370029002A92A4802F089FA4FF6AC
:1013A0003F00029002A9284802F082FA48F2331066
:1013B000029002A9254802F07BFA4FF60C700290C9
:1013C00002A9234802F074FA40F2FF60029002A9D9
:1013D000204802F06DFA00201F49486080211E4815
:1013E00081608900C1604900016189004161890013
:1013F00081610021C1614FF400310162002141622D
:10140000032181620021C16201631448124908600E
:1014100000BF08462063846300BF01F075FE0E48DC
:1014200001F0A4FE00220521382002F03BFF382005
:1014300002F028FF07B030BD3838024000080240F3
:10144000000C02400010024000140240001802404C
:10145000001C024000200240145C00201064024086
:1014600030B587B004460D4600BF002001900D48FE
:10147000006840F040000B4908600846006800F032
:101480004000019000BF00BF0420029000200390A4
:10149000012004900320059002A9034802F008FAF5
:1014A00007B030BD30380240001802402DE9FC4141
:1014B00006460F4614461D4632463B460548CDE9D2
:1014C000004503F023FE10B10120BDE8FC8100209F
:1014D000FBE70000D85C002010B504462146024816
:1014E00003F0D1FE10BD0000D85C002010B502480A
:1014F00003F0B8FE10BD0000D85C002010B5002439
:10150000164817490860002048600021144881608F
:10151000C16001614FF48041416100218161FFF7A9
:101520009FFF00F021F8012801D0022010BD00210A
:101530000B4800F029F80B49094804F01BF800B1EA
:10154000012444B94FF40061054804F067F908B17B
:10155000012400E000242046E8E70000002C0140C0
:10156000D85C0020385D002008B5012000900421DF
:10157000044802F0ABFA012801D1002000909DF848
:10158000000008BD0018024030B587B004460D4683
:1015900000BF002001906148006840F400605F498E
:1015A00008600846006800F40060019000BF00BFBA
:1015B00000BF0020019059481438006840F48000B2
:1015C0005649143908600846006800F4800001900C
:1015D00000BF00BF00BF002001900846006840F037
:1015E000040008600846006800F00400019000BF95
:1015F00000BF00BF002001900846006840F00800CE
:1016000008600846006800F00800019000BF00BFB5
:101610000220039001200490032005900C200690E6
:101620004FF4F850029002A93D4802F041F904201D
:10163000029002A93B4802F03BF90022052131202B
:1016400002F030FE312002F01DFE4FF000603649FE
:101650004860002134488160C1604FF480610161BD
:1016600089004161890081612021C1614FF44031CD
:10167000016204214162032181624FF40001C162D1
:101680008910016329482849086000BF0846A06501
:10169000846300BF01F038FD234801F067FD4FF07F
:1016A0000060234948604021214881600021C160D9
:1016B0004FF48061016189004161890081612021CD
:1016C000C1614FF440310162042141620321816212
:1016D0004FF40001C1628910016314484830144975
:1016E000086000BF0846E065846300BF01F00CFDA0
:1016F0000F4801F03BFD002206213B2002F0D2FD05
:101700003B2002F0BFFD00220621452002F0CAFD69
:10171000452002F0B7FD07B030BD0000443802405C
:1017200000080240000C0240905D00205864024016
:10173000F05D00202DE9FC41044615461E46DDE91A
:1017400008782A46334621460548CDE9007803F05B
:1017500060FF10B10120BDE8FC810020FBE7000024
:10176000D85C00202DE9FC41044615461E46DDE903
:1017700008782A46334621460548CDE9007804F02A
:101780008CF810B10120BDE8FC810020FBE70000CF
:10179000D85C00202DE9FC4705464FF000094B4876
:1017A000006801694A48007888472870287800282E
:1017B0007DD0002483E0684600EB440201A800EBE2
:1017C00044014248006843694148007898474148CD
:1017D000007800F0080048B101A830F814603DF826
:1017E000140001A921F814002DF81460394800787C
:1017F00000F0020040B101A830F8140040F21F319F
:10180000081A01A921F814003248007800F00400F9
:1018100038B13DF8140040F2DF11081A80B22DF8FB
:10182000140001A830F814002B4951F82410884204
:1018300007D901A830F81400274951F82410401A9C
:1018400006E0254850F8240001A931F81410401A88
:1018500087B23DF81400214951F82410884206D976
:101860003DF814001D4951F82410401A05E01B48AA
:1018700050F824003DF81410401A1FFA80F807EBC6
:10188000080005280ADD01A830F81400124941F8C3
:1018900024003DF81400114941F824000E4830F8A6
:1018A000240081B2A81C20F814100C4800E00AE0C3
:1018B00030F8240081B2A81D20F81410641C287888
:1018C000A0423FF678AF4846BDE8FC87880200207A
:1018D0008D0200208C020020BC020020C4020020E7
:1018E00070B504460D460026154801681548007875
:1018F0008847134841685420884711281CD1104854
:101900001149086054200F490870AC4203DA0120E5
:101910000E49087002E00C200C4908706EB90A48A4
:101920000068816807480078884707480068C168F0
:1019300004480078884700E00326304670BD000068
:10194000200200208D020020880200208C0200204E
:1019500070B504460D4628790D2802D02879202834
:101960000CD1287B00F0010020B1E06920F00100DB
:10197000E06103E0E06940F00100E061204608F02A
:1019800073FA70BD70B504460D461646E06940F026
:101990000100E061204608F067FA70BD70B50446AA
:1019A0000D461646E06920F00100E061204608F08F
:1019B0005BFA002D09DB002E07DBB4F91000A8420A
:1019C00003DDB4F91200B04200DC70BD4FF41071B9
:1019D000204608F02DFA00BFF7E700002DE9F04F90
:1019E0008FB00446E0A011F0E4FE8346BBF1000F87
:1019F00003D1E0A011F0DDFE8346DFA011F0D9FE97
:101A00008246BAF1000F03D1DAA011F0D2FE82466D
:101A10004FF00009E0690FF03CFD0546E0690FF06A
:101A200031FD064600962B4600221146E06911F072
:101A300002F8208A40F0100020826068807800F070
:101A4000200010B30020ADF82C00ADF82E00681E69
:101A500000B2ADF830000021ADF83210681E00B2BF
:101A6000ADF83400701E01B2ADF83610284605EB13
:101A7000D071491009B2ADF83810304606EBD0717C
:101A800049100AB2ADF83A2040E02846E91705EBC4
:101A90009171891009B2ADF82C103046F11706EBA0
:101AA0009171891009B2ADF82E102846E91705EB9F
:101AB0009171A5EBA10109B2ADF830103046F117D4
:101AC00006EB917189100AB2ADF832202846E91769
:101AD00005EB9171A5EBA10109B2ADF834103046C8
:101AE000F11706EB9171A6EBA1010AB2ADF8362011
:101AF000284605EBD071491009B2ADF838103046D0
:101B000006EBD07149100AB2ADF83A20FF21E06926
:101B10000CF0DBFD0120FF216FF07F42CDE902B226
:101B2000CDE9041097A01E21CDE900102B46052217
:101B30000021E0690FF0FCFB6068807800F0400055
:101B400008B1042000E003200690002752E00BA813
:101B500000EB8701204600F043FB00BF02E01420A9
:101B600017F0CCF9A07B00F001000028F7D000208E
:101B700080460490059011E0B8F1FA0F0BD2B4F949
:101B80000810059808440590B4F90A100498084410
:101B9000049008F10108142017F0B0F9A07B00F0C0
:101BA00001000028E8D1B8F10F0FD7D30598B0FB9A
:101BB000F8F000B207A921F827000498B0FBF8F06C
:101BC00000B201EB870148800BA800EB870003906F
:101BD000FF201F21CDE90010039B5B880F3B1AB249
:101BE000039B1B880F3B19B21F23E0690FF0B4FA67
:101BF00000BF7F1C06988742A9D307AA0BA92046DD
:101C000000F0D2F86068807800F0400000287BD0B7
:101C1000207C00F0200010B16068223001E0606894
:101C20001C30074604F120010AA800F0B1FB6068EF
:101C3000807800F0040098BBE0690FF027FC38B111
:101C40005A2806D0B42810D0B0F5877F29D11BE0E0
:101C500028E0BDF92820681EBDF82A10401A00B2FD
:101C6000ADF82800ADF82A201CE0681EBDF8281049
:101C7000401A00B2ADF82800701EBDF82A10401AB4
:101C800001B2ADF82A100DE0BDF92A20701EBDF892
:101C90002810401A01B2ADF82A10ADF8282001E052
:101CA00002E000BF00BF00BFBDF92800BDF9381039
:101CB000411A4943BDF92A20BDF93A00121ABDF96B
:101CC0002A30181A02FB0019388810FB00F048452A
:101CD00017D201202E494FF47F02CDE902A2CDE9AF
:101CE00004102CA02821CDE900102B46232200212E
:101CF000E0690FF01DFB40F6B83017F0FFF802E086
:101D000002E04FF0000900BF58460CF026FC504698
:101D10000CF023FC208A20F010002082208A40F062
:101D200004002082B9F1000F0DD1208A40F0080094
:101D300020826068406B30B16068182204F1200195
:101D4000436B204698470021E181204600F044FE85
:101D500014F0C4F907463946E0690CF0B6FC484671
:101D60000FB0BDE8F08F00002A20446F75626C65EB
:101D7000000000002A0000002A204E6172726F7776
:101D80000000000043616C6962726174696F6E00EB
:101D900000FFFF0043616C6962726174696F6E20BD
:101DA0004661696C65642100F0B506460B46B3F9DF
:101DB0000070B3F90450B3F908407068807800F0FF
:101DC0000400002837D1F0690FF060FB5A2805D0D5
:101DD000B4280AD0B0F5877F2BD118E0B3F9027090
:101DE000B3F90650B3F90A4024E0F0690FF051FB53
:101DF000401E00B20446054607461888381A07B246
:101E00009888281A05B21889201A04B212E0F069DD
:101E10000FF038FB401E00B20446054607465888BE
:101E2000381A07B2D888281A05B25889201A04B27D
:101E300000E000BF00BFB2F90000B2F90810401A7C
:101E400000EE900AB8EEE01AB2F90610B2F90A00F4
:101E5000081A00EE900AF8EEE00A61EE200AB2F9E4
:101E60000400B2F90810401A01EE100AF8EEC11A87
:101E7000B2F90210B2F90A00081A01EE100AB8EE1F
:101E8000C11AB0EE600A01EEC10AB2F90610B2F949
:101E90000A00081A00EE900AB8EEE01A381B00EEAD
:101EA000900AF8EEE00A61EE200AB2F90210B2F9E7
:101EB0000A00081A01EE100AF8EEC11A281B01EEFA
:101EC000100AB8EEC11A41EE610A80EE801A86ED62
:101ED000081AB2F90000B2F90810401A00EE900A90
:101EE000B8EEE01A281B00EE900AF8EEE00A61EE68
:101EF000200AB2F90400401A01EE100AF8EEC11AE5
:101F0000381B01EE100AB8EEC11A41EE610A80EEEC
:101F1000801A86ED091AB2F9040000EE900AB8EEB4
:101F2000E01AB2F90A0000EE900AF8EEE00A21EE9B
:101F3000201AB2F9080000EE900AF8EEE01AB2F9A1
:101F4000060000EE900AF8EEE00A01EEE01A00EE5C
:101F5000907AF8EEE00A21EE201AB2F9000000EEC5
:101F6000900AF8EEE01AB2F90A0000EE900AF8EED4
:101F7000E00A61EEA01AB2F9080000EE900AB8EE8D
:101F8000E02AB2F9020000EE900AF8EEE00A42EE12
:101F9000601A00EE905AB8EEE02AF0EE410A42EEE6
:101FA000610AB2F9000001EE100AF8EEC11AB2F9A6
:101FB000060001EE100AB8EEC11A61EE811AB2F9FC
:101FC000040001EE100AB8EEC12AB2F9020001EED7
:101FD000100AB8EEC11A42EE411A01EE104AB8EEEC
:101FE000C11A41EE210A80EE801A86ED0A1AB3F971
:101FF0000270B3F90650B3F90A407068807800F0B7
:102000000400002837D1F0690FF040FA5A2805D0B3
:10201000B42815D0B0F5877F2BD123E0F0690FF0FD
:1020200038FA401E00B20446054607461888381A9A
:1020300007B29888281A05B21889201A04B219E044
:10204000F0690FF01FFA401E00B20446054607462D
:102050005888381A07B2D888281A05B25889201A21
:1020600004B207E0B3F90070B3F90450B3F90840C3
:1020700000E000BF00BFB2F90610B2F90A00081A6A
:1020800000EE900AB8EEE01A381B00EE900AF8EE67
:10209000E00A61EE200AB2F90210B2F90A00081A49
:1020A00001EE100AF8EEC11A281B01EE100AB8EE74
:1020B000C11A41EE610A80EE801A86ED0B1AB2F960
:1020C0000000B2F90810401A00EE900AB8EEE01ACB
:1020D000281B00EE900AF8EEE00A61EE200AB2F941
:1020E0000400401A01EE100AF8EEC11A381B01EE86
:1020F000100AB8EEC11A41EE610A80EE801A86ED30
:102100000C1AB2F9040000EE900AB8EEE01AB2F927
:102110000A0000EE900AF8EEE00A21EE201AB2F969
:10212000080000EE900AF8EEE01AB2F9060000EEA0
:10213000900AF8EEE00A01EEE01A00EE907AF8EE6E
:10214000E00A21EE201AB2F9000000EE900AF8EE43
:10215000E01AB2F90A0000EE900AF8EEE00A61EE29
:10216000A00AB2F9080001EE900AB8EEE12AB2F92D
:10217000020001EE900AF8EEE12AF0EE601A42EE5B
:10218000621A00EE905AB8EEE02AF0EE410A42EEF2
:10219000610AB2F9000001EE100AF8EEC11AB2F9B4
:1021A000060001EE100AB8EEC11A61EE811AB2F90A
:1021B000040001EE100AB8EEC12AB2F9020001EEE5
:1021C000100AB8EEC11A42EE411A01EE104AB8EEFA
:1021D000C11A41EE210A80EE801A86ED0D1AF0BD7B
:1021E0007CB505460C466FF07F41B4F90200CDE99D
:1021F00000012688B61E33B2B4F9022026880F3EAD
:1022000031B2E8690DF054FA6FF07F41B4F9020081
:10221000CDE9000126880F3633B2B4F902202688B2
:10222000B61C31B2E8690DF043FA6FF07F41608867
:10223000801E00B2CDE90001B4F9003066880F3E7F
:1022400032B21946E8690DF033FA6FF07F416088C9
:102250000F3000B2CDE90001B4F900306688B61C39
:1022600032B21946E8690DF023FA484960880F3008
:1022700000B2CDE900012688F61F33B266880F361A
:1022800032B226880F3E31B2E8690DF011FA3F49AB
:1022900060880F3000B2CDE9000126880F3E33B2CE
:1022A0006688F61D32B226880F3E31B2E8690DF01D
:1022B000FFF9364960880F3800B2CDE90001268861
:1022C000F61F33B266880F3E32B226880F3E31B217
:1022D000E8690DF0EDF92D4960880F3800B2CDE9BD
:1022E000000126880F3E33B26688F61F32B2268878
:1022F0000F3E31B2E8690DF0DBF9244960880F30F8
:1023000000B2CDE9000126880F3633B266880F3659
:1023100032B22688F61D31B2E8690DF0C9F91B49C1
:1023200060880F3000B2CDE9000126880F3633B245
:102330006688F61D32B226880F3631B2E8690DF094
:10234000B7F9124960880F3800B2CDE9000126883C
:102350000F3633B266880F3E32B22688F61D31B290
:10236000E8690DF0A5F909496088C01F00B2CDE900
:10237000000126880F3633B266880F3E32B22688B7
:102380000F3631B2E8690DF093F97CBD839EB80039
:1023900010B5D1ED000AB0F9004000EE104AB8EED9
:1023A000C00A20EE800A91ED011AB0F9024000EE59
:1023B000904AF8EEE00A01EE200AD1ED020A30EE72
:1023C000200ABDEEC00A10EE104A22B2D1ED030A77
:1023D000B0F9004000EE104AB8EEC00A20EE800AC4
:1023E00091ED041AB0F9024000EE904AF8EEE00ACE
:1023F00001EE200AD1ED050A30EE200ABDEEC00A3A
:1024000010EE104A23B20280438010BD0146087FBF
:1024100000F0010008B1022070470020FCE7000036
:102420002DE9F0470C4616461F46DDF820C04FF058
:1024300000080025002100220023D0F80090D9F8E0
:10244000449009F0404ADFF8DC9099FAA9F9B9FA0A
:1024500089F907FA09F949EA0C094AEA090AD0F8A0
:102460000090C9F844A0D0F80090C9F83C60D0F8BA
:102470000490B9F5403F4ED104F07F4504F47F014C
:1024800004F47F42E3B2D0F80890B9F1000F06D10E
:1024900042EA010949EA050949EA030836E0D0F8A9
:1024A0000890B9F1010F04D142EA010949EA030891
:1024B0002CE0D0F80890B9F1020F09D1C90C920AAA
:1024C000DB084FEA421949EAC12949EA03081DE03D
:1024D000D0F80890B9F1030F0CD1ED0FC90CD20A56
:1024E000DB084FEA421949EA812949EAC53949EA34
:1024F00003080BE02D0F090D120B1B094FEA0219FF
:1025000049EA012949EA053949EA0308D0F8009067
:10251000C9F8388003E0D0F80090C9F80C40BDE855
:10252000F08700000000FF3F0146087810381823AC
:10253000B0FBF3F20848805CC865032A05D9086837
:102540006FF30900001D886503E008686FF3090058
:102550008865886D70470000608D04080146002082
:102560008A6A8B6903BB32B1012A0CD0022A10D0CF
:10257000032A17D115E0CB6A03F08073B3F1807F93
:1025800000D101200FE0CB6AB3F1C07F00D1012060
:1025900009E0CB6A03F08073B3F1807F00D10120A2
:1025A00001E000E000BF35E08B69B3F5005F1BD1AF
:1025B00032B1012A06D0022A0CD0032A12D10BE034
:1025C000012010E0CB6A03F08073B3F1807F00D16B
:1025D000012008E0012006E0CB6AB3F1C07F00D102
:1025E000012000E000BF15E032B1012A05D0022A27
:1025F00004D0032A0CD103E000BF00BF012008E093
:10260000CB6A03F08073B3F1807F00D1012000E03A
:1026100000BF00BF704730B5039C42EA811545EA10
:10262000032545EA0445C56630BD00007CB5054676
:102630000C46012D08D860780090237815220021DF
:10264000064801F0D0F808E0605D2B4639220021F1
:10265000CDE90004014801F065F87CBD445B002031
:10266000014691F82D0000F00F00083808281AD212
:10267000DFE800F00406090C0E1013160020704766
:102680004FF47F00FBE74FF40040F8E70748F6E718
:10269000FF20F4E74FF0FF10F1E74FF6FF70EEE791
:1026A0006FF07F40EBE74869E9E7000000FFFF00BB
:1026B00010B503460A4611781846362B1ED008DCA2
:1026C000A0F13000062832D2DFE800F01213141512
:1026D0001617552822D006DC372810D0422823D0E0
:1026E000432824D114E062281BD075281FD112E0A2
:1026F00000BF00BF00BF00BF00BF00BF00BF21F090
:102700000701A3F1300040F008000843C1B210E017
:1027100021F00F010DE041F010010AE021F010015D
:1027200007E041F0200104E021F0200101E0002059
:1027300010BD00BF1078884201D10020F8E7117069
:102740000120F5E730B5024600230024086801287F
:1027500016D013686FF30E03D1E901052843CD6845
:1027600028430D6928434D6928438D692843CD6965
:1027700028430D6A28434D6A28430343136019E038
:10278000136823F4F843D1E9070528434D6A284329
:10279000034354686FF30E04D1E901052843CD6863
:1027A00028430D6928434D6928438D692843044314
:1027B00013605460002030BD0246506940EA410079
:1027C000506100207047F8B506460C4615460020BB
:1027D00000900027D4E900010843A168491E40EA9F
:1027E0004110E16840EA412000900098306101F01A
:1027F0007BF9074609E0681C38B125B101F074F98E
:10280000C01BA84201D90320F8BDB06900F0200028
:102810000028F0D100BFF7E770B503461546002247
:102820000024012D1FD09A6802F070420868401EF3
:102830004E68761E40EA06168868401E46EA002664
:10284000C868401E46EA0036088A401E46EA00462E
:10285000888A401E46EA0056087E401E46EA00600E
:1028600002439A6022E09A6811480240C868401EFC
:102870000603888A401E46EA00500243DC6804F0E2
:1028800070440868401E4E68761E40EA0616886846
:10289000401E46EA0026088A401E46EA0046087E98
:1028A000401E46EA006004439A60DC60002070BD70
:1028B000FF0F0FFF4FF0FF37002683E016F01AFCE2
:1028C0003946414812F0F7FB00BF16F06BFB054696
:1028D0004FF0FF373D490869394616F0ABFB3C48DD
:1028E0000068002869D03A48046800BF207C00F0E6
:1028F0000400A0B9207C00F0020000284AD1B542B3
:1029000005D3A068B04202D3A068A84207D9B54257
:1029100040D2A068B04202D2A068A8423AD8207C37
:1029200000F00100A8B1E06898B1207C00F002003E
:1029300050B9E0682844A168401AE168B0FBF1F0A2
:10294000A26800FB0120A060208A20F00400208201
:1029500015E06069A04203D100201D4908600CE029
:10296000D4E905108861D4E9050148611848006878
:10297000A04202D116496069086000202082D4F884
:102980000080D4F804901149086916F047FB4846C6
:10299000C0479AE7207C00F0020048B9A068401BBD
:1029A000B84205D2A068401B0A490968B0FBF1F79C
:1029B000646907480068844298D12E460349086933
:1029C00016F02CFB7AE70000605600204C560020E1
:1029D0005C010020600100207CB50446208A20F0C4
:1029E0004000208260686946026B2046904700B92B
:1029F0007CBDBDF8060000F00F00ADF80600606871
:102A0000807800F0010010B36068B0F916006168CA
:102A1000B1F9141088421CDCBDF904006168B1F9F9
:102A20001810884206DBBDF8060040F00100ADF842
:102A300006002BE0BDF904006168B1F91A10884264
:102A400006DCBDF8060020F00100ADF806001DE030
:102A5000CEE7BDF904006168B1F91810884206DCC0
:102A6000BDF8060040F00100ADF806000EE0BDF92B
:102A700004006168B1F91A10884206DBBDF806004F
:102A800020F00100ADF8060000E0B1E76068408882
:102A900000F4007000B3207C00F0020080B1BDF8AB
:102AA0000600A17B484000F0010020B9208A20F0F8
:102AB000020020829CE7208A20F0020020820BE0A6
:102AC000BDF80600A17B484000F0010020B1208A3B
:102AD00040F0020020828BE7207C00F0100070B1F3
:102AE000BDF8060000F0010028B1BDF8000020810B
:102AF000BDF802106181BDF80610E18178E76068D9
:102B0000408800F4807058B1BDF8060000F0010064
:102B100030B92089ADF800006089ADF8020075E099
:102B2000207C00F0080020B104F120016846FFF786
:102B30002FFCE069002869D0E0690EF0AAFC02468B
:102B4000E0690EF09FFC03466068807800F00400A6
:102B500098BBE0690EF09AFC38B15A2806D0B42828
:102B600010D0B0F5877F29D11BE028E0BDF90050D7
:102B7000501EBDF80210401A00B2ADF80000ADF8CA
:102B800002501CE0501EBDF80010401A00B2ADF813
:102B90000000581EBDF80210401A00B2ADF8020045
:102BA0000DE0BDF90250581EBDF80010401A00B2E9
:102BB000ADF80200ADF8005001E002E000BF00BF38
:102BC00000BF207C00F00400F8B1BDF9000000282F
:102BD00003DA0020ADF8000007E0BDF900009042E4
:102BE00003DB501E00B2ADF80000BDF90200002862
:102BF00003DA0020ADF8020007E0BDF902009842B8
:102C000003DB581E00B2ADF8020000BF227C02F0C8
:102C1000200212B16268223201E062681C32104662
:102C2000B0F90420002A1ADDBDF90020B4F90830FB
:102C3000D21A5243BDF90250B4F90A30ED1ABDF967
:102C40000260F31A05FB0321828812FB02F28A421A
:102C500005D92289ADF800206289ADF80220B0F9CB
:102C60000220002A1CDD227C02F00102C2B1BDF963
:102C70000020B4F91230D21A5243BDF90250B4F90F
:102C80001430ED1ABDF90260F31A05FB03214288E6
:102C900012FB02F28A4203D2228A22F0010222822D
:102CA000BDF80600E18920EA0106E089BDF80610BA
:102CB00020EA010506F0010028B1BDF8060040F049
:102CC0001000ADF8060005F0010028B1BDF80600BF
:102CD00040F02000ADF8060006F0030060B1BDF83A
:102CE00000006082BDF80210A18216F05BF9A061BD
:102CF000208A40F00100208205F00300F0B3207C20
:102D000000F00100D0B3208A20F00100208216F0EC
:102D100049F9A169401AA061304800883049484308
:102D2000304909882E4A514300EB2140A16988426D
:102D300011D305F0020028B1BDF8060040F0800074
:102D4000ADF8060005F0010028B1BDF8060040F01E
:102D50004000ADF806006068807800F0010068B1BE
:102D60001E480088204948431E4909881E4A51438D
:102D700000EB2140A169884207D800E005E0BDF8DA
:102D8000060040F08000ADF80600002504E06A4629
:102D90002146284604F097FF2946144811F09CFE6E
:102DA000051EF4D100BF04E06A462146284604F01F
:102DB0008AFF2946204611F08FFE051EF4D1BDF88A
:102DC00000002081BDF802106181BDF80410A181CE
:102DD000BDF80610E18100BF0AE60000088D040876
:102DE000E09304000A8D040820A10700BC560020CF
:102DF00070B502460B4602F1180000EB03110024E7
:102E00005068B0F5403F02D0506800B100BF00BF2D
:102E100092F83800012801D1022070BD012082F80B
:102E2000380000BF022082F8390048680A2802D022
:102E3000486809280FD14FF4403696FAA6F6B6FA3C
:102E400086F6D1E90105B5402843CD6805F07F45F8
:102E500040EA050413E04FF4403696FAA6F6B6FAB7
:102E600086F6D1E90105B54028434FF07F4696FA32
:102E7000A6F6B6FA86F6CD68B54040EA0504ABB9C9
:102E80001068406A194D2840204315686862086838
:102E90001568A86148680A2802D0486809281AD12C
:102EA000C86820F07F401568A86214E01068C06907
:102EB0000E4D284020431568E861086815682861B0
:102EC00048680A2802D04868092804D1C86820F058
:102ED0007F4015682862012082F8390000BF002079
:102EE00082F8380000BF00BF97E70000F0FFFC0049
:102EF00010B504460CB9012010BD94F8390028B96A
:102F0000002084F83800204600F022F8022084F8DF
:102F100039002068006820F4403061680843216867
:102F200008602068406B20F00700A1680843216812
:102F300048632068006C6FF30D00E1680843216866
:102F400008640020E063012084F839000020D3E702
:102F50007047F8B504460D46002600200090206812
:102F6000006800F00100002843D000F0BDFD0646D7
:102F700039E0206840680090009800F02100E0B13E
:102F8000009800F0200018B1E06B40F00200E06310
:102F9000009800F0010018B1E06B40F00100E06320
:102FA000212021688860042084F8390000BF0020B7
:102FB00084F8380000BF0120F8BD681C98B125B125
:102FC00000F092FD801BA8420DD9E06B40F020007C
:102FD000E063032084F8390000BF002084F8380043
:102FE00000BF0320E8E72068406800F002000028E6
:102FF000BFD02068C06900F0200028B92068406A6E
:1030000000F0200000284BD000F06EFD064641E0A5
:10301000206840680090009800F0290020B30098D4
:1030200000F0080018B1E06B40F00400E063009885
:1030300000F0200018B1E06B40F00200E06300985F
:1030400000F0010018B1E06B40F00100E0632920BE
:1030500021688860042084F8390000BF002084F8CB
:10306000380000BF0120A7E7681C98B125B100F027
:103070003BFD801BA8420DD9E06B40F02000E063CF
:10308000032084F8390000BF002084F8380000BF16
:10309000032091E72068406800F010000028B7D0B6
:1030A000122021688860012084F8390000BF0020C8
:1030B00084F8380000BF00BF7EE72DE9F8430446DE
:1030C0000D4616461F46DDF8208000BF94F83800F4
:1030D000012802D10220BDE8F883012084F83800DD
:1030E00000BF022084F839003B463246294620467C
:1030F000CDF80080FFF794F92068006840F00100E7
:10310000216808600020E6E770B504460CB901208C
:1031100070BD94F83500022800D1F9E720680068F6
:1031200020F0010021680860002021680860216803
:103130004860216888602168C86021680861212092
:10314000216848612046FFF7EFF9054694F85C10C6
:103150003F208840A8600020606584F8350000BFEB
:1031600084F8340000BF00BFD2E700002DE9F04131
:103170000446002500F0B8FC074614B90120BDE85C
:10318000F081606A00B100BF00BF002084F8340005
:1031900000BF022084F835002068006820F001009C
:1031A000216808600AE000F09FFCC01B052805D9D3
:1031B00020206065032084F83500E0E7206800687F
:1031C00000F001000028EED1206805682048054085
:1031D000D4E901010843E1680843216908436169B2
:1031E0000843A1690843E1690843216A084305438C
:1031F000606A042803D1D4E90B0108430543206821
:1032000005602068456925F00705606A0543606A26
:1032100004280BD1A06A05432046FFF79FF928B187
:1032200040206065012084F83500A8E720684561EA
:103230002046FFF779F9064694F85C103F20884055
:10324000B06000206065012084F83500002096E71A
:103250003F8010F0024600BF107C012801D10220FF
:1032600070470120107400BF4868032800D100BFD8
:103270001068406B20F00100136858631068D0F8A4
:10328000000420F001001368C3F800041068806B8C
:1032900020F00300136898631068806BCB681843B4
:1032A000136898631068C06B6FF30D001368D863E0
:1032B0001068C06B0B6918431368D8631068006C02
:1032C0006FF30C00136818641068006C4B691843A6
:1032D000136818641068406C6FF30C00136858642E
:1032E0001068406C8B691843136858641068C06894
:1032F00020F003001368D8601068C0680B6818439A
:103300001368D8601068406920F00700136858619E
:10331000D1E908301843CB69184313685B69184337
:10332000136858611068006920F00F001368186175
:10333000106800694B681843136818611068D0F86A
:10334000000420F00E001368C3F800041068D0F8E1
:1033500000044B6840EA43001368C3F8000448685F
:1033600003280BD11068006920F48070136818617D
:10337000106800698B681843136818611068806CC6
:103380006FF30B00136898641068806C8B6A1843A5
:10339000136898641068C06C6FF30B001368D864EE
:1033A0001068C06CCB6A18431368D8641068006D4D
:1033B0006FF30E00136818651068006D0B6B1843EF
:1033C000136818651068406D6FF30900136858653D
:1033D0001068406D4B6B1843136858651068806D1A
:1033E0006FF30900136898651068806D8B6B184344
:1033F000136898651068C06D6FF309001368D8658D
:103400001068C06DCB6B18431368D8651068006EE8
:103410006FF30D00136818661068006E0B6C18438C
:10342000136818661068806B20F400401368986376
:103430001068806B4B6C1843136898631068806940
:1034400020F47F001368986110688069B1F84830F3
:1034500040EA0340136898611068806920F0FF001B
:103460001368986110688069CB6C18431368986181
:103470001068806B20F40050136898631068806BAC
:103480000B6D1843136898631068806B20F48050AC
:10349000136898631068806B4B6D184313689863CA
:1034A0001068806B20F40060136898631068806B6C
:1034B0008B6D1843136898631068806B20F48060EC
:1034C000136898631068806BCB6D1843136898631A
:1034D0001068806B20F40070136898631068806B2C
:1034E0000B6E1843136898631068806B20F480702B
:1034F000136898631068806B4B6E18431368986369
:103500001068806B20F48040136898631068806BAB
:103510008B6E18431368986300BF0020107400BFBF
:1035200000BF9DE610B504460CB9012010BD032074
:1035300060742068D0F8040420F008002168C1F805
:1035400004042068406820F0010021684860206879
:10355000D0F8A00020F006002168C1F8A000206883
:10356000D0F8300420F001002168C1F83004206850
:10357000D0F8300420F080702168C1F83004204673
:1035800000F02FF900206061607400BF207400BF5C
:1035900000BFCBE72DE9F04104460D460026002789
:1035A000B04614B90120BDE8F081607C10B9204616
:1035B00000F018F9032060742068D0F8300440F05F
:1035C00080702168C1F8300400F08EFA064607E0EA
:1035D00000F08AFA801BB0F57A7F01D90320E2E778
:1035E0002068D0F80C0400F480500028F0D0206847
:1035F000D0F83004494908402168C1F830042868EF
:103600008000696840EAC120298940EA01402168B8
:10361000D1F8301408432168C1F830042068D0F88C
:10362000300440F001002168C1F8300400F05CFA79
:10363000064607E000F058FA801BB0F57A7F01D902
:103640000320B0E72068D0F80C0400F48070002854
:10365000F0D02068D0F8A00040F006002168C1F842
:10366000A0002068D0F8940020F003002168C1F881
:1036700094002068D0F89400616841F0010108438B
:103680002168C1F894002068D0F8A40020F003005D
:103690002168C1F8A4002068D0F8A400E1680843BC
:1036A0002168C1F8A4002068806820F0FF0021682C
:1036B00088602168A0688860686808B1686800E070
:1036C00001208046164808FB00F02A7A012191402B
:1036D00048434FF4FA5229685143B0FBF1F7206890
:1036E000D0F8180420F03F002168C1F818042068C1
:1036F000D0F8180438432168C1F818040020216864
:10370000C1F8C40000212068C0F8C8100020A061E2
:10371000606101206074002045E700000386FCFF23
:1037200000093D002DE9F84F0546884691461F46A1
:10373000DDE90AA60024A34600BF287C012802D1A7
:103740000220BDE8F88F0120287400BF00F0CCF9FA
:1037500083460CE000F0C8F9A0EB0B00B0F57A7FCF
:1037600005D900BF0020287400BF0320E9E72868BE
:10377000406F00F001000028ECD01FE074B9305D0C
:103780004AEA00203119497840EA01403119897824
:1037900040EA016029680867E41C0FE0305D3119D8
:1037A000497840EA01203119897840EA014031190D
:1037B000C97840EA016029680867241DBC42DDD34E
:1037C000781CC0F30720791CCBB200904A464146D2
:1037D0002868FEF720FF00BF0020287400BF00BF4C
:1037E000AFE7704770472DE9F84304460D4616468B
:1037F0001F46DDF820804FF0000900BF207C012823
:1038000002D10220BDE8F8830120207400BF00F03F
:103810006BF981460CE000F067F9A0EB0900B0F508
:103820007A7F05D900BF0020207400BF0320E9E79C
:103830002068406F00F001000028ECD0CDF8008037
:103840003B46324629462068FEF7E5FE00BF0020D1
:10385000207400BF00BFD5E7014600BF087C0128E7
:1038600001D1022070470120087400BF0868406839
:1038700040F001000A6850600868D0F8040440F085
:1038800008000A68C2F8040400BF0020087400BFE2
:1038900000BFE7E731B5002400F026F9044600BF79
:1038A00000F022F9001B00998842F9D338BD0000CE
:1038B000F8B502460B460025002400200021E6E072
:1038C000012606FA01F51E6806EA0504AC4273D12A
:1038D0005E68022E02D05E68122E13D1CF0802F16C
:1038E000200656F827004E07F70E0F26BE40B043BD
:1038F0004F07FF0E1E69BE403043CF0802F120067D
:1039000046F8270010684F000326BE40B0431E79DA
:1039100006F003064F00BE40304310605E68012E83
:1039200008D05E68022E05D05E68112E02D05E6857
:10393000122E13D190684F000326BE40B0434F00B3
:10394000DE68BE4030439060506801268E40B04330
:103950001E79C6F300168E4030435060D0684F0089
:103960000326BE40B0434F009E68BE403043D06047
:103970005E6806F08056B6F1805FA8D100BF0026D1
:103980000096454E366846F48046434F3E603E46BC
:10399000366806F48046009600BF00BF3F4E8F0891
:1039A00056F827008E07370F0F26BE40B0433C4E17
:1039B000B24202D100262EE068E03A4EB24201D176
:1039C000012628E0384EB24201D1022623E0374ECC
:1039D000B24201D103261EE0354EB24201D1042687
:1039E00019E0344EB24201D1052614E0324EB24203
:1039F00001D106260FE0314EB24201D107260AE07E
:103A00002F4EB24201D1082605E02E4EB24201D11E
:103A1000092600E00A268F073F0FBE4030431F4EA5
:103A20008F0846F82700284E3068A0435E6806F4E9
:103A30008036B6F5803F00D12043234E3060361DDE
:103A40003068A0435E6806F40036B6F5003F00D14A
:103A500020431D4E361D3060361D3068A0435E6821
:103A600006F48016B6F5801F00D12043164E0836A6
:103A70003060361D3068A0435E6806F40016B6F567
:103A8000001F00D12043104E0C363060491C102915
:103A9000FFF416AFF8BD000044380240083801407A
:103AA000000002400004024000080240000C0240F6
:103AB000001002400014024000180240001C0240A6
:103AC0000020024000240240003C014002461369ED
:103AD0000B400BB1012000E0002070470AB181616A
:103AE00001E00B04836170470148006870470000E3
:103AF000F402002010B504460CB9012010BD2420AA
:103B000084F83D002068006820F00100216808600A
:103B1000204600F08DFA0020206484F83D002063E8
:103B200084F83E0000BF84F83C0000BF00BFE5E71A
:103B3000014691F83D00704770B504460026002507
:103B40000CB9012070BD94F83D0028B9002084F81C
:103B50003C00204600F06DFA242084F83D002068E7
:103B6000006820F001002168086001F035F8054682
:103B70003948B5FBF0F620684660384960688842ED
:103B800001D8701C07E04FF4967070434FF47A71BF
:103B9000B0FBF1F0401C216808623049606888423F
:103BA0000ED860684000B5FBF0F0C0F30B000428AD
:103BB00001D204202DE060684000B5FBF0F028E061
:103BC000A06828B9606800EB4000B5FBF0F008E0A1
:103BD000606800EBC00101EB0010B5FBF0F040F4B1
:103BE0008040C0F30B0008B9012012E0A06828B99A
:103BF000606800EB4000B5FBF0F008E0606800EBA7
:103C0000C00101EB0010B5FBF0F040F4804040F43F
:103C100000402168C861D4E90701084321680860B1
:103C2000D4E90310084321688860D4E905010843FA
:103C30002168C8602068006840F0010021680860C1
:103C400000202064202084F83D000020206384F8B8
:103C50003E0000BF76E7000040420F00A086010052
:103C60002DE9FC5F0446894692469B46DDE90D68D6
:103C70000C9D0027FFF738FF074694F83D002028E9
:103C80007ED11923012295492046009702F0DDF9E3
:103C900010B10220BDE8FC9F00BF94F83C00012851
:103CA00001D10220F6E7012084F83C0000BF206823
:103CB000006820F4006021680860222084F83D003C
:103CC000402084F83E00002020648548E0625B4686
:103CD000524649462046CDE9008702F06FF880B190
:103CE000206C042806D100BF002084F83C0000BFEF
:103CF0000120CFE700BF002084F83C0000BF032074
:103D0000C8E78EB900BF002001902068406901908B
:103D100020688069019000BF00BF2068006840F4FF
:103D20000070216808603FE0012E17D1206800680C
:103D300020F480602168086000BF002001902068A6
:103D40004069019020688069019000BF00BF206831
:103D5000006840F400702168086025E0022E18D148
:103D60002068006820F4806021680860206800688E
:103D700040F400602168086000BF0020019000E06E
:103D8000A9E020684069019020688069019000BF27
:103D90000AE000BF0020019020684069019020687F
:103DA0008069019000BF00BF87E0032E67D8012E15
:103DB00013D13A464146204602F0D9F930B1206C81
:103DC000202801D1032065E7012063E7206800690E
:103DD00005F8010B701E86B26FE0022E1CD143461F
:103DE000002240492046009702F02FF908B1032035
:103DF00050E72068006840F400702168086020687F
:103E0000006905F8010B701E86B22068006905F88C
:103E1000010B701E86B250E0434600223149204615
:103E2000009702F012F908B1032033E72068006818
:103E300020F48060216808602068006905F8010BA3
:103E4000701E86B24346002226492046009702F0A3
:103E5000FCF808B103201DE72068006840F40070FA
:103E6000216808602068006905F8010B701E86B2A1
:103E70002068006905F8010B701E86B21DE03A4605
:103E80004146204602F073F930B1206C202801D160
:103E90000320FFE60120FDE62068006905F8010B1C
:103EA000701E86B220684069C0F3800028B1206887
:103EB000006905F8010B701E86B2002E7FF475AF05
:103EC000202084F83D00002084F83E0000BF84F8E4
:103ED0003C0000BFDEE60220DCE60000020010002D
:103EE0000000FFFF040001002DE9FC5F0446894645
:103EF00092469B46DDE90D680C9D0027FFF7F4FD17
:103F0000074694F83D00202878D11923012246491C
:103F10002046009702F099F810B10220BDE8FC9FFE
:103F200000BF94F83C00012801D10220F6E70120EF
:103F300084F83C0000BF2068006820F4006021681D
:103F40000860212084F83D00402084F83E000020D5
:103F500020643648E0625B46524649462046CDE939
:103F6000008701F0D7FF80B1206C042806D100BF84
:103F7000002084F83C0000BF0120CFE700BF0020F4
:103F800084F83C0000BF0320C8E724E03A464146DD
:103F9000204602F023F960B1206C042807D1206884
:103FA000006840F40070216808600120B6E7032033
:103FB000B4E715F8010B21680861701E86B220680D
:103FC0004069C0F3800030B12EB115F8010B2168B3
:103FD0000861701E86B2002ED8D13A46414620466E
:103FE00002F008F868B1206C042808D12068006845
:103FF00040F400702168086001208FE712E0032080
:104000008CE72068006840F4007021680860202078
:1040100084F83D00002084F83E0000BF84F83C0096
:1040200000BF7BE7022079E7020010000000FFFFDD
:104030007047704710B50D48006840F400700B4998
:1040400008600846006840F4806008600846006820
:1040500040F480700860032000F062F90F2000F047
:1040600007F800F00EF9002010BD0000003C0240EF
:1040700070B50446074800684FF47A71B0FBF1F55B
:10408000284601F041FD00222146501E00F00AF9A9
:10409000002070BDE002002070B504460E461546B3
:1040A00000BF94F8A000012801D1022070BD0120BA
:1040B00084F8A00000BF022084F8A10005EB850170
:1040C00001EBC50204F1380101EB820034223146D4
:1040D000FCF773FB2A463146204602F0ADFA012078
:1040E0002168486284F8A10000BF002084F8A00085
:1040F00000BF00BFDAE7000070B5044600250026C7
:104100000CB9012070BD94F8A10028B9002084F8F2
:10411000A000204600F084F8022084F8A100206866
:10412000806920F0704021688861D4E9010108436A
:10413000E1680843216908432168896908432168C7
:104140008861206880683549084021688860A08AB5
:10415000050420688068A1692943084321688860B4
:104160002068C0682D4908402168C860A08B0504FC
:104170002068C068216A294308432168C860206814
:1041800000692649084021680861A08C0504206860
:104190000069A16A294308432168086120684069D1
:1041A0001E49084021684861A08D050420684069C7
:1041B000216B294308432168486194F835000502C2
:1041C00094F8360006042068C06A00F07F40216839
:1041D000C86246EA050094F8341008432168C96AA9
:1041E00008432168C8622068406B40F004002168E1
:1041F00048632068406B40F00200216848632068F3
:10420000806940F00100216888610020C4F8A400A2
:10421000012084F8A100002074E7000000F800F0FD
:1042200070470246486A08B9002301E04FF0005386
:10423000D360086A08B9002301E04FF0804393601F
:10424000C86908B9002001E04FF000405060486B99
:10425000401E9061D1E90D031844401E1062D1E95F
:104260000D0318440B6C1844401E9062D1E90D03F5
:1042700018440B6C1844CB6B1844401E106300208C
:104280007047704701460846002809DB00F01F030D
:1042900001229A4043099B0003F1E023C3F8002167
:1042A00000BF70472DE9F05F80460D461646002797
:1042B00004F00EFC074639462A46334601F0070053
:1042C000C0F1070ABAF1040F02D94FF0040A01E065
:1042D000C0F1070AD14600F1040ABAF1070F02D271
:1042E0004FF0000A01E0A0F1030AD4464FF0010AA2
:1042F0000AFA09FAAAF1010A0AEA020A0AFA0CFA07
:104300004FF0010B0BFA0CFBABF1010B0BEA030BAB
:104310004AEA0B042146404604F0E2FBBDE8F09F68
:1043200000BF00F00702064B19684FF6FF03194063
:10433000044B0B4343EA0221014B196000BF704755
:104340000CED00E00000FA0538B5002400BF0020A5
:1043500000902348006840F08050214908600846DA
:10436000006800F08050009000BF00BF01200104F1
:1043700091FAA1F1B1FA81F11A4A42F82100FFF74E
:10438000B3FB044607E0FFF7AFFB001BB0F57A7FF5
:1043900001D9032038BD1448406800F48030B0F5DE
:1043A000803FF0D10120410491FAA1F1B1FA81F1ED
:1043B0000C4A42F82100FFF797FB044607E0FFF79D
:1043C00093FB001BB0F57A7F01D90320E2E7064892
:1043D000406800F40030B0F5003FF0D10020D9E78C
:1043E0004038024000000E420070004040F2BF1210
:1043F0000260474A126847F6C0731A4093FAA3F363
:10440000B3FA83F3DA404260414A126802F0E042B4
:104410004FF0E04393FAA3F3B3FA83F3DA408260F8
:104420003B4A126802F070624FF0706393FAA3F394
:10443000B3FA83F3DA40C260354A121D126847F6B8
:10444000C0731A4093FAA3F3B3FA83F3DA4002611C
:104450002F4A121D126802F0E0424FF0E04393FA37
:10446000A3F3B3FA83F3DA40C261294A121D12683A
:1044700002F070624FF0706393FAA3F3B3FA83F320
:10448000DA408261224A0832126802F01F021F23BA
:1044900093FAA3F3B3FA83F3DA4002621C4A0832B8
:1044A000126802F4F8524FF4F85393FAA3F3B3FAF4
:1044B00083F3DA404262164A0832126802F440324C
:1044C0008262134A7C3A126802F4F811104A143AD4
:1044D000126802F440720A43C2620D4A083212683E
:1044E00002F0006242630A4A0832126802F0805207
:1044F0008263074A0832126802F080721AB90022F9
:1045000080F8302002E0012280F83020704700005F
:10451000843802402DE9F843044600250026002790
:10452000A846A946207800F08000802807D1F948E5
:10453000006820F00060616B0843F649086020883D
:1045400000F48070B0F5807F07D1F248006820F059
:104550008050A16B0843EF490860207800F001000B
:1045600048B9207800F00200022804D0207800F03A
:104570004000402878D10020E7498866FFF7B4FA68
:10458000054607E0FFF7B0FA401B022802D90320D6
:10459000BDE8F883DF488C380068C0F3C0600028AD
:1045A000F0D1207800F0010098B147F6C07191FA7F
:1045B000A1F1B1FA81F1606888404FF0E04292FACF
:1045C000A2F2B2FA82F2A16891400843D1490839B7
:1045D0000860207800F0020002281FD1CD4808387A
:1045E000006800F0E0404FF0E04191FAA1F1B1FA2B
:1045F00081F120FA01F660688101207B41EA0060C8
:1046000040EA0670C34908390860C248006820F0D3
:104610001F00216A491E0843BE490860207800F047
:10462000400040280AD160688101207B41EA006196
:10463000207A41EA0070B749083908600120B6497C
:104640008866FFF751FA054607E0FFF74DFA401B71
:10465000022802D903209BE706E0AE488C380068A8
:10466000C0F3C0600028F0D0207800F004000428D7
:104670000DD0207800F00800082808D0207800F03D
:10468000800080287ED1606BB0F1006FFAD10020ED
:10469000A1490867FFF728FA054606E0FFF724FA64
:1046A000401B022801D9032072E79A488C38006821
:1046B000C0F340700028F1D1207800F004000428F5
:1046C0004CD19448001F006800F440304FF4403152
:1046D00091FAA1F1B1FA81F1C840401C47008D4820
:1046E000001F006800F0E0404FF0E04191FAA1F1B6
:1046F000B1FA81F120FA01F947F6C07191FAA1F1FE
:10470000B1FA81F1206988400121C1EB57014FF4D2
:10471000403292FAA2F2B2FA82F2914008434FF08C
:10472000706292FAA2F2B2FA82F2A1699140084351
:104730004FF0E04191FAA1F1B1FA81F109FA01F1EA
:1047400008437449091F0860081D006820F4F851E7
:10475000606A401E41EA00206E490860207800F03F
:10476000080008284CD16B48001F006800F4403056
:104770004FF4403191FAA1F1B1FA81F1C840401CE7
:10478000470000E09DE06348001F006800F0706093
:104790004FF0706191FAA1F1B1FA81F120FA01F8BC
:1047A00047F6C07191FAA1F1B1FA81F12069884010
:1047B0000121C1EB57014FF4403292FAA2F2B2FA52
:1047C00082F2914008434FF0706191FAA1F1B1FA81
:1047D00081F108FA01F108434FF0E04292FAA2F2A7
:1047E000B2FA82F2E169914008434A49091F086020
:1047F000081D006820F44030A16A0843454908605C
:10480000207800F08000802846D1606BB0F1006F06
:1048100042D14048001F006800F070604FF07061A6
:1048200091FAA1F1B1FA81F120FA01F83948001F9B
:10483000006800F0E0404FF0E04191FAA1F1B1FAD8
:1048400081F120FA01F947F6C07191FAA1F1B1FAAC
:1048500081F12069884001226169C2EB51014FF466
:10486000403292FAA2F2B2FA82F2914008434FF03B
:10487000706191FAA1F1B1FA81F108FA01F10843EE
:104880004FF0E04191FAA1F1B1FA81F109FA01F199
:1048900008432049091F086001201F490867FFF7E6
:1048A00023F9054606E0FFF71FF9401B022801D94E
:1048B00003206DE617488C380068C0F3407000286C
:1048C000F1D0207800F0200020286FD100BF002018
:1048D000009010484C38006840F080500D494C3929
:1048E00008600846006800F08050009000BF00BFDC
:1048F0000A48006840F4807008490860FFF7F4F83F
:1049000005460DE0FFF7F0F8401B022808D9032008
:104910003EE600008C380240000047420070004034
:104920003148006800F480700028EBD02F48006800
:1049300000F4407636B3A08D00F44070B04221D030
:104940002A48006820F440760120294908600020A8
:10495000086026480660006800F0010090B1FFF78B
:10496000C3F8054608E0FFF7BFF8401B41F2883165
:10497000884201D903200BE61C480068C0F34000C0
:104980000028F0D000BFA08D00F44070B0F5407F4B
:104990000DD116486838006820F4F810154AE16A0D
:1049A0001140084311496839086008E010E00F48D9
:1049B0006838006820F4F8100C49683908600B4822
:1049C0000068A18DC1F30B0108430849086000BFCE
:1049D000207800F01000102803D194F83000064928
:1049E00008600020D4E500000070004070380240EC
:1049F000400E4742FFFCFF0FE011474270B50446EE
:104A00000D4600266D48006800F00F00A84209D24C
:104A10006A490D700846006800F00F00A84201D0F6
:104A2000012070BD207800F00200022807D1644800
:104A3000006820F0F000A168084361490860207810
:104A400000F00100002877D06068012807D15C4899
:104A500008380068C0F34040B8B90120E1E7606859
:104A6000022802D06068032807D15548083800683A
:104A7000C0F3406048B90120D3E7514808380068C6
:104A8000C0F3400008B90120CBE74D48006820F092
:104A90000300616808434A490860FFF725F80646A5
:104AA0006068012810D108E0FFF71EF8801B41F272
:104AB0008831884201D90320B3E74148006800F0FB
:104AC0000C000428F0D137E06068022810D108E01B
:104AD000FFF70AF8801B41F28831884201D9032090
:104AE0009FE73748006800F00C000828F0D123E069
:104AF0006068032810D108E0FEF7F6FF801B41F242
:104B00008831884201D903208BE72D48006800F0E6
:104B10000C000C28F0D10FE008E0FEF7E5FF801B49
:104B200041F28831884201D903207AE7244800689D
:104B300000F00C000028F0D12048006800F00F00C1
:104B4000A84209D91D490D700846006800F00F0001
:104B5000A84201D0012064E7207800F00400042876
:104B600007D11748006820F4E050E1680843144971
:104B70000860207800F00800082808D11048006874
:104B800020F46040216940EAC1000D49086000F04E
:104B900039F80B49096801F0F001F02292FAA2F20B
:104BA000B2FA82F2D140074A515CC8400649086017
:104BB0000F20FFF75DFA002033E70000003C0240C1
:104BC00008380240688D0408E002002001480068AF
:104BD00070470000E002002000B5FFF7F7FF07492B
:104BE000096801F4E0514FF4E05292FAA2F2B2FAED
:104BF00082F2D140024A515CC84000BD08380240F0
:104C0000688D040870B50021002200230020274C85
:104C1000246804F00C0424B1042C04D0082C41D1E5
:104C200003E0234840E023483EE0204C241F246852
:104C300004F03F011D4C241F246804F4800484B157
:104C40001C4CB4FBF1F5194C241F246847F6C076C0
:104C5000344096FAA6F6B6FA86F6F44005FB04F25E
:104C60000FE0134CB4FBF1F5104C241F246847F6F9
:104C7000C076344096FAA6F6B6FA86F6F44005FBFE
:104C800004F20A4C241F246804F440344FF44035E5
:104C900095FAA5F5B5FA85F5EC40641C6300B2FB06
:104CA000F3F001E0024800BF00BF70BD08380240C9
:104CB0000024F40000127A0038B50446002520785C
:104CC00000F00100002848D0E348006800F00C0024
:104CD00004280DD0E048006800F00C00082811D12D
:104CE000DD48001F006800F48000B0F5800F09D196
:104CF000D94808380068C0F3404070B3606860BBB2
:104D0000012038BD2079D449891F0870606890B1AE
:104D1000FEF7EAFE054606E0FEF7E6FE401B6428C5
:104D200001D90320EDE7CC4808380068C0F34040C3
:104D30000028F1D011E0FEF7D7FE054606E0FEF7A9
:104D4000D3FE401B642801D90320DAE7C2480838A3
:104D50000068C0F340400028F1D1207800F0020044
:104D6000022869D1BC48006800F00C0058B1BA486C
:104D7000006800F00C00082821D1B748001F006827
:104D800000F48000D8B9B44808380068C0F3400087
:104D900020B1E068012801D00120B2E7AE48083810
:104DA000006820F0F800F82292FAA2F2B2FA82F239
:104DB000216991400843A849083908603CE0E0684F
:104DC00028B30120A5490860FEF78EFE054606E0DF
:104DD000FEF78AFE401B022801D9032091E79E4876
:104DE00008380068C0F340000028F1D09A4808381D
:104DF000006820F0F800F82292FAA2F2B2FA82F2E9
:104E000021699140084394490839086014E0002062
:104E100092490860FEF768FE054606E0FEF764FE6C
:104E2000401B022801D903206BE78B480838006833
:104E3000C0F340000028F1D1207800F008000828D5
:104E40002CD16069A8B1012085490860FEF74CFEAD
:104E5000054606E0FEF748FE401B022801D9032064
:104E60004FE77D486C300068C0F340000028F1D067
:104E700014E000207A490860FEF736FE054606E099
:104E8000FEF732FE401B022801D9032039E77248A1
:104E90006C300068C0F340000028F1D1207800F0A9
:104EA0000400042857D100BF002000906A48383021
:104EB000006840F080506849383108600846006852
:104EC00000F08050009000BF00BF6648006840F4CA
:104ED000807064490860FEF707FE054606E0FEF7AD
:104EE00003FE401B022801D903200AE75D48006841
:104EF00000F480700028F2D0207A57496831087099
:104F0000A068A0B1FEF7F0FD054608E0FEF7ECFD55
:104F1000401B41F28831884201D90320F1E64E4816
:104F200068300068C0F340000028EFD013E0FEF7BF
:104F3000DBFD054608E0FEF7D7FD401B41F2883156
:104F4000884201D90320DCE6434868300068C0F39A
:104F500040000028EFD1A069F0B33F48006800F09E
:104F60000C00082873D0A069022859D100203B49C1
:104F70000866FEF7B9FD054606E0FEF7B5FD401BE5
:104F8000022801D90320BCE6334808380068C0F382
:104F900040600028F1D1D4E90701084347F6C07208
:104FA00092FAA2F2B2FA82F2616A914008430122B7
:104FB000A16AC2EB51014FF4403292FAA2F2B2FA66
:104FC00082F2914008434FF0706292FAA2F2B2FA74
:104FD00082F2E16A914000E03BE008434FF0E0429A
:104FE00092FAA2F2B2FA82F2216B914008431A4976
:104FF000091F0860012019490866FEF775FD05467E
:1050000006E0FEF771FD401B022801D9032078E677
:10501000114808380068C0F340600028F1D018E05B
:1050200000200E490866FEF75FFD054606E0FEF724
:105030005BFD401B022801D9032062E606480838C0
:105040000068C0F340600028F1D102E0FFE70120D2
:1050500057E6002055E600000838024000004742AD
:10506000800E47420070004070B504460D460CB9F2
:10507000012070BD94F82C0028B9002084F82D0080
:10508000204600F011F8022084F82C00211D206831
:10509000FDF758FB2946D4E90002FDF7BDFB0120CE
:1050A00084F82C000020E4E7704770B504460D46F4
:1050B00094F82C00022800D170BD022084F82C0046
:1050C00029462068FDF778FB012084F82C00002099
:1050D000F2E770B504460D46164694F82C000228F7
:1050E00000D170BD022084F82C0032462946206889
:1050F000FDF769FB2868022803D1052084F82C00FD
:1051000002E0012084F82C000020EAE72DE9F047B6
:1051100088B0044615461E46DDE910784FF00009B8
:10512000CA460020029001902021E06A01EA105056
:1051300028B94FF02509484608B0BDE8F087206837
:105140004068C0B2801C4649B1FBF0F002900020DC
:1051500001F0C2FF00F00070B0F1007F03D14FF00A
:105160000E094846E8E7206A022810D1020200230F
:1051700028463146FBF794F905460E464FF4007277
:10518000002338464146FBF78BF907468846206ADC
:1051900028B1206A012802D0206A022828D103956C
:1051A0002020049040200590002006904FF480605D
:1051B000079003A9206801F0BEFF2021204601F0DE
:1051C000EFFF8146B9F1000F01D04846B4E70397DD
:1051D0002120049003A9206801F0ADFF2121204681
:1051E00001F0DEFF8146B9F1000F01D04846A3E788
:1051F000002003902620049003A9206801F09BFF63
:105200002621204601F0CCFF8146B9F1000F01D0E4
:10521000484691E701E00AF1010A02988245FAD373
:1052200001A9204602F07AFA81464FF0FF3A06E0E3
:1052300001A9204602F072FA8146AAF1010ABAF1E8
:10524000000F0AD0B9F1000F07D19DF8040007281C
:10525000EED09DF804000628EAD048466CE700002E
:10526000C0D4010070B505460424284602F0CAF9EE
:105270000446042C01D1002070BDFF2C01D1022076
:10528000FAE70120F8E72DE9F0410346002000226B
:1052900093F8204081F856409C8CA1F854409C6AB9
:1052A000220E94090C70C2F383044C7002F00304C4
:1052B0008C709C6AC4F30742CA701C8DC4F3072229
:1052C0000A7193F828204A71DC6A220E4FF6FF74A7
:1052D00004EA0214CC80DC6AC4F30742CC8844EAB6
:1052E0001214CC8002F00F040C729C8DC4F30722C0
:1052F000D4094C72C2F380148C72C2F34014CC7285
:10530000C2F300140C7300244C731C6A14B11C6AA1
:10531000012C4DD19407240D0C612C24E25C0C6906
:1053200044EA82040C611C6B220E0C6944EA92145C
:105330000C61C2F3C2040C7502F007044C751C6BBF
:10534000C4F3074254098C75C2F38204CC759407E8
:10535000640F0C761C8EC4F307220C7E44EAD21430
:105360000C760C69641C0025C1E912450C7ED1E95C
:105370001267A41C012505FA04F44FF0000CA6FBEB
:10538000045807FB048406FB0C44C1E912540D7A4F
:105390000124AC400C650026D1E912570C6DA5FB29
:1053A00004C807FB048405FB0644C1E912C435E0C8
:1053B0001C6A022C31D12C24E25C9406A40A0C61F4
:1053C0001C6B220E0C6944EA02240C611C6BC4F3B2
:1053D00007420C6914430C611C8EC4F307220C694C
:1053E0000025641C45EB050C4FF400770026A4FB58
:1053F00007580CFB078704FB067C4FF480672C469C
:105400006546B446A4FB076805FB078504FB0C54FE
:10541000C1E912647C100C6500E02920C2F38014FD
:1054200001F8194F9406640E4C703024E25C4C78FD
:1054300044EAD2144C7002F07F048C705C6B220E34
:10544000D409CC70C2F341140C71C2F382044C71C4
:105450009407240F8C715C6BC4F307428C7944EA87
:1054600092148C71C2F34014CC7100240C7202F0BF
:1054700001044C729C8EC4F30722D4098C72C2F3CF
:105480008014CC72C2F340140C73C2F300144C733A
:10549000C2F381048C7302F00304CC733424E25C05
:1054A00054080C7401244C749C6B220ECA74193974
:1054B0009C6BC4F307424FF6FF7404EA0225CD85C6
:1054C0001C8FC4F30722CC8D1443CC8593F838206D
:1054D00015060D63DC6B220E0C6B44EA02450D636E
:1054E000DC6BC4F307420C6B44EA02250D639C8F0E
:1054F000C4F307220C6B14430C633C24E25C342499
:1055000062541C6C220E352462541C6CC4F3074296
:1055100015068D634024E45AC4F307228C6B44EAD9
:1055200002458D634024E25C8C6B44EA02258D6366
:105530005C6C220E8C6B14438C635C6CC4F307426E
:105540003C24645C44EA12143C256C541407250D79
:10555000CD874424E45AC4F30722CC8F1443CC876C
:105560004424E25C550840246554012541246554D7
:10557000BDE8F08130B58BB004460D4600200A909E
:105580002077204600F044F8002004900590069013
:10559000079008907620099007A807C88DE80700B3
:1055A000206804A90EC901F0A3FD204602F0A0F96D
:1055B0000A909DF8280018B19DF828000BB030BD66
:1055C000204602F02EF80A909DF8280010B19DF8B0
:1055D0002800F3E729462046FFF755FE0A909DF87C
:1055E000280040B9B5F8540001040A4600232046BB
:1055F00002F030FA0A90D4E90412A069CDE9001251
:10560000029094E80F0001F073FD9DF82800D5E7A3
:1056100070472DE9FF5F8CB0044617469846DDE9D8
:105620001AB94FF0000A00250D9E00202168C862BB
:10563000206A022809D14FF4007B02020023384679
:105640004146FAF72DFF07468846CDF81CB01020DA
:1056500008904020099000200A904FF480600B9041
:1056600007A9206801F067FD1021204601F098FD90
:105670008246BAF1000F03D0504610B0BDE8F09F4B
:105680004FF0FF30019009FB0BF002909020039047
:1056900002200490002005900120069001A92068B6
:1056A00001F0FBFCB9F1010F02D91220089001E0D2
:1056B00011200890079707A9206801F03CFDB9F177
:1056C000010F21D91221204601F06AFD8246BAF16C
:1056D000000F01D05046D0E70FE02068406B00F487
:1056E000004050B1002505E0206801F020FD46F89B
:1056F00025006D1C082DF7D320362068406B00F480
:1057000095700028E9D021E01121204601F048FDE4
:105710008246BAF1000F01D05046AEE70FE0206894
:10572000406B00F4004050B1002505E0206801F016
:10573000FEFC46F825006D1C082DF7D320362068A6
:10574000406B40F22A4108400028E8D02068406BB6
:1057500000F4807070B1B9F1010F0BD9206A28B143
:10576000206A012802D0206A022803D1204600F0D6
:105770003AF882462068406B00F0080030B10820FB
:10578000216888634FF0040A504676E72068406B32
:1057900000F0020028B1022021688863824650464A
:1057A0006BE72068406B00F0200030B120202168BA
:1057B00088634FF0060A50465FE74FF0FF3505E07B
:1057C000206801F0B4FC3060361D6D1E2068406B0F
:1057D00000F4001008B1002DF2D140F2FF50216812
:1057E0008863504649E730B585B00446002500205F
:1057F00000900C20019040200290002003904FF474
:10580000806004906946206801F095FC0C212046D8
:1058100001F0C6FC0546284605B030BD70B58AB01B
:1058200004460D460026206A032803D12726304669
:105830000AB070BD206A28B1206A012802D0206A0F
:10584000022828D1B5F5805F01D127260EE0B5F5F5
:10585000006F04D1204602F08CF9064606E025B917
:10586000204602F03BF9064600E026269EB9606815
:105870000490A0680590E06806900795606908901C
:10588000A069099007A807C88DE80700206804A947
:105890000EC901F02DFC3046CAE72DE9FF5F8EB03E
:1058A000044617469846DDF874B000200290814601
:1058B000002500260190DDF83CA000902168C86218
:1058C000206A022809D100021C90024600233846B3
:1058D0004146FAF7E5FD074688461C9809901020D6
:1058E0000A9040200B9000200C904FF480600D90A7
:1058F00009A9206801F01FFC1021204601F050FC8E
:105900000290029818B1029812B0BDE8F09FBBF166
:10591000010F02D919200A9001E018200A90099776
:1059200009A9206801F007FCBBF1010F05D9192175
:10593000204601F035FC029004E01821204601F0D9
:105940002FFC0290029808B10298DDE71C980BFB2F
:1059500000F94FF0FF3003901C980BFB00F004900F
:10596000902005900020069007900120089003A940
:10597000206801F092FBBBF1010F39D931E02068BA
:10598000406B00F4804060B3A9EB050020281BD2D7
:10599000A9EB050000F0030018B9A9EB0500800889
:1059A00003E0A9EB05008008401C0190002607E0F9
:1059B0005146206801F0D3FB0AF1040A2D1D761C24
:1059C000019886420DD2F3E7002605E00AEB860136
:1059D000206801F0C4FB761C082EF7D30AF1200AD8
:1059E00020352068406B00F48D700028C7D039E066
:1059F00031E02068406B00F4804060B3A9EB050003
:105A000020281BD2A9EB050000F0030018B9A9EB70
:105A10000500800803E0A9EB05008008401C019008
:105A2000002607E05146206801F099FB0AF1040ABC
:105A30002D1D761C019886420DD2F3E7002605E065
:105A40000AEB8601206801F08AFB761C082EF7D34A
:105A50000AF1200A20352068406B40F21A410840C4
:105A60000028C6D02068406B00F4807070B1BBF194
:105A7000010F0BD9206A28B1206A012802D0206AC0
:105A8000022803D12046FFF7AEFE02902068406B4B
:105A900000F0080030B108202168886304200290DB
:105AA000029831E72068406B00F0020028B1022024
:105AB000216888630290029826E72068406B00F016
:105AC000100030B1102021688863052002900298F0
:105AD0001AE740F2FF50216888636946204601F0CA
