:020000040800F2
:1000000018F10320FD040008050500080705000895
:10001000090500080B0500080D0500080000000098
:10002000000000000000000000000000CD030008F8
:10003000110500080000000085040008E90400081C
:10004000170500081705000817050008258C00088B
:100050001705000817050008170500081705000810
:100060001705000817050008170500081705000800
:1000700017050008170500081705000817050008F0
:1000800017050008170500081705000817050008E0
:1000900017050008170500081705000817050008D0
:1000A00017050008170500081705000817050008C0
:1000B00017050008170500081705000817050008B0
:1000C00017050008170500081705000817050008A0
:1000D0001705000817050008170500081705000890
:1000E00017050008598B00081705000817050008B8
:1000F0001705000817050008170500081705000870
:10010000170500081705000817050008170500085F
:10011000170500081705000817050008170500084F
:10012000170500081705000817050008170500083F
:10013000170500081705000817050008170500082F
:10014000170500081705000817050008170500081F
:10015000170500081705000817050008170500080F
:1001600017050008170500081705000817050008FF
:100170001705000817050008170500080000000013
:1001800017050008170500081705000817050008DF
:1001900017050008170500081705000817050008CF
:1001A00017050008170500081705000817050008BF
:1001B0001705000800F002F800F0B2F80AA090E875
:1001C000000C82448344AAF10107DA4501D100F012
:1001D000A7F8AFF2090EBAE80F0013F0010F18BF2D
:1001E000FB1A43F00103184724C4040044C404006C
:1001F0000A444FF0000C10F8013B13F0070408BF4D
:1002000010F8014B1D1108BF10F8015B641E05D0EA
:1002100010F8016B641E01F8016BF9D113F0080F9F
:100220001EBF10F8014BAD1C0C1B09D16D1E58BF31
:1002300001F801CBFAD505E014F8016B01F8016B68
:100240006D1EF9D59142D6D37047000000230024DB
:1002500000250026103A28BF78C1FBD8520728BFD6
:1002600030C148BF0B6070476E2900F02C857029A3
:1002700000F06F8666291EF0668765291EF0638789
:1002800067291EF0608761291EF05F8703681B0ADB
:1002900028BF41F08001692900F0F481642900F051
:1002A000F181752900F0EE816F2900F0FD85782934
:1002B00000F03B86E92900F09785E42900F0948559
:1002C000F52900F09185EF2900F0FA85F82900F072
:1002D0003A860368DB0928BF41F08001632901F0F9
:1002E0001F82732901F02482E32901F02F82F32970
:1002F00001F03482002070471FB51EF01AFF01F094
:1003000085FA0400002000211EF028F9401C6060DE
:10031000002000211EF00CF9E0601FBD10B510BDDB
:1003200001F046FA1146FFF7E7FF0FB400F00CF8B2
:100330000FBC1BF005FD00F0A5FA03B4FFF7EEFFBC
:1003400003BC01F02FFA000004B01BF06DFF04485D
:1003500000211CF035F81BF079FF00F093FA000043
:1003600030C1040880F309887047EFF309807047B3
:10037000684680F3098804480078C00714BF02204B
:10038000032080F314887047F0C00408DFF818C019
:10039000EFF305831B0618BF6047EFF31483DB07F9
:1003A00008BF604700DF704729CA0108DFF818C09E
:1003B000EFF305831B0618BF6047EFF31483DB07D9
:1003C00008BF604700DF70470DCC0108EFF30980DC
:1003D000816911F8021CE1BB90E80F1010B5E047ED
:1003E000BDE81040EFF3098C8CE80700214B93E83F
:1003F0000600914208BF704741B91EF0100F16D198
:100400001D49086820F00100086010E01EF0100F80
:1004100006BF2CED108A0120002081F825002CE970
:10042000F00FC1F828C00CB41DF040F80CBC1A60E5
:10043000D2F828C0BCE8F00F92F8250000280EBFC3
:100440006FF0020E6FF0120EBCEC108A8CF309886C
:10045000704710B5094A1268914209D8084C54F8FF
:10046000214090E80F10A047EFF3098C8CE80F00B3
:1004700010BD00003C03002034EF00E0EC20000839
:10048000EC20000810B51CF099FEBDE81040154B9B
:1004900093E80600914208BF7047EFF3098C1EF005
:1004A000100F06BF2CED108A0120002081F82500D6
:1004B0002CE9F00FC1F828C00CB41CF0F7FF0CBCFD
:1004C0001A60D2F828C0BCE8F00F92F82500002886
:1004D0000EBF6FF0020E6FF0120EBCEC108A8CF3A0
:1004E000098870473C03002010B51DF0A7F8CCE741
:1004F00010B51BF0D7FF1DF0A1F8C6E709488047EB
:1005000009480047FEE7FEE7FEE7FEE7FEE7FEE7F5
:10051000FEE7FEE7FEE7FEE704480549054A064B0D
:1005200070470000F59C0008B501000818EB032097
:1005300018F1032018ED032018ED03200048704740
:10054000B4EA032053EA020C00F069802DE9F04B75
:100550004FF00006002B1FBFB3FA83F503FA05F432
:1005600024FA05F65E4012BF1643B2FA82F502FA8B
:1005700005F4C5F120051EBF22FA05FC44EA0C046F
:10058000203556EA044C4FEA144418BF641C4FF05F
:1005900000084FF00009904271EB030C39D3002999
:1005A00019BFB1FA81F701FA07F6B0FA80F700FA3D
:1005B00007F6C7F120071EBF20FA07FC46EA0C0623
:1005C0002037B6FBF4FCA7EB0507103F07F01F0B25
:1005D000CBF120060CFA0BFB2CFA06F644BFB3460F
:1005E0000026202FA4BF5E464FF0000B5BEA060CEE
:1005F00008BF4FF0010B19EB0B09ABFB027C48EB7A
:100600000608C01B06FB02CC0BFB03CC71EB0C01F4
:10061000C1E70B46024641464846BDE8F08B13B59C
:100620004FF000004FF00001AFF30080BDE81C4028
:10063000704700001CB50C46064B7B446946009091
:10064000204600F05AFB04460020694600F068FB93
:1006500020461CBDE30600000FB41CB5084B06AADB
:100660007B4469460090059800F047FB0446002053
:10067000694600F055FB20461CBC5DF814FB0000E9
:10068000BD0600002DE9F0410646002410687529DA
:10069000314616A510D000F082FA002802DA404256
:1006A00013A507E031688A0701D512A502E04907C2
:1006B00004D511A5012401E000F07AFA00210A22F4
:1006C00006F1240709E0B0FBF2FCB0FBF2F302FBF9
:1006D0001C00303078541846491C0028F3D12346BA
:1006E0002A463046BDE8F04100F094BA0000000010
:1006F0002D0000002B000000200000002DE9F05F1D
:10070000894604464FF0000ADFF874B1FB44C0F894
:1007100020A02046E1688847002874D0252806D00C
:10072000D4E901219047206A401C2062F1E70026AD
:100730005F462046E16888472028054607DB312DC3
:1007400005D2781910F8200C08B10643F1E7B0077C
:1007500001D526F00406C4F81CA00027C4F818A090
:100760002A2D09D028460BF0C6FC38B304EB8708C5
:10077000303DC8F8185019E059F8041B204604EB26
:1007800087029161E1688847012F054618D1E06929
:10079000002820DA26F020061DE0D8F8180000EB2B
:1007A000800005EB40003038C8F818002046E168AA
:1007B000884705460BF09FFC0028EED1012F0AD098
:1007C0002E2D08D12046E16888477F1C0546022F60
:1007D00046F02006C4DBA069002803DA404246F058
:1007E0000106A061F00701D026F010066C2D0BD099
:1007F000682D09D04C2D39D06A2D35D0742D35D0C7
:100800007A2D33D016E038E0E1682F46204688473D
:10081000B842054609D16C2F26D04FF48060E168BC
:10082000064320468847054604E06C2F1AD04FF453
:10083000807006430DB3A5F14100192802D8203578
:1008400046F400664A462946204626604E46FFF793
:100850000BFD80B101280BD0F61D26F0070000F13A
:10086000080956E74020E4E78020D8E70020D6E7D3
:1008700006F104094DE7284652E7206ABDE8F09FDB
:1008800048BA040010B50446AFF300802046BDE826
:100890001040FFF752BD40EA0103024630B59B0706
:1008A00010D14FF0013400E008C208C91D1B9D4360
:1008B00015EAC41FF8D013F0FF0102F8011B0DD098
:1008C0001B0AF8E711F8013B002B02F8013B05D0A9
:1008D00011F8013B002B02F8013BF3D130BD10B5FC
:1008E000431C02E010F8011B71B18107FAD14FF0EF
:1008F000013202C88C1A8C4314EAC211F9D0C01A12
:100900000A0603D0C01E10BDC01A10BD0A0401D0D3
:10091000801E10BD0902FCD0401E10BD421E12F800
:10092000013F002BFBD111F8013B002B02F8013BEA
:10093000F9D17047032A40F2308010F0030C00F028
:10094000158011F8013BBCF1020F624498BF11F809
:1009500001CB00F8013B38BF11F8013BA2F10402C2
:1009600098BF00F801CB38BF00F8013B11F003033A
:1009700000F02580083AC0F0088051F8043B083A9E
:1009800051F804CBA0E80810F5E7121D5CBF51F840
:10099000043B40F8043BAFF30080D20724BF11F8BA
:1009A000013B11F801CB48BF11F8012B24BF00F81F
:1009B000013B00F801CB48BF00F8012B704710B590
:1009C000203AC0F00B80B1E81850203AA0E8185047
:1009D000B1E81850A0E81850BFF4F5AF5FEA027C08
:1009E00024BFB1E81850A0E8185044BF18C918C077
:1009F000BDE810405FEA827C24BF51F8043B40F818
:100A0000043B08BF7047D20728BF31F8023B48BFFC
:100A100011F8012B28BF20F8023B48BF00F8012B3A
:100A200070474FF000020429C0F0128010F0030C50
:100A300000F01B80CCF1040CBCF1020F18BF00F8D1
:100A4000012BA8BF20F8022BA1EB0C0100F00DB880
:100A50005FEAC17C24BF00F8012B00F8012B48BFDE
:100A600000F8012B70474FF0000200B51346944682
:100A70009646203922BFA0E80C50A0E80C50B1F1F6
:100A80002001BFF4F7AF090728BFA0E80C5048BF0A
:100A90000CC05DF804EB890028BF40F8042B08BFA8
:100AA000704748BF20F8022B11F0804F18BF00F8A4
:100AB000012B70474FF0013C50F8042B51F8043BD8
:100AC0009A4221D1A2EB0C03934313EACC1317D122
:100AD00050F8042B51F8043B9A4215D1A2EB0C03B9
:100AE000934313EACC130BD150F8042B51F8043B79
:100AF0009A4209D1A2EB0C03934313EACC13DBD047
:100B00004FF00000704700BFD01A01BAB1FA81F16E
:100B100001F0180122FA01F0CB40C1F12001DBB253
:100B2000C0B2C01A2CFA01F3D11A914311EAC311D1
:100B3000E6D1704770477047704710B500F014FA5F
:100B4000006810BD10B5044600F00EFA046010BD38
:100B500070B5044685690068C10601D5302600E0FD
:100B60002026C00707D070BDD4E901213046904748
:100B7000206A401C20626D1EF6D570BD70B504461B
:100B800085690078C00707D170BDD4E90121202014
:100B90009047206A401C20626D1EF6D570BD096822
:100BA0004A0501D540B27047C905FCD500B270476F
:100BB00009684A0501D5C0B27047C905FCD580B2A5
:100BC000704770B50C460546012A05D02878800686
:100BD00000D5EA69002302E0012305E05B1C934293
:100BE00002D2E05C0028F9D1A869E618C01AA86111
:100BF000286A184428622846FFF7AAFF04E0D5E9CE
:100C0000012114F8010B9047B442F8D32846FFF7AE
:100C1000B5FF70BD2DE9F0470D4699469246044652
:100C200000F124080168880604D5E06921F010016C
:100C3000216000E00120A84201DD471B00E0002701
:100C4000A1697A1902EB0900081AA0612078C00690
:100C500002D42046FFF77CFF002608E0D4E90121FA
:100C60001AF806009047206A401C761C20624E4508
:100C7000F4DB2078C0060AD52046FFF769FF06E0BE
:100C8000D4E9012130209047206A401C2062381EA0
:100C9000A7F10107F4DC07E0D4E9012118F8050009
:100CA0009047206A401C2062281EA5F10105F3DC54
:100CB0002046FFF763FF2078000602D50220BDE83A
:100CC000F0870120FBE711680268006A530501D52F
:100CD00008700AE0D30501D5088006E0130603D5A5
:100CE000C217C1E9000200E008600120704700005F
:100CF00001694A1C02610878704700B58FB0CDE9E0
:100D000001310021059105497944CDE903101146CF
:100D10006846FFF7F3FC0FB000BD0000E5FFFFFFE2
:100D20000A6802F8010B0A60704700002DE9FF5FB6
:100D300015468A460446DFF8AC80F8440027D8E917
:100D400000103E46CDE9001010E03AF816106A4651
:100D500002A800F007FD411C07D02178890603D5C1
:100D6000E269391891420DD80744761C2078800634
:100D700002D5E069B84205DDAE42E6DB3AF816007E
:100D80000028E2D1A069C01BA0612046FFF7E0FE69
:100D9000D8E90010CDE90010002017E03AF818104B
:100DA0006A4602A800F0DEFCB0F1FF3F81460BD09E
:100DB00000250DF1080B05E0D4E901211BF8050021
:100DC00090476D1C4D45F7D308F10100B0428046B5
:100DD000E4DB206A384420622046FFF7CFFEBDE8FE
:100DE000FF9F00002EB404002DE9F0418046D21D83
:100DF00022F007020025D2E90002F52915A614D039
:100E0000011E72F1000106DA0023D0EB030063EB50
:100E1000020211A608E0D8F800108B0701D50FA632
:100E200002E0490701D50EA601251146002408F16C
:100E3000240704E000F09AF830323A55641C50EA76
:100E40000102F7D12B46324621464046BDE8F0412B
:100E5000FFF7E0BE000000002D0000002B000000A6
:100E60002000000030B4002100F1240408E002F06A
:100E70000705D208303542EA4372DB086554491C45
:100E800052EA0305F3D10468002310A2250708D510
:100E900004F020040C4304D0C46901230CA2641E96
:100EA000C46130BCFFF7B6BE10B5044621461068D9
:100EB000FFF77EFE02462046BDE810400023D1E742
:100EC000D21D22F00701D1E90023CBE7000000008A
:100ED00030000000F0B40D460188090502D5214C10
:100EE0007C4402E01F4C7C440E34002100F12406B7
:100EF00008E002F00F071209E75D42EA03721B09DE
:100F00007754491C52EA0307F3D1027800231207F1
:100F100004D5702D06D009B1022311342246F0BC4D
:100F2000FFF778BE01231034F8E770B504460D468C
:100F300021461068FFF73CFE024629462046BDE8E0
:100F400070400023C6E7D21D22F00703D3E9002337
:100F5000C0E70368126843F0200303600823C361FD
:100F60000023B7E790B204000AF09EBB30B5B0F1A1
:100F70000A024FEA900E71F100034EEA817EB0EB57
:100F80000E0061EB91014FEA101E4EEA017E10EB5C
:100F90000E0041EB11114FEA102E4EEA016E10EBDC
:100FA0000E0041EB11214FEA104E4EEA014E10EBBC
:100FB0000E0041EB1141401841F100014FEAD00011
:100FC00040EA41704FEAD10110EB80054FEA8104FD
:100FD00044EA907444EB01046D1944EB0404521B81
:100FE000A3414FF0000348BF0A3200D530BD401C7A
:100FF00041F1000130BD70472DE9FF4F0C461E4600
:101000004FF0FF378BB0D2E90001DDF860800A9025
:101010008A46C1F30A5505B93D46002108464FF0FE
:101020000000BAF1000F00F4400005DA00EB800088
:101030004FF4400101EA50004FEA9059B9F1010F15
:1010400000DDB9460A9850EA4A000ED044F6105026
:10105000A5F2FF3545432F14B8F1000F1ED075429D
:10106000291E1EDDC9F100021CE0B8F1010F4FF08E
:10107000000001D0302103E0F24305E02154401C80
:10108000B042FBDB30460022002121540B99C1F80D
:101090000880C1E900200FB0BDE8F08FBD1B6D1CBA
:1010A000DEE74A4600DA694206A800F0F5FB06AB27
:1010B00093E8070003AB83E8070050460A9900F065
:1010C0005AFC8DE80700A0F500501F3800900398E7
:1010D000002D09DD42F21F014A46084403A903908E
:1010E000684600F0B9FE08E0A0F500504A461F38F7
:1010F00003A90390684600F0C3FE8DE807000004D2
:10110000000C03D04FF0FF30410800E01046B8F16A
:10111000000F03D00022009215461EE0751E05D474
:10112000FFF724FF303262556D1EF9D5B346012218
:10113000084302D000227F1C04E02078302801D12F
:1011400000227F1E002A099786D01DE0112D07DAA4
:10115000FFF70CFF303262556D1C50EA0102F5D1E9
:10116000084302D00098C8B10EE00021681E05E0D7
:10117000235C625C63542254401E491C8142F7DBAD
:10118000AB46A81B401E0990002004F80B000B98EA
:10119000099AC0F80880C0E9002B7CE711264FF0BF
:1011A000000859E72DE9F04F88460446D21D22F089
:1011B000070191B0D1E90001CDE90A0109F0F2FC83
:1011C00002460B98C00F01D02D2007E02068810750
:1011D00001D52B2002E0202101EAC000032A09905A
:1011E00001D0072A05DB03464146204600F014FBE8
:1011F0000BE12078800601D5E06900E00620B8F117
:10120000650F814606D0B8F1660F18D0B8F1670FA8
:1012100070D131E00020B9F1110F009001DB1123F2
:1012200001E009F101030AAA01A90CA8FFF7E4FEF5
:10123000DDE90C70002609F10105834647E0012035
:101240004B4600904FF000470AAA01A90CA8FFF7EF
:10125000D3FEDDE90DB00C995D46002610B909F109
:1012600001000D18B9EB050003D4C0F1FF3609F1F8
:101270000105A5EB09002BE0B9F1010F01DA4FF0F0
:1012800001090020B9F1110F0090484601DD11233A
:1012900000E003460AAA01A90CA8FFF7ADFEDDE9AC
:1012A0000C704D4600268346207800070AD4AB45D3
:1012B00000DA5D4601A8012D04DD411911F8011C79
:1012C000302907D04F4502DA17F1040F04DA012064
:1012D00082460FE06D1EEEE7002F02DCED1B3E4460
:1012E00003E0781CA84200DD7D1CB81B00F1010A58
:1012F0004FF000472078000703D4AA4501DB4FF0E8
:10130000FF3A0021B7F1004F0DF143088DF843106B
:1013100024D002202B23002F01DA7F422D230A2123
:10132000021EA0F1010000DC5FB197FBF1FC97FB0E
:10133000F1F201FB1C7C17460CF1300C08F801CDD2
:10134000EEE7A8F1010003702188090501D54521C8
:1013500000E06521A0F1010800F8011C09980FA91F
:10136000A1EB0807FF1D00B10120411901EBEA7054
:10137000A1693844081A401EA0612078C00602D432
:101380002046FFF7E5FB099828B1D4E901219047F1
:10139000206A401C20622078C00622D52046FFF734
:1013A000D7FB1EE0002E04DBB34502DD01A8805D03
:1013B00000E03020D4E901219047206A401C2062DF
:1013C000761CAAF101005FEA000A0AD100F01EFAB9
:1013D000C0680168405CD4E901219047206A401C44
:1013E0002062281EA5F10105DCDC07E0D4E901211B
:1013F00018F8010B9047206A401C2062381EA7F1A4
:101400000107F3DC2046FFF7B9FB032011B043E6E8
:101410002DE9F04F04460D46D21D22F0070089B099
:10142000D0E900974846394609F0BCFB0246F80F60
:1014300001D02D2307E02068810701D52B2302E08E
:10144000202101EAC0038DF820300BB1012000E01B
:101450000020032A824601D0072A04DB29462046C1
:1014600000F0DAF93FE12078800601D40D2500E094
:10147000E569C7F30A560D2D49DA00214FEA175BDB
:1014800008464FF00000002F00F4400007DA00EBA0
:1014900080004FF4400100EBD07001EA600081153C
:1014A000012901DD4FF0FF3100224FEA850CBCF12C
:1014B000180F06D31346ACF118004FF08052C2400B
:1014C00003E04FF4801323FA0CF30CF10C0CBCF185
:1014D000200F04D3ACF1200C09FA0CF001E007FA5C
:1014E0000CF000294FF0004801DD18B90FE00ED1D3
:1014F00040450CD319EB02095F4121B9404502D1A7
:101500009F4329EA0209BBEB175F00D0761C2088B5
:10151000000502D57B48784402E07A4878441938BF
:1015200008AA302302F80A30037C0AF10101002ED8
:101530000AF1020A53546A4602DC4FF0300101E01E
:101540004FF031014FF001088DF8001002D0A6F2E3
:10155000FF3603E059EA470100D06B4E002D02DC54
:101560002178090704D54FF002082E218DF80110CB
:10157000C44600210BE0C7F303433F01C35C491C91
:101580006D1E02F80830052908F1010801DA002D66
:10159000F1DC00210CE000EB1973491C1B786D1E77
:1015A000082902F808304FEA091908F1010801DAA0
:1015B000002DF0DC21688B0602D516E0A8F10108A9
:1015C000E04505DD02EB080313F8013C302BF5D0B4
:1015D000B8F1000F09DD02EB080313F8013C2E2BD4
:1015E00003D1090701D4A8F10108002D05DD3E2132
:1015F00002F808106D1E08F10108407C002E02F868
:10160000080008F1010804DA2D20764202F80800EB
:1016100002E02B2002F808000A214FF47A7086427B
:1016200008F101080BDB96FBF0F3303302F80830C9
:1016300096FBF0F308F1010800FB136601E0642E4D
:101640000CDB642096FBF0F3303302F8083096FB95
:10165000F0F308F1010800FB136601E00A2E06DB37
:1016600096FBF1F0303002F8080008F1010896FB13
:10167000F1F001FB1060303002F80800A16908F1B8
:10168000010808EB050202EB0A00081AA0612078A5
:10169000C00602D42046FFF75BFA216A08AE01EBD0
:1016A0000A00206204E0D4E9012116F8010B9047FA
:1016B000BAF1010AF7D22078C00602D52046FFF71A
:1016C00047FA6E4609E016F8010B3E280FD0D4E920
:1016D00001219047206A401C2062B8F10108F2D233
:1016E0002046FFF74BFA09B00320BDE8F08F206ACF
:1016F0002844206203E0D4E90121302090476D1E88
:10170000EBD3F8E7B9AD040002FCFFFF10B5436965
:1017100013B1AFF3008001E0FFF753FA012010BDD1
:10172000127800F124010A7000224A700122EDE7CC
:1017300011684FF0FF32E9E710B5436913B1AFF319
:10174000008001E0FFF7F2FA012010BD128800F1DD
:10175000240182840022C2840122EDE711684FF047
:10176000FF32E9E770B516460C46054600F046F82C
:10177000036893F80101012806D0FF2C0FD8185DEB
:1017800068B101202C7070BDD3F8070132462146A4
:1017900003F2071303442846BDE8704018474FF092
:1017A000FF3070BD01491820ABBEFEE726000200E5
:1017B0007546FEF7C3FEAE4605006946534620F067
:1017C0000700854618B020B5FEF7A6FEBDE820400C
:1017D0004FF000064FF000074FF000084FF0000BED
:1017E00021F00701AC46ACE8C009ACE8C009ACE8A0
:1017F000C009ACE8C0098D467047000010B500F084
:1018000005F8001D10BD00BF55CD010010B5FEF755
:1018100095FE203010BD00002DE9F0411F46044622
:1018200003260168072A01F4006004DB08B116A54D
:1018300005E016A503E008B115A500E015A521F007
:1018400010002060A069C01EA0610FB1401EA06101
:101850002046FFF77DF94FB1D4E901213846904782
:10186000206A401C2062C01C206206E0206AFAE761
:10187000D4E9012115F8010B9047761EF8D22046D5
:10188000FFF77CF9BDE8F0814E414E006E616E00BD
:10189000494E4600696E66002DE9F04781461646BE
:1018A0008AB0334878440DC88DE80D00304878443C
:1018B000801C03AC0DC884E80D0041F69B30084441
:1018C000372190FBF1F290FBF1F5A5F1800501FBCA
:1018D00012041B3C02D56442012000E00020DFF826
:1018E00090A080460027FA44AAF1BE0A0DE0E00766
:1018F00009D03246684607EB47010AEB810100F048
:10190000BFFA8DE8070064107F1C002CEFD1184F40
:101910007F44AC3F18E0E80714D007EB04100DF14A
:10192000180A90E80E008AE80E00C068F04201D163
:1019300098190890324606A903A800F0A1FA03AB53
:1019400083E807006D10641C002DE4D1324669461F
:10195000B8F1000F03A802D000F07EFA01E000F019
:101960008FFAC9E90001C9F808200AB0BDE8F0877C
:10197000BCAA040070475FEA400C08BF91F0000F5A
:101980004FEA8C234FEAC12243EA51514FEA1C50DF
:1019900018BF00F5F0404FEA300018BF41F0004199
:1019A0005FEA6C5C00F02980BCF1FF3F08BF40F0AB
:1019B00080407047130C06BF12044FF0100C4FF01C
:1019C000000C130E04BF12020CF1080C130F04BF1D
:1019D00012010CF1040C930F04BF92000CF1020CE5
:1019E000D30F04BF52000CF1010C11464FF000025E
:1019F000A0F11F00A0EB0C00704711F0004F08BFD2
:101A0000704731F000413FF4D5AF0B0C06BF09041D
:101A10004FF0100C4FF0000C0B0E04BF09020CF13C
:101A2000080C0B0F04BF09010CF1040C8B0F04BF51
:101A300089000CF1020CCB0F04BF49000CF1010C22
:101A4000CCF12003A0EB0C0022FA03F302FA0CF213
:101A500041EA030100F10100704720F07F4C80EA69
:101A6000030023F07F47ACEB070303F57C5300F042
:101A7000004003F1FF032DE980494FEA154B09B4FB
:101A80004FEA144325EA0B4E24EA03480FF20426DA
:101A900006EB132749083E785FEA320203FB06672C
:101AA000C7F5000707FB06F64FEA54374FEAD6465C
:101AB00006F1020607FB066CCCF1005C4FEA1C47FE
:101AC0002CEA074C07FB06F40CFB06F504EB154665
:101AD0004FEA961634BF00204FF000404FEAD1374E
:101AE00006FB07FC4FEA1C4C0CFB0BF7D21B03FB5D
:101AF0000CF761EB07010CFB0EF7B0EB074072EB44
:101B000017420CFB08F734BFA2EB0742B2EB0742C7
:101B100061EB17414FEA0C444FEA910706FB07FCC3
:101B20004FEA1C4C0CFB0BF7B0EBC74072EB573283
:101B300003FB0CF734BFA2EBC742B2EBC74261EB29
:101B400057310CFB0EF7B0EBC70072EB57720CFB72
:101B500008F734BFA2EBC702B2EBC70261EB5771C3
:101B6000039F4FEA816141EA921104EBCC044FEAF2
:101B7000D1374FEA826206FB07FC42EA90124FEA35
:101B800080604FEA1C4C0CFB0BF7D21B03FB0CF7DD
:101B900061EB07010CFB0EF7B0EB074072EB17424D
:101BA0000CFB08F734BFA2EB0742B2EB074261EB34
:101BB00017414FEA8C554FEA910704EB9C2406FB32
:101BC00007FC4FEA1C4C0CFB0BF7B0EBC74072EB69
:101BD000573203FB0CF734BFA2EBC742B2EBC7424C
:101BE00061EB57310CFB0EF7B0EBC70072EB57728D
:101BF0000CFB08F734BFA2EBC702B2EBC70261EBE4
:101C0000577115EB4C254FEA816141EA92114FEA79
:101C100082624FEAD13742EA901206FB07FC44F198
:101C200000044FEA80604FEA1C4C0CFB0BF7D21B00
:101C300003FB0CF761EB07010CFB0EF7B0EB074061
:101C400072EB17420CFB08F734BFA2EB0742B2EB72
:101C5000074261EB174115EB1C154FEA813141EA50
:101C600092414FEA823242EA90424FEA80304FEA94
:101C70000C7644F1000448EA03434EEA0B484FF067
:101C8000000EB2EB080C71EB030724BF6246394625
:101C90004EEB0E0E4FF0000B0018524149414BEB3A
:101CA0000B0BB2EB080C71EB03077BF1000B24BFAD
:101CB000624639464EEB0E0E4FF0000B00185241B3
:101CC00049414BEB0B0BB2EB080C71EB03077BF1BB
:101CD000000B24BF624639464EEB0E0E51EA020756
:101CE00018BF46F0010616EB0E7655F1000254F1CE
:101CF000000103D5BDE88901BDE80088BDE8890180
:101D0000BDE80048B619524141EB0101A3F10103BE
:101D1000704780807F7E7D7C7B7A79787776767558
:101D20007473727171706F6E6E6D6C6C6B6A6A69D0
:101D30006868676666656464636362616160605F6A
:101D40005F5E5E5D5D5C5C5B5B5A5A5959585857E3
:101D5000575656555555545453535252525151504B
:101D600050504F4F4F4E4E4D4D4D4C4C4C4B4B4B9E
:101D70004A4A4A49494948484847474747464646E4
:101D8000454545444444444343434342424242411F
:101D90004141002B26D4770021D01CB54FEA3707EC
:101DA00003B44FF010004FF010014FF000000FBCD3
:101DB000BDE810400BF1010BBBF1010F08BF5FEA5A
:101DC000170722BF12F1010211F101014FF000418A
:101DD00043F1000300F0004043EA00007047F9D3EC
:101DE0005708DAE746EA064613F1400F4FEA16466F
:101DF0001FDD13F1200FDFBF16430A4600212033F9
:101E00005B42C8D0C3F1200746EA064602FA07F74C
:101E10004FEA164646EA0706C3F1200722FA03F204
:101E200001FA07F721FA03F14FF0000342EA070233
:101E3000B1E746EA020646EA06464FEA164646EA91
:101E40000106BCBF46EA0646360C4FF000034FF0D1
:101E500000024FF000019EE72DE9C048934630B4E0
:101E600091E8380007C831EA400C48BF34EA430C17
:101E700003D5FFF7F2FDFFF78CFFF0BCBDE800884B
:101E80002DE9C048934630B491E8380007C810F0F7
:101E9000804F08BF13F0804F03D100F005F8FFF723
:101EA00078FFF0BCBDE8008820F07F4780EA03009F
:101EB00023F07F4C07EB0C03A3F57C5300F00040AC
:101EC000A3F1FE0392F0000F00F0B38095F0000F35
:101ED00000F077802DE901494FEA11404FEA14469E
:101EE00021EA004800FB06FC24EA064708FB06F648
:101EF00007FB08F800FB07F718EB06484CEB164CFD
:101F00004FEA124B18EB07484FEA15464CEB1740C7
:101F100022EA0B4E0BFB06FC25EA06470EFB06F6F3
:101F200007FB0EFE0BFB07F71EEB064E4CEB164CA9
:101F30004FF000061EEB074E4CEB174B18EB0B084F
:101F400040F1000018EB0E0B58EB000840F10000C8
:101F50008F1A4FF000013CBFC943661B14BFB5EB9D
:101F6000040C00213CBFC943F61B4FEA17444EEA5C
:101F70008E0E27EA04454FEA1C4704FB07622CEA51
:101F8000074C05FB07F70CFB05F604FB0CFC16EBF6
:101F9000074642EB174216EB0C4642EB1C421BEB8A
:101FA000060658EB0202414146EA9E0601D5BDE80D
:101FB0000189B619524141EB0101A3F10103BDE8CA
:101FC00001894FEA14454FEA114724EA054621EA00
:101FD000074C05FB07F406FB07F70CFB06F105FBB6
:101FE0000CFC11EB074144EB17444FEA124711EB8D
:101FF0000C4144EB1C4422EA074C05FB07F206FBAC
:1020000007F70CFB06F605FB0CFC16EB074642EB4C
:10201000174216EB0C4642EB1C456A1854F10001BE
:1020200048BF7047B619524141EB0101A3F10103CA
:10203000704795F0000F37D04FEA11424FEA14472E
:1020400021EA024624EA074C02FB07F106FB07F7E8
:102050000CFB06F402FB0CFC14EB074441EB1741AC
:102060004FEA154714EB0C4441EB1C4125EA074CA1
:1020700002FB07F506FB07F70CFB06F602FB0CFC60
:1020800016EB074645EB174516EB0C4645EB1C4295
:10209000121951F1000148BF7047B619524141EB86
:1020A0000101A3F1010370474FEA14454FEA1147BC
:1020B00024EA054621EA074C05FB07F106FB07F772
:1020C0000CFB06F24FF0000605FB0CFC12EB07427E
:1020D00041EB174112EB0C4251EB1C4148BF7047DA
:1020E000921841EB0101A3F10103704700000000C9
:1020F00010B5044600202085608520460AF072F85D
:1021000094F82D0084F82C0010BD00007CB5044626
:1021100000F098F8054600F08FF806460020CDE95B
:1021200000040848006800EB800202EBC002064889
:1021300000EB82002B463246416A0248006805F0F7
:10214000A9FF7CBDD0020020A85B002008B50020BC
:1021500000900448282315220168034802F08FFEEE
:1021600008BD0000C45A0020185C002008B50020FB
:1021700000900448292315220168034802F07FFEDD
:1021800008BD0000C45A0020185C002030B503468A
:1021900000F052F801FB003084000648006800EBB4
:1021A000800505EBC005044800EB8500406A02513C
:1021B00030BD0000D0020020A85B00202DE9FC47C4
:1021C00004460D4616461F4600BF1849096801EB34
:1021D0004101174A52F8210000F0E0FA00F02CF813
:1021E00000FB05411148006800EB800202EBC002D1
:1021F000104800EB8200406A042202FB010800F054
:102200001BF8A0EB06090948006800EB40000849EC
:1022100051F820003B4632464146CDE90090034844
:10222000006805F037FFBDE8FC870000D002002001
:10223000345C0020A85B0020014800687047000063
:10224000C80200200148006870470000CC0200204E
:102250002DE9F04F87B0804646F62539002600F07C
:102260002DFA00F02BF9684868490860084602F02A
:10227000A5FC7D20049002200590002006904FF2DE
:10228000244601216148C16043F60450B6FBF0F1D9
:102290005E48816004A902F0C9FCB8F1000F0FD1BB
:1022A0004FF00C0A0C200390834678247825782779
:1022B000A000574908604FF44870564908600EE086
:1022C0004FF00C0A0C200390834678247825782759
:1022D0004FF448704E490860A0004E4908604C48D1
:1022E000006801904B480068029000204A4908604D
:1022F00048600862C86148620220C86040F6FF700A
:102300008861002048610198086104FB06F0B0FB79
:10231000F9F0886205FB06F0B0FBF9F0C86201989D
:102320002044284438447043B0FBF9F00863084661
:10233000C0F834A0039888630846C0F83CB00298FF
:1023400008644FF40040486440208864C864C001B9
:10235000086540104865401088654010C865401009
:10236000086640104866294802F0C0FA274802F083
:10237000BFFD601E294948616019401EC86124489C
:10238000006820442844401E4862214800682044D8
:1023900028443844401EC8621D4801681F48016631
:1023A0001C4801681D48416608201D4908604FF41B
:1023B000C070086107211A48C1610020184988626D
:1023C000084603F0FFFB0021144880F8341080F821
:1023D000351080F8361001611248104908600E4926
:1023E0000E4803F06AFA0D4803F0D2F900F0E2F962
:1023F0000D4800F09DF908494868414606F0FEF88E
:10240000002007B0BDE8F08F006C0140185C002090
:10241000C8020020CC020020C45A0020705B0020BB
:102420004C5C002000680140A002002030B58DB057
:1024300004460D4600200090FFF7FEFE01900020AC
:102440000290FFF7FFFE0390002004900995FF2003
:102450000590002006908DF8300000218DF8311095
:102460008DF832104FF4C060079007200890FFF7F6
:10247000E3FE0A90FFF7E6FE0B90224669460C4801
:1024800003F056F94FF0FF3004EB4401094A02EB28
:1024900081014860084804EB440102EB8101886037
:1024A0004FF07F4004EB440142F821000DB030BDF5
:1024B000705B0020345C0020A002002008B500BF43
:1024C000002000903748006840F08060354908607F
:1024D0000846006800F08060009000BF00BF3148EF
:1024E0002038006840F080602E4920390860084696
:1024F000006820F08060086000BF0020009029483C
:102500001438006840F40000264914390860084671
:10251000006800F40000009000BF00BF214834387C
:10252000006840F400001F4934390860084600681C
:1025300020F40000086000BF0020009019480068E7
:1025400040F00060174908600846006800F000602D
:10255000009000BF00BF13482038006840F00060C2
:102560001049203908600846006820F000600860C3
:1025700000220321582003F0E1F9582003F0CEF99E
:10258000002203215A2003F0D9F95A2003F0C6F99A
:10259000002203215C2003F0D1F95C2003F0BEF996
:1025A00008BD00004438024030B5024600BF414833
:1025B000006800EB800404EBC0043F4800EB84009B
:1025C000006980B9FFF738FE01FB0020440039485C
:1025D000006800EB800505EBC005374800EB85007F
:1025E000406A035963E03348006800EB800404EB61
:1025F000C004314800EB84000069012812D1FFF7C4
:102600001BFE01FB002044002A48006800EB800507
:1026100005EBC005284800EB8500406A005920F012
:102620007F4344E02348006800EB800404EBC004CF
:10263000214800EB84000069022817D01D4800687B
:1026400000EB800404EBC0041B4800EB840000692D
:1026500004280BD01748006800EB800404EBC0048A
:10266000154800EB84000069072810D1FFF7E4FD4E
:1026700001FB002044000F48006800EB800505EBDB
:10268000C0050D4800EB8500406A035B0FE0FFF7D3
:10269000D3FD01FB002044000648006800EB8005E4
:1026A00005EBC005044800EB8500406A035D184651
:1026B00030BD0000D0020020A85B002000B587B02C
:1026C00000BF002001901548006840F080001349C9
:1026D00008600846006800F08000019000BF00BF5D
:1026E0008020029011200390002004900320059088
:1026F00002A90B4802F028FC00228021084802F0C1
:1027000039FD142002F012FC01228021044802F05D
:1027100031FD0A2002F00AFC07B000BD303802404B
:10272000001C02400149086070470000D0020020F0
:102730000449096801EB4101034A02EB8101886009
:1027400070470000D0020020345C002010B5012941
:102750000CD1114A12688432C301D25842F00103ED
:102760000D4A12688432C40113510BE00A4A126800
:102770008432C301D25822F00103074A126884321E
:10278000C4011351044A1268526A42F00102024B1A
:102790001B685A6210BD0000705B00200349096885
:1027A00001EB4101024A42F821007047D0020020AB
:1027B000345C002010B51E481E49086002201E49E6
:1027C000086007204860042088600720C860022055
:1027D0000861486188610020164948600021154859
:1027E0008160C16020210161402141614FF4C071CD
:1027F00081610021C1614FF40061016249004162C1
:102800000021816200F068F80B490A4804F089F958
:1028100018B101200949087002E00020074908703A
:1028200040F2695000F00CF80448007810BD000038
:10283000400100A0885C0020BC5C0020D402002085
:1028400038B504460020009001202149086010207E
:102850004860012088600020C8604FF6FF721D4864
:1028600004F094F9012002F061FB0220184908608D
:1028700010204860012088600020C8604FF6FF7279
:10288000144804F083F903201149086010204860BF
:10289000082088600020C8604FF6FF720D4804F0E1
:1028A00075F94FF40C70009004200949086010205D
:1028B0004860012088600098C8604FF6FF720548A4
:1028C00004F064F92146034804F04CF938BD0000D7
:1028D000D85C0020885C002030B587B004460D46E7
:1028E000002C7DD000BF002001907948006840F0A6
:1028F0000100774908600846006800F00100019077
:1029000000BF00BF00BF0020019071480838006878
:1029100040F480006E49083908600846006800F4F9
:102920008000019000BF00BF00BF0020019008465A
:10293000006840F0040008600846006800F00400E9
:10294000019000BF00BF00BF002001900846006852
:1029500040F0080008600846006800F00800019098
:1029600000BF00BF00BF002001900846006840F093
:10297000100008600846006800F01000019000BFD9
:1029800000BF00BF002001900846006840F0200012
:1029900008600846006800F02000019000BF00BFFA
:1029A00000BF002001900846006840F04000086029
:1029B0000846006800F04000019000BF00BF00BF63
:1029C000002001900846006840F08000086008463A
:1029D000006800F08000019000BF00BF00BF00E071
:1029E00074E0002001900846006840F480700860A0
:1029F0000846006800F48070019000BF00BF02200C
:102A0000039001200490022005900C2006900120E4
:102A1000029002A92F4802F097FA4CF2037002903C
:102A200002A92D4802F090FA4FF68370029002A995
:102A30002A4802F089FA4FF63F00029002A928487E
:102A400002F082FA48F23310029002A9254802F0FF
:102A50007BFA4FF60C70029002A9234802F074FA38
:102A600040F2FF60029002A9204802F06DFA0020B7
:102A70001F49486080211E4881608900C16049006B
:102A8000016189004161890081610021C1614FF4C8
:102A90000031016200214162032181620021C16293
:102AA000016314481249086000BF0846206384632C
:102AB00000BF01F075FE0E4801F0A4FE00220521C2
:102AC000382002F03BFF382002F028FF07B030BD6D
:102AD0003838024000080240000C0240001002405A
:102AE0000014024000180240001C02400020024076
:102AF000E85C00201064024030B587B004460D4603
:102B000000BF002001900D48006840F040000B49D4
:102B100008600846006800F04000019000BF00BF58
:102B200004200290002003900120049003200590CF
:102B300002A9034802F008FA07B030BD303802405D
:102B4000001802402DE9FC4106460F4614461D467A
:102B500032463B460548CDE9004504F035F810B152
:102B60000120BDE8FC810020FBE70000A85D0020FB
:102B700010B504462146024804F0E3F810BD0000F9
:102B8000A85D002010B5024804F0CAF810BD00008E
:102B9000A85D002010B500241648174908600020E1
:102BA0004860002114488160C16001614FF4804198
:102BB000416100218161FFF79FFF00F021F80128AA
:102BC00001D0022010BD00210B4800F029F80B496C
:102BD000094804F02DFA00B1012444B94FF4006112
:102BE000054804F079FB08B1012400E000242046E8
:102BF000E8E70000002C0140A85D0020085E0020EE
:102C000008B5012000900421044802F0ABFA012825
:102C100001D1002000909DF8000008BD001802407E
:102C200030B587B004460D4600BF002001906148D2
:102C3000006840F400605F4908600846006800F4DE
:102C40000060019000BF00BF00BF00200190594804
:102C50001438006840F4800056491439086008466A
:102C6000006800F48000019000BF00BF00BF00209A
:102C700001900846006840F00400086008460068BB
:102C800000F00400019000BF00BF00BF00200190D1
:102C90000846006840F0080008600846006800F038
:102CA0000800019000BF00BF0220039001200490A3
:102CB000032005900C2006904FF4F850029002A9D2
:102CC0003D4802F041F90420029002A93B4802F07D
:102CD0003BF900220521312002F030FE312002F0C4
:102CE0001DFE4FF000603649486000213448816085
:102CF000C1604FF480610161890041618900816197
:102D00002021C1614FF4403101620421416203215D
:102D100081624FF40001C16289100163294828498A
:102D2000086000BF0846A065846300BF01F038FD5D
:102D3000234801F067FD4FF00060234948604021BF
:102D4000214881600021C1604FF4806101618900E8
:102D50004161890081612021C1614FF440310162EC
:102D600004214162032181624FF40001C162891094
:102D70000163144848301449086000BF0846E06504
:102D8000846300BF01F00CFD0F4801F03BFD002201
:102D900006213B2002F0D2FD3B2002F0BFFD0022C5
:102DA0000621452002F0CAFD452002F0B7FD07B01C
:102DB00030BD00004438024000080240000C0240D0
:102DC000605E002058640240C05E00202DE9FC4196
:102DD000044615461E46DDE908782A463346214654
:102DE0000548CDE9007804F072F910B10120BDE882
:102DF000FC810020FBE70000A85D00202DE9FC41DC
:102E0000044615461E46DDE908782A463346214623
:102E10000548CDE9007804F09EFA10B10120BDE824
:102E2000FC810020FBE70000A85D00202DE9FC47A5
:102E300005464FF000094B48006801694A48007890
:102E400088472870287800287DD0002483E06846D1
:102E500000EB440201A800EB4401424800684369CA
:102E60004148007898474148007800F0080048B190
:102E700001A830F814603DF8140001A921F81400ED
:102E80002DF814603948007800F0020040B101A824
:102E900030F8140040F21F31081A01A921F814007B
:102EA0003248007800F0040038B13DF8140040F2D8
:102EB000DF11081A80B22DF8140001A830F81400B0
:102EC0002B4951F82410884207D901A830F8140082
:102ED000274951F82410401A06E0254850F82400EC
:102EE00001A931F81410401A87B23DF814002149A5
:102EF00051F82410884206D93DF814001D4951F8B4
:102F00002410401A05E01B4850F824003DF8141026
:102F1000401A1FFA80F807EB080005280ADD01A80F
:102F200030F81400124941F824003DF8140011490A
:102F300041F824000E4830F8240081B2A81C20F883
:102F400014100C4800E00AE030F8240081B2A81DFB
:102F500020F81410641C2878A0423FF678AF484649
:102F6000BDE8FC87D8020020DD020020DC02002042
:102F70000C0300201403002070B504460D46002603
:102F8000154801681548007888471348416854205F
:102F9000884711281CD110481149086054200F4956
:102FA0000870AC4203DA01200E49087002E00C20E0
:102FB0000C4908706EB90A480068816807480078B3
:102FC000884707480068C16804480078884700E0DF
:102FD0000326304670BD000070020020DD02002094
:102FE000D8020020DC02002070B504460D46287986
:102FF0000D2802D0287920280CD1287B00F0010070
:1030000020B1E06920F00100E06103E0E06940F0F8
:103010000100E061204608F0ABFF70BD70B50446CA
:103020000D461646E06940F00100E061204608F0D8
:103030009FFF70BD70B504460D461646E06920F04E
:103040000100E061204608F093FF002D09DB002E0F
:1030500007DBB4F91000A84203DDB4F91200B04256
:1030600000DC70BD4FF41071204608F065FF00BF12
:10307000F7E700002DE9F04F8FB00446E0A013F011
:1030800084F98346BBF1000F03D1E0A013F07DF972
:103090008346DFA013F079F98246BAF1000F03D11D
:1030A000DAA013F072F982464FF00009E06910F0DF
:1030B000DCFF0546E06910F0D1FF064600962B467E
:1030C00000221146E06912F0A2FA208A40F01000B6
:1030D00020826068807800F0200010B30020ADF8F6
:1030E0002C00ADF82E00681E00B2ADF830000021B3
:1030F000ADF83210681E00B2ADF83400701E01B297
:10310000ADF83610284605EBD071491009B2ADF87C
:103110003810304606EBD07149100AB2ADF83A20AB
:1031200040E02846E91705EB9171891009B2ADF826
:103130002C103046F11706EB9171891009B2ADF8E9
:103140002E102846E91705EB9171A5EBA10109B2F4
:10315000ADF830103046F11706EB917189100AB2C4
:10316000ADF832202846E91705EB9171A5EBA101D6
:1031700009B2ADF834103046F11706EB9171A6EBA9
:10318000A1010AB2ADF83620284605EBD0714910EE
:1031900009B2ADF83810304606EBD07149100AB2CA
:1031A000ADF83A20FF21E0690DF00FFF0120FF216B
:1031B0006FF07F42CDE902B2CDE9041097A01E2145
:1031C000CDE900102B4605220021E06910F09CFE9D
:1031D0006068807800F0400008B1042000E003201F
:1031E0000690002752E00BA800EB8701204600F074
:1031F00043FB00BF02E0142019F00AF8A07B00F0A6
:1032000001000028F7D0002080460490059011E0CE
:10321000B8F1FA0F0BD2B4F90810059808440590DC
:10322000B4F90A1004980844049008F10108142025
:1032300018F0EEFFA07B00F001000028E8D1B8F103
:103240000F0FD7D30598B0FBF8F000B207A921F80B
:1032500027000498B0FBF8F000B201EB870148802A
:103260000BA800EB87000390FF201F21CDE9001081
:10327000039B5B880F3B1AB2039B1B880F3B19B261
:103280001F23E06910F032FC00BF7F1C06988742C4
:10329000A9D307AA0BA9204600F0D2F8606880786D
:1032A00000F0400000287BD0207C00F0200010B10E
:1032B0006068223001E060681C30074604F120019C
:1032C0000AA800F0B1FB6068807800F0040098BBA9
:1032D000E06910F0C7FE38B15A2806D0B42810D0E3
:1032E000B0F5877F29D11BE028E0BDF92820681EB2
:1032F000BDF82A10401A00B2ADF82800ADF82A2017
:103300001CE0681EBDF82810401A00B2ADF8280075
:10331000701EBDF82A10401A01B2ADF82A100DE057
:10332000BDF92A20701EBDF82810401A01B2ADF870
:103330002A10ADF8282001E002E000BF00BF00BF66
:10334000BDF92800BDF93810411A4943BDF92A20BA
:10335000BDF93A00121ABDF92A30181A02FB0019F9
:10336000388810FB00F0484517D201202E494FF451
:103370007F02CDE902A2CDE904102CA02821CDE9DD
:1033800000102B4623220021E06910F0BDFD40F61D
:10339000B83018F03DFF02E002E04FF0000900BF36
:1033A00058460DF05AFD50460DF057FD208A20F08A
:1033B00010002082208A40F004002082B9F1000F22
:1033C0000DD1208A40F0080020826068406B30B147
:1033D0006068182204F12001436B204698470021C1
:1033E000E181204600F044FE15F090FF0746394683
:1033F000E0690DF0EAFD48460FB0BDE8F08F00002F
:103400002A20446F75626C65000000002A000000ED
:103410002A204E6172726F770000000043616C6970
:1034200062726174696F6E0000FFFF0043616C6936
:1034300062726174696F6E204661696C6564210017
:10344000F0B506460B46B3F90070B3F90450B3F972
:1034500008407068807800F00400002837D1F069D7
:1034600010F000FE5A2805D0B4280AD0B0F5877FA6
:103470002BD118E0B3F90270B3F90650B3F90A4042
:1034800024E0F06910F0F1FD401E00B2044605464C
:1034900007461888381A07B29888281A05B218897A
:1034A000201A04B212E0F06910F0D8FD401E00B2FC
:1034B0000446054607465888381A07B2D888281A9D
:1034C00005B25889201A04B200E000BF00BFB2F96B
:1034D0000000B2F90810401A00EE900AB8EEE01AA7
:1034E000B2F90610B2F90A00081A00EE900AF8EED6
:1034F000E00A61EE200AB2F90400B2F90810401A9D
:1035000001EE100AF8EEC11AB2F90210B2F90A007F
:10351000081A01EE100AB8EEC11AB0EE600A01EE08
:10352000C10AB2F90610B2F90A00081A00EE900AB0
:10353000B8EEE01A381B00EE900AF8EEE00A61EEF1
:10354000200AB2F90210B2F90A00081A01EE100AB4
:10355000F8EEC11A281B01EE100AB8EEC11A41EEAE
:10356000610A80EE801A86ED081AB2F90000B2F9FD
:103570000810401A00EE900AB8EEE01A281B00EE80
:10358000900AF8EEE00A61EE200AB2F90400401A4F
:1035900001EE100AF8EEC11A381B01EE100AB8EE5F
:1035A000C11A41EE610A80EE801A86ED091AB2F95D
:1035B000040000EE900AB8EEE01AB2F90A0000EE3C
:1035C000900AF8EEE00A21EE201AB2F9080000EEA7
:1035D000900AF8EEE01AB2F9060000EE900AF8EE52
:1035E000E00A01EEE01A00EE907AF8EEE00A21EE31
:1035F000201AB2F9000000EE900AF8EEE01AB2F9D3
:103600000A0000EE900AF8EEE00A61EEA01AB2F9A4
:10361000080000EE900AB8EEE02AB2F9020000EECF
:10362000900AF8EEE00A42EE601A00EE905AB8EE08
:10363000E02AF0EE410A42EE610AB2F9000001EE22
:10364000100AF8EEC11AB2F9060001EE100AB8EE3F
:10365000C11A61EE811AB2F9040001EE100AB8EE47
:10366000C12AB2F9020001EE100AB8EEC11A42EE08
:10367000411A01EE104AB8EEC11A41EE210A80EE5D
:10368000801A86ED0A1AB3F90270B3F90650B3F93D
:103690000A407068807800F00400002837D1F06993
:1036A00010F0E0FC5A2805D0B42815D0B0F5877F7B
:1036B0002BD123E0F06910F0D8FC401E00B2044684
:1036C000054607461888381A07B29888281A05B29E
:1036D0001889201A04B219E0F06910F0BFFC401EEE
:1036E00000B20446054607465888381A07B2D888FB
:1036F000281A05B25889201A04B207E0B3F90070FD
:10370000B3F90450B3F9084000E000BF00BFB2F9BC
:103710000610B2F90A00081A00EE900AB8EEE01A94
:10372000381B00EE900AF8EEE00A61EE200AB2F9CA
:103730000210B2F90A00081A01EE100AF8EEC11AD6
:10374000281B01EE100AB8EEC11A41EE610A80EEA4
:10375000801A86ED0B1AB2F90000B2F90810401A6F
:1037600000EE900AB8EEE01A281B00EE900AF8EE80
:10377000E00A61EE200AB2F90400401A01EE100AD4
:10378000F8EEC11A381B01EE100AB8EEC11A41EE6C
:10379000610A80EE801A86ED0C1AB2F9040000EE80
:1037A000900AB8EEE01AB2F90A0000EE900AF8EEBC
:1037B000E00A21EE201AB2F9080000EE900AF8EEB5
:1037C000E01AB2F9060000EE900AF8EEE00A01EE07
:1037D000E01A00EE907AF8EEE00A21EE201AB2F933
:1037E000000000EE900AF8EEE01AB2F90A0000EECE
:1037F000900AF8EEE00A61EEA00AB2F9080001EEC4
:10380000900AB8EEE12AB2F9020001EE900AF8EE51
:10381000E12AF0EE601A42EE621A00EE905AB8EE1B
:10382000E02AF0EE410A42EE610AB2F9000001EE30
:10383000100AF8EEC11AB2F9060001EE100AB8EE4D
:10384000C11A61EE811AB2F9040001EE100AB8EE55
:10385000C12AB2F9020001EE100AB8EEC11A42EE16
:10386000411A01EE104AB8EEC11A41EE210A80EE6B
:10387000801A86ED0D1AF0BD7CB505460C466FF03A
:103880007F41B4F90200CDE900012688B61E33B2AB
:10389000B4F9022026880F3E31B2E8690EF088FBA9
:1038A0006FF07F41B4F90200CDE9000126880F36A0
:1038B00033B2B4F902202688B61C31B2E8690EF0A2
:1038C00077FB6FF07F416088801E00B2CDE9000178
:1038D000B4F9003066880F3E32B21946E8690EF03E
:1038E00067FB6FF07F4160880F3000B2CDE90001C7
:1038F000B4F900306688B61C32B21946E8690EF099
:1039000057FB484960880F3000B2CDE90001268896
:10391000F61F33B266880F3632B226880F3E31B2B8
:10392000E8690EF045FB3F4960880F3000B2CDE9F1
:10393000000126880F3E33B26688F61D32B2268813
:103940000F3E31B2E8690EF033FB364960880F381C
:1039500000B2CDE900012688F61F33B266880F3E1B
:1039600032B226880F3E31B2E8690EF021FB2D49B4
:1039700060880F3800B2CDE9000126880F3E33B2CF
:103980006688F61F32B226880F3E31B2E8690EF023
:103990000FFB244960880F3000B2CDE90001268872
:1039A0000F3633B266880F3632B22688F61D31B232
:1039B000E8690EF0FDFA1B4960880F3000B2CDE9CE
:1039C000000126880F3633B26688F61D32B226888B
:1039D0000F3631B2E8690EF0EBFA124960880F3801
:1039E00000B2CDE9000126880F3633B266880F3E5B
:1039F00032B22688F61D31B2E8690EF0D9FA0949CB
:103A00006088C01F00B2CDE9000126880F3633B2AE
:103A100066880F3E32B226880F3631B2E8690EF062
:103A2000C7FA7CBD839EB80010B5D1ED000AB0F98D
:103A3000004000EE104AB8EEC00A20EE800A91ED78
:103A4000011AB0F9024000EE904AF8EEE00A01EEE9
:103A5000200AD1ED020A30EE200ABDEEC00A10EEB7
:103A6000104A22B2D1ED030AB0F9004000EE104A2C
:103A7000B8EEC00A20EE800A91ED041AB0F90240B7
:103A800000EE904AF8EEE00A01EE200AD1ED050AB8
:103A900030EE200ABDEEC00A10EE104A23B20280BA
:103AA000438010BD0146087F00F0010008B10220EC
:103AB00070470020FCE700002DE9F0470C46164651
:103AC0001F46DDF820C04FF000080025002100222D
:103AD0000023D0F80090D9F8449009F0404ADFF86C
:103AE000DC9099FAA9F9B9FA89F907FA09F949EACA
:103AF0000C094AEA090AD0F80090C9F844A0D0F8A5
:103B00000090C9F83C60D0F80490B9F5403F4ED120
:103B100004F07F4504F47F0104F47F42E3B2D0F85F
:103B20000890B9F1000F06D142EA010949EA0509F6
:103B300049EA030836E0D0F80890B9F1010F04D142
:103B400042EA010949EA03082CE0D0F80890B9F1EB
:103B5000020F09D1C90C920ADB084FEA421949EA5F
:103B6000C12949EA03081DE0D0F80890B9F1030F14
:103B70000CD1ED0FC90CD20ADB084FEA421949EA11
:103B8000812949EAC53949EA03080BE02D0F090DDF
:103B9000120B1B094FEA021949EA012949EA0539C2
:103BA00049EA0308D0F80090C9F8388003E0D0F85B
:103BB0000090C9F80C40BDE8F08700000000FF3F0E
:103BC0000146087810381823B0FBF3F20848805CEF
:103BD000C865032A05D908686FF30900001D8865C8
:103BE00003E008686FF309008865886D704700007E
:103BF00040C10408014600208A6A8B6903BB32B1C8
:103C0000012A0CD0022A10D0032A17D115E0CB6A62
:103C100003F08073B3F1807F00D101200FE0CB6A05
:103C2000B3F1C07F00D1012009E0CB6A03F08073BB
:103C3000B3F1807F00D1012001E000E000BF35E05A
:103C40008B69B3F5005F1BD132B1012A06D0022A7D
:103C50000CD0032A12D10BE0012010E0CB6A03F054
:103C60008073B3F1807F00D1012008E0012006E0DD
:103C7000CB6AB3F1C07F00D1012000E000BF15E0A6
:103C800032B1012A05D0022A04D0032A0CD103E064
:103C900000BF00BF012008E0CB6A03F08073B3F1DE
:103CA000807F00D1012000E000BF00BF704730B529
:103CB000039C42EA811545EA032545EA0445C566A9
:103CC00030BD00007CB505460C46012D08D8607853
:103CD0000090237815220021064801F0D0F808E072
:103CE000605D2B4639220021CDE90004014801F036
:103CF00065F87CBD185C0020014691F82D0000F0AD
:103D00000F00083808281AD2DFE800F00406090C72
:103D10000E101316002070474FF47F00FBE74FF49E
:103D20000040F8E70748F6E7FF20F4E74FF0FF1000
:103D3000F1E74FF6FF70EEE76FF07F40EBE7486981
:103D4000E9E7000000FFFF0010B503460A461178BE
:103D50001846362B1ED008DCA0F13000062832D2DF
:103D6000DFE800F0121314151617552822D006DCD0
:103D7000372810D0422823D0432824D114E06228C9
:103D80001BD075281FD112E000BF00BF00BF00BFCD
:103D900000BF00BF00BF21F00701A3F1300040F0D9
:103DA00008000843C1B210E021F00F010DE041F01E
:103DB00010010AE021F0100107E041F0200104E0C9
:103DC00021F0200101E0002010BD00BF10788842E2
:103DD00001D10020F8E711700120F5E730B5024667
:103DE000002300240868012816D013686FF30E031F
:103DF000D1E901052843CD6828430D6928434D6961
:103E000028438D692843CD6928430D6A28434D6AAC
:103E100028430343136019E0136823F4F843D1E9FE
:103E2000070528434D6A2843034354686FF30E0483
:103E3000D1E901052843CD6828430D6928434D6920
:103E400028438D692843044313605460002030BD2B
:103E50000246506940EA4100506100207047F8B5C1
:103E600006460C461546002000900027D4E90001C4
:103E70000843A168491E40EA4110E16840EA412038
:103E800000900098306101F07BF9074609E0681C5A
:103E900038B125B101F074F9C01BA84201D9032043
:103EA000F8BDB06900F020000028F0D100BFF7E7AE
:103EB00070B50346154600220024012D1FD09A68D4
:103EC00002F070420868401E4E68761E40EA0616F0
:103ED0008868401E46EA0026C868401E46EA00364A
:103EE000088A401E46EA0046888A401E46EA005676
:103EF000087E401E46EA006002439A6022E09A680B
:103F000011480240C868401E0603888A401E46EADF
:103F100000500243DC6804F070440868401E4E689C
:103F2000761E40EA06168868401E46EA0026088A81
:103F3000401E46EA0046087E401E46EA00600443F2
:103F40009A60DC60002070BDFF0F0FFF4FF0FF375D
:103F5000002683E018F058FA3946414813F0C7FEAE
:103F600000BF18F0A9F905464FF0FF373D49086931
:103F7000394618F0E9F93C480068002869D03A4809
:103F8000046800BF207C00F00400A0B9207C00F091
:103F9000020000284AD1B54205D3A068B04202D33E
:103FA000A068A84207D9B54240D2A068B04202D268
:103FB000A068A8423AD8207C00F00100A8B1E068CF
:103FC00098B1207C00F0020050B9E0682844A16854
:103FD000401AE168B0FBF1F0A26800FB0120A0608C
:103FE000208A20F00400208215E06069A04203D1FD
:103FF00000201D4908600CE0D4E905108861D4E96F
:104000000501486118480068A04202D1164960695C
:10401000086000202082D4F80080D4F80490114970
:10402000086918F085F94846C0479AE7207C00F0F7
:10403000020048B9A068401BB84205D2A068401BE6
:104040000A490968B0FBF1F76469074800688442CF
:1040500098D12E460349086918F06AF97AE70000FA
:104060003457002020570020AC010020B001002070
:104070007CB50446208A20F04000208260686946B2
:10408000026B2046904700B97CBDBDF8060000F0E9
:104090000F00ADF806006068807800F0010010B3F2
:1040A0006068B0F916006168B1F9141088421CDC30
:1040B000BDF904006168B1F91810884206DBBDF84B
:1040C000060040F00100ADF806002BE0BDF9040049
:1040D0006168B1F91A10884206DCBDF8060020F0CC
:1040E0000100ADF806001DE0CEE7BDF904006168EF
:1040F000B1F91810884206DCBDF8060040F0010056
:10410000ADF806000EE0BDF904006168B1F91A10BF
:10411000884206DBBDF8060020F00100ADF806007D
:1041200000E0B1E76068408800F4007000B3207CD4
:1041300000F0020080B1BDF80600A17B484000F00D
:10414000010020B9208A20F0020020829CE7208A0A
:1041500020F0020020820BE0BDF80600A17B484061
:1041600000F0010020B1208A40F0020020828BE79D
:10417000207C00F0100070B1BDF8060000F00100D6
:1041800028B1BDF800002081BDF802106181BDF8A2
:104190000610E18178E76068408800F4807058B1CB
:1041A000BDF8060000F0010030B92089ADF800002C
:1041B0006089ADF8020075E0207C00F0080020B1B5
:1041C00004F120016846FFF72FFCE069002869D060
:1041D000E0690FF04AFF0246E0690FF03FFF034637
:1041E0006068807800F0040098BBE0690FF03AFF47
:1041F00038B15A2806D0B42810D0B0F5877F29D11D
:104200001BE028E0BDF90050501EBDF80210401A16
:1042100000B2ADF80000ADF802501CE0501EBDF831
:104220000010401A00B2ADF80000581EBDF8021090
:10423000401A00B2ADF802000DE0BDF90250581E60
:10424000BDF80010401A00B2ADF80200ADF8005001
:1042500001E002E000BF00BF00BF207C00F00400CE
:10426000F8B1BDF90000002803DA0020ADF8000025
:1042700007E0BDF90000904203DB501E00B2ADF82C
:104280000000BDF90200002803DA0020ADF80200AA
:1042900007E0BDF90200984203DB581E00B2ADF8FA
:1042A000020000BF227C02F0200212B162682232BA
:1042B00001E062681C321046B0F90420002A1ADDC1
:1042C000BDF90020B4F90830D21A5243BDF90250AA
:1042D000B4F90A30ED1ABDF90260F31A05FB0321A7
:1042E000828812FB02F28A4205D92289ADF80020A9
:1042F0006289ADF80220B0F90220002A1CDD227C80
:1043000002F00102C2B1BDF90020B4F91230D21A94
:104310005243BDF90250B4F91430ED1ABDF90260F0
:10432000F31A05FB0321428812FB02F28A4203D2F0
:10433000228A22F001022282BDF80600E18920EAE9
:104340000106E089BDF8061020EA010506F001002B
:1043500028B1BDF8060040F01000ADF8060005F0E9
:10436000010028B1BDF8060040F02000ADF80600BD
:1043700006F0030060B1BDF800006082BDF80210D5
:10438000A18217F099FFA061208A40F001002082ED
:1043900005F00300F0B3207C00F00100D0B3208AC8
:1043A00020F00100208217F087FFA169401AA06168
:1043B0003048008830494843304909882E4A5143E3
:1043C00000EB2140A169884211D305F0020028B119
:1043D000BDF8060040F08000ADF8060005F00100D1
:1043E00028B1BDF8060040F04000ADF80600606856
:1043F000807800F0010068B11E48008820494843D9
:104400001E4909881E4A514300EB2140A169884298
:1044100007D800E005E0BDF8060040F08000ADF8E8
:104420000600002504E06A462146284605F02DFADC
:104430002946144813F03CF9051EF4D100BF04E0EE
:104440006A462146284605F020FA2946204613F000
:104450002FF9051EF4D1BDF800002081BDF802102F
:104460006181BDF80410A181BDF80610E18100BF93
:104470000AE60000E8C00408E0930400EAC004086B
:1044800020A107009057002070B502460B4602F1AC
:10449000180000EB031100245068B0F5403F02D033
:1044A000506800B100BF00BF92F83800012801D168
:1044B000022070BD012082F8380000BF022082F87F
:1044C000390048680A2802D0486809280FD14FF4FB
:1044D000403696FAA6F6B6FA86F6D1E90105B54059
:1044E0002843CD6805F07F4540EA050413E04FF40A
:1044F000403696FAA6F6B6FA86F6D1E90105B54039
:1045000028434FF07F4696FAA6F6B6FA86F6CD68AF
:10451000B54040EA0504ABB91068406A194D28401F
:1045200020431568686208681568A86148680A2809
:1045300002D0486809281AD1C86820F07F40156861
:10454000A86214E01068C0690E4D28402043156829
:10455000E86108681568286148680A2802D0486838
:10456000092804D1C86820F07F401568286201201E
:1045700082F8390000BF002082F8380000BF00BF79
:1045800097E70000F0FFFC0010B504460CB90120CD
:1045900010BD94F8390028B9002084F8380020466E
:1045A00000F022F8022084F839002068006820F426
:1045B000403061680843216808602068406B20F043
:1045C0000700A1680843216848632068006C6FF306
:1045D0000D00E1680843216808640020E0630120C1
:1045E00084F839000020D3E77047F8B504460D463B
:1045F0000026002000902068006800F001000028DC
:1046000043D000F0BDFD064639E0206840680090C8
:10461000009800F02100E0B1009800F0200018B1EF
:10462000E06B40F00200E063009800F0010018B178
:10463000E06B40F00100E0632120216888600420E5
:1046400084F8390000BF002084F8380000BF012042
:10465000F8BD681C98B125B100F092FD801BA842FE
:104660000DD9E06B40F02000E063032084F83900AE
:1046700000BF002084F8380000BF0320E8E720686E
:10468000406800F002000028BFD02068C06900F038
:10469000200028B92068406A00F0200000284BD094
:1046A00000F06EFD064641E02068406800900098EA
:1046B00000F0290020B3009800F0080018B1E06B6A
:1046C00040F00400E063009800F0200018B1E06BB7
:1046D00040F00200E063009800F0010018B1E06BC8
:1046E00040F00100E063292021688860042084F8FC
:1046F000390000BF002084F8380000BF0120A7E780
:10470000681C98B125B100F03BFD801BA8420DD973
:10471000E06B40F02000E063032084F8390000BF24
:10472000002084F8380000BF032091E7206840682B
:1047300000F010000028B7D0122021688860012006
:1047400084F8390000BF002084F8380000BF00BFA3
:104750007EE72DE9F84304460D4616461F46DDF870
:10476000208000BF94F83800012802D10220BDE863
:10477000F883012084F8380000BF022084F8390053
:104780003B46324629462046CDF80080FFF794F993
:104790002068006840F00100216808600020E6E71A
:1047A00070B504460CB9012070BD94F8350002289C
:1047B00000D1F9E72068006820F001002168086056
:1047C00000202168086021684860216888602168AD
:1047D000C860216808612120216848612046FFF7F0
:1047E000EFF9054694F85C103F208840A86000204F
:1047F000606584F8350000BF84F8340000BF00BF56
:10480000D2E700002DE9F0410446002500F0B8FC95
:10481000074614B90120BDE8F081606A00B100BF0D
:1048200000BF002084F8340000BF022084F8350067
:104830002068006820F00100216808600AE000F0AC
:104840009FFCC01B052805D920206065032084F843
:104850003500E0E72068006800F001000028EED194
:104860002068056820480540D4E901010843E16853
:1048700008432169084361690843A1690843E16964
:104880000843216A08430543606A042803D1D4E938
:104890000B0108430543206805602068456925F041
:1048A0000705606A0543606A04280BD1A06A0543C6
:1048B0002046FFF79FF928B140206065012084F869
:1048C0003500A8E7206845612046FFF779F90646DC
:1048D00094F85C103F208840B060002060650120A3
:1048E00084F83500002096E73F8010F0024600BFB4
:1048F000107C012801D1022070470120107400BFF4
:104900004868032800D100BF1068406B20F0010008
:10491000136858631068D0F8000420F00100136891
:10492000C3F800041068806B20F0030013689863DC
:104930001068806BCB681843136898631068C06B6D
:104940006FF30D001368D8631068C06B0B691843D0
:104950001368D8631068006C6FF30C001368186458
:104960001068006C4B691843136818641068406C39
:104970006FF30C00136858641068406C8B6918431F
:10498000136858641068C06820F003001368D8608A
:104990001068C0680B6818431368D86010684069D5
:1049A00020F0070013685861D1E908301843CB693B
:1049B000184313685B6918431368586110680069ED
:1049C00020F00F0013681861106800694B681843E5
:1049D000136818611068D0F8000420F00E00136806
:1049E000C3F800041068D0F800044B6840EA4300A4
:1049F0001368C3F80004486803280BD110680069E5
:104A000020F4807013681861106800698B6818437F
:104A1000136818611068806C6FF30B00136898645A
:104A20001068806C8B6A1843136898641068C06CB7
:104A30006FF30B001368D8641068C06CCB6A18431E
:104A40001368D8641068006D6FF30E001368186562
:104A50001068006D0B6B1843136818651068406D83
:104A60006FF30900136858651068406D4B6B18436D
:104A7000136858651068806D6FF3090013689865B6
:104A80001068806D8B6B1843136898651068C06D53
:104A90006FF309001368D8651068C06DCB6B1843BD
:104AA0001368D8651068006E6FF30D001368186600
:104AB0001068006E0B6C1843136818661068806BE2
:104AC00020F40040136898631068806B4B6C1843A7
:104AD000136898631068806920F47F0013689861F8
:104AE00010688069B1F8483040EA03401368986163
:104AF0001068806920F0FF00136898611068806971
:104B0000CB6C1843136898611068806B20F40050D8
:104B1000136898631068806B0B6D18431368986373
:104B20001068806B20F48050136898631068806B65
:104B30004B6D1843136898631068806B20F4006015
:104B4000136898631068806B8B6D184313689863C3
:104B50001068806B20F48060136898631068806B25
:104B6000CB6D1843136898631068806B20F4007055
:104B7000136898631068806B0B6E18431368986312
:104B80001068806B20F48070136898631068806BE5
:104B90004B6E1843136898631068806B20F4804054
:104BA000136898631068806B8B6E18431368986362
:104BB00000BF0020107400BF00BF9DE610B5044682
:104BC0000CB9012010BD032060742068D0F80404E3
:104BD00020F008002168C1F804042068406820F033
:104BE0000100216848602068D0F8A00020F006008D
:104BF0002168C1F8A0002068D0F8300420F001003E
:104C00002168C1F830042068D0F8300420F08070AA
:104C10002168C1F83004204600F02FF900206061BF
:104C2000607400BF207400BF00BFCBE72DE9F041E6
:104C300004460D4600260027B04614B90120BDE801
:104C4000F081607C10B9204600F018F903206074F0
:104C50002068D0F8300440F080702168C1F830043A
:104C600000F08EFA064607E000F08AFA801BB0F5E5
:104C70007A7F01D90320E2E72068D0F80C0400F421
:104C800080500028F0D02068D0F83004494908400E
:104C90002168C1F8300428688000696840EAC120B2
:104CA000298940EA01402168D1F83014084321687D
:104CB000C1F830042068D0F8300440F001002168C9
:104CC000C1F8300400F05CFA064607E000F058FA3C
:104CD000801BB0F57A7F01D90320B0E72068D0F8B7
:104CE0000C0400F480700028F0D02068D0F8A000F8
:104CF00040F006002168C1F8A0002068D0F89400B8
:104D000020F003002168C1F894002068D0F89400D6
:104D1000616841F0010108432168C1F894002068EE
:104D2000D0F8A40020F003002168C1F8A400206896
:104D3000D0F8A400E16808432168C1F8A400206805
:104D4000806820F0FF00216888602168A068886082
:104D5000686808B1686800E001208046164808FBD2
:104D600000F02A7A0121914048434FF4FA52296811
:104D70005143B0FBF1F72068D0F8180420F03F0051
:104D80002168C1F818042068D0F818043843216855
:104D9000C1F8180400202168C1F8C400002120686F
:104DA000C0F8C8100020A06160610120607400207C
:104DB00045E700000386FCFF00093D002DE9F84FA0
:104DC0000546884691461F46DDE90AA60024A3460B
:104DD00000BF287C012802D10220BDE8F88F012005
:104DE000287400BF00F0CCF983460CE000F0C8F94D
:104DF000A0EB0B00B0F57A7F05D900BF0020287426
:104E000000BF0320E9E72868406F00F00100002898
:104E1000ECD01FE074B9305D4AEA002031194978BE
:104E200040EA01403119897840EA01602968086741
:104E3000E41C0FE0305D3119497840EA0120311956
:104E4000897840EA01403119C97840EA016029684F
:104E50000867241DBC42DDD3781CC0F30720791CF1
:104E6000CBB200904A4641462868FEF720FF00BFBB
:104E70000020287400BF00BFAFE7704770472DE9DE
:104E8000F84304460D4616461F46DDF820804FF0D5
:104E9000000900BF207C012802D10220BDE8F88370
:104EA0000120207400BF00F06BF981460CE000F097
:104EB00067F9A0EB0900B0F57A7F05D900BF0020A3
:104EC000207400BF0320E9E72068406F00F0010074
:104ED0000028ECD0CDF800803B46324629462068B9
:104EE000FEF7E5FE00BF0020207400BF00BFD5E73D
:104EF000014600BF087C012801D102207047012033
:104F0000087400BF0868406840F001000A685060FB
:104F10000868D0F8040440F008000A68C2F80404E5
:104F200000BF0020087400BF00BFE7E731B50024D0
:104F300000F026F9044600BF00F022F9001B00999A
:104F40008842F9D338BD0000F8B502460B4600256B
:104F5000002400200021E6E0012606FA01F51E6883
:104F600006EA0504AC4273D15E68022E02D05E6888
:104F7000122E13D1CF0802F1200656F827004E0753
:104F8000F70E0F26BE40B0434F07FF0E1E69BE400E
:104F90003043CF0802F1200646F8270010684F0082
:104FA0000326BE40B0431E7906F003064F00BE4004
:104FB000304310605E68012E08D05E68022E05D076
:104FC0005E68112E02D05E68122E13D190684F00D9
:104FD0000326BE40B0434F00DE68BE4030439060C1
:104FE000506801268E40B0431E79C6F300168E40ED
:104FF00030435060D0684F000326BE40B0434F009E
:105000009E68BE403043D0605E6806F08056B6F1C0
:10501000805FA8D100BF00260096454E366846F452
:105020008046434F3E603E46366806F48046009612
:1050300000BF00BF3F4E8F0856F827008E07370F7E
:105040000F26BE40B0433C4EB24202D100262EE0B5
:1050500068E03A4EB24201D1012628E0384EB24211
:1050600001D1022623E0374EB24201D103261EE0D1
:10507000354EB24201D1042619E0344EB24201D17C
:10508000052614E0324EB24201D106260FE0314E21
:10509000B24201D107260AE02F4EB24201D10826C2
:1050A00005E02E4EB24201D1092600E00A268F0704
:1050B0003F0FBE4030431F4E8F0846F82700284E52
:1050C0003068A0435E6806F48036B6F5803F00D1B4
:1050D0002043234E3060361D3068A0435E6806F4DE
:1050E0000036B6F5003F00D120431D4E361D30601E
:1050F000361D3068A0435E6806F48016B6F5801F42
:1051000000D12043164E08363060361D3068A0436B
:105110005E6806F40016B6F5001F00D12043104E5D
:105120000C363060491C1029FFF416AFF8BD0000A2
:1051300044380240083801400000024000040240A8
:1051400000080240000C024000100240001402401F
:1051500000180240001C02400020024000240240CF
:10516000003C0140024613690B400BB1012000E0F6
:10517000002070470AB1816101E00B048361704730
:1051800001480068704700004403002010B5044641
:105190000CB9012010BD242084F83D00206800686F
:1051A00020F0010021680860204600F08DFA002000
:1051B000206484F83D00206384F83E0000BF84F83A
:1051C0003C0000BF00BFE5E7014691F83D00704795
:1051D00070B50446002600250CB9012070BD94F876
:1051E0003D0028B9002084F83C00204600F06DFA0C
:1051F000242084F83D002068006820F00100216828
:10520000086001F041F805463948B5FBF0F6206822
:10521000466038496068884201D8701C07E04FF446
:10522000967070434FF47A71B0FBF1F0401C216826
:1052300008623049606888420ED860684000B5FB5B
:10524000F0F0C0F30B00042801D204202DE06068C8
:105250004000B5FBF0F028E0A06828B9606800EBDA
:105260004000B5FBF0F008E0606800EBC00101EB26
:105270000010B5FBF0F040F48040C0F30B0008B91B
:10528000012012E0A06828B9606800EB4000B5FB7F
:10529000F0F008E0606800EBC00101EB0010B5FB26
:1052A000F0F040F4804040F400402168C861D4E947
:1052B0000701084321680860D4E903100843216806
:1052C0008860D4E9050108432168C8602068006847
:1052D00040F001002168086000202064202084F84C
:1052E0003D000020206384F83E0000BF76E7000008
:1052F00040420F00A08601002DE9FC5F044689466C
:1053000092469B46DDE90D680C9D0027FFF738FFAC
:10531000074694F83D0020287ED1192301229549A3
:105320002046009702F0EFFB10B10220BDE8FC9F81
:1053300000BF94F83C00012801D10220F6E70120CB
:1053400084F83C0000BF2068006820F400602168F9
:105350000860222084F83D00402084F83E000020B0
:1053600020648548E0625B46524649462046CDE9C6
:10537000008702F081FA80B1206C042806D100BFBA
:10538000002084F83C0000BF0120CFE700BF0020D0
:1053900084F83C0000BF0320C8E78EB900BF00209E
:1053A000019020684069019020688069019000BFE9
:1053B00000BF2068006840F40070216808603FE08A
:1053C000012E17D12068006820F4806021680860F1
:1053D00000BF00200190206840690190206880692A
:1053E000019000BF00BF2068006840F40070216891
:1053F000086025E0022E18D12068006820F4806043
:10540000216808602068006840F400602168086036
:1054100000BF0020019000E0A9E0206840690190F1
:1054200020688069019000BF0AE000BF0020019061
:1054300020684069019020688069019000BF00BF2A
:1054400087E0032E67D8012E13D13A464146204605
:1054500002F0EBFB30B1206C202801D1032065E77E
:10546000012063E72068006905F8010B701E86B211
:105470006FE0022E1CD1434600224049204600978F
:1054800002F041FB08B1032050E72068006840F4B7
:105490000070216808602068006905F8010B701E23
:1054A00086B22068006905F8010B701E86B250E0D4
:1054B0004346002231492046009702F024FB08B100
:1054C000032033E72068006820F4806021680860CA
:1054D0002068006905F8010B701E86B24346002261
:1054E00026492046009702F00EFB08B103201DE775
:1054F0002068006840F40070216808602068006936
:1055000005F8010B701E86B22068006905F8010BD2
:10551000701E86B21DE03A464146204602F085FBE9
:1055200030B1206C202801D10320FFE60120FDE6E8
:105530002068006905F8010B701E86B2206840697A
:10554000C0F3800028B12068006905F8010B701EC7
:1055500086B2002E7FF475AF202084F83D00002035
:1055600084F83E0000BF84F83C0000BFDEE6022065
:10557000DCE60000020010000000FFFF0400010054
:105580002DE9FC5F0446894692469B46DDE90D689D
:105590000C9D0027FFF7F4FD074694F83D002028F6
:1055A00078D11923012246492046009702F0ABFA30
:1055B00010B10220BDE8FC9F00BF94F83C00012818
:1055C00001D10220F6E7012084F83C0000BF2068EA
:1055D000006820F4006021680860212084F83D0004
:1055E000402084F83E00002020643648E0625B469C
:1055F000524649462046CDE9008702F0E9F980B1DC
:10560000206C042806D100BF002084F83C0000BFB5
:105610000120CFE700BF002084F83C0000BF03203A
:10562000C8E724E03A464146204602F035FB60B127
:10563000206C042807D12068006840F400702168BD
:1056400008600120B6E70320B4E715F8010B2168D4
:105650000861701E86B220684069C0F3800030B1D6
:105660002EB115F8010B21680861701E86B2002E5C
:10567000D8D13A464146204602F01AFA68B1206C69
:10568000042808D12068006840F400702168086090
:1056900001208FE712E003208CE72068006840F4C7
:1056A000007021680860202084F83D00002084F804
:1056B0003E0000BF84F83C0000BF7BE7022079E792
:1056C000020010000000FFFF7047704710B50D4842
:1056D000006840F400700B4908600846006840F418
:1056E000806008600846006840F48070086003200D
:1056F00000F062F90F2000F007F800F00EF900202A
:1057000010BD0000003C024070B504460748006828
:105710004FF47A71B0FBF1F5284601F053FF0022F7
:105720002146501E00F00AF9002070BD3003002011
:1057300070B504460E46154600BF94F8A000012837
:1057400001D1022070BD012084F8A00000BF02201A
:1057500084F8A10005EB850101EBC50204F13801D5
:1057600001EB820034223146FBF729F92A46314603
:10577000204602F0BFFC01202168486284F8A100A5
:1057800000BF002084F8A00000BF00BFDAE70000DF
:1057900070B50446002500260CB9012070BD94F8B0
:1057A000A10028B9002084F8A000204600F084F869
:1057B000022084F8A1002068806920F070402168F0
:1057C0008861D4E901010843E1680843216908437D
:1057D00021688969084321688861206880683549A3
:1057E000084021688860A08A050420688068A16953
:1057F00029430843216888602068C0682D49084013
:105800002168C860A08B05042068C068216A29430C
:1058100008432168C860206800692649084021685B
:105820000861A08C050420680069A16A2943084327
:1058300021680861206840691E4908402168486164
:10584000A08D050420684069216B29430843216825
:10585000486194F83500050294F836000604206883
:10586000C06A00F07F402168C86246EA050094F8EB
:10587000341008432168C96A08432168C862206857
:10588000406B40F00400216848632068406B40F0A2
:105890000200216848632068806940F001002168A7
:1058A00088610020C4F8A400012084F8A100002031
:1058B00074E7000000F800F070470246486A08B933
:1058C000002301E04FF00053D360086A08B90023B9
:1058D00001E04FF080439360C86908B9002001E0FF
:1058E0004FF000405060486B401E9061D1E90D03BD
:1058F0001844401E1062D1E90D0318440B6C184483
:10590000401E9062D1E90D0318440B6C1844CB6B18
:105910001844401E10630020704770470146084637
:10592000002809DB00F01F0301229A4043099B0075
:1059300003F1E023C3F8002100BF70472DE9F05FB9
:1059400080460D461646002705F044F907463946BD
:105950002A46334601F00700C0F1070ABAF1040FE6
:1059600002D94FF0040A01E0C0F1070AD14600F164
:10597000040ABAF1070F02D24FF0000A01E0A0F1C9
:10598000030AD4464FF0010A0AFA09FAAAF1010AF9
:105990000AEA020A0AFA0CFA4FF0010B0BFA0CFBA6
:1059A000ABF1010B0BEA030B4AEA0B04214640461C
:1059B00005F018F9BDE8F09F00BF00F00702064BA4
:1059C00019684FF6FF031940044B0B4343EA0221C9
:1059D000014B196000BF70470CED00E00000FA05B4
:1059E00038B5002400BF002000902348006840F034
:1059F0008050214908600846006800F080500090FF
:105A000000BF00BF0120010491FAA1F1B1FA81F1B8
:105A10001A4A42F82100FFF7B3FB044607E0FFF7FC
:105A2000AFFB001BB0F57A7F01D9032038BD1448C5
:105A3000406800F48030B0F5803FF0D1012041048F
:105A400091FAA1F1B1FA81F10C4A42F82100FFF775
:105A500097FB044607E0FFF793FB001BB0F57A7F46
:105A600001D90320E2E70648406800F40030B0F5B1
:105A7000003FF0D10020D9E74038024000000E423C
:105A8000007000400120010291FAA1F1B1FA81F108
:105A9000014A42F82100704700000E4240F2BF1256
:105AA0000260474A126847F6C0731A4093FAA3F39C
:105AB000B3FA83F3DA404260414A126802F0E042EE
:105AC0004FF0E04393FAA3F3B3FA83F3DA40826032
:105AD0003B4A126802F070624FF0706393FAA3F3CE
