:020000040800F2
:1000000008EA032051040008590400085B040008B2
:100010005D0400085F04000861040008000000009F
:1000200000000000000000000000000021030008A4
:100030006504000800000000D90300083D04000822
:100040006B0400086B0400086B0400086B040008D4
:100050006B0400086B0400086B0400086B040008C4
:100060006B0400086B0400086B0400086B040008B4
:100070006B0400086B0400086B0400086B040008A4
:100080006B0400086B0400086B0400086B04000894
:100090006B0400086B0400086B0400086B04000884
:1000A0006B0400086B0400086B0400086B04000874
:1000B0006B0400086B0400086B0400086B04000864
:1000C0006B0400086B0400086B0400086B04000854
:1000D0006B0400086B0400086B0400086B04000844
:1000E0006B0400086B0400086B0400086B04000834
:1000F0006B0400086B0400086B0400086B04000824
:100100006B0400086B0400086B0400086B04000813
:100110006B0400086B0400086B0400086B04000803
:100120006B0400086B0400086B0400086B040008F3
:100130006B0400086B0400086B0400086B040008E3
:100140006B0400086B0400086B0400086B040008D3
:100150006B0400086B0400086B0400086B040008C3
:100160006B0400086B0400086B0400086B040008B3
:100170006B0400086B0400086B040008000000001A
:100180006B0400086B0400086B0400086B04000893
:100190006B0400086B0400086B0400086B04000883
:1001A0006B0400086B0400086B0400086B04000873
:1001B0006B04000800F002F800F05CF80AA090E878
:1001C000000C82448344AAF10107DA4501D100F012
:1001D00051F8AFF2090EBAE80F0013F0010F18BF83
:1001E000FB1A43F0010318479CA40300BCA40300BE
:1001F0000A444FF0000C10F8013B13F0070408BF4D
:1002000010F8014B1D1108BF10F8015B641E05D0EA
:1002100010F8016B641E01F8016BF9D113F0080F9F
:100220001EBF10F8014BAD1C0C1B09D16D1E58BF31
:1002300001F801CBFAD505E014F8016B01F8016B68
:100240006D1EF9D59142D6D37047000000230024DB
:1002500000250026103A28BF78C1FBD8520728BFD6
:1002600030C148BF0B6070471FB513F064F81FBD65
:1002700010B510BD00F02CFA1146FFF7F5FF0FB4D2
:1002800000F00CF80FBC10F007FB00F005F903B408
:10029000FFF7EEFF03BC00F015FA000004B010F009
:1002A00085FC0448002110F04DFD10F091FC00F099
:1002B000F3F800004CA3030880F309887047EFF3BC
:1002C00009807047684680F3098804480078C007B1
:1002D00014BF0220032080F3148870470CA3030886
:1002E000DFF818C0EFF305831B0618BF6047EFF374
:1002F0001483DB0708BF604700DF70475F10010809
:10030000DFF818C0EFF305831B0618BF6047EFF353
:100310001483DB0708BF604700DF70474512010800
:10032000EFF30980816911F8021CE1BB90E80F101E
:1003300010B5E047BDE81040EFF3098C8CE80700EA
:10034000214B93E80600914208BF704741B91EF067
:10035000100F16D11D49086820F00100086010E058
:100360001EF0100F06BF2CED108A0120002081F82E
:1003700025002CE9F00FC1F828C00CB411F0B2FB35
:100380000CBC1A60D2F828C0BCE8F00F92F8250027
:1003900000280EBF6FF0020E6FF0120EBCEC108A38
:1003A0008CF30988704710B5094A1268914209D840
:1003B000084C54F8214090E80F10A047EFF3098C47
:1003C0008CE80F0010BD00000802002034EF00E0B0
:1003D0001C0700081C07000810B511F00BFABDE857
:1003E0001040154B93E80600914208BF7047EFF3A9
:1003F000098C1EF0100F06BF2CED108A0120002082
:1004000081F825002CE9F00FC1F828C00CB411F0D8
:1004100069FB0CBC1A60D2F828C0BCE8F00F92F857
:10042000250000280EBF6FF0020E6FF0120EBCEC1C
:10043000108A8CF3098870470802002010B511F06B
:1004400019FCCCE710B510F0EFFC11F013FCC6E777
:100450000948804709480047FEE7FEE7FEE7FEE758
:10046000FEE7FEE7FEE7FEE7FEE7FEE70448054994
:10047000054A064B70470000E9640008B501000812
:1004800008E4032008EA032008E6032008E6032026
:1004900000487047A4E3032010B50446AFF3008082
:1004A0002046BDE81040FFF7F2BE10B5431C02E045
:1004B00010F8011B71B18107FAD14FF0013202C867
:1004C0008C1A8C4314EAC211F9D0C01A0A0603D060
:1004D000C01E10BDC01A10BD0A0401D0801E10BD80
:1004E0000902FCD0401E10BD032A40F2308010F0FB
:1004F000030C00F0158011F8013BBCF1020F6244BF
:1005000098BF11F801CB00F8013B38BF11F8013B4F
:10051000A2F1040298BF00F801CB38BF00F8013BFC
:1005200011F0030300F02580083AC0F0088051F86C
:10053000043B083A51F804CBA0E80810F5E7121D77
:100540005CBF51F8043B40F8043BAFF30080D20796
:1005500024BF11F8013B11F801CB48BF11F8012B62
:1005600024BF00F8013B00F801CB48BF00F8012B85
:10057000704710B5203AC0F00B80B1E81850203A0F
:10058000A0E81850B1E81850A0E81850BFF4F5AF33
:100590005FEA027C24BFB1E81850A0E8185044BFBD
:1005A00018C918C0BDE810405FEA827C24BF51F82A
:1005B000043B40F8043B08BF7047D20728BF31F81E
:1005C000023B48BF11F8012B28BF20F8023B48BF6F
:1005D00000F8012B70474FF0000200B51346944617
:1005E0009646203922BFA0E80C50A0E80C50B1F18B
:1005F0002001BFF4F7AF090728BFA0E80C5048BF9F
:100600000CC05DF804EB890028BF40F8042B08BF3C
:10061000704748BF20F8022B11F0804F18BF00F838
:10062000012B70474FF0013C50F8042B51F8043B6C
:100630009A4221D1A2EB0C03934313EACC1317D1B6
:1006400050F8042B51F8043B9A4215D1A2EB0C034D
:10065000934313EACC130BD150F8042B51F8043B0D
:100660009A4209D1A2EB0C03934313EACC13DBD0DB
:100670004FF00000704700BFD01A01BAB1FA81F103
:1006800001F0180122FA01F0CB40C1F12001DBB2E8
:10069000C0B2C01A2CFA01F3D11A914311EAC31166
:1006A000E6D1704770477047704710B500F008F802
:1006B000006810BD10B5044600F002F8046010BDDB
:1006C00007F046B901491820ABBEFEE7260002003C
:1006D0007546FFF7DDFEAE4605006946534620F03D
:1006E0000700854618B020B5FFF7C0FEBDE82040E2
:1006F0004FF000064FF000074FF000084FF0000BDE
:1007000021F00701AC46ACE8C009ACE8C009ACE890
:10071000C009ACE8C0098D46704770470000000072
:1007200010B50446002020856085204607F0DAFDDC
:1007300094F82D0084F82C0010BD00007CB5044610
:1007400000F098F8054600F08FF806460020CDE945
:1007500000040848006800EB800202EBC002064873
:1007600000EB82002B463246416A0248006804F0E2
:10077000F7FE7CBD9C010020D056002008B500206B
:1007800000900448282315220168034802F0F5FC74
:1007900008BD0000EC5500204057002008B500209F
:1007A00000900448292315220168034802F0E5FC63
:1007B00008BD0000EC5500204057002030B503462E
:1007C00000F052F801FB003084000648006800EB9E
:1007D000800505EBC005044800EB8500406A025126
:1007E00030BD00009C010020D05600202DE9FC47C0
:1007F00004460D4616461F4600BF1849096801EB1E
:100800004101174A52F8210000F0E0FA00F02CF8FC
:1008100000FB05411148006800EB800202EBC002BA
:10082000104800EB8200406A042202FB010800F03D
:100830001BF8A0EB06090948006800EB40000849D6
:1008400051F820003B4632464146CDE9009003482E
:10085000006804F085FEBDE8FC8700009C010020D4
:100860005C570020D0560020014800687047000007
:1008700094010020014800687047000098010020A2
:100880002DE9F04F87B0804646F62539002600F066
:100890002DFA00F02BF9684868490860084602F014
:1008A0000BFB7D20049002200590002006904FF263
:1008B000244601216148C16043F60450B6FBF0F1C3
:1008C0005E48816004A902F02FFBB8F1000F0FD140
:1008D0004FF00C0A0C200390834678247825782763
:1008E000A000574908604FF44870564908600EE070
:1008F0004FF00C0A0C200390834678247825782743
:100900004FF448704E490860A0004E4908604C48BA
:10091000006801904B480068029000204A49086036
:1009200048600862C86148620220C86040F6FF70F3
:100930008861002048610198086104FB06F0B0FB63
:10094000F9F0886205FB06F0B0FBF9F0C862019887
:100950002044284438447043B0FBF9F0086308464B
:10096000C0F834A0039888630846C0F83CB00298E9
:1009700008644FF40040486440208864C864C001A3
:10098000086540104865401088654010C8654010F3
:10099000086640104866294802F026F9274802F008
:1009A00025FC601E294948616019401EC861244821
:1009B000006820442844401E4862214800682044C2
:1009C00028443844401EC8621D4801681F4801661B
:1009D0001C4801681D48416608201D4908604FF405
:1009E000C070086107211A48C16100201849886257
:1009F000084603F051FA0021144880F8341080F8BA
:100A0000351080F8361001611248104908600E490F
:100A10000E4803F0C8F80D4803F030F800F0E2F992
:100A20000D4800F09DF908494868414605F04CF82A
:100A3000002007B0BDE8F08F006C01404057002057
:100A40009401002098010020EC55002098560020C9
:100A500074570020006801406C01002030B58DB053
:100A600004460D4600200090FFF7FEFE0190002096
:100A70000290FFF7FFFE0390002004900995FF20ED
:100A80000590002006908DF8300000218DF831107F
:100A90008DF832104FF4C060079007200890FFF7E0
:100AA000E3FE0A90FFF7E6FE0B90224669460C48EB
:100AB00002F0B4FF4FF0FF3004EB4401094A02EBAF
:100AC00081014860084804EB440102EB8101886021
:100AD0004FF07F4004EB440142F821000DB030BDDF
:100AE000985600205C5700206C01002008B500BF1C
:100AF000002000903748006840F080603549086069
:100B00000846006800F08060009000BF00BF3148D8
:100B10002038006840F080602E492039086008467F
:100B2000006820F08060086000BF00200090294825
:100B30001438006840F4000026491439086008465B
:100B4000006800F40000009000BF00BF2148343866
:100B5000006840F400001F49343908600846006806
:100B600020F40000086000BF0020009019480068D1
:100B700040F00060174908600846006800F0006017
:100B8000009000BF00BF13482038006840F00060AC
:100B90001049203908600846006820F000600860AD
:100BA00000220321582003F03FF8582003F02CF8CE
:100BB000002203215A2003F037F85A2003F024F8CA
:100BC000002203215C2003F02FF85C2003F01CF8C6
:100BD00008BD00004438024030B5024600BF41481D
:100BE000006800EB800404EBC0043F4800EB840085
:100BF000006980B9FFF738FE01FB00204400394846
:100C0000006800EB800505EBC005374800EB850068
:100C1000406A035963E03348006800EB800404EB4A
:100C2000C004314800EB84000069012812D1FFF7AD
:100C30001BFE01FB002044002A48006800EB8005F1
:100C400005EBC005284800EB8500406A005920F0FC
:100C50007F4344E02348006800EB800404EBC004B9
:100C6000214800EB84000069022817D01D48006865
:100C700000EB800404EBC0041B4800EB8400006917
:100C800004280BD01748006800EB800404EBC00474
:100C9000154800EB84000069072810D1FFF7E4FD38
:100CA00001FB002044000F48006800EB800505EBC5
:100CB000C0050D4800EB8500406A035B0FE0FFF7BD
:100CC000D3FD01FB002044000648006800EB8005CE
:100CD00005EBC005044800EB8500406A035D18463B
:100CE00030BD00009C010020D056002000B587B028
:100CF00000BF002001901548006840F080001349B3
:100D000008600846006800F08000019000BF00BF46
:100D10008020029011200390002004900320059071
:100D200002A90B4802F08EFA00228021084802F046
:100D300097FB142002F078FA01228021044802F087
:100D40008FFB0A2002F070FA07B000BD3038024075
:100D5000001C024001490860704700009C0100200F
:100D60000449096801EB4101034A02EB81018860F3
:100D7000704700009C0100205C57002010B501293D
:100D80000CD1114A12688432C301D25842F00103D7
:100D90000D4A12688432C40113510BE00A4A1268EA
:100DA0008432C301D25822F00103074A1268843208
:100DB000C4011351044A1268526A42F00102024B04
:100DC0001B685A6210BD000098560020034909684C
:100DD00001EB4101024A42F8210070479C010020CA
:100DE0005C57002010B51E481E49086002201E49AD
:100DF000086007204860042088600720C86002203F
:100E00000861486188610020164948600021154842
:100E10008160C16020210161402141614FF4C071B6
:100E200081610021C1614FF40061016249004162AA
:100E30000021816200F068F80B490A4803F0D6FDF2
:100E400018B101200949087002E000200749087024
:100E500040F2695000F00CF80448007810BD000022
:100E6000400100A0B0570020E4570020A00100205E
:100E700038B5044600200090012021490860102068
:100E80004860012088600020C8604FF6FF721D484E
:100E900003F0E1FD012002F0C7F9022018490860C3
:100EA00010204860012088600020C8604FF6FF7263
:100EB000144803F0D0FD0320114908601020486059
:100EC000082088600020C8604FF6FF720D4803F0CC
:100ED000C2FD4FF40C7000900420094908601020F6
:100EE0004860012088600098C8604FF6FF7205488E
:100EF00003F0B1FD2146034803F099FD38BD000021
:100F000000580020B057002030B587B004460D4689
:100F1000002C7DD000BF002001907948006840F08F
:100F20000100774908600846006800F00100019060
:100F300000BF00BF00BF0020019071480838006862
:100F400040F480006E49083908600846006800F4E3
:100F50008000019000BF00BF00BF00200190084644
:100F6000006840F0040008600846006800F00400D3
:100F7000019000BF00BF00BF00200190084600683C
:100F800040F0080008600846006800F00800019082
:100F900000BF00BF00BF002001900846006840F07D
:100FA000100008600846006800F01000019000BFC3
:100FB00000BF00BF002001900846006840F02000FC
:100FC00008600846006800F02000019000BF00BFE4
:100FD00000BF002001900846006840F04000086013
:100FE0000846006800F04000019000BF00BF00BF4D
:100FF000002001900846006840F080000860084624
:10100000006800F08000019000BF00BF00BF00E05A
:1010100074E0002001900846006840F48070086089
:101020000846006800F48070019000BF00BF0220F5
:10103000039001200490022005900C2006900120CE
:10104000029002A92F4802F0FDF84CF203700290C2
:1010500002A92D4802F0F6F84FF68370029002A91B
:101060002A4802F0EFF84FF63F00029002A9284804
:1010700002F0E8F848F23310029002A9254802F085
:10108000E1F84FF60C70029002A9234802F0DAF85A
:1010900040F2FF60029002A9204802F0D3F800203D
:1010A0001F49486080211E4881608900C160490055
:1010B000016189004161890081610021C1614FF4B2
:1010C0000031016200214162032181620021C1627D
:1010D000016314481249086000BF08462063846316
:1010E00000BF01F0DBFC0E4801F00AFD00220521E3
:1010F000382002F099FD382002F086FD07B030BD9F
:101100003838024000080240000C02400010024043
:101110000014024000180240001C0240002002405F
:1011200010580020106402402DE9FC4705464FF09E
:1011300000094B48006801694A48007888472870D0
:10114000287800287DD0002483E0684600EB440224
:1011500001A800EB44014248006843694148007817
:1011600098474148007800F0080048B101A830F8DD
:1011700014603DF8140001A921F814002DF8146042
:101180003948007800F0020040B101A830F814009E
:1011900040F21F31081A01A921F8140032480078E2
:1011A00000F0040038B13DF8140040F2DF11081AD5
:1011B00080B22DF8140001A830F814002B4951F822
:1011C0002410884207D901A830F81400274951F8A3
:1011D0002410401A06E0254850F8240001A931F8EF
:1011E0001410401A87B23DF81400214951F8241018
:1011F000884206D93DF814001D4951F82410401AC0
:1012000005E01B4850F824003DF81410401A1FFA5E
:1012100080F807EB080005280ADD01A830F8140063
:10122000124941F824003DF81400114941F8240006
:101230000E4830F8240081B2A81C20F814100C4885
:1012400000E00AE030F8240081B2A81D20F8141054
:10125000641C2878A0423FF678AF4846BDE8FC877A
:10126000A4010020A9010020A8010020D80100202D
:10127000E001002070B504460D46002615480168BF
:10128000154800788847134841685420884711283A
:101290001CD110481149086054200F490870AC4215
:1012A00003DA01200E49087002E00C200C49087096
:1012B0006EB90A480068816807480078884707487F
:1012C0000068C16804480078884700E0032630467B
:1012D00070BD00003C010020A9010020A4010020F5
:1012E000A801002070B504460D4628790D2802D0CB
:1012F000287920280CD1287B00F0010020B1E0697A
:1013000020F00100E06103E0E06940F00100E061ED
:10131000204606F005FF70BD70B504460D46164622
:10132000E06940F00100E061204606F0F9FE70BD82
:1013300070B504460D461646E06920F00100E061F4
:10134000204606F0EDFE002D09DB002E07DBB4F988
:101350001000A84203DDB4F91200B04200DC70BDF9
:101360004FF41071204606F0BFFE00BFF7E7000003
:101370002DE9F04F8FB00446E0A00BF0DEF9834674
:10138000BBF1000F03D1E0A00BF0D7F98346DFA03B
:101390000BF0D3F98246BAF1000F03D1DAA00BF0BB
:1013A000CCF982464FF00009E0690AF0D6FB054609
:1013B000E0690AF0CBFB064600962B460022114658
:1013C000E0690AF01BFD208A40F01000208260686E
:1013D000807800F0200010B30020ADF82C00ADF8AC
:1013E0002E00681E00B2ADF830000021ADF83210BA
:1013F000681E00B2ADF83400701E01B2ADF83610B0
:10140000284605EBD071491009B2ADF838103046C6
:1014100006EBD07149100AB2ADF83A2040E02846F8
:10142000E91705EB9171891009B2ADF82C1030461F
:10143000F11706EB9171891009B2ADF82E1028460C
:10144000E91705EB9171A5EBA10109B2ADF83010D8
:101450003046F11706EB917189100AB2ADF83220CF
:101460002846E91705EB9171A5EBA10109B2ADF88A
:1014700034103046F11706EB9171A6EBA1010AB2C8
:10148000ADF83620284605EBD071491009B2ADF809
:101490003810304606EBD07149100AB2ADF83A2048
:1014A000FF21E06907F075FC0120FF216FF07F420A
:1014B000CDE902B2CDE9041097A01E21CDE90010BC
:1014C0002B4605220021E0690AF096FA60688078D0
:1014D00000F0400008B1042000E00320069000273F
:1014E00052E00BA800EB8701204600F043FB00BF51
:1014F00002E014200FF04EFBA07B00F0010000285A
:10150000F7D0002080460490059011E0B8F1FA0F62
:101510000BD2B4F90810059808440590B4F90A10E4
:1015200004980844049008F1010814200FF032FBDD
:10153000A07B00F001000028E8D1B8F10F0FD7D34D
:101540000598B0FBF8F000B207A921F8270004982D
:10155000B0FBF8F000B201EB870148800BA800EB6C
:1015600087000390FF201F21CDE90010039B5B88BB
:101570000F3B1AB2039B1B880F3B19B21F23E06974
:101580000AF04EF900BF7F1C06988742A9D307AA2C
:101590000BA9204600F0D2F86068807800F0400087
:1015A00000287BD0207C00F0200010B16068223041
:1015B00001E060681C30074604F120010AA800F031
:1015C000B1FB6068807800F0040098BBE0690AF025
:1015D000C1FA38B15A2806D0B42810D0B0F5877FA8
:1015E00029D11BE028E0BDF92820681EBDF82A108B
:1015F000401A00B2ADF82800ADF82A201CE0681EA1
:10160000BDF82810401A00B2ADF82800701EBDF8D1
:101610002A10401A01B2ADF82A100DE0BDF92A20B7
:10162000701EBDF82810401A01B2ADF82A10ADF8AE
:10163000282001E002E000BF00BF00BFBDF9280084
:10164000BDF93810411A4943BDF92A20BDF93A00C5
:10165000121ABDF92A30181A02FB0019388810FB3B
:1016600000F0484517D201202E494FF47F02CDE902
:1016700002A2CDE904102CA02821CDE900102B46B0
:1016800023220021E0690AF0B7F940F6B8300FF0E4
:1016900081FA02E002E04FF0000900BF584607F06F
:1016A000C0FA504607F0BDFA208A20F010002082D0
:1016B000208A40F004002082B9F1000F0DD1208A69
:1016C00040F0080020826068406B30B160681822EA
:1016D00004F12001436B204698470021E181204618
:1016E00000F044FE0CF0A2FE07463946E06907F020
:1016F00050FB48460FB0BDE8F08F00002A20446F31
:1017000075626C65000000002A0000002A204E610E
:1017100072726F770000000043616C6962726174DD
:10172000696F6E0000FFFF0043616C696272617453
:10173000696F6E204661696C65642100F0B50646EC
:101740000B46B3F90070B3F90450B3F90840706860
:10175000807800F00400002837D1F0690AF0FAF927
:101760005A2805D0B4280AD0B0F5877F2BD118E0CD
:10177000B3F90270B3F90650B3F90A4024E0F069F6
:101780000AF0EBF9401E00B20446054607461888E9
:10179000381A07B29888281A05B21889201A04B294
:1017A00012E0F0690AF0D2F9401E00B20446054684
:1017B00007465888381A07B2D888281A05B25889B7
:1017C000201A04B200E000BF00BFB2F90000B2F975
:1017D0000810401A00EE900AB8EEE01AB2F90610AE
:1017E000B2F90A00081A00EE900AF8EEE00A61EE7B
:1017F000200AB2F90400B2F90810401A01EE100AEA
:10180000F8EEC11AB2F90210B2F90A00081A01EE94
:10181000100AB8EEC11AB0EE600A01EEC10AB2F9C0
:101820000610B2F90A00081A00EE900AB8EEE01AA3
:10183000381B00EE900AF8EEE00A61EE200AB2F9D9
:101840000210B2F90A00081A01EE100AF8EEC11AE5
:10185000281B01EE100AB8EEC11A41EE610A80EEB3
:10186000801A86ED081AB2F90000B2F90810401A81
:1018700000EE900AB8EEE01A281B00EE900AF8EE8F
:10188000E00A61EE200AB2F90400401A01EE100AE3
:10189000F8EEC11A381B01EE100AB8EEC11A41EE7B
:1018A000610A80EE801A86ED091AB2F9040000EE92
:1018B000900AB8EEE01AB2F90A0000EE900AF8EECB
:1018C000E00A21EE201AB2F9080000EE900AF8EEC4
:1018D000E01AB2F9060000EE900AF8EEE00A01EE16
:1018E000E01A00EE907AF8EEE00A21EE201AB2F942
:1018F000000000EE900AF8EEE01AB2F90A0000EEDD
:10190000900AF8EEE00A61EEA01AB2F9080000EEC3
:10191000900AB8EEE02AB2F9020000EE900AF8EE62
:10192000E00A42EE601A00EE905AB8EEE02AF0EEBD
:10193000410A42EE610AB2F9000001EE100AF8EE27
:10194000C11AB2F9060001EE100AB8EEC11A61EE32
:10195000811AB2F9040001EE100AB8EEC12AB2F9F8
:10196000020001EE100AB8EEC11A42EE411A01EE71
:10197000104AB8EEC11A41EE210A80EE801A86EDB7
:101980000A1AB3F90270B3F90650B3F90A40706845
:10199000807800F00400002837D1F0690AF0DAF806
:1019A0005A2805D0B42815D0B0F5877F2BD123E075
:1019B000F0690AF0D2F8401E00B204460546074618
:1019C0001888381A07B29888281A05B21889201A78
:1019D00004B219E0F0690AF0B9F8401E00B20446FA
:1019E000054607465888381A07B2D888281A05B21B
:1019F0005889201A04B207E0B3F90070B3F9045013
:101A0000B3F9084000E000BF00BFB2F90610B2F918
:101A10000A00081A00EE900AB8EEE01A381B00EE31
:101A2000900AF8EEE00A61EE200AB2F90210B2F96B
:101A30000A00081A01EE100AF8EEC11A281B01EE7E
:101A4000100AB8EEC11A41EE610A80EE801A86EDE6
:101A50000B1AB2F90000B2F90810401A00EE900A11
:101A6000B8EEE01A281B00EE900AF8EEE00A61EEEC
:101A7000200AB2F90400401A01EE100AF8EEC11A69
:101A8000381B01EE100AB8EEC11A41EE610A80EE71
:101A9000801A86ED0C1AB2F9040000EE900AB8EE36
:101AA000E01AB2F90A0000EE900AF8EEE00A21EE20
:101AB000201AB2F9080000EE900AF8EEE01AB2F926
:101AC000060000EE900AF8EEE00A01EEE01A00EEE1
:101AD000907AF8EEE00A21EE201AB2F9000000EE4A
:101AE000900AF8EEE01AB2F90A0000EE900AF8EE59
:101AF000E00A61EEA00AB2F9080001EE900AB8EE21
:101B0000E12AB2F9020001EE900AF8EEE12AF0EEC5
:101B1000601A42EE621A00EE905AB8EEE02AF0EE39
:101B2000410A42EE610AB2F9000001EE100AF8EE35
:101B3000C11AB2F9060001EE100AB8EEC11A61EE40
:101B4000811AB2F9040001EE100AB8EEC12AB2F906
:101B5000020001EE100AB8EEC11A42EE411A01EE7F
:101B6000104AB8EEC11A41EE210A80EE801A86EDC5
:101B70000D1AF0BD7CB505460C466FF07F41B4F9F7
:101B80000200CDE900012688B61E33B2B4F9022066
:101B900026880F3E31B2E86908F0EEF86FF07F4119
:101BA000B4F90200CDE9000126880F3633B2B4F94A
:101BB00002202688B61C31B2E86908F0DDF86FF023
:101BC0007F416088801E00B2CDE90001B4F9003089
:101BD00066880F3E32B21946E86908F0CDF86FF01A
:101BE0007F4160880F3000B2CDE90001B4F90030C8
:101BF0006688B61C32B21946E86908F0BDF8484953
:101C000060880F3000B2CDE900012688F61F33B29C
:101C100066880F3632B226880F3E31B2E86908F086
:101C2000ABF83F4960880F3000B2CDE9000126884B
:101C30000F3E33B26688F61D32B226880F3E31B2AF
:101C4000E86908F099F8364960880F3800B2CDE9A4
:101C500000012688F61F33B266880F3E32B226880E
:101C60000F3E31B2E86908F087F82D4960880F38D7
:101C700000B2CDE9000126880F3E33B26688F61F18
:101C800032B226880F3E31B2E86908F075F824496F
:101C900060880F3000B2CDE9000126880F3633B2DC
:101CA00066880F3632B22688F61D31B2E86908F030
:101CB00063F81B4960880F3000B2CDE90001268827
:101CC0000F3633B26688F61D32B226880F3631B22F
:101CD000E86908F051F8124960880F3800B2CDE980
:101CE000000126880F3633B266880F3E32B226884E
:101CF000F61D31B2E86908F03FF809496088C01F55
:101D000000B2CDE9000126880F3633B266880F3E57
:101D100032B226880F3631B2E86908F02DF87CBD62
:101D2000839EB80010B5D1ED000AB0F9004000EE76
:101D3000104AB8EEC00A20EE800A91ED011AB0F9FF
:101D4000024000EE904AF8EEE00A01EE200AD1EDE2
:101D5000020A30EE200ABDEEC00A10EE104A22B28E
:101D6000D1ED030AB0F9004000EE104AB8EEC00A07
:101D700020EE800A91ED041AB0F9024000EE904A7C
:101D8000F8EEE00A01EE200AD1ED050A30EE200A55
:101D9000BDEEC00A10EE104A23B20280438010BD8F
:101DA0000146087F00F0010008B1022070470020C2
:101DB000FCE700002DE9F0470C4616461F46DDF80B
:101DC00020C04FF000080025002100220023D0F899
:101DD0000090D9F8449009F0404ADFF8DC9099FA75
:101DE000A9F9B9FA89F907FA09F949EA0C094AEA9D
:101DF000090AD0F80090C9F844A0D0F80090C9F8BA
:101E00003C60D0F80490B9F5403F4ED104F07F45D6
:101E100004F47F0104F47F42E3B2D0F80890B9F1F2
:101E2000000F06D142EA010949EA050949EA030817
:101E300036E0D0F80890B9F1010F04D142EA010967
:101E400049EA03082CE0D0F80890B9F1020F09D153
:101E5000C90C920ADB084FEA421949EAC12949EA4A
:101E600003081DE0D0F80890B9F1030F0CD1ED0F75
:101E7000C90CD20ADB084FEA421949EA812949EA2A
:101E8000C53949EA03080BE02D0F090D120B1B0998
:101E90004FEA021949EA012949EA053949EA0308E2
:101EA000D0F80090C9F8388003E0D0F80090C9F865
:101EB0000C40BDE8F08700000000FF3F01460878B5
:101EC00010381823B0FBF3F20848805CC865032A79
:101ED00005D908686FF30900001D886503E00868EC
:101EE0006FF309008865886D704700005CA30308E4
:101EF000014600208A6A8B6903BB32B1012A0CD0EB
:101F0000022A10D0032A17D115E0CB6A03F08073A0
:101F1000B3F1807F00D101200FE0CB6AB3F1C07F25
:101F200000D1012009E0CB6A03F08073B3F1807F18
:101F300000D1012001E000E000BF35E08B69B3F57E
:101F4000005F1BD132B1012A06D0022A0CD0032A2D
:101F500012D10BE0012010E0CB6A03F08073B3F1E3
:101F6000807F00D1012008E0012006E0CB6AB3F1B8
:101F7000C07F00D1012000E000BF15E032B1012A8E
:101F800005D0022A04D0032A0CD103E000BF00BF11
:101F9000012008E0CB6A03F08073B3F1807F00D1A9
:101FA000012000E000BF00BF704730B5039C42EA4B
:101FB000811545EA032545EA0445C56630BD0000A4
:101FC0007CB505460C46012D08D860780090237832
:101FD00015220021064801F0D0F808E0605D2B468C
:101FE00039220021CDE90004014801F065F87CBDEB
:101FF00040570020014691F82D0000F00F000838EE
:1020000008281AD2DFE800F00406090C0E10131697
:10201000002070474FF47F00FBE74FF40040F8E7E3
:102020000748F6E7FF20F4E74FF0FF10F1E74FF61F
:10203000FF70EEE76FF07F40EBE74869E9E70000EB
:1020400000FFFF0010B503460A4611781846362BEC
:102050001ED008DCA0F13000062832D2DFE800F004
:10206000121314151617552822D006DC372810D065
:10207000422823D0432824D114E062281BD075289D
:102080001FD112E000BF00BF00BF00BF00BF00BFF4
:1020900000BF21F00701A3F1300040F00800084321
:1020A000C1B210E021F00F010DE041F010010AE093
:1020B00021F0100107E041F0200104E021F02001AF
:1020C00001E0002010BD00BF1078884201D100203F
:1020D000F8E711700120F5E730B50246002300242F
:1020E0000868012816D013686FF30E03D1E90105C3
:1020F0002843CD6828430D6928434D6928438D69DD
:102100002843CD6928430D6A28434D6A2843034379
:10211000136019E0136823F4F843D1E90705284355
:102120004D6A2843034354686FF30E04D1E9010557
:102130002843CD6828430D6928434D6928438D699C
:102140002843044313605460002030BD02465069A8
:1021500040EA4100506100207047F8B506460C4641
:102160001546002000900027D4E900010843A1682B
:10217000491E40EA4110E16840EA41200090009881
:10218000306101F073F9074609E0681C38B125B1E8
:1021900001F06CF9C01BA84201D90320F8BDB06959
:1021A00000F020000028F0D100BFF7E770B503462B
:1021B000154600220024012D1FD09A6802F07042BB
:1021C0000868401E4E68761E40EA06168868401E63
:1021D00046EA0026C868401E46EA0036088A401EC5
:1021E00046EA0046888A401E46EA0056087E401E9F
:1021F00046EA006002439A6022E09A681148024071
:10220000C868401E0603888A401E46EA0050024302
:10221000DC6804F070440868401E4E68761E40EA90
:1022200006168868401E46EA0026088A401E46EACE
:102230000046087E401E46EA006004439A60DC6067
:10224000002070BDFF0F0FFF4FF0FF37002683E027
:102250000EF09CFD394641480BF0E1FB00BF0EF04B
:10226000EDFC05464FF0FF373D49086939460EF051
:102270002DFD3C480068002869D03A48046800BF3A
:10228000207C00F00400A0B9207C00F002000028AF
:102290004AD1B54205D3A068B04202D3A068A84293
:1022A00007D9B54240D2A068B04202D2A068A84285
:1022B0003AD8207C00F00100A8B1E06898B1207CF9
:1022C00000F0020050B9E0682844A168401AE168B3
:1022D000B0FBF1F0A26800FB0120A060208A20F092
:1022E0000400208215E06069A04203D100201D494E
:1022F00008600CE0D4E905108861D4E90501486163
:1023000018480068A04202D11649606908600020A0
:102310002082D4F80080D4F80490114908690EF0A6
:10232000C9FC4846C0479AE7207C00F0020048B943
:10233000A068401BB84205D2A068401B0A49096842
:10234000B0FBF1F7646907480068844298D12E46D3
:10235000034908690EF0AEFC7AE70000BC54002087
:10236000A8540020880000208C0000207CB5044682
:10237000208A20F04000208260686946026B204677
:10238000904700B97CBDBDF8060000F00F00ADF825
:1023900006006068807800F0010010B36068B0F952
:1023A00016006168B1F9141088421CDCBDF9040004
:1023B0006168B1F91810884206DBBDF8060040F0EC
:1023C0000100ADF806002BE0BDF904006168B1F929
:1023D0001A10884206DCBDF8060020F00100ADF8B6
:1023E00006001DE0CEE7BDF904006168B1F91810E0
:1023F000884206DCBDF8060040F00100ADF806009A
:102400000EE0BDF904006168B1F91A10884206DBDC
:10241000BDF8060020F00100ADF8060000E0B1E7CD
:102420006068408800F4007000B3207C00F0020077
:1024300080B1BDF80600A17B484000F0010020B942
:10244000208A20F0020020829CE7208A20F00200EF
:1024500020820BE0BDF80600A17B484000F001009F
:1024600020B1208A40F0020020828BE7207C00F01F
:10247000100070B1BDF8060000F0010028B1BDF8F1
:1024800000002081BDF802106181BDF80610E181D5
:1024900078E76068408800F4807058B1BDF80600A5
:1024A00000F0010030B92089ADF800006089ADF876
:1024B000020075E0207C00F0080020B104F120014A
:1024C0006846FFF72FFCE069002869D0E06909F051
:1024D00044FB0246E06909F039FB034660688078F6
:1024E00000F0040098BBE06909F034FB38B15A28C9
:1024F00006D0B42810D0B0F5877F29D11BE028E0A2
:10250000BDF90050501EBDF80210401A00B2ADF8DF
:102510000000ADF802501CE0501EBDF80010401A3B
:1025200000B2ADF80000581EBDF80210401A00B20B
:10253000ADF802000DE0BDF90250581EBDF80010C4
:10254000401A00B2ADF80200ADF8005001E002E020
:1025500000BF00BF00BF207C00F00400F8B1BDF94F
:102560000000002803DA0020ADF8000007E0BDF904
:102570000000904203DB501E00B2ADF80000BDF930
:102580000200002803DA0020ADF8020007E0BDF9E0
:102590000200984203DB581E00B2ADF8020000BFF3
:1025A000227C02F0200212B16268223201E06268ED
:1025B0001C321046B0F90420002A1ADDBDF90020B3
:1025C000B4F90830D21A5243BDF90250B4F90A30B6
:1025D000ED1ABDF90260F31A05FB0321828812FB94
:1025E00002F28A4205D92289ADF800206289ADF84D
:1025F0000220B0F90220002A1CDD227C02F0010238
:10260000C2B1BDF90020B4F91230D21A5243BDF95B
:102610000250B4F91430ED1ABDF90260F31A05FB4B
:102620000321428812FB02F28A4203D2228A22F05C
:1026300001022282BDF80600E18920EA0106E08954
:10264000BDF8061020EA010506F0010028B1BDF82A
:10265000060040F01000ADF8060005F0010028B1BA
:10266000BDF8060040F02000ADF8060006F00300BB
:1026700060B1BDF800006082BDF80210A1820EF0CA
:10268000DDFAA061208A40F00100208205F00300FD
:10269000F0B3207C00F00100D0B3208A20F00100CC
:1026A00020820EF0CBFAA169401AA0613048008860
:1026B00030494843304909882E4A514300EB2140B4
:1026C000A169884211D305F0020028B1BDF80600C7
:1026D00040F08000ADF8060005F0010028B1BDF81B
:1026E000060040F04000ADF806006068807800F019
:1026F000010068B11E480088204948431E490988E6
:102700001E4A514300EB2140A169884207D800E0EE
:1027100005E0BDF8060040F08000ADF80600002599
:1027200004E06A462146284603F0DBFC29461448AB
:102730000AF0C6FE051EF4D100BF04E06A46214639
:10274000284603F0CEFC294620460AF0B9FE051EB5
:10275000F4D1BDF800002081BDF802106181BDF800
:102760000410A181BDF80610E18100BF0AE6000057
:1027700004A30308E093040006A3030820A10700B4
:102780001855002070B502460B4602F1180000EB08
:10279000031100245068B0F5403F02D0506800B1EA
:1027A00000BF00BF92F83800012801D1022070BD9F
:1027B000012082F8380000BF022082F83900486802
:1027C0000A2802D0486809280FD14FF4403696FAFB
:1027D000A6F6B6FA86F6D1E90105B5402843CD68DC
:1027E00005F07F4540EA050413E04FF4403696FAC1
:1027F000A6F6B6FA86F6D1E90105B54028434FF0B2
:102800007F4696FAA6F6B6FA86F6CD68B54040EA57
:102810000504ABB91068406A194D2840204315687B
:10282000686208681568A86148680A2802D0486884
:1028300009281AD1C86820F07F401568A86214E002
:102840001068C0690E4D284020431568E86108688B
:102850001568286148680A2802D04868092804D108
:10286000C86820F07F4015682862012082F839008E
:1028700000BF002082F8380000BF00BF97E70000CB
:10288000F0FFFC0010B504460CB9012010BD94F80F
:10289000390028B9002084F83800204600F022F8DA
:1028A000022084F839002068006820F44030616814
:1028B0000843216808602068406B20F00700A16889
:1028C0000843216848632068006C6FF30D00E168DD
:1028D0000843216808640020E063012084F839007F
:1028E0000020D3E77047F8B504460D4600260020C7
:1028F00000902068006800F00100002843D000F03C
:10290000B5FD064639E0206840680090009800F068
:102910002100E0B1009800F0200018B1E06B40F019
:102920000200E063009800F0010018B1E06B40F095
:102930000100E063212021688860042084F83900C8
:1029400000BF002084F8380000BF0120F8BD681CDB
:1029500098B125B100F08AFD801BA8420DD9E06B2B
:1029600040F02000E063032084F8390000BF00201D
:1029700084F8380000BF0320E8E72068406800F0D2
:1029800002000028BFD02068C06900F0200028B9EC
:102990002068406A00F0200000284BD000F066FD5F
:1029A000064641E0206840680090009800F0290049
:1029B00020B3009800F0080018B1E06B40F004006C
:1029C000E063009800F0200018B1E06B40F00200D6
:1029D000E063009800F0010018B1E06B40F00100E6
:1029E000E063292021688860042084F8390000BF52
:1029F000002084F8380000BF0120A7E7681C98B1C8
:102A000025B100F033FD801BA8420DD9E06B40F0EA
:102A10002000E063032084F8390000BF002084F820
:102A2000380000BF032091E72068406800F01000E4
:102A30000028B7D0122021688860012084F839006E
:102A400000BF002084F8380000BF00BF7EE72DE9FA
:102A5000F84304460D4616461F46DDF8208000BFA9
:102A600094F83800012802D10220BDE8F883012043
:102A700084F8380000BF022084F839003B46324613
:102A800029462046CDF80080FFF794F920680068B9
:102A900040F00100216808600020E6E770B50446B8
:102AA0000CB9012070BD94F83500022800D1F9E777
:102AB0002068006820F0010021680860002021687B
:102AC000086021684860216888602168C8602168C2
:102AD00008612120216848612046FFF7EFF905468B
:102AE00094F85C103F208840A8600020606584F85E
:102AF000350000BF84F8340000BF00BFD2E70000FB
:102B00002DE9F0410446002500F0B0FC074614B959
:102B10000120BDE8F081606A00B100BF00BF002065
:102B200084F8340000BF022084F835002068006873
:102B300020F00100216808600AE000F097FCC01B4B
:102B4000052805D920206065032084F83500E0E7DA
:102B50002068006800F001000028EED120680568B8
:102B600020480540D4E901010843E1680843216990
:102B7000084361690843A1690843E1690843216A80
:102B800008430543606A042803D1D4E90B010843D4
:102B90000543206805602068456925F00705606ADF
:102BA0000543606A04280BD1A06A05432046FFF75D
:102BB0009FF928B140206065012084F83500A8E71E
:102BC000206845612046FFF779F9064694F85C10C5
:102BD0003F208840B06000206065012084F8350007
:102BE000002096E73F8010F0024600BF107C0128CD
:102BF00001D1022070470120107400BF48680328EB
:102C000000D100BF1068406B20F0010013685863CA
:102C10001068D0F8000420F001001368C3F8000425
:102C20001068806B20F00300136898631068806B55
:102C3000CB681843136898631068C06B6FF30D007E
:102C40001368D8631068C06B0B6918431368D863A6
:102C50001068006C6FF30C00136818641068006C47
:102C60004B691843136818641068406C6FF30C00CC
:102C7000136858641068406C8B6918431368586473
:102C80001068C06820F003001368D8601068C0683E
:102C90000B6818431368D8601068406920F007007B
:102CA00013685861D1E908301843CB691843136899
:102CB0005B691843136858611068006920F00F00C1
:102CC00013681861106800694B681843136818612D
:102CD0001068D0F8000420F00E001368C3F8000458
:102CE0001068D0F800044B6840EA43001368C3F84A
:102CF0000004486803280BD11068006920F4807034
:102D000013681861106800698B68184313681861AC
:102D10001068806C6FF30B00136898641068806C07
:102D20008B6A1843136898641068C06C6FF30B00CB
:102D30001368D8641068C06CCB6A18431368D864F1
:102D40001068006D6FF30E00136818651068006D51
:102D50000B6B1843136818651068406D6FF309001A
:102D6000136858651068406D4B6B184313685865BD
:102D70001068806D6FF30900136898651068806DA6
:102D80008B6B1843136898651068C06D6FF309006A
:102D90001368D8651068C06DCB6B18431368D8658D
:102DA0001068006E6FF30D00136818661068006EEF
:102DB0000B6C1843136818661068806B20F4004091
:102DC000136898631068806B4B6C184313689863A2
:102DD0001068806920F47F0013689861106880692A
:102DE000B1F8483040EA0340136898611068806980
:102DF00020F0FF001368986110688069CB6C18435D
:102E0000136898611068806B20F400501368986311
:102E10001068806B0B6D1843136898631068806BA3
:102E200020F48050136898631068806B4B6D1843D2
:102E3000136898631068806B20F4006013689863CF
:102E40001068806B8B6D1843136898631068806BF3
:102E500020F48060136898631068806BCB6D184312
:102E6000136898631068806B20F40070136898638F
:102E70001068806B0B6E1843136898631068806B42
:102E800020F48070136898631068806B4B6E184351
:102E9000136898631068806B20F48040136898630F
:102EA0001068806B8B6E18431368986300BF002016
:102EB000107400BF00BF9DE610B504460CB9012098
:102EC00010BD032060742068D0F8040420F00800CE
:102ED0002168C1F804042068406820F001002168DE
:102EE00048602068D0F8A00020F006002168C1F8F2
:102EF000A0002068D0F8300420F001002168C1F85B
:102F000030042068D0F8300420F080702168C1F8C7
:102F10003004204600F02FF900206061607400BF8B
:102F2000207400BF00BFCBE72DE9F04104460D46F9
:102F300000260027B04614B90120BDE8F081607C6E
:102F400010B9204600F018F9032060742068D0F80A
:102F5000300440F080702168C1F8300400F086FA37
:102F6000064607E000F082FA801BB0F57A7F01D9AF
:102F70000320E2E72068D0F80C0400F48050002819
:102F8000F0D02068D0F83004494908402168C1F8E1
:102F9000300428688000696840EAC120298940EA35
:102FA00001402168D1F8301408432168C1F8300489
:102FB0002068D0F8300440F001002168C1F83004E6
:102FC00000F054FA064607E000F050FA801BB0F516
:102FD0007A7F01D90320B0E72068D0F80C0400F410
:102FE00080700028F0D02068D0F8A00040F00600E3
:102FF0002168C1F8A0002068D0F8940020F00300F8
:103000002168C1F894002068D0F89400616841F00C
:10301000010108432168C1F894002068D0F8A40099
:1030200020F003002168C1F8A4002068D0F8A400B3
:10303000E16808432168C1F8A4002068806820F096
:10304000FF00216888602168A0688860686808B10E
:10305000686800E001208046164808FB00F02A7AE4
:103060000121914048434FF4FA5229685143B0FB83
:10307000F1F72068D0F8180420F03F002168C1F86B
:1030800018042068D0F8180438432168C1F81804DF
:1030900000202168C1F8C40000212068C0F8C810D1
:1030A0000020A061606101206074002045E70000FD
:1030B0000386FCFF00093D002DE9F84F05468846D0
:1030C00091461F46DDE90AA60024A34600BF287CDE
:1030D000012802D10220BDE8F88F0120287400BF2A
:1030E00000F0C4F983460CE000F0C0F9A0EB0B003F
:1030F000B0F57A7F05D900BF0020287400BF0320F7
:10310000E9E72868406F00F001000028ECD01FE0DC
:1031100074B9305D4AEA00203119497840EA01402B
:103120003119897840EA016029680867E41C0FE0DA
:10313000305D3119497840EA01203119897840EA37
:1031400001403119C97840EA016029680867241DE7
:10315000BC42DDD3781CC0F30720791CCBB20090B1
:103160004A4641462868FEF720FF00BF0020287429
:1031700000BF00BFAFE7704770472DE9F843044632
:103180000D4616461F46DDF820804FF0000900BFAF
:10319000207C012802D10220BDE8F88301202074A0
:1031A00000BF00F063F981460CE000F05FF9A0EB8E
:1031B0000900B0F57A7F05D900BF0020207400BF58
:1031C0000320E9E72068406F00F001000028ECD000
:1031D000CDF800803B46324629462068FEF7E5FEE2
:1031E00000BF0020207400BF00BFD5E7014600BF2C
:1031F000087C012801D1022070470120087400BF1B
:103200000868406840F001000A6850600868D0F81B
:10321000040440F008000A68C2F8040400BF00205B
:10322000087400BF00BFE7E731B5002400F01EF9C5
:10323000044600BF00F01AF9001B00998842F9D338
:1032400038BD0000F8B502460B46002500240020DA
:103250000021E6E0012606FA01F51E6806EA0504EB
:10326000AC4273D15E68022E02D05E68122E13D17A
:10327000CF0802F1200656F827004E07F70E0F265A
:10328000BE40B0434F07FF0E1E69BE403043CF081B
:1032900002F1200646F8270010684F000326BE40C2
:1032A000B0431E7906F003064F00BE403043106065
:1032B0005E68012E08D05E68022E05D05E68112E71
:1032C00002D05E68122E13D190684F000326BE40D4
:1032D000B0434F00DE68BE40304390605068012626
:1032E0008E40B0431E79C6F300168E4030435060C6
:1032F000D0684F000326BE40B0434F009E68BE40DA
:103300003043D0605E6806F08056B6F1805FA8D189
:1033100000BF00260096454E366846F48046434F6F
:103320003E603E46366806F48046009600BF00BF09
:103330003F4E8F0856F827008E07370F0F26BE40E6
:10334000B0433C4EB24202D100262EE068E03A4E35
:10335000B24201D1012628E0384EB24201D1022604
:1033600023E0374EB24201D103261EE0354EB24271
:1033700001D1042619E0344EB24201D1052614E0F1
:10338000324EB24201D106260FE0314EB24201D197
:1033900007260AE02F4EB24201D1082605E02E4E44
:1033A000B24201D1092600E00A268F073F0FBE4036
:1033B00030431F4E8F0846F82700284E3068A04340
:1033C0005E6806F48036B6F5803F00D12043234E78
:1033D0003060361D3068A0435E6806F40036B6F5EE
:1033E000003F00D120431D4E361D3060361D306831
:1033F000A0435E6806F48016B6F5801F00D1204316
:10340000164E08363060361D3068A0435E6806F4FC
:103410000016B6F5001F00D12043104E0C36306068
:10342000491C1029FFF416AFF8BD000044380240D3
:103430000838014000000240000402400008024039
:10344000000C02400010024000140240001802402C
:10345000001C02400020024000240240003C0140C9
:103460000AB1816101E00B04836170470148006883
:10347000704700001002002010B504460CB901206E
:1034800010BD242084F83D002068006820F0010071
:1034900021680860204600F08DFA0020206484F83E
:1034A0003D00206384F83E0000BF84F83C0000BF6C
:1034B00000BFE5E7014691F83D00704770B504464E
:1034C000002600250CB9012070BD94F83D0028B9F4
:1034D000002084F83C00204600F06DFA242084F897
:1034E0003D002068006820F001002168086001F0BC
:1034F00035F805463948B5FBF0F62068466038498E
:103500006068884201D8701C07E04FF496707043E1
:103510004FF47A71B0FBF1F0401C21680862304929
:10352000606888420ED860684000B5FBF0F0C0F3D8
:103530000B00042801D204202DE060684000B5FB98
:10354000F0F028E0A06828B9606800EB4000B5FB07
:10355000F0F008E0606800EBC00101EB0010B5FB83
:10356000F0F040F48040C0F30B0008B9012012E0F5
:10357000A06828B9606800EB4000B5FBF0F008E0F7
:10358000606800EBC00101EB0010B5FBF0F040F407
:10359000804040F400402168C861D4E90701084335
:1035A00021680860D4E90310084321688860D4E9E1
:1035B000050108432168C8602068006840F00100E8
:1035C0002168086000202064202084F83D0000204D
:1035D000206384F83E0000BF76E7000040420F0001
:1035E000A08601002DE9FC5F0446894692469B4671
:1035F000DDE90D680C9D0027FFF738FF074694F8BA
:103600003D0020287ED119230122954920460097AC
:1036100001F0DFFC10B10220BDE8FC9F00BF94F870
:103620003C00012801D10220F6E7012084F83C008B
:1036300000BF2068006820F4006021680860222034
:1036400084F83D00402084F83E0000202064854836
:10365000E0625B46524649462046CDE9008701F0CC
:1036600071FB80B1206C042806D100BF002084F8D3
:103670003C0000BF0120CFE700BF002084F83C00E1
:1036800000BF0320C8E78EB900BF0020019020686A
:103690004069019020688069019000BF00BF2068E8
:1036A000006840F40070216808603FE0012E17D1E7
:1036B0002068006820F480602168086000BF002056
:1036C000019020684069019020688069019000BFE6
:1036D00000BF2068006840F400702168086025E0A1
:1036E000022E18D12068006820F4806021680860EC
:1036F0002068006840F400602168086000BF002076
:10370000019000E0A9E0206840690190206880698C
:10371000019000BF0AE000BF0020019020684069CE
:10372000019020688069019000BF00BF87E0032EF0
:1037300067D8012E13D13A464146204601F0DBFC02
:1037400030B1206C202801D1032065E7012063E718
:103750002068006905F8010B701E86B26FE0022E2A
:103760001CD14346002240492046009701F031FC1D
:1037700008B1032050E72068006840F40070216819
:1037800008602068006905F8010B701E86B2206889
:10379000006905F8010B701E86B250E04346002216
:1037A00031492046009701F014FC08B1032033E7AB
:1037B0002068006820F48060216808602068006943
:1037C00005F8010B701E86B24346002226492046AA
:1037D000009701F0FEFB08B103201DE72068006898
:1037E00040F40070216808602068006905F8010B4A
:1037F000701E86B22068006905F8010B701E86B243
:103800001DE03A464146204601F075FC30B1206C7F
:10381000202801D10320FFE60120FDE62068006991
:1038200005F8010B701E86B220684069C0F3800065
:1038300028B12068006905F8010B701E86B2002EC1
:103840007FF475AF202084F83D00002084F83E000E
:1038500000BF84F83C0000BFDEE60220DCE600008A
:10386000020010000000FFFF040001002DE9FC5FD2
:103870000446894692469B46DDE90D680C9D00276B
:10388000FFF7F4FD074694F83D00202878D119236E
:10389000012246492046009701F09BFB10B102200F
:1038A000BDE8FC9F00BF94F83C00012801D1022034
:1038B000F6E7012084F83C0000BF2068006820F48F
:1038C000006021680860212084F83D00402084F8D1
:1038D0003E00002020643648E0625B46524649467E
:1038E0002046CDE9008701F0D9FA80B1206C042888
:1038F00006D100BF002084F83C0000BF0120CFE7C4
:1039000000BF002084F83C0000BF0320C8E724E08B
:103910003A464146204601F025FC60B1206C04285F
:1039200007D12068006840F4007021680860012019
:10393000B6E70320B4E715F8010B21680861701E93
:1039400086B220684069C0F3800030B12EB115F80E
:10395000010B21680861701E86B2002ED8D13A464C
:103960004146204601F00AFB68B1206C042808D1CA
:103970002068006840F400702168086001208FE72B
:1039800012E003208CE72068006840F40070216892
:103990000860202084F83D00002084F83E0000BF2D
:1039A00084F83C0000BF7BE7022079E702001000AA
:1039B0000000FFFF7047704710B50D48006840F4E5
:1039C00000700B4908600846006840F48060086099
:1039D0000846006840F480700860032000F062F937
:1039E0000F2000F007F800F00EF9002010BD0000D5
:1039F000003C024070B50446074800684FF47A71F5
:103A0000B0FBF1F5284601F043F800222146501E94
:103A100000F00AF9002070BDFC01002070B50446DA
:103A20000E46154600BF94F8A000012801D10220DF
:103A300070BD012084F8A00000BF022084F8A1001E
:103A400005EB850101EBC50204F1380101EB8200B1
:103A500034223146FCF78DFD2A463146204601F0DE
:103A6000AFFD01202168486284F8A10000BF00205A
:103A700084F8A00000BF00BFDAE7000070B504467C
:103A8000002500260CB9012070BD94F8A10028B9CA
:103A9000002084F8A000204600F084F8022084F87A
:103AA000A1002068806920F0704021688861D4E915
:103AB00001010843E16808432169084321688969D5
:103AC000084321688861206880683549084021687A
:103AD0008860A08A050420688068A169294308439A
:103AE000216888602068C0682D4908402168C86046
:103AF000A08B05042068C068216A29430843216817
:103B0000C860206800692649084021680861A08CC7
:103B1000050420680069A16A2943084321680861F7
:103B2000206840691E49084021684861A08D05044D
:103B300020684069216B294308432168486194F853
:103B40003500050294F8360006042068C06A00F0CB
:103B50007F402168C86246EA050094F834100843A3
:103B60002168C96A08432168C8622068406B40F038
:103B70000400216848632068406B40F0020021681F
:103B800048632068806940F0010021688861002056
:103B9000C4F8A400012084F8A100002074E700000C
:103BA00000F800F070470246486A08B9002301E0B7
:103BB0004FF00053D360086A08B9002301E04FF0CA
:103BC00080439360C86908B9002001E04FF00040CD
:103BD0005060486B401E9061D1E90D031844401EAF
:103BE0001062D1E90D0318440B6C1844401E90621A
:103BF000D1E90D0318440B6C1844CB6B1844401EDC
:103C0000106300207047704701460846002809DB12
:103C100000F01F0301229A4043099B0003F1E023B7
:103C2000C3F8002100BF70472DE9F05F80460D46C4
:103C30001646002703F022F9074639462A4633463E
:103C400001F00700C0F1070ABAF1040F02D94FF0E2
:103C5000040A01E0C0F1070AD14600F1040ABAF1F2
:103C6000070F02D24FF0000A01E0A0F1030AD44688
:103C70004FF0010A0AFA09FAAAF1010A0AEA020A4D
:103C80000AFA0CFA4FF0010B0BFA0CFBABF1010B2B
:103C90000BEA030B4AEA0B042146404603F0F6F810
:103CA000BDE8F09F00BF00F00702064B19684FF611
:103CB000FF031940044B0B4343EA0221014B1960F7
:103CC00000BF70470CED00E00000FA0538B5002495
:103CD00000BF002000902348006840F08050214938
:103CE00008600846006800F08050009000BF00BFE8
:103CF0000120010491FAA1F1B1FA81F11A4A42F8C6
:103D00002100FFF7B3FB044607E0FFF7AFFB001B02
:103D1000B0F57A7F01D9032038BD1448406800F41B
:103D20008030B0F5803FF0D10120410491FAA1F13B
:103D3000B1FA81F10C4A42F82100FFF797FB0446E3
:103D400007E0FFF793FB001BB0F57A7F01D9032052
:103D5000E2E70648406800F40030B0F5003FF0D1DB
:103D60000020D9E74038024000000E4200700040B9
:103D700040F2BF120260474A126847F6C0731A4009
:103D800093FAA3F3B3FA83F3DA404260414A12682C
:103D900002F0E0424FF0E04393FAA3F3B3FA83F367
:103DA000DA4082603B4A126802F070624FF0706342
:103DB00093FAA3F3B3FA83F3DA40C260354A121DD3
:103DC000126847F6C0731A4093FAA3F3B3FA83F369
:103DD000DA4002612F4A121D126802F0E0424FF0F1
:103DE000E04393FAA3F3B3FA83F3DA40C261294ABA
:103DF000121D126802F070624FF0706393FAA3F321
:103E0000B3FA83F3DA408261224A0832126802F080
:103E10001F021F2393FAA3F3B3FA83F3DA4002627B
:103E20001C4A0832126802F4F8524FF4F85393FA1D
:103E3000A3F3B3FA83F3DA404262164A08321268F7
:103E400002F440328262134A7C3A126802F4F8119A
:103E5000104A143A126802F440720A43C2620D4AD0
:103E60000832126802F0006242630A4A083212689D
:103E700002F080528263074A0832126802F08072B0
:103E80001AB9002280F8302002E0012280F83020A8
:103E900070470000843802402DE9F84304460025AD
:103EA00000260027A846A946207800F08000802838
:103EB00007D1F948006820F00060616B0843F649BB
:103EC0000860208800F48070B0F5807F07D1F24848
:103ED000006820F08050A16B0843EF49086020780B
:103EE00000F0010048B9207800F00200022804D058
:103EF000207800F04000402878D10020E74988660B
:103F0000FFF7B4FA054607E0FFF7B0FA401B0228B6
:103F100002D90320BDE8F883DF488C380068C0F37D
:103F2000C0600028F0D1207800F0010098B147F679
:103F3000C07191FAA1F1B1FA81F1606888404FF047
:103F4000E04292FAA2F2B2FA82F2A16891400843EA
:103F5000D14908390860207800F0020002281FD1FA
:103F6000CD480838006800F0E0404FF0E04191FA99
:103F7000A1F1B1FA81F120FA01F660688101207B9C
:103F800041EA006040EA0670C34908390860C24847
:103F9000006820F01F00216A491E0843BE490860DE
:103FA000207800F0400040280AD160688101207B21
:103FB00041EA0061207A41EA0070B7490839086097
:103FC0000120B6498866FFF751FA054607E0FFF77A
:103FD0004DFA401B022802D903209BE706E0AE48B9
:103FE0008C380068C0F3C0600028F0D0207800F062
:103FF000040004280DD0207800F00800082808D01C
:10400000207800F0800080287ED1606BB0F1006FD6
:10401000FAD10020A1490867FFF728FA054606E013
:10402000FFF724FA401B022801D9032072E79A48BF
:104030008C380068C0F340700028F1D1207800F07F
:10404000040004284CD19448001F006800F440305C
:104050004FF4403191FAA1F1B1FA81F1C840401C0E
:1040600047008D48001F006800F0E0404FF0E0413D
:1040700091FAA1F1B1FA81F120FA01F947F6C07184
:1040800091FAA1F1B1FA81F1206988400121C1EBD7
:1040900057014FF4403292FAA2F2B2FA82F2914002
:1040A00008434FF0706292FAA2F2B2FA82F2A1696A
:1040B000914008434FF0E04191FAA1F1B1FA81F14A
:1040C00009FA01F108437449091F0860081D0068D6
:1040D00020F4F851606A401E41EA00206E490860F1
:1040E000207800F0080008284CD16B48001F0068B9
:1040F00000F440304FF4403191FAA1F1B1FA81F16E
:10410000C840401C470000E09DE06348001F006875
:1041100000F070604FF0706191FAA1F1B1FA81F195
:1041200020FA01F847F6C07191FAA1F1B1FA81F1D4
:10413000206988400121C1EB57014FF4403292FAC7
:10414000A2F2B2FA82F2914008434FF0706191FA04
:10415000A1F1B1FA81F108FA01F108434FF0E04210
:1041600092FAA2F2B2FA82F2E169914008434A4916
:10417000091F0860081D006820F44030A16A084348
:1041800045490860207800F08000802846D1606BA7
:10419000B0F1006F42D14048001F006800F070602D
:1041A0004FF0706191FAA1F1B1FA81F120FA01F8B2
:1041B0003948001F006800F0E0404FF0E04191FAFC
:1041C000A1F1B1FA81F120FA01F947F6C07191FA33
:1041D000A1F1B1FA81F12069884001226169C2EB45
:1041E00051014FF4403292FAA2F2B2FA82F29140B7
:1041F00008434FF0706191FAA1F1B1FA81F108FA28
:1042000001F108434FF0E04191FAA1F1B1FA81F1D7
:1042100009FA01F108432049091F086001201F49DC
:104220000867FFF723F9054606E0FFF71FF9401B73
:10423000022801D903206DE617488C380068C0F3C6
:1042400040700028F1D0207800F0200020286FD1A5
:1042500000BF0020009010484C38006840F08050AB
:104260000D494C3908600846006800F08050009005
:1042700000BF00BF0A48006840F480700849086029
:10428000FFF7F4F805460DE0FFF7F0F8401B0228B1
:1042900008D903203EE600008C3802400000474267
:1042A000007000403148006800F480700028EBD0B6
:1042B0002F48006800F4407636B3A08D00F44070BB
:1042C000B04221D02A48006820F4407601202949D4
:1042D00008600020086026480660006800F00100C1
:1042E00090B1FFF7C3F8054608E0FFF7BFF8401BA1
:1042F00041F28831884201D903200BE61C4800684E
:10430000C0F340000028F0D000BFA08D00F4407042
:10431000B0F5407F0DD116486838006820F4F810D9
:10432000154AE16A1140084311496839086008E0FC
:1043300010E00F486838006820F4F8100C4968391C
:1043400008600B480068A18DC1F30B0108430849C0
:10435000086000BF207800F01000102803D194F806
:104360003000064908600020D4E5000000700040DD
:1043700070380240400E4742FFFCFF0FE0114742F9
:1043800070B504460D4600266D48006800F00F0029
:10439000A84209D26A490D700846006800F00F0073
:1043A000A84201D0012070BD207800F00200022850
:1043B00007D16448006820F0F000A1680843614913
:1043C0000860207800F00100002877D0606801289C
:1043D00007D15C4808380068C0F34040B8B90120F4
:1043E000E1E76068022802D06068032807D15548D9
:1043F00008380068C0F3406048B90120D3E751484D
:1044000008380068C0F3400008B90120CBE74D48E8
:10441000006820F00300616808434A490860FFF71C
:1044200025F806466068012810D108E0FFF71EF85D
:10443000801B41F28831884201D90320B3E741480B
:10444000006800F00C000428F0D137E06068022812
:1044500010D108E0FFF70AF8801B41F2883188424A
:1044600001D903209FE73748006800F00C000828B6
:10447000F0D123E06068032810D108E0FEF7F6FFD2
:10448000801B41F28831884201D903208BE72D48F7
:10449000006800F00C000C28F0D10FE008E0FEF7F7
:1044A000E5FF801B41F28831884201D903207AE779
:1044B0002448006800F00C000028F0D12048006873
:1044C00000F00F00A84209D91D490D700846006888
:1044D00000F00F00A84201D0012064E7207800F02E
:1044E0000400042807D11748006820F4E050E16870
:1044F000084314490860207800F00800082808D113
:104500001048006820F46040216940EAC1000D496C
:10451000086000F039F80B49096801F0F001F02259
:1045200092FAA2F2B2FA82F2D140074A515CC84034
:10453000064908600F20FFF75DFA002033E700000E
:10454000003C02400838024064A30308FC0100203C
:104550000148006870470000FC01002000B5FFF72B
:10456000F7FF0749096801F4E0514FF4E05292FA6D
:10457000A2F2B2FA82F2D140024A515CC84000BDB8
:104580000838024064A3030870B50021002200230C
:104590000020274C246804F00C0424B1042C04D01F
:1045A000082C41D103E0234840E023483EE0204C62
:1045B000241F246804F03F011D4C241F246804F4C8
:1045C000800484B11C4CB4FBF1F5194C241F246801
:1045D00047F6C076344096FAA6F6B6FA86F6F44068
:1045E00005FB04F20FE0134CB4FBF1F5104C241F53
:1045F000246847F6C076344096FAA6F6B6FA86F6F0
:10460000F44005FB04F20A4C241F246804F44034EF
:104610004FF4403595FAA5F5B5FA85F5EC40641CE4
:104620006300B2FBF3F001E0024800BF00BF70BDC1
:10463000083802400024F40000127A0038B504461D
:104640000025207800F00100002848D0E3480068E9
:1046500000F00C0004280DD0E048006800F00C00C9
:10466000082811D1DD48001F006800F48000B0F573
:10467000800F09D1D94808380068C0F3404070B3B2
:10468000606860BB012038BD2079D449891F08705B
:10469000606890B1FEF7EAFE054606E0FEF7E6FE2A
:1046A000401B642801D90320EDE7CC480838006896
:1046B000C0F340400028F1D011E0FEF7D7FE0546D8
:1046C00006E0FEF7D3FE401B642801D90320DAE799
:1046D000C24808380068C0F340400028F1D1207873
:1046E00000F00200022869D1BC48006800F00C000C
:1046F00058B1BA48006800F00C00082821D1B7482A
:10470000001F006800F48000D8B9B4480838006879
:10471000C0F3400020B1E068012801D00120B2E7D9
:10472000AE480838006820F0F800F82292FAA2F2A9
:10473000B2FA82F2216991400843A8490839086019
:104740003CE0E06828B30120A5490860FEF78EFE32
:10475000054606E0FEF78AFE401B022801D9032029
:1047600091E79E4808380068C0F340000028F1D067
:104770009A480838006820F0F800F82292FAA2F26D
:10478000B2FA82F2216991400843944908390860DD
:1047900014E0002092490860FEF768FE054606E036
:1047A000FEF764FE401B022801D903206BE78B480B
:1047B00008380068C0F340000028F1D1207800F0EC
:1047C000080008282CD16069A8B10120854908603B
:1047D000FEF74CFE054606E0FEF748FE401B0228A9
:1047E00001D903204FE77D486C300068C0F34000DA
:1047F0000028F1D014E000207A490860FEF736FE68
:10480000054606E0FEF732FE401B022801D90320D0
:1048100039E772486C300068C0F340000028F1D1DD
:10482000207800F00400042857D100BF0020009039
:104830006A483830006840F0805068493831086074
:104840000846006800F08050009000BF00BF664836
:10485000006840F4807064490860FEF707FE054672
:1048600006E0FEF703FE401B022801D903200AE7F9
:104870005D48006800F480700028F2D0207A574923
:1048800068310870A068A0B1FEF7F0FD054608E0A9
:10489000FEF7ECFD401B41F28831884201D903202C
:1048A000F1E64E4868300068C0F340000028EFD0C1
:1048B00013E0FEF7DBFD054608E0FEF7D7FD401BE1
:1048C00041F28831884201D90320DCE64348683050
:1048D0000068C0F340000028EFD1A069F0B33F4862
:1048E000006800F00C00082873D0A069022859D194
:1048F00000203B490866FEF7B9FD054606E0FEF7D5
:10490000B5FD401B022801D90320BCE63348083816
:104910000068C0F340600028F1D1D4E907010843E2
:1049200047F6C07292FAA2F2B2FA82F2616A91403C
:1049300008430122A16AC2EB51014FF4403292FABE
:10494000A2F2B2FA82F2914008434FF0706292FAFA
:10495000A2F2B2FA82F2E16A914000E03BE0084341
:104960004FF0E04292FAA2F2B2FA82F2216B914049
:1049700008431A49091F0860012019490866FEF713
:1049800075FD054606E0FEF771FD401B022801D9C2
:10499000032078E6114808380068C0F3406000281A
:1049A000F1D018E000200E490866FEF75FFD0546CD
:1049B00006E0FEF75BFD401B022801D9032062E6FA
:1049C000064808380068C0F340600028F1D102E0D2
:1049D000FFE7012057E6002055E6000008380240B6
:1049E00000004742800E47420070004070B5044608
:1049F0000D460CB9012070BD94F82C0028B9002098
:104A000084F82D00204600F011F8022084F82C00D4
:104A1000211D2068FDF760FB2946D4E90002FDF75F
:104A2000C5FB012084F82C000020E4E7704770B536
:104A300004460D4694F82C00022800D170BD0220D7
:104A400084F82C0029462068FDF780FB012084F8BB
:104A50002C000020F2E770B504460D46164694F887
:104A60002C00022800D170BD022084F82C003246B0
:104A700029462068FDF771FB2868022803D105202C
:104A800084F82C0002E0012084F82C000020EAE7E2
:104A900070B504462546681EB0F1807F01D3012021
:104AA0000FE0681E4FF0E02148610F214FF0FF300A
:104AB00002F0ECF900204FF0E02188610720086146
:104AC000002070BD10B50446206B20B1206B08F0AB
:104AD0004FFE0020206310BD7CB50446206B00B95A
:104AE0007CBDE06940F00100E06100202085608528
:104AF00094F82C0084F82D002046A26B216B0BF05B
:104B00009BFAB4F92A50208D28B10021206A07F0C1
:104B1000DDFA284405B2B4F91200A8420FDD618A1B
:104B2000491B09B2A069CDE90010B4F91030E6893B
:104B30002E4432B2B4F90C10A06806F071FEE069A0
:104B400020F00100E06100BFCAE7000010B5044694
:104B50000248FEF791FC00F003F810BD4455002018
:104B600010B50D48FEF7A6FCA8B90C480A49086024
:104B70000B484860002108488160C1604FF48041C3
:104B80000161002141618161C161016200F00AF8A7
:104B90000148FEF793FC10BD44550020005400402E
:104BA000801A060000B587B000BF00200190294898
:104BB000006840F00200274908600846006800F0DD
:104BC0000200019000BF00BF8815029012200390E0
:104BD00000200490022005900420069002A91E489F
:104BE000FEF730FB4FF40070029002A91A48FEF75E
:104BF00029FB00BF0020019016481030006840F4E7
:104C000000101449103108600846006800F40010D4
:104C1000019000BF00BF0F481038006840F400103A
:104C20000C49103908600846006820F4001008603C
:104C3000002205211F20FEF7F7FF1F20FEF7E4FFEB
:104C4000002205212020FEF7EFFF2020FEF7DCFFE9
:104C500007B000BD30380240000402407FB5044672
:104C60000D460026002003904FF47A70012103AA1C
:104C70000B46CDE9002102902A4621460548FEF761
:104C8000B1FC064616B12046FFF760FF9DF80C0008
:104C900004B070BD445500202DE9FE4304460D4686
:104CA00016461F46DDF828904FF000084FF47A7042
:104CB00033462A462146CDE9007902900648FEF7A0
:104CC00091FC8046B8F1000F02D02046FFF73EFF6E
:104CD0004046BDE8FE8300004455002077B583B010
:104CE00004460D4600266420012105AA0B46CDE9A5
:104CF000002102902A4621460448FEF7B7FD0646E9
:104D000016B12046FFF722FF06B070BD44550020C3
:104D1000014608684069C0F3802088B16FF4806064
:104D20000A6850610420086400200863202081F88C
:104D30003D0000BF002081F83C0000BF012070470B
:104D40000020FCE72DE9F84304460F461546994636
:104D5000DDE908862068006840F48060216808600A
:104D60002068006840F48070216808604346002293
:104D70004FF001112046009600F02BF910B10320EE
:104D8000BDE8F88307F0FE0021680861334642461B
:104D90004149204600F059F930B1206C042801D176
:104DA0000120EDE70320EBE700BF00200090206822
:104DB0004069009020688069009000BF00BF3246C3
:104DC0004146204600F0CEF960B1206C042807D19E
:104DD0002068006840F40070216808600120CFE777
:104DE0000320CDE7B9F1010F03D1E8B221680861D2
:104DF00019E0C5F307202168086132464146204684
:104E000000F0B0F960B1206C042807D12068006878
:104E100040F40070216808600120B1E70320AFE78B
:104E2000E8B22168086132464146204600F09AF90E
:104E300060B1206C042807D12068006840F400703D
:104E40002168086001209BE7032099E7206800683B
:104E500040F4807021680860434600224FF0011141
:104E60002046009600F0B5F808B1032088E7F8B2B4
:104E700040F0010021680861334642460649204659
:104E800000F0E3F830B1206C042801D1012077E76D
:104E9000032075E7002073E7020001002DE9F843C5
:104EA0000446884615469946DDE90867206800688B
:104EB00040F4807021680860334600224FF00111F1
:104EC0002046009700F085F810B10320BDE8F88374
:104ED00008F0FE00216808613B463246264920461C
:104EE00000F0B3F830B1206C042801D10120EDE7C7
:104EF0000320EBE700BF002000902068406900908D
:104F000020688069009000BF00BF3A4631462046C5
:104F100000F028F960B1206C042807D120680068EF
:104F200040F40070216808600120CFE70320CDE73E
:104F3000B9F1010F03D1E8B22168086119E0C5F3A6
:104F40000720216808613A463146204600F00AF9F8
:104F500060B1206C042807D12068006840F400701C
:104F6000216808600120B1E70320AFE7E8B22168BB
:104F700008610020AAE700000200010070B50446A5
:104F80000D4616461DE02046FFF7C2FE08B101207F
:104F900070BD681CA8B125B1FEF768FA801BA84255
:104FA0000FD9206C40F020002064002020632020D6
:104FB00084F83D0000BF002084F83C0000BF0320BF
:104FC000E6E720684069C0F380000028DBD00020BD
:104FD000DEE72DE9F04104460D4617461E46DDF892
:104FE000188015E0701C98B12EB1FEF73FFAA0EBC7
:104FF0000800B0420CD900202063202084F83D0036
:1050000000BF002084F83C0000BF0320BDE8F08111
:10501000C5F3074001280AD120684069A9B20840B9
:10502000A9B2884201D101200BE0002009E02068EC
:105030008069A9B20840A9B2884201D1012000E0EC
:105040000020B842CED00020E0E72DE9F041044630
:105050000D4616461F4631E020684069C0F38020A7
:10506000C0B12068006840F40070216808606FF4E7
:105070008060216848610420206400202063202093
:1050800084F83D0000BF002084F83C0000BF0120F0
:10509000BDE8F081701C88B126B1FEF7E7F9C01BAE
:1050A000B0420BD900202063202084F83D0000BFCF
:1050B000002084F83C0000BF0320E9E7C5F3074067
:1050C00001280AD120684069A9B20840A9B28842E3
:1050D00001D101200BE0002009E020688069A9B21D
:1050E0000840A9B2884201D1012000E00020002838
:1050F000B2D00020CCE770B504460D46164629E034
:1051000020684069C0F3001080B16FF01000216882
:105110004861002020642063202084F83D0000BF07
:10512000002084F83C0000BF012070BD25B1FEF7CF
:105130009DF9801BA8420DD9206C40F0200020640E
:10514000202084F83D0000BF002084F83C0000BF10
:105150000320EAE720684069C0F380100028CFD020
:105160000020E2E770B504460D4616461DE02046D5
:10517000FFF7CEFD08B1012070BD681CA8B125B1B4
:10518000FEF774F9801BA8420FD9206C40F0200074
:10519000206400202063202084F83D0000BF002010
:1051A00084F83C0000BF0320E6E720684069C0F3B4
:1051B000C0100028DBD00020DEE710B5044604F163
:1051C000280007F081F818B104F1280007F044F82E
:1051D00010BD2DE9FF5F04464FF00008C146B4F949
:1051E0000CA0B4F90EB0B4F91060B4F9125009F083
:1051F0001DF9074604F1280007F066F848B9CDE923
:10520000005733465A465146A06806F009FBBDE8F0
:10521000FF9FB4F93000B0422ADAB4F93060B4F933
:105220001010881B00EBD07149100FFA81F80AEBBF
:1052300008000FFA80FAB8F1000F08D0CDE9005746
:10524000B4F90C1043465A46A06806F0E9FACDE9D5
:105250000057228AA2EB0802921B13B20AEB060245
:1052600011B25A46A06806F0DBFA4FF000080BE0D6
:10527000B4F93000B04207DDB4F93010881B00EB00
:10528000D07149100FFA81F8B4F93200A8422BDA34
:10529000B4F93250B4F91210481B00EBD071491028
:1052A0000FFA81F90BEB09000FFA80FBB9F1000F3F
:1052B00008D0CDE90097B4F90E2033465146A068D6
:1052C00006F0AEFA608AA0EB0900401B00B20BEBBF
:1052D00005010AB2CDE9000733465146A06806F041
:1052E0009FFA4FF000090BE0B4F93200A84207DD45
:1052F000B4F93210481B00EBD07149100FFA81F954
:10530000394604F1280007F016FACDE90289CDE903
:1053100000655B46524604F12801A06806F021FCB6
:1053200000BF74E72DE9F04704460E461746002EED
:1053300009DB002F07DBB4F91000B04203DDB4F93C
:105340001200B84206DCFF2084F84B0084F84A00C3
:10535000BDE8F08754F83C0F00F0A7FB34F82A1C96
:10536000090491FBF0F5380490FBF5F0A073A07BE5
:10537000684300F500400014E080E188A07B401CF9
:10538000684300F50040C1EB204000B26081A17B82
:10539000206850F82190484601F042FA34F82C1C5D
:1053A000090491FBF0F5300490FBF5F0E073E17B2C
:1053B000484601F0D3F9206194F80F803C3C04E0AA
:1053C00094F84B00401E84F84B0094F84B000028E2
:1053D00008DD94F84B00411E484601F0BFF9E16C2E
:1053E0008842EDD000BF08F10100804601464846E2
:1053F00001F0B4F9E16C8842F5D04034E07A6843BA
:1054000000F5004000142080218805FB08F000F51D
:105410000040C1EB204000B2A080403C00BF97E7B5
:1054200070B504460D461646324629462046FFF71B
:1054300079FF94F84A0094F84810884205D194F80E
:105440004B0094F84910884206D0E06940F0020011
:10545000E061204602F064FE70BD2DE9F041044693
:105460000E4617463A4631462046FFF75BFF94F852
:105470004A00FF280CD194F84800FF2806D0E069C4
:1054800040F00200E061204602F04AFEBDE8F081F3
:10549000FF2084F84B0084F84A00E06C202846D2B4
:1054A000A06B0168E06C401E00EB400001EB800542
:1054B000287A00F0020070B1A06B4068697A50F859
:1054C0002100E063E06920F00300E061E06940F062
:1054D0000100E0611FE0287A00F0040050B1A06BE9
:1054E0004068697A50F82100E063E06920F0030029
:1054F000E06110E0207F00F0010040B1A06B406847
:105500000068E063E06920F00300E06103E0E06927
:1055100040F00200E061686828B16868007810B166
:10552000204600F07FFD204602F0FAFDAEE7207F26
:1055300000F0010040B1A06B40680068E063E069E2
:1055400020F00300E06103E0E06940F00200E06168
:10555000204600F067FD204602F0E2FD00BF95E71F
:105560002DE9F84304460D4616461F46DDE9089826
:105570004FF440301049486000210F488160C0F866
:105580000C900E480C4908600846FDF77BF980B97D
:1055900021460948FDF7F6F858B933462A464146F0
:1055A00005480097FDF753FA18B90A210248FDF79C
:1055B0009AF9BDE8F88300005856002000B0024078
:1055C000F0B50023002400258E880768FF68C7F324
:1055D0000B473E44330406688436802707FB026687
:1055E000766806F47047066884364FF0800C0CFB32
:1055F000026677600E680768FF68C7F30B473E4492
:10560000761C1E43076884370CFB02777E608E8908
:105610000768FF68C7F30A073E4433040668843608
:10562000802707FB0266B66806F470470668843672
:105630000CFB0266B7608E680768FF68C7F30A074D
:105640003E44761C1E43076884370CFB0277BE601D
:1056500006688436802707FB0266366926F007074E
:10566000066884360CFB026637610F69066884366B
:105670000CFB026637613126765C33023226765C9B
:1056800034040E7E350606688436802707FB0266E2
:10569000B6690027066884360CFB0266B76191F88C
:1056A00030601E4326432E43076884370CFB027785
:1056B000BE6106688436802707FB0266766926F09D
:1056C000FF07066884360CFB026677614F6906683F
:1056D00084360CFB0266776106688436802707FBF8
:1056E0000266F76940F20776B743066884360CFB1A
:1056F0000266F761D1E907673E43076884370CFB10
:105700000277FE6106688436802707FB0266B66A68
:105710000027066884360CFB0266B7624F6A06688B
:1057200084360CFB0266B7620E690EB9042313E0DF
:105730000E69012E01D103230EE00E69042E08D05C
:105740000E69022E05D00E69032E02D00E69072EB7
:1057500001D1022300E0012306688436802707FB7D
:105760000266F66A06F0E027066884364FF0800C81
:105770000CFB0266F762D1E90076F61B5E43F71C6C
:105780000E8D5E4347EA0647066884360CFB0266C8
:10579000F76206688436802707FB0266366BF70AD5
:1057A000FF02066884360CFB02663763CF6A066820
:1057B00084360CFB0266376306688436D701F659D7
:1057C00046F00107066884364FEAC21C46F80C70A2
:1057D000F0BD70B5044602E0284607F0C9FF04F1A9
:1057E000480008F021F8051EF6D1204602F026FAFE
:1057F00070BD2DE9F041044688461746A4F838806C
:105800006787A787207F00F0080008B1BDE8F08116
:105810000021206A06F05AFC801C06B2608A801EB5
:1058200005B2B4F910001238404567DC95FBF6F07C
:10583000216C884204DB207F00F0040000285DD04A
:10584000142F0EDA606C002857DD606C801B6064DA
:10585000606C002801DA00206064204602F060FCE1
:105860004BE0B4F912001438B84216DCD4E9100148
:105870007043401B814240DA606C30446064D4E97C
:1058800010017043401B814203DD206C7043401BBC
:105890006064204602F044FC2FE0B4F9120000EBF3
:1058A000D071B7EB610F0FDA606C002825DD606CFA
:1058B000A84203DD606C401B606401E0002060646E
:1058C000204602F02DFC18E0D4E910017043401B83
:1058D000814212DA206C7043022101FB1500616CD9
:1058E000884203DD606C2844606403E0206C7043F0
:1058F000401B6064204602F013FC87E73A464146AD
:10590000204600F03CF800BF80E72DE9F041044656
:1059100088461546207F00F0080008B9BDE8F081F0
:10592000B4F93C00A84228D0676C0021206A06F038
:10593000CDFB861CB4F93C10691A606C401A606497
:10594000206C7043B4F91210891E401A616C8842B1
:1059500007DC206C7043B4F91210891E401A401EF7
:105960006064606C002801DA00206064A587606CC8
:10597000B84202D0204602F0D3FB00BFCEE72DE9AB
:10598000F04705468A4690460021286A06F09EFBAD
:10599000801C0FFA80F9686C404490FBF9F6002EE9
:1059A00002DB286CB04201DCBDE8F087AC6C00275C
:1059B00017E0287F00F0010030B1BE420FD1A0886F
:1059C00080F00100A0800EE0BE4204D1A08840F02B
:1059D0000100A08003E0A08820F00100A0802468DE
:1059E0007F1C002CE5D100BF284602F099FB314610
:1059F00028460CF021FB00BFD6E770B504460D46E3
:105A00001646207F00F0080000B970BDB4F93820B8
:105A1000511B002901DB0A4600E04A42042A09DC46
:105A2000B4F93A20901B002801DB024600E0424214
:105A3000042A00DDE9E7324629462046FFF79FFFAA
:105A400000BFE2E72DE9F04107460C4614B1002003
:105A5000BDE8F081FAF70EFF85B2FAF705FF86B2CE
:105A600029463046FBF706FC08B90120F0E7002084
:105A7000EEE770B5054600216D2006F0DBFF044619
:105A800010E06068807800F0020018B1207C00F01F
:105A9000400010B12046FCF769FC21466D2006F05D
:105AA000C9FF0446002CECD170BD0146002000E087
:105AB000401C08C9002BFBD1704710B50446204696
:105AC000FDF7B2FB10BD000070B505460C46D2498B
:105AD0000020FCF775FAD1490320FCF771FAD04990
