:020000040001F9
:10B00000B82E0020F5B001000FB1010011B1010010
:10B010000000000000000000000000000000000030
:10B0200000000000000000000000000013B101005B
:10B03000000000000000000015B1010017B1010080
:10B0400019B1010019B1010065B9010019B1010080
:10B0500019B101000000000031B7010019B1010071
:10B0600019B1010019B1010019B1010019B10100B4
:10B0700019B1010019B1010019B1010019B10100A4
:10B0800019B101007DB8010019B1010019B1010029
:10B090009DB8010019B10100A5B8010019B1010066
:10B0A00019B1010019B1010000000000000000000A
:10B0B0000000000000000000000000000000000090
:10B0C0000348854600F08EFA00480047E5E5010098
:10B0D000B82E0020401E00BF00BF00BF00BF00BF51
:10B0E00000BF00BF00BF00BF00BF00BF00BFF1D165
:10B0F000704700000321094802680A4302600848BB
:10B1000002680A4302600748804707480047FEE795
:10B11000FEE7FEE7FEE7FEE7FEE70000240500404D
:10B1200054050040C5B80100C1B0010030B50B4660
:10B13000014600202022012409E00D46D5409D4211
:10B1400005D31D469540491B254695404019154697
:10B15000521E002DF1DC30BD70B5002425460028BC
:10B1600001DA01244042002901DA01254942FFF7B2
:10B17000DDFFAC4200D04042002C00D0494270BDFF
:10B1800003460B439B0703D009E008C9121F08C000
:10B19000042AFAD203E00B780370401C491C521EAB
:10B1A000F9D27047D2B201E00270401C491EFBD2B6
:10B1B00070470022F6E710B513460A4604461946C2
:10B1C000FFF7F0FF204610BD30B5044600200346CF
:10B1D00000E05B1C934203D2E05CCD5C401BF8D0E6
:10B1E00030BD0321001D401E037812021A43491E80
:10B1F000F9D510467047F0B51FB40646002082B05E
:10B2000005464024019100901BE0019922460F461B
:10B21000304600F009FA049A059B801A994110D330
:10B2200010461946224600F0EFF9361A8F41019771
:10B23000224601200021009F00F0E6F938184D4118
:10B2400000902046641E0028DFDC019B0098294600
:10B25000324607B0F0BD0000F0B50746084658403A
:10B2600087B0C00F049048000E46590040084908B6
:10B27000BC1A884105D2384631461E4617460B4651
:10B2800002465800400810434CD0300D0390400552
:10B290005900400D490D0590401A0290402872DA7D
:10B2A00018030121000B090508430190049800923E
:10B2B000002805D001995242002088410092019057
:10B2C000029840210A1A0199009800F09DF905465C
:10B2D0000C466B4607CB00F0B8F9C0197141039AD0
:10B2E0000E0D0023D71756401A467A40164344D015
:10B2F000049A002A2DD0029A012A039A15DC12051D
:10B30000C01A914101263605001C7141D20F059EDD
:10B31000D2070093019202962A46234600F0B5F91F
:10B3200007B0F0BD38463146FAE71605224A0F4607
:10B33000B218C01AB74101210905001C4F4100187D
:10B340007F41114618187941E20F10436D1964418D
:10B3500013E0E2076D0815436408C2071443039A1B
:10B3600001261205C01A91413605001C7141CE0715
:10B37000400830434908C01851412A46234600F08E
:10B3800077F9CDE7FFE7049801224000C117121AB0
:10B3900000238B4104983146C417381AA141EEE7C7
:10B3A00030B40124E407634030BC55E730B40124D5
:10B3B000E407614030BC4FE70000E0FFF0B51FB488
:10B3C00088B00B990998002448400999C00F49009A
:10B3D00049080991C0070B990090490049080B9151
:10B3E00009990898A64608431CD00B990A98084367
:10B3F00018D0099801244000420D4800410D0998D9
:10B4000024050003000B204309900B980003000B58
:10B4100020430B9050181C494018002201901446FC
:10B42000104605E0002001460DB0F0BD032801DA0A
:10B43000034600E003239C46C11A0AAE0AE05F00FF
:10B4400008ADED5B4F00F75B7D430027AA187C41F8
:10B45000491C5B1E6145F2DD410004AB5A522104D8
:10B46000120C0A43240C401C0828DFDB01980290D0
:10B470000099704601910090059B049A07990698DF
:10B4800000F003F9D0E700000DFCFFFFF0B50C461B
:10B490005C4085B0E40FE40703944C000026640888
:10B4A00059009446490802460296224321D062463A
:10B4B0000A431ED06200570D4A000E032303550DA8
:10B4C000012402462C492405781B1B0B360B40181F
:10B4D00023432643614600901C46501AB44103D3CF
:10B4E0000098401C009002E0921800985B410028F0
:10B4F00003DA0020014605B0F0BD00200121090556
:10B500000746864611E064461D46141BB54106D326
:10B510006546521BB341744607430C43A646CD070C
:10B5200040084908284392185B4105460D43EAD17B
:10B530001046184313D060461946504071400843E6
:10B5400006D06046101AB34106D20122002306E05D
:10B5500000220123DB0702E00122D24353100098AE
:10B5600074460105381C6141029C039D0019694124
:10B5700000F07EF8BFE70000FD0300004A00090369
:10B580000123090B1B0519430A4B10B5520D9A42B2
:10B5900002DA0020014610BD064B34339A4203DC28
:10B5A0009A1A00F041F810BD034BD21800F02CF8A5
:10B5B00010BD0000FF030000CDFBFFFF10B5002908
:10B5C00004DB0124E40740428C412146002B04DBCC
:10B5D0001C460123DB075242A341994200D190420D
:10B5E00010BD0000064C0125064E05E0E36807CCBF
:10B5F0002B430C3C98471034B442F7D3FFF764FD5B
:10B6000088000200A800020010B5202A04DB0146D1
:10B61000203A9140002010BD914020239C1A0346FF
:10B62000E3401943904010BD10B5202A04DB0846C2
:10B63000203AD040002110BD0B46D340D0402024FA
:10B64000A21A91400843194610BD10B5202A06DB06
:10B65000CB170846203A1041C1170B4306E00B46B2
:10B660001341D0402024A21A91400843194610BD2E
:10B6700010B5002B08DA0024401C614192185B4190
:10B680001A4301D14008400010BDF0B51FB482B08C
:10B6900005460C0003D0084600F078F902E000F0FF
:10B6A00075F920300246009021462846FFF7ACFF8E
:10B6B000049B059A04460F4618431143084314D0CF
:10B6C000184610431BD0009840210A1A18460599C5
:10B6D000FFF7AAFF05460E46009A05990498FFF762
:10B6E00093FF084305D0012004E02046394607B007
:10B6F000F0BD0020C11705430E432C43374300998A
:10B700000E986305401A7905E40A00220C43FD0AED
:10B710000A3002D500200146E9E701051019694108
:10B720000C9C0D9D00196941FFF7A2FFDFE70000A7
:10B73000F8B50024FF250135012627460094284648
:10B7400003F0A8FA002808D034484068304204D0FA
:10B75000334800212818344301602D1D76007F1CDA
:10B76000ADB2042FEBD3FF207D3003F093FA002815
:10B7700007D02C4800210160400704432A48006993
:10B7800000902A4F200712D00126002526420AD019
:10B790002748AA00111808690969C004C00E890366
:10B7A000BA58890F904776006D1C042DEED3002CFB
:10B7B00030DA00241D4E0021301940304156491C1A
:10B7C00025D00778BD06AD0E284601F0C3FB8000EA
:10B7D0003658002E1BD0BF090121A940154AA800E8
:10B7E00080180068009A8003800F114202D002285E
:10B7F00002D00CE003280AD1032F05D102280AD079
:10B800000221284603F036FA39462846B047641C20
:10B81000042CCFD3F8BD0321F3E700000063004000
:10B82000006000407C610040000500502825002099
:10B8300000650040000700508307FF22DB0E9A409E
:10B840008907090E994000280BDA0007000F083815
:10B85000830808489B001818C36993430B43C361CE
:10B860007047830804489B001B18186890430843DE
:10B870001860704700ED00E000E400E010B50649F4
:10B880000020086048608860C8600349403908604B
:10B89000486004F0A9F910BD4011014010B504F052
:10B8A00039F910BD10B506484068002805D080471A
:10B8B000002801D000F082FD10BD02F0D5FC10BDC3
:10B8C000441E002010B502F02DFD002805D01F49B0
:10B8D0001D484860C8131E4988611E48018CC9B2C2
:10B8E00001290BD1828C120708D1028D1206120F8A
:10B8F000042A03D1828D1206120F0AD0012921D108
:10B90000818C09071ED1018D0906090F0A2904D06F
:10B9100007E0114A01219160F5E7828D1206120FAE
:10B9200005D00D290ED1808D0006000F0AD10B48DD
:10B930000168012904D00A49016001680129FCD18C
:10B94000C021416110BD0000DFFF07C000050040BD
:10B95000006C0040C00F00F00006004000EC064004
:10B960007593000010B504F033FA10BD0FB410B594
:10B9700003A9044B044A029800F0E8F810BC08BC84
:10B9800004B0184709E00100401E00202021020CED
:10B9900001D010211046020A01D0104608390209D0
:10B9A00001D01046091F820801D01046891E4208A6
:10B9B00001D0881E7047081A704730B47446641E60
:10B9C0002578641CAB4200D21D46635D5B00E31822
:10B9D00030BC184702E008C8121F08C1002AFAD17B
:10B9E00070477047002001E001C1121F002AFBD1FF
:10B9F00070470000F0B51FB484B007980699020D97
:10BA0000014314D04A484B491018484305140F9875
:10BA100001280E981CD0281A401C0024464E474985
:10BA2000009401910290002814DA474227E00F9811
:10BA3000012443A3012808D0002104980F9A8460B0
:10BA40000360C260416009B0F0BD0E98C143F4E7E5
:10BA50004042E2E7074612E0F80707D022463346A5
:10BA600001990098FFF7AAFC019100902246334605
:10BA700010461946FFF7A2FC04460E467F10002F21
:10BA8000EAD10298019B0028009A0799069802DAE9
:10BA9000FFF794FC01E0FFF7F9FC04460E46002294
:10BAA000284BFFF78BFD03D80020C043014607E079
:10BAB0000022254B20463146FFF7CEFBFFF75EFD07
:10BAC000102409E0002C0ADB0A220023FFF793FB75
:10BAD000059B30321A55641E02460A43F2D11122E8
:10BAE000641C059B121B1C190F9B012B03D0012307
:10BAF00008430ED10AE0084304D011200E90002024
:10BB00000F9084E70E98151A6D1E0BE00E98824276
:10BB100002DD00236D1C03E0824201DA00236D1E6A
:10BB2000002BEED004980F998260C16030C08AE784
:10BB300001FCFFFF104D0000000024400000F03F1A
:10BB4000300000000000F0430000E03FFFB597B078
:10BB50000646002518E2252877D100242746FD490E
:10BB6000049400E00443761C32780120203A90408F
:10BB70000842F7D130782A280ED0022230780146C8
:10BB80003039092916D804990A2359433039401805
:10BB90001443761C0490F1E7189802C80491189099
:10BBA000002904DA012040030443484204900220A3
:10BBB0000443761C30782E2814D104200443707876
:10BBC000761C2A2809D11898761C80C8189009E09C
:10BBD0000A214F43303FC719761C3078014630396F
:10BBE0000929F5D930786C2810D006DC4C281AD0F9
:10BBF00068280ED06A2817D104E0742813D07A2858
:10BC000012D110E00120400504430CE00121090598
:10BC100001E0032109050C437178814203D1012021
:10BC200000052418761C761C3078119066280BD0FD
:10BC300013DC58287DD009DC00287BD04528F6D0BD
:10BC40004628F4D047281AD1A5E118E0632835D05A
:10BC5000642870D0652812D19DE170286CD008DC72
:10BC60006728F1D069287BD06E280DD06F2806D1C7
:10BC7000BAE073282ED0752871D0782859D01A9A36
:10BC8000199990476D1C7EE16002400F022809D08F
:10BC900003280DD00428189801680DD00D60001DF0
:10BCA000189070E11898EA1701680D604A60F6E78D
:10BCB000189801680D80F2E70D70F0E718986A4651
:10BCC00001781172001D18900020507202A8009097
:10BCD000012005E0189802C8189000200091C04388
:10BCE00061070DD5002101E00199491C0191B9427C
:10BCF00012DA8142F8DB009A515C0029F4D10BE0A2
:10BD0000002101E00199491C01918142FADB019A6D
:10BD10000099895C0029F5D1019904981A9B471A6A
:10BD200021463846199A00F097FA019940194518AA
:10BD30000BE04FE02CE113E04EE000980099007812
:10BD4000491C00911A9A199990470198401E019038
:10BD5000401CF2D1214638461A9B199A10E137E06F
:10BD60000A200021009001916002410F022907D0B2
:10BD7000189A01CA1892C2179446032908D00AE0FB
:10BD80001898C01DC108C90005C91891944607E05C
:10BD900000B2C2179446042902D140B2C1178C46A2
:10BDA00000226146944506DA0A460021404291414C
:10BDB0008C462D2102E0210504D52B216A46117302
:10BDC000012103E0E10701D02021F7E7029155E0CE
:10BDD0000A200AE0102008E0102000900021042032
:10BDE00004430191082703E00820002101910090FD
:10BDF0006002410F022907D0189A01CA1892002246
:10BE00009446032908D008E01898C01DC108C9004D
:10BE100005C91891944603E080B2042900D1C0B24C
:10BE200000210291210729D51199702906D0009A85
:10BE30001021019B4A401A4305D00EE040216A467A
:10BE40001173012108E06146014306D030216A46A2
:10BE500011731199517302210291009A0821019BDB
:10BE60004A401A430AD16146014301D1610705D511
:10BE700030216A46117301217F1E029111995829C0
:10BE800004D035A10E910DA90D910DE037A1F9E770
:10BE90006146019B009AFFF7AEF90E9B8C469B5CB6
:10BEA0000D9A521E0D92137061460143F0D10D9808
:10BEB00005A9081A20300190600703D5012000046D
:10BEC000844300E001270198874201DD381A00E031
:10BED0000020019900904118029809180498401A0E
:10BEE0000490E00306D421461A9B199A049800F0A6
:10BEF000B3F94519002706E003A81A9AC05D1999FD
:10BF000090476D1C7F1C02988742F5DBE0030CD53F
:10BF100021461A9B199A049800F09EF9451904E0ED
:10BF20001A9A3020199990476D1C0099481E00906C
:10BF30000029F5DC08E00D980D990078491C0D9159
:10BF40001A9A199990476D1C0199481E0190002971
:10BF5000F1DC63E109280100303132333435363702
:10BF60003839616263646566000000003031323345
:10BF700034353637383941424344454600000000E5
:10BF800000F05AF94519761C3078002800D0E2E517
:10BF900028461BB0F0BD600700D406271898C01DC6
:10BFA000C108C90048680A680831C30FDB07189147
:10BFB000190001D09CA108E0210501D59BA104E056
:10BFC000E10701D09AA100E09AA1430011985B0813
:10BFD000109165280CD006DC452809D046281DD0D4
:10BFE000472841D141E0662818D067283CD13CE081
:10BFF0000021112F01DB112000E0781C019100903D
:10C0000008A911A8FFF7F6FC139905910021119AD0
:10C0100015927F1C12980197009150E00120C007F3
:10C0200003900120019008A9009711A8FFF7E2FCF6
:10C03000139A149905920022119B0092129815935D
:10C04000059A0192002901D0104602E0791C40189F
:10C050000190381A01D5019804E04042401E00903A
:10C06000781C0190C01B029043E0012F00DA0127E9
:10C070000021112F01DD112000E0384601910090D0
:10C0800008A911A8FFF7B6FC13990591119A002190
:10C09000129815920091019721070CD40599B94285
:10C0A00001DB019900E00191012904DD159A491E87
:10C0B000515C302906D0B84201DA011D05DA0121B0
:10C0C000029115E00199491EEDE7002805DC009971
:10C0D000411800910199091A03E0019A411C91420B
:10C0E00000DD01910099401A401C02900120C00718
:10C0F0000390200706D402990198814202DB0020B8
:10C10000C043029000206946C87707AF0121039819
:10C110000337C907884224D0022011902B201290A7
:10C12000039800280CDA404203902D20129007E07B
:10C130000A210398FEF7FAFF30317F1E0390397011
:10C140001199481E11900029F2DC03980028EFD1C4
:10C15000791E129808703078202108404530BF1EA3
:10C16000387006A8C01BC01D0390109800780028E6
:10C1700000D00120019941180298C01709180398AE
:10C1800009180498401A401E0490E00306D4214682
:10C190001A9B199A049800F05FF8451910980078D6
:10C1A000002803D01A9A199990476D1CE00324D5F2
:10C1B00021461A9B199A049800F04EF845191CE084
:10C1C0000098002807DB00990598884203DD159840
:10C1D000405C199901E0199930201A9A904700980B
:10C1E0006D1C401C00900298401E0290002804D153
:10C1F0001A9A2E20199990476D1C0199481E01909A
:10C200000029DDDC05E038781A9A7F1C19999047DF
:10C210006D1C0399481E03900029F4DC21461A9BEB
:10C22000199A0498ACE600002D0000002B000000D5
:10C230002000000000000000F8B5044600251E465E
:10C240001746880404D405E039462020B0476D1C09
:10C25000641EF9D52846F8BDFFB50446002581B017
:10C260001E46C80301D5302700E02027880404D5E6
:10C2700005E038460399B0476D1C641EF9D5284681
:10C2800005B0F0BD70B500238D880C680DE0E61890
:10C290007678E15C864206D1E018801C491E106069
:10C2A0009180002070BD5B185B1C9D42EFD805207B
:10C2B00070BD10B501220221002000F077FC00289B
:10C2C00001D0072812D107220221012000F06EFCC4
:10C2D000002801D0072809D100210A22084600F0D1
:10C2E00065FC002801D0072800D1002010BD000007
:10C2F000044842680121C9050B46934383600A4004
:10C30000C26070470005005070B50024064D06E07D
:10C310006968E000085C012102F068FA641C287872
:10C320008442F5D3002070BD041E0020F8B51546E8
:10C330000C460646052A01D20720F8BD02F02CFB68
:10C34000002803D102F0FEFA0028F6D1104900209F
:10C350004E600C70C8608D6008610E4D0DE0E0000D
:10C3600069688019009181786A46517000780A4A9C
:10C37000694602F08BFA0028DFD12046641EE4B241
:10C380000028ECD1054A0021024800F079F8F8BDF8
:10C39000041E00207400020049E101000DD40100D8
:10C3A000BFF34F8F04490348C860BFF34F8F00BFEE
:10C3B000FDE700000400FA0500ED00E00EB50021E5
:10C3C000029000916A4601910148FFF7E9FF0000E1
:10C3D00001400000014B1B68184700000C2400209E
:10C3E00010B58268C368934203D001F09FFD00201E
:10C3F00010BD052010BD002906D0002A02D0531E12
:10C40000134203D0092070470E20704701608380DB
:10C4100000218160C1600846704710B58268C3681A
:10C420009A1A83889A4203D801F08AFD002010BD31
:10C43000042010BD38B50C46A2680C235A43064BA5
:10C4400009789D58054A126A009202462046083033
:10C450002369A84738BD00001C250020E01D0020EE
:10C4600010B5064914230A785A435118091DFFF7DD
:10C47000E1FF042003F0CAF910BD000050240020A1
:10C48000094B9B68002B07D0002A07D0002805D055
:10C490000068037C002B03D00820704707207047FA
:10C4A0004174426100207047181E0020FFB59007BC
:10C4B000002581B014460E46002832D11B4F002CB7
:10C4C00031D003F0E3F804987861032038703346E4
:10C4D0001821224600204B43BC601834C100891843
:10C4E0000D704D708E704C601C19401C0328F5DBDC
:10C4F000FD607D7001240E48BD7024050460032199
:10C500001420FFF799F90B4804600B4C0198A060C8
:10C5100003211120FFF790F960683861002005B011
:10C52000F0BD0720FBE7BD60FBE70000181E002000
:10C5300080E200E000E100E000150140FEB50D469C
:10C540001B4917468968044600292AD0002C28D0A8
:10C55000052D01D20720FEBD6069002821D0607C36
:10C56000012820D0002603F0D1FCC0001049019022
:10C5700089684018694603F0F3FC002815D00121B2
:10C5800001700C49446049680830E2C008490198CC
:10C590008968411868460078487003F0FDFA002069
:10C5A000FEBD0820FEBD2E46DDE70420FEBD0000D6
:10C5B000181E002000150140F8B5134D0446A96867
:10C5C00000291CD0002C1AD06069002817D0002642
:10C5D000267403F09BFCC700A8686946381803F06E
:10C5E000BFFC00280DD0022101704460A8683918F2
:10C5F00068460078487003F0CFFA3046F8BD08204E
:10C60000F8BD0420F8BD0000181E002070B50446D7
:10C61000224888B01E460D0042601CD0A8882968B8
:10C6200082B21F48FFF7E7FE002815D1A889A96844
:10C6300082B21B481030FFF7DEFE00280CD120220A
:10C6400018496846FEF79CFDA068069020790028EE
:10C6500004D0012103E0072008B070BD0021684626
:10C66000017506776079002800D00E20694648756C
:10C67000E0780290A0780390207801906078009094
:10C680000949684602F090F90028E5D102F016FA4F
:10C6900002480121801C02F0EBF9DDE7D81D0020E3
:10C6A000302400200C00020021FD010010B50446DA
:10C6B000064801214470401C02F05AFA112803D1A7
:10C6C00021460348FFF7A9FE10BD0000D81D002039
:10C6D0004024002030B5002815D0002913D00E4A80
:10C6E0001378002B11D09368022B10D011D20B4C71
:10C6F000DD002C1905882580408860805B1C616006
:10C700000020936030BD0E2030BD082030BD0620D3
:10C7100030BD042030BD0000B01D0020DC21002011
:10C720000021034801228160027041600846704781
:10C73000B01D002070B5002815D0002913D0244A60
:10C740001278002A0FD00A88302A17D00CDC044651
:10C750004034102A10D0112A05D17C21FEF729FD82
:10C760000020C043A08670BD322A2DD0332AFAD1D2
:10C77000091D02F061FB70BD8888F3E70546C88893
:10C78000091D002807D00021284600F08DFF28460B
:10C7900002F0DEFB70BD2C466034207E3A2250430E
:10C7A00040194A8902808A894280CA89C280098ADE
:10C7B0000181284600F0D6FB0100EBD00020607616
:10C7C000284600F0A7FF70BD091D02F0D7FA70BD22
:10C7D000B01D002070B500280DD0144A1378002B2E
:10C7E0000BD09368002B08D004466034637E002B86
:10C7F00005D0112070BD0E2070BD082070BD002531
:10C8000003465560403399860246A576084825764A
:10C810000188118040885080988E012190DF002887
:10C82000ECD101206076002070BD0000B01D00201A
:10C83000DC21002010B5044600F094FF2146074893
:10C84000FFF778FF054821467C3000F029F82046A4
:10C8500000F0C8F8204602F035FA10BDD8200020BC
:10C8600008B5002814D0002912D001236A4693701D
:10C87000084B1380084A9060096881600021C94311
:10C8800001800021418005496846FFF723FF08BD6C
:10C890000E2008BD14180000BC1D002021D301008B
:10C8A00010B500280AD0002908D00A88102A06D01E
:10C8B000382A07D0392A01D102F00CFB10BD898833
:10C8C000018010BD03F0D0F910BD000070B5002844
:10C8D0001CD00F4B02884488186814214143401C27
:10C8E00040070C4D400F186049194C810220C88147
:10C8F000081D086100248C810120087208714C71A8
:10C900000A80887003F0B0F9204670BD0E2070BD1B
:10C91000BC1D00207422002000B585B000234822F1
:10C920001749082002F0C2FF002801D0FFF746FD9A
:10C930006A460021012002F0A1FF002801D0FFF784
:10C940003DFD104802F05AFF002801D0FFF736FDE8
:10C95000684602F089FF002801D0FFF72FFD0A4842
:10C9600002F078FF002801D0FFF728FD074802F009
:10C97000B5FF002801D0FFF721FD05B000BD000084
:10C98000581E0020681B002035C80100D1FA0100A4
:10C990007CB5134E00250C463060002918D069463E
:10C9A000002000F0B5F8002819D101A9012000F0FD
:10C9B000AFF8002813D1684601790020002901D082
:10C9C000022004E069460978002900D00B2020707D
:10C9D0007068002802D1FFF76CFC054628467CBD34
:10C9E000A41D002010B51C4C0188606810290DD0D2
:10C9F00011290AD1401E606007D1FFF75AFC0028B8
:10CA000003D02168002900D0884710BD00281ED11E
:10CA100000210122084600F0C9F8002801D00728AB
:10CA200011D107220221012000F0C0F8002801D016
:10CA3000072808D104220221002000F0B7F80028BE
:10CA400005D0072803D02168002900D088476068F6
:10CA5000401C606010BD0000A41D002010B5032024
:10CA600000F022FA002801D0062800D1002010BDD5
:10CA7000F8B507460024234802E0641C042C1AD2AF
:10CA8000A2008258BA42F8D1042C14D21D481E4E7E
:10CA90000C38002929D001290ED002290BD16000C1
:10CAA000201880194578002D05D018480169002903
:10CAB00001D028468847F8BD61006118755C8E1961
:10CAC000717800290CD011490A22496880685143C5
:10CAD0000E4A521CFFF732FD002801D10B48477067
:10CAE0000A48B17814300155DDE78068FFF764FD2E
:10CAF00006486100611814308919005D8D78A842DC
:10CB0000D1D0F8BDA8FF0100B02100208C1D00206D
:10CB100004280CD2074A1269074B80001B5C0120D5
:10CB20009840904300D001200870002070470020FA
:10CB3000FAE7000000050050A8FF010070B51A4C8C
:10CB4000042815D007281BD00A2810D1002000F097
:10CB500051F8002801D0FFF731FCFFF77FFF0028D4
:10CB600001D0FFF72BFC3CDF07E0FFF727FC70BD8F
:10CB70001321E08876DF0828F9D00028F5D170BDB0
:10CB80006078012501280AD1A078002807D1A57076
:10CB900087DF002805D0082801D0FFF70FFCA5701B
:10CBA00070BD02F0CDFDFAE7801D002070B50023B6
:10CBB000042811D2440004190D4D012A02D1012983
:10CBC0000DD0002246008019094E801900290CD092
:10CBD000012906D0022906D00723184670BD0D3062
:10CBE000C2B22A55F9E74270F7E78270F5E7000014
:10CBF000B021002010B5054A0146127A0020D20764
:10CC000002D0084600F054F810BD00008C1D002032
:10CC100070B50E46204905464E608D6000200A61C1
:10CC2000A9071ED50024012211462046FFF7BEFFAA
:10CC3000641C042C02D20028F5D012E0002810D188
:10CC4000720804211548FFF771FB002809D1FFF78E
:10CC50005BFB002805D11148114A00211438FFF769
:10CC60000FFCE90706D00F220E4952058A60002307
:10CC7000CB608A6100280DD108480B4A00211C387E
:10CC8000FFF7FEFB002805D10448084A01211838A7
:10CC9000FFF7F6FB70BD00008C1D0020B8FF0100FF
:10CCA000E5CE010000050050BDE30100F1C2010026
:10CCB000FEB57A4D0722EB6892059A4302936B68A2
:10CCC00000939C0006461B19002001210193490591
:10CCD0000746734C3300FEF770FE180D15153747E5
:10CCE00055677C887F8891DE9E9E9E9E9EC8CED191
:10CCF000D8DEDE140F21029A49059143A160E76056
:10CD00002F70FEBDA260E76060680F2252055040A0
:10CD1000800209D5A160E760022E02D1E120C000A7
:10CD20000AE07D20400107E0E160A760022E01D10A
:10CD3000C82001E0FF2091302E706421FEF7F6F943
:10CD40000099414300223FE0A260E76060680F2243
:10CD500052055040800204D5A160E76019204001CF
:10CD6000EAE7E160A760E3E7A260E76060680F229E
:10CD700052055040800202D5A160E760D1E7E16032
:10CD8000A760D7E7A260E76060680F2252055040B5
:10CD9000800202D5A160E76001E0E160A7602E702B
:10CDA0000098410000220FE0A260E76060680F2257
:10CDB00052055040800202D5A160E76001E0E160C9
:10CDC000A7602E700099002236480068FFF7B6FB76
:10CDD000FEBDA260E7601BE061680120800502469D
:10CDE0008A43A2600140E16010E06068012189058A
:10CDF0000A468243A2600840E060E3E760680121E0
:10CE000089050A468243A2600840E0600199C9E7AB
:10CE1000E160A7602DE023484068FFF7CDFB1121BA
:10CE20008A1B01D0002807D00F22E9685205114063
:10CE3000A160E760EF60FEBD0121C905E960012A3C
:10CE40000CD91046C82148436421FEF76FF9696880
:10CE50000022414313484068FFF770FB0F22E96846
:10CE600052051140E160A760FEBD0F214905A16098
:10CE7000E7602E70FEBD07229205AAE70D21490545
:10CE8000A160E76001218905C2E70321C905A1600E
:10CE9000E7608910BCE70F214905B9E78C1D002028
:10CEA000000500509CFF0100F0B500210B4C0C4D1B
:10CEB00003273F048A00A2589200561932680123C2
:10CEC0008B40034000D00323BA431B041343336059
:10CED000491C0429EED30020F0BD0000A8FF01008A
:10CEE0000007005010B500780221FFF7C1FD10BD0A
:10CEF0000022D243830004490428CA5002D30818F0
:10CF0000203002777047000028250020F0B500256A
:10CF1000ED43002A02D00023042601E00423082662
:10CF20000B4C04E09F00E7597F1C04D05B1CB3420C
:10CF3000F8D32846F0BD26185DB2203635709E0025
:10CF4000A151002AF5D1E11820310877F1E700005E
:10CF500028250020024909182020085670470000A3
:10CF60002825002008B5014660310A46097E3A238B
:10CF70005943D27D0918002A08D0521ED2B20C2380
:10CF80005A435218528A6B46521C01E0CA886B46BB
:10CF90001A80098959804030808E194692DF08BD79
:10CFA000F8B53E481422017851430C18E0680C2172
:10CFB00048433A492769CC31401805894189009195
:10CFC000241D466802F0E0F801463846FEF7AEF848
:10CFD000002932D000200099A2884D436188AE1903
:10CFE0008918CD1900222E4900280A6109D002F0C3
:10CFF000CBF86188884222D0B54202D1A0880028AF
:10D000001DD0A06802281AD002F0BEF8A188CA1963
:10D0100001461046FEF78AF8214C8808E06002F0CD
:10D02000B3F801462846FEF781F8002911D0002008
:10D03000B5422FD000280ED02CE00120CBE702F023
:10D04000A3F801463846FEF771F8154948610320F8
:10D0500021E00120ECE7ADB2B7B202F095F801464D
:10D060003846FEF763F8064602F08EF80146284679
:10D07000FEF75CF8864201D1781B09E002F084F8E3
:10D08000064602F081F801462846FEF74FF8701A6E
:10D0900080082061022002F0B9FBF8BD5024002076
:10D0A000E01D002010B507481422017851430818EC
:10D0B0000079042802D000F059F810BD012002F0D8
:10D0C000A5FB10BD5024002010B50B481422017898
:10D0D00051430818094AC18811620079012806D015
:10D0E000032801D0042801D1FFF75AFF10BD012009
:10D0F00002F08CFB10BD000050240020E01D002039
:10D1000014225043054A002180180171C180012278
:10D110000161C2604161018170470000502400201C
:10D12000F8B5104C069E65780A2D19D027787D1920
:10D130000A2D00D30A3D14277D432D1928716A61F9
:10D1400003C92961E860EB802E816078401C607023
:10D1500005480078002801D1FFF7B6FF0020F8BD90
:10D160000420F8BD50240020E01D002010B50D4C17
:10D1700014212078484301190020091DFFF75AF9AE
:10D180002078FFF7BDFF6078401E60702078401C5B
:10D19000C0B220700A2801D100202070002002F0C7
:10D1A00035FB10BD50240020F8B52348C168002984
:10D1B0003ED00E6821494C680769C078E11B0D021A
:10D1C0002D0AED1C002814D101201D4A00045060D6
:10D1D0001B4A403A50601B49400008601A490860E9
:10D1E0001A49012008602F20FDF774FF1249012021
:10D1F000C870B54200D23546E81900020F4B000A4C
:10D20000403318600D4A5168001B091B0902090AC6
:10D210000002000AC91C814209D9506818602F20F9
:10D22000FDF758FF01200749400480390860F8BD28
:10D2300002F02CFAF8BD0000181E00200015014075
:10D240004013014080E200E000E100E000100140F6
:10D2500070B5094B04469E7A082000250E4207D07F
:10D260000648844202D01889A04202D100201560ED
:10D2700070BD052070BD000000240020FFFF0000ED
:10D280000C214843064910B5012240188272911EB4
:10D290000181FF21C1720721FDF78BFF10BD000046
:10D2A0000024002010B5134C207900071FD46069BA
:10D2B000401C6061E068002801D0042004E001F017
:10D2C00055F8002803D0022002F0F8FB10BD2069B9
:10D2D000002809D06068C10701D00320F4E70121CC
:10D2E000084360600020EFE7FFF7DCFE10BD02F0AE
:10D2F000D9FB10BDE01D002010B5084841680A07A1
:10D3000008D48A0702D5012211434160022002F0AD
:10D31000D5FB10BD02F0C6FB10BD0000E01D0020D3
:10D3200030B5017885B0002925D18188134A914212
:10D3300021D1817901291ED1114943888A680021B0
:10D340001380104C037A0EE00C254D432D18ED8907
:10D35000A54207D10C2359430818038B5380C18A77
:10D36000918002E0491C8B42EED80120694608708A
:10D3700093681046984705B030BD000014180000AF
:10D38000BC1D0020532A0000F3B506460546603652
:10D39000307E3A2148434719F47D0C206043C1197F
:10D3A0003A79601C0A3183B0904227D101AB002248
:10D3B000284600F095FF002823D010E0401EA04230
:10D3C00001D1002003E00C206043C0191630024652
:10D3D000009001AB284600F083FF002808D0002110
:10D3E000049840350170A88E01A993DF05B0F0BD07
:10D3F000F07D0099401C641CF075E4B23879A042BD
:10D40000DCD80498012101700020EFE7F8B5002670
:10D410000124154D23E06968F0004718387821464B
:10D420002A698140114218D08A432A6101F080FAAA
:10D430003A782146EB68914019400346934099425F
:10D440000BD17978012901D0012100E000217B680E
:10D450004140002B01D010469847761CF6B2287840
:10D460008642D8D3F8BD0000041E0020FEB50E464B
:10D47000044681786A46234801F0F8FD002827D148
:10D4800060780C21204F4843C019807A400620D490
:10D49000022E1ED0012E1ED01C4DA078182148430C
:10D4A00019490023D039411818226846A847002896
:10D4B00013D0022E0CD020780C21484312490C3195
:10D4C0004018807A124980000A58214668469047E1
:10D4D000FEBD104DE1E7104DDFE7022EF8D0607879
:10D4E0000C214843C019817ABF22114081726078B3
:10D4F0001C21484304491823283941181C22684636
:10D50000A847D8E7D01D00200024002029FA0100F8
:10D51000DCFF010021F4010045F3010070B5054670
:10D52000114A12480024182363431B18DB7DFF2B8C
:10D5300004D0641C072CF6D3104670BD0A78022A6A
:10D5400009D0182262431018FD22C275072210303C
:10D55000FDF716FE04E0182161430818FE21C1758D
:10D560002C700022E8E700004380000030230020F8
:10D5700070B5064608780D46152855D009DC2B4CA9
:10D5800011280DD012282CD013283ED014284BD1AE
:10D5900040E0212843D0222841D0232844D13EE036
:10D5A0000720FFF727FB002801D0FEF707FF686878
:10D5B000042205881D48E58031460830FDF7E0FD6E
:10D5C00029461B48FFF706F9002801D0FEF7F6FEB2
:10D5D0002078401C0006000E207025D102F0B0F823
:10D5E00022E07C211248FDF7E4FD0020FFF702FB5A
:10D5F000002801D0FEF7E2FE2078012801D102F0D8
:10D600009FF82078401E20700EE00848083000F097
:10D61000B5FB05E006487C30FFF758F900E01046FE
:10D62000002801D0FEF7CAFE002070BD801D00203A
:10D63000D82000201FB56946087301F0ABFD002813
:10D6400001D0FEF7BBFE03A800F04EFA002801D07F
:10D65000FEF7B4FE01A805210130FDF7AAFD104830
:10D660000222694600900A71487901231843104349
:10D67000E3210840DF210C3008406946487107204B
:10D6800088711020C871087A184310430872054841
:10D6900000F048FB002801D0FEF790FE1FBD0000FF
:10D6A00071D50100851D0020F3B504466030007E71
:10D6B0003A214843071981B0384601F0F9FE0600C7
:10D6C00023D0124D686802281FD24034A18E442214
:10D6D0000F4C5043031959800299002907D00021AB
:10D6E00021543A223946181DFDF74AFD01E0022176
:10D6F00021546868442141430919401C0E64686044
:10D70000A968884201D101F06FFCFEBDB01D002068
:10D71000EC210020F8B5044660300D46007E3A2129
:10D720004843001901F0C4FE010016D00B484268BE
:10D73000022A12D240344423A68E5343084C1F467B
:10D740001B195E800126E6555D60521C196442601B
:10D750008068824201D101F047FCF8BDB01D002075
:10D76000EC210020F0B50646D4480027007893B09D
:10D7700000285AD0D24D2868002856D0684600F0BC
:10D78000A5F9002801D0FEF719FE00200E90301DEB
:10D7900002902A2168468181FF2181700021017059
:10D7A0000B91C74C30880C3C10280ED0B0880BAAC7
:10D7B0000221FFF74DFD002807D10B980C214143B2
:10D7C0000919C97A6A4691705070308817287DD03F
:10D7D0002DDC102838D0112879D0132825D10B99A9
:10D7E0001C220B465343B64A0020343A9A180A903A
:10D7F00005920C225143089009900919C97A182200
:10D800005143AF4A0790DC3A891806910022B0884C
:10D8100005AB11467FDF002807D10B980C21484348
:10D820000019817A04221143817213B0F0BDA54919
:10D8300018286ED01C286DD05228F6D1A87A800006
:10D84000095868468847F0E70BAA01219E48FFF770
:10D85000FFFC0028E9D10B990C2048430222001953
:10D86000827211236A4613715170B18801810722B7
:10D87000B11DFDF785FCB61D0D96002690491820B8
:10D880007043DC394018072210300D99FDF79CFCDD
:10D89000002803D0761C072EF0D3DCE00B980C2177
:10D8A00048430019C672817A082211438172684682
:10D8B00086708248B1B20CAA083001F0D7FB00286C
:10D8C000EBD10B981C2148437D4901E03DE00FE07E
:10D8D0003439401818231C220CA901F081FCA87AC5
:10D8E0007849800010390A5869460CA89047B2E080
:10D8F0000B980C2148430119887AFD221040887248
:10D90000010708D5C0090FD000216846FFF7AEFD1A
:10D910000AE064E09CE068468078FF2804D001F0CB
:10D9200045FBFF20694688700B980C21484300197D
:10D93000817A490703D5697A0127B94369721021B1
:10D94000817212216846017185E0687A0C214008D5
:10D95000400068720B986B464843011984468A7AE6
:10D96000FB2002408A7214201871B0790127002828
:10D9700001D00E906FE0F07940076CD59878FF28C1
:10D9800069D008231A438A72B27A920709D51823FC
:10D9900002465A434A4BDC3BD218D37D5B085B00FE
:10D9A000D375CA7AFF2A56D06246A25C022A11D0E9
:10D9B0001822434E5043DC3E801907221030FDF7F9
:10D9C000DFFB68468078182148438019C27DFD211D
:10D9D0000A40C27501216846FFF748FD3BE0B07977
:10D9E0000209012A22D10007000F01281ED10B983D
:10D9F0000C2250430219927A120717D53049183970
:10DA000040180621001DFDF7D4FB16206946087159
:10DA10000B980C2148430119887A602210438872C0
:10DA2000697A012702200143697214E00B980C22E5
:10DA300050430019827A80231A43827215206A4665
:10DA40001071A87A8000095868468847002090E73E
:10DA500013206946087101A968460E9AFEF7BAFCC0
:10DA600068460079122808D10B980C214143091906
:10DA7000897A012901D0FFF703FC002F00D1D4E6F9
:10DA8000687A8007FBD506AA20210F48FFF7E0FB44
:10DA9000002804D0687AFD2108406872C5E600209D
:10DAA00069460875069848750C2148430019C07AE4
:10DAB0006946887505A800F0ABFBB6E6C81D0020D6
:10DAC0000C240020FCFF0100FFFF0000002806D00E
:10DAD000FF21017041708170C170002070470148C2
:10DAE000704700000E800000F0B585B0050031D011
:10DAF000264800240460447284722046FFF7C0FB6D
:10DB0000224878380466446600268466304601F070
:10DB10004DFA761C072EF9D35C21684681800721D7
:10DB2000C1801B4800901B49684601F0ADFB0028EE
:10DB30000ED1184E0120083E3070287800280BD0F6
:10DB400069468888C988484381B2124801F0B8FA0A
:10DB500005B0F0BD1048FBE70C4F0025DC3FA9B233
:10DB600002AA0C4801F082FA002809D11820684363
:10DB7000C0190023182202A901F032FB002801D0AD
:10DB80003470E5E76D1C072DE9D3E1E70C24002094
:10DB90009DDB0100D01D00200E800000FFB55D4818
:10DBA0008FB00068189F1E46002874D05C2F72D872
:10DBB0006846FFF78BFF002801D0FEF7FFFB00242B
:10DBC000684604700471254605970696A9B20DAA09
:10DBD000514801F04BFA002806D108220DA90F98F0
:10DBE000FDF7F2FA002818D06D1C072DEED3684619
:10DBF0008578FF2D4FD01098032811D04548182163
:10DC0000DC38301AFDF792FA012707281ED204A843
:10DC10000290119800280BD011E068468570E6E765
:10DC20005C2F03D04020694608716DE02020FAE7A0
:10DC300038463949A84008394968084262D0284620
:10DC400002F05AF92020694608714BE031481C2146
:10DC50003438301AFDF76AFA00281DD02D480C21FF
:10DC60001838301AFDF762FA01002C482DD04021F7
:10DC70006A4611712A498E4246D00246A900EC3A02
:10DC80005158B1423ED104A90291C07A854229D1AE
:10DC90006846447026E035E004A8029020216846DA
:10DCA000017144701B480A940C300B904038079067
:10DCB00068468078182148431849D03940180890A0
:10DCC00007A80690182005900CE0302269460A71DA
:10DCD0004C70CF70807A800704D410480C380460F0
:10DCE00044608460109869460228087910D00221A7
:10DCF00008436946087104A8029001A96846119A70
:10DD0000FEF768FB13B0F0BD694608790321EFE721
:10DD10003843EFE70C240020D01D00200024002011
:10DD2000D8FF010070B5064611480D46007800285E
:10DD30000ED01049002E0ED0002D0CD028680028DF
:10DD400009D00D4C2168002907D00A480A3870BD57
:10DD50000848801F70BD084670BD20600522691DFF
:10DD6000201DFDF70DFA2879A0720020307070BDDB
:10DD7000C81D00200E8000000C240020F8B50446C9
:10DD80002B4801782B4800290ED0002C0AD021788E
:10DD9000002909D1284E3168002905D06178002971
:10DDA00010D102E02348801DF8BD234D0C3DA97A17
:10DDB000012907D08907F7D5A1782846C07AFF291D
:10DDC00005D102E01B480830F8BDFF2807D01A4AE9
:10DDD000A070343A11461231288981DFF8BD2946F6
:10DDE0006846FFF79BFB0028F8D162780C23694650
:10DDF0005A4309785219D172A1702178594389196F
:10DE0000497AC90710D061780C22514349198A7A9E
:10DE100020231A438A7221780C22514389194A7AA5
:10DE200002231A434A72F8BD204600F0F1F9F8BD0A
:10DE3000C81D0020088000000C240020F0B5284AEE
:10DE40001378284A002B2CD0931D00280BD00029D2
:10DE500009D00C68002C06D08C68002C03D0007808
:10DE600000281ED101E01846F0BD1F4800680028B8
:10DE700017D000231C4C1A4618460C3CE57A854204
:10DE800002D1A57AAD0723D40D7B95420FD9182571
:10DE900006466E43144DDC3D7519EE7DF60702D043
:10DEA00005E01046F0BD97008E68521CF5510D79C3
:10DEB0009D420DD9182506466E430B4DDC3D751964
:10DEC000EE7DB60704D49F0010350E685B1CF5513B
:10DED000401C0728D2D30B710A730020F0BD00004C
:10DEE000C81D0020088000000C24002010B50E4939
:10DEF00000234A788C78A24212D0521CD2B24A70C7
:10DF0000022A00D14B704A78074B920018339A5876
:10DF10000260086910180002000A0861012010BDA3
:10DF20000360002010BD0000181E00208268838856
:10DF30001A4003689A5C0A708168491C81607047C6
:10DF4000C26883881A4003689954C168491CC1603B
:10DF50007047000010B5002803D0112802D0FEF74A
:10DF60007FFA10BD0248082241681143416010BD8C
:10DF7000E01D002010B51C4C217820464068012986
:10DF800006D0022929D0032912D1000717D513E0A2
:10DF9000000711D415481422017851430818C1888C
:10DFA000A28B891A0904090CC18002D001F03EFD40
:10DFB00010BDFFF7DBF810BD00F0D6FB10BD6069A7
:10DFC000401C606100F0D2F9002803D0207801F0F5
:10DFD0001DFC10BDFFF766F810BD60780449800095
:10DFE0000858804710BD0000E01D0020502400208C
:10DFF0004000020010B528DFFFF7ACFF10BD10B5E0
:10E0000029DFFFF7A7FF10BD10B50446C0B2FEF729
:10E010004DFB204610BD00207047002070470020B7
:10E0200070470000F8B544780C2044430B480021A9
:10E03000034605590C33E3180A46002D07D09E7A93
:10E04000F70904D0760602D42118AAB2091D18894E
:10E050000323A9DF002800D00148F8BDF4230020E5
:10E060004180000070B50D46014668780C22084CCE
:10E0700050430019342301F0B3F8002806D1697821
:10E080000C2251436258521C00D1625070BD0000F6
:10E09000F4230020FEB50D46074606206946088198
:10E0A00068780C2148431F4E02AA80190089032377
:10E0B0006946AADF002833D168780C214843741AD6
:10E0C000001969460A89001DFDF77EF80028687866
:10E0D00006D00C214843215800290DD0124E0CE0E7
:10E0E0000C2148438119897A890719D40019002124
:10E0F00001604160816013E00C4E69460A8922503C
:10E1000068780C21484300196946001DFDF738F86E
:10E1100068780C214843011934230C223846B04753
:10E120000020FEBD0024002021F4010045F3010081
:10E1300010B5FFF777FF10BD10B5FFF793FF10BDC7
:10E1400010B5FFF7A7FF10BDF8B50746104E012523
:10E15000BD403068FEF730FA00280DD10D4C206923
:10E16000284207D1384600F0E3FB0028E06804D0DD
:10E17000284303E0A8432061F8BDA843E06020697C
:10E18000002228432061A1683068FEF7D7F9F8BD66
:10E1900074000200041E002070B51B4C207900079B
:10E1A0002ED41A481422017851430D182E6900F01C
:10E1B000EBFF0146E8882A89761E80188019FCF753
:10E1C000B5FF21690025002909D06169814206D186
:10E1D000E560606801210843606000200AE000F00B
:10E1E000C5F8002802D00220E56003E0206900287D
:10E1F00003D0032001F062FC70BDFEF753FF70BD39
:10E2000001F050FC70BD0000E01D002050240020F3
:10E2100070B5044600780C21124E4843811960788D
:10E220000C225043B51A40190089091D7EDF0100F8
:10E2300016D120780C2250438019427A01231A43C8
:10E24000427260780C2250434219907A042318439A
:10E25000907262780C235A435219DF23184090724F
:10E26000084670BD0C240020F8B51C4C207800280E
:10E2700033D02069002807D00026E068002805D0A8
:10E280000025002E04D011E00126F6E70125F8E76D
:10E29000684652DF052804D0002804D0FEF78EF827
:10E2A00004E0012602E0216900988847002D10D182
:10E2B000608869460880A06861DF052804D00028CE
:10E2C00004D0FEF77BF804E0012502E0E168A068D5
:10E2D0008847002EDCD0002DD3D0F8BD441E00208E
:10E2E00030B50989002A05D0D088491C814212D155
:10E2F000002030BD02466032147E3A256C4324185B
:10E300002489A142F4D0491C1980117E3A2251433C
:10E310000818008902E01980D088401E588001202A
:10E3200030BD00001048018CC9B2012917D1818C81
:10E33000090714D1018D09060A0F03D1828D120637
:10E34000120F0ED0090F012903D1828D1206120F70
:10E3500007D0032903D1808D0006000F01D00020D3
:10E360007047012070470000C00F00F070B50E48E4
:10E370001422017851430C18256900F005FF01466D
:10E38000E08822896D1E80184019FCF7CFFE0749EE
:10E390004A69824206D3824202D10869002801D02C
:10E3A000002070BD012070BD50240020E01D002021
:10E3B000800701D0002070470120704710B5044845
:10E3C000017AC90702D00078FEF772FC10BD000088
:10E3D0008C1D0020F8B52C49C8680A690C780F79A3
:10E3E00089688646944600913EE00099E2005518FF
:10E3F0002A7836E0182353436968521CC918AB7851
:10E40000D2B2934200D100220B78022B02D0032B10
:10E4100027D123E04E680346014603E0B14204D011
:10E420000B46C96900291CD0F8E7002919D08B4296
:10E4300008D1C069002805D1144F0126BE6000260E
:10E44000B44601270E68C969D961002909D00B6853
:10E450009B190B6005E00174C06900E000210028F1
:10E46000F9D169789142C5D12146641EE4B20029F0
:10E47000BBD1054962460A61C8600F71704501D081
:10E480000120F8BD0020F8BD181E0020001001403A
:10E49000F8B5044631480026C168009107784EE07F
:10E4A0002E48F90080680D1843E0002C02D0204669
:10E4B000E4691FE02878182141436A68401CC0B213
:10E4C00051182870AA78904200D12E700A784868B6
:10E4D000012A30D1027C002A2DD18A684260CA68A4
:10E4E00082600A69C260496981611C490979002911
:10E4F00000D04660194943680A699C46991A090286
:10E50000174B090A994202D28268891807E06146CE
:10E51000511A09028268090A8A4202D9511A016015
:10E5200000E006604660012186600174C66101F06A
:10E530003BFB002CB9D1287869788842BAD138469B
:10E540007F1EFFB20028ABD10448C1680098814209
:10E5500001D00120F8BD0020F8BD0000181E0020E9
:10E56000FFFF7F0030B50E4C87B02078002802D026
:10E57000002007B030BD0B4A04AB07CA07C30848E8
:10E580000125401C00900848029028020390019544
:10E590000323064A694604A8FEF738F82570E8E721
:10E5A000381E00207C000200AC250020F9FC010090
:10E5B00010B5044602E0641CFEF778F820780028C5
:10E5C000F9D110BD0FB470B505AC002503E001CC46
:10E5D000FFF7EEFF6D1C04988542F8DB70BC08BCA9
:10E5E00004B0184710B5002488B0E443FFF7BAFF21
:10E5F000002802D0204608B010BD34A10120FFF74A
:10E60000E1FF00233B4A03211846FDF74FFF002896
:10E6100001D0FDF7D3FE384A38490320FEF7F8FA57
:10E62000002801D0FDF7CAFE01A90020FEF7B0F9CD
:10E63000002801D0FDF7C2FE68460079022842D0CA
:10E64000002069462E4A087007CA05AB07C32D484B
:10E650000190012002902C480390FF20013004908B
:10E6600003232A4A01A905A8FDF7D0FF002801D0FD
:10E67000FDF7A4FE26A0FDF779F9FEF74DF96846EF
:10E680000078FEF7D7FFFEF74BF8002801D0FDF722
:10E6900095FE2848009069462748FEF7E1F80028D3
:10E6A00001D0FDF78BFE25A10120FFF78BFF01F0C4
:10E6B00047F848DF002801D0FDF780FE27A10120A0
:10E6C000FFF780FFF5E70120BBE700006E72665F91
:10E6D0006C6F6767696E6720696E697469616C69E0
:10E6E0007A6564207375636365737366756C6C79A2
:10E6F0000D0A0000A01F00203DCB0100CD0C000042
:10E7000090FF0100841D0020A01E00200DFD0100CF
:10E7100052756E6E696E6720537065656420636F15
:10E720006C6C6563746F72206578616D706C650DDB
:10E730000A000000EDF40100542100206D61696EB3
:10E7400020696E697469616C697A656420737563A8
:10E750006365737366756C6C790D0A004C6F6F702E
:10E76000696E670D0A00000010B504480822416870
:10E7700091434160007801F049F810BDE01D002090
:10E780000020704700207047002070478207D30E9A
:10E79000FF229A408907090E10B5994000280BDA2C
:10E7A00003071B0F083B9C080C4BA400E318DC6913
:10E7B00094430C43DC6107E08408094BA400E4188F
:10E7C000236893430B432360C106C90E0120884090
:10E7D000044908600449086010BD000000ED00E035
:10E7E00000E400E080E200E000E100E0F3B581B089
:10E7F0000F46019800F00EFC012400281E4E0198DF
:10E8000017D0FEF7A7FB80192030007F800903286E
:10E8100002D0012806D007E01848006901998C4011
:10E82000204201D1022100E00321019800F022FAE8
:10E83000FEBD00F0FBFB0028FAD00198FEF78AFB32
:10E8400005468100C81D0E4AF93089180A6980B250
:10E8500022430A610B49401800210160002FE7D0D4
:10E860000198FEF777FB800030580028E0D006487A
:10E87000AC404460FEBD000028250020000500508B
:10E88000006500400060004000630040FEB50446A3
:10E8900023480E460019202141560027C817134669
:10E8A000401C01D0082738E0F27819462046FEF7D0
:10E8B0002DFB0546401C2FD0B078002807D0194802
:10E8C000A1000918086802229043086007E00021AF
:10E8D0007378204600910A46019100F093F9F07890
:10E8E000002810D01048AA001018317802690F4B88
:10E8F0001A400261E206D20C8907890B0A430169BA
:10E900000A43026109E00648327840192030017F4D
:10E9100092011143017700E004273846FEBD000054
:10E92000282500200007005000650040FFE0FCFFA4
:10E9300003490969C140C807C00F00D001207047D2
:10E940000005005070B5124D2879002801D008202C
:10E9500070BD0F4900204039421E0B182033401C67
:10E96000C0B21A702028F8D300242046FEF7C0FA5F
:10E97000641CE4B2082CF8D303210620FFF706FF3D
:10E9800001200449C007486001202871002070BDA3
:10E99000682500200063004002480079002800D06C
:10E9A0000120704768250020F3B52A4C0746E07E19
:10E9B00081B0002801D00820FEBD002F00D1264FD5
:10E9C000386800F04CF938780126314681402348F8
:10E9D00081600021786800F039F9214DB8696862DA
:10E9E000787D397D0843E86603CFE8606961387B4C
:10E9F000083F01280FD10021B86800F027F9F86816
:10EA000000F02DF9387B3146814014488160F96867
:10EA1000B868A9602861029860603969216000289F
:10EA20000ED0FF230F481D33397F0022C250FF2331
:10EA30004533C2500D4A0C4850600220FFF7A6FE35
:10EA4000042028600020E0752076A075E676A07688
:10EA5000FEBD00007025002054000200000500509B
:10EA600000250040002000408000020000230040FC
:10EA7000F8B5104B81245E680022A4000E4D002ED4
:10EA800000D0AC60DF7D002F0BD01A7E002A04D0AE
:10EA9000002E00D06C601120F8BD1861012219769B
:10EAA00004E0D9750024D8605C761C7600F012F87A
:10EAB000F8BD0000702500200023004010B5044C74
:10EAC000A07E002803D100F02DFE0120A07610BD0D
:10EAD00070250020F8B5234DA87E104301D100F029
:10EAE00021FE6868204C002805D081201F49800045
:10EAF00048600020F8BDFF20453000212150FF2153
:10EB00002531204600F0D0F80546FF210931204686
:10EB100000F0CAF80746FF214531204600F0C4F84E
:10EB20000646394631432943E9D02846304306D1C9
:10EB300000F0CEFD0B48C17D407E8142DFD8002130
:10EB40000848002DC17501D00320F8BD002E01D06A
:10EB50000F20F8BD817E0120002901D02060C8E788
:10EB60006060C6E7702500200020004000230040C0
:10EB700010B5064A937D002B01D0112010BD917570
:10EB800090600020908200F003F810BD70250020F6
:10EB9000F8B50026194FFF251D357E510120B860BC
:10EBA00001F084F8164C6168002910D022E0FF279C
:10EBB00001372946114800F077F8002802D1A08AD1
:10EBC000B842F6D1A08AB84201D001F06FF8A08A0D
:10EBD000A17D8842EBD3A18AC81FF9380CD0074F1A
:10EBE0002946384600F060F80028F9D00120F86086
:10EBF0000020A0753046F8BD0F26F9E70020004040
:10EC00007025002030B552000A439900039C0A4346
:10EC10002102049D0A4329040A4302498000401846
:10EC2000026030BD0007005030B552000A43990021
:10EC3000039C0A432102049D0A4329040A43024912
:10EC400080004018026030BD000700501CB5002253
:10EC50000B46009211460192FFF7E6FF1CBD1CB562
:10EC6000002100910B46012201911146FFF7DCFFC4
:10EC70001CBD0000820006481018026803231B0414
:10EC80009A430260026809040A4302607047000068
:10EC900000070050034940180068012800D00020F8
:10ECA00070470000006000404058002800D001205C
:10ECB00070470322120280184068084000D00120EB
:10ECC000704700007FB5041D0088192848D01B2814
:10ECD00009D01D2806D12088A11C75DF002801D08D
:10ECE000FDF76CFB7FBD20460B300290A07A694691
:10ECF000C00888816A4602A90220FDF7C3FA0028ED
:10ED000006D06A4602A90320FDF7BCFA0028E9D123
:10ED1000694689880020154D4B081EE04200009E80
:10ED2000511C715CB25C09020A43AA4214D187DF0C
:10ED30000020FDF75FFF002801D0FDF73FFB0C48E6
:10ED4000FD2201781140017001460A4AA01C88DFAB
:10ED50000949002088707FBD401C8342DED87FBDFA
:10ED6000A0780228FBD100F0EBFC7FBD1418000056
:10ED70006021002088FF0100801D0020F3B583B0D2
:10ED8000039E3A226036307E5043039A85184888A5
:10ED9000002837D1083100912C79087820180428F0
:10EDA00000D904202871002711E00A200099784337
:10EDB00041180C206043401901900A220A30891C36
:10EDC000FCF7DEF900210198641C81827F1C287900
:10EDD000A042EAD80C2044436019C288307E3A230E
:10EDE000039958434018008982420BD2287904289D
:10EDF00008D0F0750398FEF7B5F801000ED000209A
:10EE0000707608E00024F47569460398FEF7BCFAB2
:10EE1000010005D074760398FEF77CFC05B0F0BDC8
:10EE2000684600780028F9D001210398FEF73CFCE1
:10EE3000039800F08DF8F1E7F8B504460546603414
:10EE40000B46207E3A2148434219E07D0C26704350
:10EE500080180A308446194658880831002812D193
:10EE60001B4E0B880DE0062747437F18BF88B7422B
:10EE700006D106235843401841886046418102E08C
:10EE8000401C8342EFD8002668460670E07D117969
:10EE9000401C884203D10120694608700FE0E075EC
:10EEA00069462846FEF770FA010004D066762846C7
:10EEB000FEF730FCF8BD684600780028FAD0012142
:10EEC0002846FEF7F1FB284600F042F8F8BD0000A6
:10EED0000229000070B504460A468889A1880C32D0
:10EEE00086B0884231D10220694608709079C30704
:10EEF000DB0F0B7190798007C50F4D71907940073A
:10EF0000C00F8871117AD6790802304369460881AA
:10EF1000507A88720420002B06D0D17A937A0802A6
:10EF20001843694688810620002D0AD01518AD1DAA
:10EF30002846FCF756F90002E978000A090608435A
:10EF40000490A26869462046904706B070BD000054
:10EF500070B5044605466034A07E1249401CC0B21C
:10EF6000A0768968002688421AD2E675207E3A216A
:10EF7000401CC0B241434A1920760B49C0004018DA
:10EF8000018811804088508074201671405B0121F7
:10EF900090DF010003D066762846FEF7BBFB70BD0C
:10EFA000667670BDB01D0020DC21002070B50446DF
:10EFB00018200C4960434518284611300621FCF7FB
:10EFC000F8F800262E606E60AE60FF21EE602974B6
:10EFD000E975204600F090FF0249A0001C390E5050
:10EFE00070BD00003023002070B50024074D084E8E
:10EFF00005E0442060438019016C8847641CA868C0
:10F000008442F6D30020686070BD0000B01D00206F
:10F01000EC2100200449081820214156042901DB75
:10F020000120704700207047282500200449081857
:10F0300020214156042901D2012070470020704749
:10F040002825002007490979490701D4082070477D
:10F05000002804D0044949780160002070470E2040
:10F0600070470000E01D00205024002030B5124BF6
:10F070001B795B0701D4082030BD002805D0002A89
:10F0800003D00468002C10D101E00E2030BD0B4BE2
:10F090001D68002D09D045681889414369185D89AC
:10F0A000454358682818884201D8072030BD1460AD
:10F0B0000020516030BD0000E01D00201C25002014
:10F0C000FEB5054625480E460079400701D40820C4
:10F0D000FEBD002D03D02868002834D101E00E20A9
:10F0E000FEBD1F4C216800292DD06089218948432D
:10F0F000616841186868814225D9FFF759F90028ED
:10F100000FD06868019029680C2251430F19796863
:10F110000091401A39890C46FCF708F8002912D1F1
:10F1200001E01020FEBD21463046FBF7FFFF00291D
:10F1300009D1002E07D0788944430198811900989D
:10F140000019814201D90720FEBD0020024600902F
:10F15000334629460320FDF7E3FFFEBDE01D0020F6
:10F160001C25002010B507484469601C06D000F03B
:10F170000BF801462046FBF7D9FF10BD0120000720
:10F18000406910BD0010001001200007006980B226
:10F190007047000070B500240F4825460470447085
:10F1A0002846FDF7ADFF6D1C0A2DF9D30B4D6C8081
:10F1B000FFF7D8FF861EFFF7E7FF46430648AE601D
:10F1C000CC306C610460048144812C70AC610420FB
:10F1D000EC616860002070BD50240020E01D00201C
:10F1E000FFB5274881B000791F4616460D464007F7
:10F1F00002D4082005B0F0BD002D06D001980028EB
:10F2000003D02868002815D101E00E20F2E71D4C3C
:10F21000206800280ED061892089626841438918DE
:10F220006A68914206D9002E04D0B04202D3F11987
:10F23000814201D90720DDE70198FFF7B9F80028DE
:10F240001BD03846FFF7B4F8002816D06868FFF7DF
:10F25000AFF8002811D068683246C1190198FBF751
:10F260008FFF009628680C21484324580022022171
:10F270002846019BA0470020BCE71020BAE7000009
:10F28000E01D00201C250020F8B52C4D04462879EF
:10F290000E46400701D40820F8BD002C20D0002ED7
:10F2A0001ED0206800281BD0FFF76EFF0146A08803
:10F2B000814213D3102811D3E08800280ED0FFF725
:10F2C00051FF471EFFF760FF4743E288A188A86807
:10F2D0004A431218974201D3890703D00720F8BD8B
:10F2E0000E20F8BD6988012926D031600C22144B0C
:10F2F00051437060CA18506020685850A08810812F
:10F30000E0885081FFF740FF0646FFF73DFFA188E8
:10F31000E288401E514340183146FBF71DFF04466A
:10F32000FFF732FF0146A86861430818A8606888A3
:10F33000401C68800020F8BD0420F8BDE01D0020BE
:10F340001C250020F8B5044620481E4600791546C5
:10F350000F46400701D40820F8BD002F05D0002C2F
:10F3600003D02068002815D101E00E20F8BD184810
:10F37000016800290ED04289018940684A4310186B
:10F380006268904206D9002D04D0A94202D3A81980
:10F39000884201D90720F8BD3846FFF709F8002850
:10F3A00011D03046FFF704F800280CD06068FEF753
:10F3B000FFFF002807D02B463A4621460120009641
:10F3C000FDF7AEFEF8BD1020F8BD0000E01D0020E6
:10F3D0001C25002010B5114902460878002811D0DC
:10F3E00004280FD0022A16D0032A0BD10A7912075B
:10F3F00011D48A69521C8A61032A08D0022802D0DB
:10F4000000F004FA10BD487800F058FB10BD0D2044
:10F41000FDF726F810BDFEF7ADFD10BDE01D002084
:10F42000F8B5044620481E46007915460F464007A9
:10F4300001D40820F8BD002F05D0002C03D020688F
:10F44000002815D101E00E20F8BD184801680029F8
:10F450000ED04289018940684A4310186268904280
:10F4600006D9002D04D0A94202D3A819884201D997
:10F470000720F8BD3846FEF79BFF002811D0304624
:10F48000FEF796FF00280CD06068FEF791FF002879
:10F4900007D02B463A46214604200096FDF740FE51
:10F4A000F8BD1020F8BD0000E01D00201C25002044
:10F4B00070B50D4B00210B4A9B680EE0CC00A518DF
:10F4C000AD788678B54207D1145B0588AC4203D18C
:10F4D000C8008018406870BD491C9942EED30020D6
:10F4E00070BD0000DC210020B01D002070B5054675
:10F4F00008780C4601282AD0022827D11DA0FCF745
:10F5000035FA21891CA0FCF731FA2079002803D0B4
:10F51000A18921A0FCF72AFA6079002803D026A04F
:10F520002169FCF723FAA17A29A0FCF71FFA30A081
:10F53000FCF71CFA217930A0FCF718FA617936A0A3
:10F54000FCF714FAA1793CA0FCF710FA70BD424810
:10F55000FEF714FC002801D0FCF730FF2846FDF729
:10F56000B5F9002801D0FCF729FF3CA0FCF7FEF913
:10F5700070BD00000D0A0000496E7374616E746105
:10F580006E696F75732053706565642020203D207F
:10F5900025640D0A00000000537472696465204CF4
:10F5A000656E6774682020202020202020203D20C8
:10F5B00025640D0A00000000546F74616C204469DA
:10F5C0007374616E6365203D2025750D0A0000008F
:10F5D000496E7374616E74616E696F7573204361F7
:10F5E00064656E6365203D2025640D0A00000000FF
:10F5F000466C6167730D0A0020205374726964655C
:10F60000204C656E6774682050726573656E742057
:10F610003D2025640D0A00002020546F74616C2089
:10F6200044697374616E63652050726573656E74AE
:10F630003D2025640D0A0000202049732052756E7C
:10F640006E696E672020202020202020202020208E
:10F650003D2025640D0A0000881D002052756E6E45
:10F66000696E6720537065656420616E6420436134
:10F6700064656E636520736572766963652064698D
:10F6800073636F7665726564200D0A0070B501249E
:10F690000B49600408600B494010886009494039F3
:10F6A0008860094D6C602F20FBF714FDAC60074D9E
:10F6B00000242F202C61FBF70DFDEC7070BD0000C5
:10F6C00080E100E04013014000100140181E0020BE
:10F6D00030B50A48FF21C57D0022094C0931094B8C
:10F6E000002D625007D09969437EC268D154417E93
:10F6F000491C417630BD986930BD0000702500205E
:10F7000000200040002500401FB501236A46137009
:10F7100010720348019106C8684690471FBD00005B
:10F7200070250020FF220548253200218150FF224C
:10F730000932815001210160704700000020004023
:10F7400030B595B004A8FFF77DFC002801D0FCF788
:10F7500035FE0498274D002803D00120E87015B02D
:10F7600030BD0821684601710024047305A800908B
:10F770000DA802901F486946401DFEF75FFB002858
:10F7800001D0FCF71BFE684601791B48A0225023DC
:10F79000002903D16946097B002905D06978012930
:10F7A00002D1A97800290AD00178FD25490849002D
:10F7B0002940017002814381446084810BE001781B
:10F7C00002244908490021430170028143816946AE
:10F7D00041601E218181084886DF002801D0FCF7A6
:10F7E000EDFD0120FDF706FA0028B8D0FCF7E6FD94
:10F7F000B5E70000801D00206021002008B5024907
:10F800000020009108BD0000801D002010B50F49A8
:10F810000028087009D0012811D0022812D003282E
:10F8200002D14869FEF7E6FB10BD00208861C8617F
:10F83000074840780028F7D0FDF746FC10BD00F0DF
:10F84000F5F810BD00F054F810BD0000E01D0020D8
:10F8500050240020002803D00249C86000207047CF
:10F860000E207047441E00201CB5034901910091F1
:10F87000694660DF1CBD0000801D002070B50E468B
:10F880000546144614211046FBF793FC0120002185
:10F8900020802161217326726572002D00D0A07234
:10F8A000002070BD10B5FCF77BFD10BD70B50029C0
:10F8B00001D08C0701D0072070BD064C0125A16046
:10F8C00062800549636010DF0028F5D1257016209D
:10F8D0002EDF70BD441E0020A5F80100002803D0D3
:10F8E00002490861002070470E207047441E002026
:10F8F000F8B5164C14226068400840006060144857
:10F90000017851430E183769FFF73EFC014638462F
:10F91000FBF70CFC05466061FFF736FC0146F088FA
:10F920007F1EC019FBF702FC02228542606801D1EC
:10F93000104300E090436060E1681040084303D04A
:10F94000002000F0BBF8F8BD0220FAE7E01D00201F
:10F950005024002010B502484069FEF74BFB10BD53
:10F96000E01D002010B5FFF7FDFB441EFFF70CFC67
:10F970004443FFF709FC04494A69521E5043CA68D0
:10F980002146FEF73CFB10BDE01D0020F8B51048F5
:10F990001422017851430C182569FFF7F5FB014645
:10F9A000E088228980184019FBF7C0FB0F46FFF75B
:10F9B000D9FB461EFFF7E8FB4643E0882289F11990
:10F9C0008018044A40191269FEF719FBF8BD0000BF
:10F9D00050240020E01D002070B5FFF7D5FB054640
:10F9E000FFF7C0FB441EFFF7CFFB60432946FBF740
:10F9F0009DFBFEF7FFFA70BD70B5FFF7C5FB8608EB
:10FA0000FFF7C2FB0749496948430446FFF7AAFBD1
:10FA1000451EFFF7B9FB684332462146FEF7EFFA71
:10FA200070BD0000E01D00200020704770B5144834
:10FA30001422017851430C18241DFFF7A5FB61889F
:10FA4000104E884211D2FFF79FFB61880D1AFFF715
:10FA50009BFB8208A188E068401821694019491978
:10FA6000FEF7CDFAFFF790FB07E0A288E068801868
:10FA70008A082169FEF7C3FA6088F06170BD000052
:10FA800050240020E01D002010B505480079000733
:10FA900003D4012000F012F810BD00F003F810BDEF
:10FAA000E01D002010B504480822416891434160E0
:10FAB000407800F003F810BDE01D002002494870B6
:10FAC0000249800008580047E01D00202C00020079
:10FAD00010B50446FFF77EFC022C01D0032C07D1A1
:10FAE0000448C178002903D00021C170FFF728FE27
:10FAF00010BD0000801D002010B5054800790007EA
:10FB000002D4FDF7CFFA10BDFFF7CCFF10BD000007
:10FB1000E01D0020FEB51F4C00252769E06802901B
:10FB20006846FEF7E3F90190FEF754FC064601989B
:10FB3000002822D000230098E16817E00E680A46EA
:10FB4000864202D9301A086012E0801BF3180026A2
:10FB50001660D668D169B446002E07D0FE1836026A
:10FB6000360A566066469660D56115460029E5D18D
:10FB70002846E160FEF78CFC06E02846FEF788FC8C
:10FB8000002801D1002E02D00298FDF70DFB0020C5
:10FB90002071FEBD181E00200120024900050860EA
:10FBA0007047000000E200E010B50E4BD968002954
:10FBB00006D002680C68A24204D8A21A0A60C16189
:10FBC000D86010BD0B4604E00B46C969121B002922
:10FBD00004D00C689442F7D3A41A0C600260C1618F
:10FBE000D86110BD181E0020F8B51D4DEC68002C22
:10FBF00034D01C48002740682969401A0602360A9A
:10FC00002068B04218D8361AC7192246107CE46919
:10FC100000280FD0002010746B69002B07D0916969
:10FC200050699847002805D0FCF7C8FB02E05169ED
:10FC300090698847002CE3D16978A878814206D181
:10FC4000401CC0B2A870022801D10020A87004494D
:10FC50000006800D18310F50FFF79EFFF8BD000021
:10FC6000181E00200015014010B50E4C2168606878
:10FC7000884210D014210C4A484381188B78002BFD
:10FC80000AD0105A083198DF002804D12079401C8E
:10FC90004007400F606010BD105A8988002296DF2F
:10FCA000F2E70000BC1D002074220020FF2107485D
:10FCB0001D31002242500648828A8168895C828A0E
:10FCC000521C82820348C16170470000002000403E
:10FCD00070250020002500401FB500216A461170E4
:10FCE0001072044882680192817506C86846904780
:10FCF0001FBD00007025002010B50178022901D039
:10FD0000012902D14068FCF759FB10BD10B50178FC
:10FD1000022901D0012902D14068FCF74FFB10BD38
:10FD20007CB50178284D01290AD002292FD000295D
:10FD30002CD129462548FCF753FB002833D036E068
:10FD40004068017821481038FCF767FB1F4C103CD5
:10FD5000002805D001216A4611700190684608E02C
:10FD6000A068E168081A012805D1002069460870DA
:10FD7000684669688847A068E168081AA1888842CF
:10FD800004D811480121801CFEF772FE7CBD0221BF
:10FD90006A461170C06801900B480121801CFEF773
:10FDA00067FE68460CE001210748FEF7E1FE0748C0
:10FDB0008168C0688842E9D10320694608706846B6
:10FDC000696888477CBD0000D81D002040240020C1
:10FDD000F0B5454D012185B049022846FEF769FF7F
:10FDE00001270026414C002824D0FF212531284638
:10FDF000FEF75AFF00281DD0FF2025302E5081200D
:10FE00003B4980008860A07E002800D16F600221FD
:10FE1000684601703749086808600390E17D6846CC
:10FE20000172E0680190E675267606CC6846083CCB
:10FE300090472BE004212846FEF73BFF002825D001
:10FE4000FF2109312846FEF72FFF00281ED0FFF7BB
:10FE50003FFCE07D617E884218D1207E002808D0DA
:10FE6000627EE168E0752069E0602676667610467D
:10FE70000AE0A07E002800D16F6081201C4980002C
:10FE80008860E675607EE168FFF73EFCFF211D316A
:10FE90002846FEF709FF00280DD0A18AA07D8142E7
:10FEA00002D2FFF703FF06E0FF211D316E5000284C
:10FEB00001D0FFF711FFFF2145312846FEF7F4FE80
:10FEC00000280ED0FF2045302E50A07E002800D004
:10FED0002F60E07D002804D0E675607EE168FFF7C2
:10FEE00013FC05B0F0BD000000200040702500208C
:10FEF00000230040802400400121814002484268E4
:10FF00008A43426070470000C81D002012494868BB
:10FF1000C005C00D19D0103840B2002807DA02071A
:10FF2000120F083A920892005118C96904E081083A
:10FF30000A4A8900891809688007C00EC14008066E
:10FF4000800F012803D0032803D00220704700202F
:10FF5000704701207047000000ED00E000E400E081
:10FF600042788378521CD2B2934200D100220378A7
:10FF7000934201D1002070470A70416840781822EE
:10FF80005043081870470000060018000000900158
:10FF90000B09080A0000000000509D00702100209D
:10FFA00090210020BC210020110000001200000060
:10FFB00013000000140000001100030071CA0100CA
:10FFC0001200030071CA01001300030071CA01008E
:10FFD0001400030071CA0100FFFFFFFF89E7010061
:10FFE00095E001001FE0010041E1010085E701000B
:10FFF00065E001001BE0010039E1010081E701003B
:020000040002F8
:1000000025E0010017E0010031E1010009000000D6
:100010000B0000000A0000000800000000000000C3
:100020000000000000509D0003000000D9F901000D
:10003000F9F9010055F901008DF9010065F9010098
:1000400089FA0100F9D20100A5D20100F9FA0100F4
:1000500099E10100090000000B0000000A00000007
:1000600008000000000000000000000000509D009B
:10007000030000008C250020030000000B09080A83
:100080000100000000509D00A8000200801D00201B
:10009000D8000000D4B9010080010200581E0020E1
:1000A00060100000E4B90100000200000000000040
:1000B0000000000000000000000000000000000040
:1000C0000000000000000000000000000000000030
:1000D000000000000024F400000000000000000008
:1000E0000000000000000000000000000000000010
:1000F0000000000000000000000000000000000000
:1001000000000000000000000000000000000000EF
:1001100000000000000000000000000000000000DF
:1001200000000000000000000000000000000000CF
:1001300000000000000000000000000000000000BF
:1001400000000000000000000000000000000000AF
:10015000000000000000000000000000000000009F
:10016000000000000000000000000000000000008F
:10017000000000000000000000000000000000007F
:040000050001B0C185
:00000001FF
